{"abi":[{"type":"constructor","inputs":[{"name":"_name","type":"string","internalType":"string"},{"name":"_symbol","type":"string","internalType":"string"},{"name":"baseURI","type":"string","internalType":"string"},{"name":"_nativeTokenAddress","type":"address","internalType":"address"},{"name":"_paymentRecipient","type":"address","internalType":"address"},{"name":"_revealTimestamp","type":"uint256","internalType":"uint256"}],"stateMutability":"nonpayable"},{"type":"function","name":"DEFAULT_ADMIN_ROLE","inputs":[],"outputs":[{"name":"","type":"bytes32","internalType":"bytes32"}],"stateMutability":"view"},{"type":"function","name":"MAX_MINTS_PER_PHASE","inputs":[],"outputs":[{"name":"","type":"uint256","internalType":"uint256"}],"stateMutability":"view"},{"type":"function","name":"MAX_SUPPLY","inputs":[],"outputs":[{"name":"","type":"uint256","internalType":"uint256"}],"stateMutability":"view"},{"type":"function","name":"MINTER_ROLE","inputs":[],"outputs":[{"name":"","type":"bytes32","internalType":"bytes32"}],"stateMutability":"view"},{"type":"function","name":"PAUSER_ROLE","inputs":[],"outputs":[{"name":"","type":"bytes32","internalType":"bytes32"}],"stateMutability":"view"},{"type":"function","name":"PHASE_1_DURATION","inputs":[],"outputs":[{"name":"","type":"uint256","internalType":"uint256"}],"stateMutability":"view"},{"type":"function","name":"PHASE_2_DURATION","inputs":[],"outputs":[{"name":"","type":"uint256","internalType":"uint256"}],"stateMutability":"view"},{"type":"function","name":"PHASE_3_DURATION","inputs":[],"outputs":[{"name":"","type":"uint256","internalType":"uint256"}],"stateMutability":"view"},{"type":"function","name":"approve","inputs":[{"name":"to","type":"address","internalType":"address"},{"name":"tokenId","type":"uint256","internalType":"uint256"}],"outputs":[],"stateMutability":"nonpayable"},{"type":"function","name":"availableTokens","inputs":[{"name":"","type":"uint256","internalType":"uint256"}],"outputs":[{"name":"","type":"bool","internalType":"bool"}],"stateMutability":"view"},{"type":"function","name":"balanceOf","inputs":[{"name":"owner","type":"address","internalType":"address"}],"outputs":[{"name":"","type":"uint256","internalType":"uint256"}],"stateMutability":"view"},{"type":"function","name":"batchMint","inputs":[{"name":"_uris","type":"string[]","internalType":"string[]"}],"outputs":[],"stateMutability":"nonpayable"},{"type":"function","name":"batchSetRevealUris","inputs":[{"name":"_uris","type":"string[]","internalType":"string[]"},{"name":"_tokenIds","type":"uint256[]","internalType":"uint256[]"}],"outputs":[],"stateMutability":"nonpayable"},{"type":"function","name":"bulkMint","inputs":[{"name":"recipients","type":"address[]","internalType":"address[]"}],"outputs":[{"name":"tokenIds","type":"uint256[]","internalType":"uint256[]"}],"stateMutability":"nonpayable"},{"type":"function","name":"bulkMintTeam","inputs":[{"name":"tokenIds","type":"uint256[]","internalType":"uint256[]"},{"name":"recipient","type":"address","internalType":"address"}],"outputs":[],"stateMutability":"nonpayable"},{"type":"function","name":"burn","inputs":[{"name":"tokenId","type":"uint256","internalType":"uint256"}],"outputs":[],"stateMutability":"nonpayable"},{"type":"function","name":"canReveal","inputs":[],"outputs":[{"name":"","type":"bool","internalType":"bool"}],"stateMutability":"view"},{"type":"function","name":"checkAndReveal","inputs":[],"outputs":[],"stateMutability":"nonpayable"},{"type":"function","name":"currentPhase","inputs":[],"outputs":[{"name":"","type":"uint8","internalType":"enum KttyWorldNFT.Phase"}],"stateMutability":"view"},{"type":"function","name":"getApproved","inputs":[{"name":"tokenId","type":"uint256","internalType":"uint256"}],"outputs":[{"name":"","type":"address","internalType":"address"}],"stateMutability":"view"},{"type":"function","name":"getCurrentPhase","inputs":[],"outputs":[{"name":"","type":"uint8","internalType":"enum KttyWorldNFT.Phase"}],"stateMutability":"view"},{"type":"function","name":"getRoleAdmin","inputs":[{"name":"role","type":"bytes32","internalType":"bytes32"}],"outputs":[{"name":"","type":"bytes32","internalType":"bytes32"}],"stateMutability":"view"},{"type":"function","name":"getRoleMember","inputs":[{"name":"role","type":"bytes32","internalType":"bytes32"},{"name":"index","type":"uint256","internalType":"uint256"}],"outputs":[{"name":"","type":"address","internalType":"address"}],"stateMutability":"view"},{"type":"function","name":"getRoleMemberCount","inputs":[{"name":"role","type":"bytes32","internalType":"bytes32"}],"outputs":[{"name":"","type":"uint256","internalType":"uint256"}],"stateMutability":"view"},{"type":"function","name":"getRoleMembers","inputs":[{"name":"role","type":"bytes32","internalType":"bytes32"}],"outputs":[{"name":"","type":"address[]","internalType":"address[]"}],"stateMutability":"view"},{"type":"function","name":"grantRole","inputs":[{"name":"role","type":"bytes32","internalType":"bytes32"},{"name":"account","type":"address","internalType":"address"}],"outputs":[],"stateMutability":"nonpayable"},{"type":"function","name":"hasRole","inputs":[{"name":"role","type":"bytes32","internalType":"bytes32"},{"name":"account","type":"address","internalType":"address"}],"outputs":[{"name":"","type":"bool","internalType":"bool"}],"stateMutability":"view"},{"type":"function","name":"isApprovedForAll","inputs":[{"name":"owner","type":"address","internalType":"address"},{"name":"operator","type":"address","internalType":"address"}],"outputs":[{"name":"","type":"bool","internalType":"bool"}],"stateMutability":"view"},{"type":"function","name":"isWhitelisted","inputs":[{"name":"merkleProof","type":"bytes32[]","internalType":"bytes32[]"},{"name":"_phase","type":"uint8","internalType":"enum KttyWorldNFT.Phase"}],"outputs":[{"name":"","type":"bool","internalType":"bool"}],"stateMutability":"view"},{"type":"function","name":"merkleRoots","inputs":[{"name":"","type":"uint8","internalType":"uint8"}],"outputs":[{"name":"","type":"bytes32","internalType":"bytes32"}],"stateMutability":"view"},{"type":"function","name":"mint","inputs":[{"name":"to","type":"address","internalType":"address"}],"outputs":[{"name":"_tokenId","type":"uint256","internalType":"uint256"}],"stateMutability":"nonpayable"},{"type":"function","name":"mintCountByPhase","inputs":[{"name":"","type":"uint8","internalType":"uint8"},{"name":"","type":"address","internalType":"address"}],"outputs":[{"name":"","type":"uint256","internalType":"uint256"}],"stateMutability":"view"},{"type":"function","name":"mintLaunchpad","inputs":[{"name":"to","type":"address","internalType":"address"},{"name":"quantity","type":"uint256","internalType":"uint256"},{"name":"","type":"bytes","internalType":"bytes"}],"outputs":[{"name":"tokenIds","type":"uint256[]","internalType":"uint256[]"},{"name":"amounts","type":"uint256[]","internalType":"uint256[]"}],"stateMutability":"nonpayable"},{"type":"function","name":"mintPresale","inputs":[{"name":"to","type":"address","internalType":"address"},{"name":"quantity","type":"uint256","internalType":"uint256"},{"name":"","type":"bytes","internalType":"bytes"}],"outputs":[{"name":"tokenIds","type":"uint256[]","internalType":"uint256[]"},{"name":"amounts","type":"uint256[]","internalType":"uint256[]"}],"stateMutability":"nonpayable"},{"type":"function","name":"mintWithRon","inputs":[{"name":"tokenIds","type":"uint256[]","internalType":"uint256[]"},{"name":"merkleProof","type":"bytes32[]","internalType":"bytes32[]"}],"outputs":[],"stateMutability":"payable"},{"type":"function","name":"mintWithRonAndNative","inputs":[{"name":"tokenIds","type":"uint256[]","internalType":"uint256[]"},{"name":"merkleProof","type":"bytes32[]","internalType":"bytes32[]"}],"outputs":[],"stateMutability":"payable"},{"type":"function","name":"name","inputs":[],"outputs":[{"name":"","type":"string","internalType":"string"}],"stateMutability":"view"},{"type":"function","name":"nativeTokenAddress","inputs":[],"outputs":[{"name":"","type":"address","internalType":"address"}],"stateMutability":"view"},{"type":"function","name":"nativeTokenAmount","inputs":[],"outputs":[{"name":"","type":"uint256","internalType":"uint256"}],"stateMutability":"view"},{"type":"function","name":"nonces","inputs":[{"name":"","type":"uint256","internalType":"uint256"}],"outputs":[{"name":"","type":"uint256","internalType":"uint256"}],"stateMutability":"view"},{"type":"function","name":"owner","inputs":[],"outputs":[{"name":"","type":"address","internalType":"address"}],"stateMutability":"view"},{"type":"function","name":"ownerOf","inputs":[{"name":"tokenId","type":"uint256","internalType":"uint256"}],"outputs":[{"name":"","type":"address","internalType":"address"}],"stateMutability":"view"},{"type":"function","name":"pause","inputs":[],"outputs":[],"stateMutability":"nonpayable"},{"type":"function","name":"paused","inputs":[],"outputs":[{"name":"","type":"bool","internalType":"bool"}],"stateMutability":"view"},{"type":"function","name":"paymentRecipient","inputs":[],"outputs":[{"name":"","type":"address","internalType":"address"}],"stateMutability":"view"},{"type":"function","name":"phaseStartTime","inputs":[],"outputs":[{"name":"","type":"uint256","internalType":"uint256"}],"stateMutability":"view"},{"type":"function","name":"renounceOwnership","inputs":[],"outputs":[],"stateMutability":"nonpayable"},{"type":"function","name":"renounceRole","inputs":[{"name":"role","type":"bytes32","internalType":"bytes32"},{"name":"callerConfirmation","type":"address","internalType":"address"}],"outputs":[],"stateMutability":"nonpayable"},{"type":"function","name":"reveal","inputs":[],"outputs":[],"stateMutability":"nonpayable"},{"type":"function","name":"revealTimestamp","inputs":[],"outputs":[{"name":"","type":"uint256","internalType":"uint256"}],"stateMutability":"view"},{"type":"function","name":"revealed","inputs":[],"outputs":[{"name":"","type":"bool","internalType":"bool"}],"stateMutability":"view"},{"type":"function","name":"revokeRole","inputs":[{"name":"role","type":"bytes32","internalType":"bytes32"},{"name":"account","type":"address","internalType":"address"}],"outputs":[],"stateMutability":"nonpayable"},{"type":"function","name":"ronAndNativePrice","inputs":[],"outputs":[{"name":"","type":"uint256","internalType":"uint256"}],"stateMutability":"view"},{"type":"function","name":"ronTokenPrice","inputs":[],"outputs":[{"name":"","type":"uint256","internalType":"uint256"}],"stateMutability":"view"},{"type":"function","name":"safeTransferFrom","inputs":[{"name":"from","type":"address","internalType":"address"},{"name":"to","type":"address","internalType":"address"},{"name":"tokenId","type":"uint256","internalType":"uint256"}],"outputs":[],"stateMutability":"nonpayable"},{"type":"function","name":"safeTransferFrom","inputs":[{"name":"from","type":"address","internalType":"address"},{"name":"to","type":"address","internalType":"address"},{"name":"tokenId","type":"uint256","internalType":"uint256"},{"name":"data","type":"bytes","internalType":"bytes"}],"outputs":[],"stateMutability":"nonpayable"},{"type":"function","name":"setApprovalForAll","inputs":[{"name":"operator","type":"address","internalType":"address"},{"name":"approved","type":"bool","internalType":"bool"}],"outputs":[],"stateMutability":"nonpayable"},{"type":"function","name":"setBaseURI","inputs":[{"name":"baseTokenURI","type":"string","internalType":"string"}],"outputs":[],"stateMutability":"nonpayable"},{"type":"function","name":"setMerkleRoot","inputs":[{"name":"phase","type":"uint8","internalType":"uint8"},{"name":"root","type":"bytes32","internalType":"bytes32"}],"outputs":[],"stateMutability":"nonpayable"},{"type":"function","name":"setNativeTokenAddress","inputs":[{"name":"_nativeTokenAddress","type":"address","internalType":"address"}],"outputs":[],"stateMutability":"nonpayable"},{"type":"function","name":"setNativeTokenAmount","inputs":[{"name":"amount","type":"uint256","internalType":"uint256"}],"outputs":[],"stateMutability":"nonpayable"},{"type":"function","name":"setPaymentRecipient","inputs":[{"name":"_paymentRecipient","type":"address","internalType":"address"}],"outputs":[],"stateMutability":"nonpayable"},{"type":"function","name":"setRevealTimestamp","inputs":[{"name":"_revealTimestamp","type":"uint256","internalType":"uint256"}],"outputs":[],"stateMutability":"nonpayable"},{"type":"function","name":"setRonAndNativePrice","inputs":[{"name":"amount","type":"uint256","internalType":"uint256"}],"outputs":[],"stateMutability":"nonpayable"},{"type":"function","name":"setRonPrice","inputs":[{"name":"amount","type":"uint256","internalType":"uint256"}],"outputs":[],"stateMutability":"nonpayable"},{"type":"function","name":"startPhase","inputs":[{"name":"_phase","type":"uint8","internalType":"enum KttyWorldNFT.Phase"}],"outputs":[],"stateMutability":"nonpayable"},{"type":"function","name":"stateOf","inputs":[{"name":"tokenId","type":"uint256","internalType":"uint256"}],"outputs":[{"name":"","type":"bytes","internalType":"bytes"}],"stateMutability":"view"},{"type":"function","name":"supportsInterface","inputs":[{"name":"interfaceId","type":"bytes4","internalType":"bytes4"}],"outputs":[{"name":"","type":"bool","internalType":"bool"}],"stateMutability":"view"},{"type":"function","name":"symbol","inputs":[],"outputs":[{"name":"","type":"string","internalType":"string"}],"stateMutability":"view"},{"type":"function","name":"tokenByIndex","inputs":[{"name":"index","type":"uint256","internalType":"uint256"}],"outputs":[{"name":"","type":"uint256","internalType":"uint256"}],"stateMutability":"view"},{"type":"function","name":"tokenOfOwnerByIndex","inputs":[{"name":"owner","type":"address","internalType":"address"},{"name":"index","type":"uint256","internalType":"uint256"}],"outputs":[{"name":"","type":"uint256","internalType":"uint256"}],"stateMutability":"view"},{"type":"function","name":"tokenURI","inputs":[{"name":"tokenId","type":"uint256","internalType":"uint256"}],"outputs":[{"name":"","type":"string","internalType":"string"}],"stateMutability":"view"},{"type":"function","name":"totalSupply","inputs":[],"outputs":[{"name":"","type":"uint256","internalType":"uint256"}],"stateMutability":"view"},{"type":"function","name":"transferFrom","inputs":[{"name":"from","type":"address","internalType":"address"},{"name":"to","type":"address","internalType":"address"},{"name":"tokenId","type":"uint256","internalType":"uint256"}],"outputs":[],"stateMutability":"nonpayable"},{"type":"function","name":"transferOwnership","inputs":[{"name":"newOwner","type":"address","internalType":"address"}],"outputs":[],"stateMutability":"nonpayable"},{"type":"function","name":"unpause","inputs":[],"outputs":[],"stateMutability":"nonpayable"},{"type":"event","name":"Approval","inputs":[{"name":"owner","type":"address","indexed":true,"internalType":"address"},{"name":"approved","type":"address","indexed":true,"internalType":"address"},{"name":"tokenId","type":"uint256","indexed":true,"internalType":"uint256"}],"anonymous":false},{"type":"event","name":"ApprovalForAll","inputs":[{"name":"owner","type":"address","indexed":true,"internalType":"address"},{"name":"operator","type":"address","indexed":true,"internalType":"address"},{"name":"approved","type":"bool","indexed":false,"internalType":"bool"}],"anonymous":false},{"type":"event","name":"BatchMetadataUpdate","inputs":[{"name":"_fromTokenId","type":"uint256","indexed":false,"internalType":"uint256"},{"name":"_toTokenId","type":"uint256","indexed":false,"internalType":"uint256"}],"anonymous":false},{"type":"event","name":"MerkleRootUpdated","inputs":[{"name":"phase","type":"uint8","indexed":false,"internalType":"uint8"},{"name":"merkleRoot","type":"bytes32","indexed":false,"internalType":"bytes32"}],"anonymous":false},{"type":"event","name":"MetadataUpdate","inputs":[{"name":"_tokenId","type":"uint256","indexed":false,"internalType":"uint256"}],"anonymous":false},{"type":"event","name":"NFTMinted","inputs":[{"name":"recipient","type":"address","indexed":true,"internalType":"address"},{"name":"tokenId","type":"uint256","indexed":false,"internalType":"uint256"}],"anonymous":false},{"type":"event","name":"NFTsMinted","inputs":[{"name":"recipient","type":"address","indexed":true,"internalType":"address"},{"name":"tokenIds","type":"uint256[]","indexed":false,"internalType":"uint256[]"}],"anonymous":false},{"type":"event","name":"NonceUpdated","inputs":[{"name":"_tokenId","type":"uint256","indexed":true,"internalType":"uint256"},{"name":"_nonce","type":"uint256","indexed":true,"internalType":"uint256"}],"anonymous":false},{"type":"event","name":"OwnershipTransferred","inputs":[{"name":"previousOwner","type":"address","indexed":true,"internalType":"address"},{"name":"newOwner","type":"address","indexed":true,"internalType":"address"}],"anonymous":false},{"type":"event","name":"Paused","inputs":[{"name":"account","type":"address","indexed":false,"internalType":"address"}],"anonymous":false},{"type":"event","name":"PhaseStarted","inputs":[{"name":"phase","type":"uint8","indexed":false,"internalType":"enum KttyWorldNFT.Phase"},{"name":"timestamp","type":"uint256","indexed":false,"internalType":"uint256"}],"anonymous":false},{"type":"event","name":"PriceUpdated","inputs":[{"name":"tokenType","type":"string","indexed":false,"internalType":"string"},{"name":"newPrice","type":"uint256","indexed":false,"internalType":"uint256"}],"anonymous":false},{"type":"event","name":"RevealMetadataUpdate","inputs":[{"name":"tokenId","type":"uint256","indexed":false,"internalType":"uint256"}],"anonymous":false},{"type":"event","name":"RevealTimestampSet","inputs":[{"name":"timestamp","type":"uint256","indexed":false,"internalType":"uint256"}],"anonymous":false},{"type":"event","name":"Revealed","inputs":[],"anonymous":false},{"type":"event","name":"RoleAdminChanged","inputs":[{"name":"role","type":"bytes32","indexed":true,"internalType":"bytes32"},{"name":"previousAdminRole","type":"bytes32","indexed":true,"internalType":"bytes32"},{"name":"newAdminRole","type":"bytes32","indexed":true,"internalType":"bytes32"}],"anonymous":false},{"type":"event","name":"RoleGranted","inputs":[{"name":"role","type":"bytes32","indexed":true,"internalType":"bytes32"},{"name":"account","type":"address","indexed":true,"internalType":"address"},{"name":"sender","type":"address","indexed":true,"internalType":"address"}],"anonymous":false},{"type":"event","name":"RoleRevoked","inputs":[{"name":"role","type":"bytes32","indexed":true,"internalType":"bytes32"},{"name":"account","type":"address","indexed":true,"internalType":"address"},{"name":"sender","type":"address","indexed":true,"internalType":"address"}],"anonymous":false},{"type":"event","name":"Transfer","inputs":[{"name":"from","type":"address","indexed":true,"internalType":"address"},{"name":"to","type":"address","indexed":true,"internalType":"address"},{"name":"tokenId","type":"uint256","indexed":true,"internalType":"uint256"}],"anonymous":false},{"type":"event","name":"Unpaused","inputs":[{"name":"account","type":"address","indexed":false,"internalType":"address"}],"anonymous":false},{"type":"error","name":"AccessControlBadConfirmation","inputs":[]},{"type":"error","name":"AccessControlUnauthorizedAccount","inputs":[{"name":"account","type":"address","internalType":"address"},{"name":"neededRole","type":"bytes32","internalType":"bytes32"}]},{"type":"error","name":"ERC721AlreadyOwned","inputs":[{"name":"tokenId","type":"uint256","internalType":"uint256"}]},{"type":"error","name":"ERC721EnumerableForbiddenBatchMint","inputs":[]},{"type":"error","name":"ERC721IncorrectOwner","inputs":[{"name":"sender","type":"address","internalType":"address"},{"name":"tokenId","type":"uint256","internalType":"uint256"},{"name":"owner","type":"address","internalType":"address"}]},{"type":"error","name":"ERC721InsufficientApproval","inputs":[{"name":"operator","type":"address","internalType":"address"},{"name":"tokenId","type":"uint256","internalType":"uint256"}]},{"type":"error","name":"ERC721InvalidApprover","inputs":[{"name":"approver","type":"address","internalType":"address"}]},{"type":"error","name":"ERC721InvalidOperator","inputs":[{"name":"operator","type":"address","internalType":"address"}]},{"type":"error","name":"ERC721InvalidOwner","inputs":[{"name":"owner","type":"address","internalType":"address"}]},{"type":"error","name":"ERC721InvalidReceiver","inputs":[{"name":"receiver","type":"address","internalType":"address"}]},{"type":"error","name":"ERC721InvalidSender","inputs":[{"name":"sender","type":"address","internalType":"address"}]},{"type":"error","name":"ERC721NonexistentToken","inputs":[{"name":"tokenId","type":"uint256","internalType":"uint256"}]},{"type":"error","name":"ERC721OutOfBoundsIndex","inputs":[{"name":"owner","type":"address","internalType":"address"},{"name":"index","type":"uint256","internalType":"uint256"}]},{"type":"error","name":"EnforcedPause","inputs":[]},{"type":"error","name":"ExpectedPause","inputs":[]},{"type":"error","name":"OwnableInvalidOwner","inputs":[{"name":"owner","type":"address","internalType":"address"}]},{"type":"error","name":"OwnableUnauthorizedAccount","inputs":[{"name":"account","type":"address","internalType":"address"}]},{"type":"error","name":"ReentrancyGuardReentrantCall","inputs":[]}],"bytecode":{"object":"0x60806040525f604860016101000a81548160ff021916908360048111156200002c576200002b620009a8565b5b021790555067016345785d8a0000604b5567016345785d8a0000604c556907695a92c20d6fe00000604d5534801562000063575f80fd5b5060405162008fed38038062008fed833981810160405281019062000089919062000bf3565b33868686838383838282828282823383838160029081620000ab919062000f16565b508060039081620000bd919062000f16565b5050505f73ffffffffffffffffffffffffffffffffffffffff168173ffffffffffffffffffffffffffffffffffffffff160362000133575f6040517f1e4fbdf70000000000000000000000000000000000000000000000000000000081526004016200012a91906200100b565b60405180910390fd5b6200014481620003e260201b60201c565b506001600a819055505f60425f6101000a81548160ff021916908315150217905550806044908162000177919062000f16565b506200019b5f801b6200018f620004a560201b60201c565b620004ac60201b60201c565b50620001dd7f9f2df0fed2c77648de5860a4cc508cd0818c85b8b8a1ab4ceeef8d981c8956a6620001d1620004a560201b60201c565b620004ac60201b60201c565b506200021f7f65d7a28e3265b37a6474929f336521b332c1681b933f6cb9f3376673440d862a62000213620004a560201b60201c565b620004ac60201b60201c565b5060435f8154620002309062001053565b919050819055505050505050505f6200024e620004a560201b60201c565b9050620002827f9f2df0fed2c77648de5860a4cc508cd0818c85b8b8a1ab4ceeef8d981c8956a682620004fa60201b60201c565b50620002b57f65d7a28e3265b37a6474929f336521b332c1681b933f6cb9f3376673440d862a82620004fa60201b60201c565b50620002ca5f801b82620004fa60201b60201c565b50620002fd7f9f2df0fed2c77648de5860a4cc508cd0818c85b8b8a1ab4ceeef8d981c8956a686620004ac60201b60201c565b50620003307f65d7a28e3265b37a6474929f336521b332c1681b933f6cb9f3376673440d862a86620004ac60201b60201c565b50620003455f801b86620004ac60201b60201c565b505050505050505050508260455f6101000a81548173ffffffffffffffffffffffffffffffffffffffff021916908373ffffffffffffffffffffffffffffffffffffffff1602179055508160465f6101000a81548173ffffffffffffffffffffffffffffffffffffffff021916908373ffffffffffffffffffffffffffffffffffffffff1602179055508060478190555050505050505062001133565b5f60095f9054906101000a900473ffffffffffffffffffffffffffffffffffffffff1690508160095f6101000a81548173ffffffffffffffffffffffffffffffffffffffff021916908373ffffffffffffffffffffffffffffffffffffffff1602179055508173ffffffffffffffffffffffffffffffffffffffff168173ffffffffffffffffffffffffffffffffffffffff167f8be0079c531659141344cd1fd0a4f28419497f9722a3daafe3b4186f6b6457e060405160405180910390a35050565b5f33905090565b5f80620004c084846200054860201b60201c565b90508015620004f057620004ee8360015f8781526020019081526020015f206200064360201b90919060201c565b505b8091505092915050565b5f806200050e84846200067860201b60201c565b905080156200053e576200053c8360015f8781526020019081526020015f206200077360201b90919060201c565b505b8091505092915050565b5f6200055b8383620007a860201b60201c565b620006395760015f808581526020019081526020015f205f015f8473ffffffffffffffffffffffffffffffffffffffff1673ffffffffffffffffffffffffffffffffffffffff1681526020019081526020015f205f6101000a81548160ff021916908315150217905550620005d5620004a560201b60201c565b73ffffffffffffffffffffffffffffffffffffffff168273ffffffffffffffffffffffffffffffffffffffff16847f2f8788117e7eff1d82e926ec794901d17c78024a50270940304540a733656f0d60405160405180910390a4600190506200063d565b5f90505b92915050565b5f62000670835f018373ffffffffffffffffffffffffffffffffffffffff165f1b6200080b60201b60201c565b905092915050565b5f6200068b8383620007a860201b60201c565b1562000769575f805f8581526020019081526020015f205f015f8473ffffffffffffffffffffffffffffffffffffffff1673ffffffffffffffffffffffffffffffffffffffff1681526020019081526020015f205f6101000a81548160ff02191690831515021790555062000705620004a560201b60201c565b73ffffffffffffffffffffffffffffffffffffffff168273ffffffffffffffffffffffffffffffffffffffff16847ff6391f5c32d9c69d2a47ea670b442974b53935d1edc7fd64eb21e047a839171b60405160405180910390a4600190506200076d565b5f90505b92915050565b5f620007a0835f018373ffffffffffffffffffffffffffffffffffffffff165f1b6200087c60201b60201c565b905092915050565b5f805f8481526020019081526020015f205f015f8373ffffffffffffffffffffffffffffffffffffffff1673ffffffffffffffffffffffffffffffffffffffff1681526020019081526020015f205f9054906101000a900460ff16905092915050565b5f6200081e83836200098860201b60201c565b6200087257825f0182908060018154018082558091505060019003905f5260205f20015f9091909190915055825f0180549050836001015f8481526020019081526020015f20819055506001905062000876565b5f90505b92915050565b5f80836001015f8481526020019081526020015f205490505f81146200097d575f600182620008ac91906200109f565b90505f6001865f0180549050620008c491906200109f565b905080821462000931575f865f018281548110620008e757620008e6620010d9565b5b905f5260205f200154905080875f0184815481106200090b576200090a620010d9565b5b905f5260205f20018190555083876001015f8381526020019081526020015f2081905550505b855f0180548062000947576200094662001106565b5b600190038181905f5260205f20015f90559055856001015f8681526020019081526020015f205f90556001935050505062000982565b5f9150505b92915050565b5f80836001015f8481526020019081526020015f20541415905092915050565b7f4e487b71000000000000000000000000000000000000000000000000000000005f52602160045260245ffd5b5f604051905090565b5f80fd5b5f80fd5b5f80fd5b5f80fd5b5f601f19601f8301169050919050565b7f4e487b71000000000000000000000000000000000000000000000000000000005f52604160045260245ffd5b62000a3682620009ee565b810181811067ffffffffffffffff8211171562000a585762000a57620009fe565b5b80604052505050565b5f62000a6c620009d5565b905062000a7a828262000a2b565b919050565b5f67ffffffffffffffff82111562000a9c5762000a9b620009fe565b5b62000aa782620009ee565b9050602081019050919050565b5f5b8381101562000ad357808201518184015260208101905062000ab6565b5f8484015250505050565b5f62000af462000aee8462000a7f565b62000a61565b90508281526020810184848401111562000b135762000b12620009ea565b5b62000b2084828562000ab4565b509392505050565b5f82601f83011262000b3f5762000b3e620009e6565b5b815162000b5184826020860162000ade565b91505092915050565b5f73ffffffffffffffffffffffffffffffffffffffff82169050919050565b5f62000b858262000b5a565b9050919050565b62000b978162000b79565b811462000ba2575f80fd5b50565b5f8151905062000bb58162000b8c565b92915050565b5f819050919050565b62000bcf8162000bbb565b811462000bda575f80fd5b50565b5f8151905062000bed8162000bc4565b92915050565b5f805f805f8060c0878903121562000c105762000c0f620009de565b5b5f87015167ffffffffffffffff81111562000c305762000c2f620009e2565b5b62000c3e89828a0162000b28565b965050602087015167ffffffffffffffff81111562000c625762000c61620009e2565b5b62000c7089828a0162000b28565b955050604087015167ffffffffffffffff81111562000c945762000c93620009e2565b5b62000ca289828a0162000b28565b945050606062000cb589828a0162000ba5565b935050608062000cc889828a0162000ba5565b92505060a062000cdb89828a0162000bdd565b9150509295509295509295565b5f81519050919050565b7f4e487b71000000000000000000000000000000000000000000000000000000005f52602260045260245ffd5b5f600282049050600182168062000d3757607f821691505b60208210810362000d4d5762000d4c62000cf2565b5b50919050565b5f819050815f5260205f209050919050565b5f6020601f8301049050919050565b5f82821b905092915050565b5f6008830262000db17fffffffffffffffffffffffffffffffffffffffffffffffffffffffffffffffff8262000d74565b62000dbd868362000d74565b95508019841693508086168417925050509392505050565b5f819050919050565b5f62000dfe62000df862000df28462000bbb565b62000dd5565b62000bbb565b9050919050565b5f819050919050565b62000e198362000dde565b62000e3162000e288262000e05565b84845462000d80565b825550505050565b5f90565b62000e4762000e39565b62000e5481848462000e0e565b505050565b5b8181101562000e7b5762000e6f5f8262000e3d565b60018101905062000e5a565b5050565b601f82111562000eca5762000e948162000d53565b62000e9f8462000d65565b8101602085101562000eaf578190505b62000ec762000ebe8562000d65565b83018262000e59565b50505b505050565b5f82821c905092915050565b5f62000eec5f198460080262000ecf565b1980831691505092915050565b5f62000f06838362000edb565b9150826002028217905092915050565b62000f218262000ce8565b67ffffffffffffffff81111562000f3d5762000f3c620009fe565b5b62000f49825462000d1f565b62000f5682828562000e7f565b5f60209050601f83116001811462000f8c575f841562000f77578287015190505b62000f83858262000ef9565b86555062000ff2565b601f19841662000f9c8662000d53565b5f5b8281101562000fc55784890151825560018201915060208501945060208101905062000f9e565b8683101562000fe5578489015162000fe1601f89168262000edb565b8355505b6001600288020188555050505b505050505050565b620010058162000b79565b82525050565b5f602082019050620010205f83018462000ffa565b92915050565b7f4e487b71000000000000000000000000000000000000000000000000000000005f52601160045260245ffd5b5f6200105f8262000bbb565b91507fffffffffffffffffffffffffffffffffffffffffffffffffffffffffffffffff820362001094576200109362001026565b5b600182019050919050565b5f620010ab8262000bbb565b9150620010b88362000bbb565b9250828203905081811115620010d357620010d262001026565b5b92915050565b7f4e487b71000000000000000000000000000000000000000000000000000000005f52603260045260245ffd5b7f4e487b71000000000000000000000000000000000000000000000000000000005f52603160045260245ffd5b617eac80620011415f395ff3fe608060405260043610610446575f3560e01c80635df1bfe511610233578063a475b5dd1161012d578063d547741f116100b5578063e82368ab11610079578063e82368ab146110d6578063e985e9c5146110fe578063f2fde38b1461113a578063f62f3c1114611162578063fbf2f6831461118c57610446565b8063d547741f14610ff7578063d91080bc1461101f578063e2c9ee891461105c578063e3d9883314611084578063e63ab1e9146110ac57610446565b8063b88d4fde116100fc578063b88d4fde14610ef1578063bbf87ad714610f19578063c87b56dd14610f55578063ca15c87314610f91578063d539139314610fcd57610446565b8063a475b5dd14610e39578063a977bcd614610e4f578063a984261014610e8b578063ad64d06814610eb557610446565b80638da5cb5b116101bb578063a1612e791161017f578063a1612e7914610d44578063a217fddf14610d81578063a22cb46514610dab578063a3246ad314610dd3578063a3a40ea514610e0f57610446565b80638da5cb5b14610c4e5780639010d07c14610c7857806391d1485414610cb4578063938ece8914610cf057806395d89b4114610d1a57610446565b80636839c1bd116102025780636839c1bd14610b805780636a62784214610baa57806370a0823114610be6578063715018a614610c225780638456cb5914610c3857610446565b80635df1bfe514610adc5780635e0a8a8814610af25780636066b30514610b1c5780636352211e14610b4457610446565b80632f745c591161034457806346515c72116102cc57806354d77e0e1161029057806354d77e0e14610a105780635539aa8614610a3857806355f804b314610a625780635bcdf20714610a8a5780635c975abb14610ab257610446565b806346515c72146109485780634c3e041b146109645780634d0047ee146109805780634f6ccce7146109aa57806351830227146109e657610446565b80633884a455116103135780633884a4551461087c5780633f4ba83a146108a657806341e5fb40146108bc57806342842e0e146108f857806342966c681461092057610446565b80632f745c59146107b257806332cb6b0c146107ee57806336568abe146108185780633771aaa11461084057610446565b806313c6c4fd116103d2578063248a9ca311610396578063248a9ca3146106d45780632983c4b814610710578063298a0353146107385780632b1eaf29146107605780632f2ff15d1461078a57610446565b806313c6c4fd146105f6578063141a468c1461061e57806318160ddd1461065a5780631c9ed3811461068457806323b872dd146106ac57610446565b8063081812fc11610419578063081812fc14610502578063095ea7b31461053e5780630f3bfbdc1461056657806312f3d0c214610590578063131a7e24146105ba57610446565b8063018a2c371461044a57806301ffc9a714610472578063055ad42e146104ae57806306fdde03146104d8575b5f80fd5b348015610455575f80fd5b50610470600480360381019061046b9190615bb2565b6111b6565b005b34801561047d575f80fd5b5061049860048036038101906104939190615c32565b6111ff565b6040516104a59190615c77565b60405180910390f35b3480156104b9575f80fd5b506104c2611220565b6040516104cf9190615d03565b60405180910390f35b3480156104e3575f80fd5b506104ec611233565b6040516104f99190615da6565b60405180910390f35b34801561050d575f80fd5b5061052860048036038101906105239190615bb2565b6112c3565b6040516105359190615e05565b60405180910390f35b348015610549575f80fd5b50610564600480360381019061055f9190615e48565b6112de565b005b348015610571575f80fd5b5061057a6112f4565b6040516105879190615e95565b60405180910390f35b34801561059b575f80fd5b506105a46112fa565b6040516105b19190615e95565b60405180910390f35b3480156105c5575f80fd5b506105e060048036038101906105db9190615bb2565b611300565b6040516105ed9190615f00565b60405180910390f35b348015610601575f80fd5b5061061c60048036038101906106179190615bb2565b611346565b005b348015610629575f80fd5b50610644600480360381019061063f9190615bb2565b611358565b6040516106519190615e95565b60405180910390f35b348015610665575f80fd5b5061066e61136d565b60405161067b9190615e95565b60405180910390f35b34801561068f575f80fd5b506106aa60048036038101906106a59190615f43565b611379565b005b3480156106b7575f80fd5b506106d260048036038101906106cd9190615f6e565b6113ee565b005b3480156106df575f80fd5b506106fa60048036038101906106f59190615ff1565b6114ed565b604051610707919061602b565b60405180910390f35b34801561071b575f80fd5b5061073660048036038101906107319190616044565b611509565b005b348015610743575f80fd5b5061075e600480360381019061075991906160d0565b611554565b005b34801561076b575f80fd5b50610774611637565b6040516107819190615e05565b60405180910390f35b348015610795575f80fd5b506107b060048036038101906107ab919061612d565b61165c565b005b3480156107bd575f80fd5b506107d860048036038101906107d39190615e48565b61167e565b6040516107e59190615e95565b60405180910390f35b3480156107f9575f80fd5b50610802611722565b60405161080f9190615e95565b60405180910390f35b348015610823575f80fd5b5061083e6004803603810190610839919061612d565b611728565b005b34801561084b575f80fd5b50610866600480360381019061086191906161c0565b6117a3565b60405161087391906162c2565b60405180910390f35b348015610887575f80fd5b506108906118d9565b60405161089d9190615e95565b60405180910390f35b3480156108b1575f80fd5b506108ba6118df565b005b3480156108c7575f80fd5b506108e260048036038101906108dd9190616318565b611959565b6040516108ef919061602b565b60405180910390f35b348015610903575f80fd5b5061091e60048036038101906109199190615f6e565b61196e565b005b34801561092b575f80fd5b5061094660048036038101906109419190615bb2565b61198d565b005b610962600480360381019061095d9190616398565b6119a3565b005b61097e60048036038101906109799190616398565b61205f565b005b34801561098b575f80fd5b5061099461254a565b6040516109a19190615e05565b60405180910390f35b3480156109b5575f80fd5b506109d060048036038101906109cb9190615bb2565b61256f565b6040516109dd9190615e95565b60405180910390f35b3480156109f1575f80fd5b506109fa6125e1565b604051610a079190615c77565b60405180910390f35b348015610a1b575f80fd5b50610a366004803603810190610a319190616416565b6125f3565b005b348015610a43575f80fd5b50610a4c6126ab565b604051610a599190615e95565b60405180910390f35b348015610a6d575f80fd5b50610a886004803603810190610a83919061657c565b6126b1565b005b348015610a95575f80fd5b50610ab06004803603810190610aab9190616618565b6126d1565b005b348015610abd575f80fd5b50610ac66127bd565b604051610ad39190615c77565b60405180910390f35b348015610ae7575f80fd5b50610af06127d2565b005b348015610afd575f80fd5b50610b06612840565b604051610b139190615e95565b60405180910390f35b348015610b27575f80fd5b50610b426004803603810190610b3d9190616663565b612845565b005b348015610b4f575f80fd5b50610b6a6004803603810190610b659190615bb2565b612952565b604051610b779190615e05565b60405180910390f35b348015610b8b575f80fd5b50610b94612963565b604051610ba19190615e95565b60405180910390f35b348015610bb5575f80fd5b50610bd06004803603810190610bcb9190616044565b612969565b604051610bdd9190615e95565b60405180910390f35b348015610bf1575f80fd5b50610c0c6004803603810190610c079190616044565b6129ea565b604051610c199190615e95565b60405180910390f35b348015610c2d575f80fd5b50610c36612aa0565b005b348015610c43575f80fd5b50610c4c612ab3565b005b348015610c59575f80fd5b50610c62612b2d565b604051610c6f9190615e05565b60405180910390f35b348015610c83575f80fd5b50610c9e6004803603810190610c9991906166e1565b612b55565b604051610cab9190615e05565b60405180910390f35b348015610cbf575f80fd5b50610cda6004803603810190610cd5919061612d565b612b81565b604051610ce79190615c77565b60405180910390f35b348015610cfb575f80fd5b50610d04612be4565b604051610d119190615e95565b60405180910390f35b348015610d25575f80fd5b50610d2e612bea565b604051610d3b9190615da6565b60405180910390f35b348015610d4f575f80fd5b50610d6a6004803603810190610d659190616774565b612c7a565b604051610d789291906167e5565b60405180910390f35b348015610d8c575f80fd5b50610d95612cbf565b604051610da2919061602b565b60405180910390f35b348015610db6575f80fd5b50610dd16004803603810190610dcc9190616844565b612cc5565b005b348015610dde575f80fd5b50610df96004803603810190610df49190615ff1565b612cdb565b604051610e069190616939565b60405180910390f35b348015610e1a575f80fd5b50610e23612cfd565b604051610e309190615d03565b60405180910390f35b348015610e44575f80fd5b50610e4d612ea2565b005b348015610e5a575f80fd5b50610e756004803603810190610e709190616959565b612ef2565b604051610e829190615e95565b60405180910390f35b348015610e96575f80fd5b50610e9f612f12565b604051610eac9190615c77565b60405180910390f35b348015610ec0575f80fd5b50610edb6004803603810190610ed69190615bb2565b612f1e565b604051610ee89190615c77565b60405180910390f35b348015610efc575f80fd5b50610f176004803603810190610f129190616a35565b612f3b565b005b348015610f24575f80fd5b50610f3f6004803603810190610f3a9190616ab5565b612f60565b604051610f4c9190615c77565b60405180910390f35b348015610f60575f80fd5b50610f7b6004803603810190610f769190615bb2565b6130cd565b604051610f889190615da6565b60405180910390f35b348015610f9c575f80fd5b50610fb76004803603810190610fb29190615ff1565b613282565b604051610fc49190615e95565b60405180910390f35b348015610fd8575f80fd5b50610fe16132a3565b604051610fee919061602b565b60405180910390f35b348015611002575f80fd5b5061101d6004803603810190611018919061612d565b6132c7565b005b34801561102a575f80fd5b5061104560048036038101906110409190616774565b6132e9565b6040516110539291906167e5565b60405180910390f35b348015611067575f80fd5b50611082600480360381019061107d9190615bb2565b61332e565b005b34801561108f575f80fd5b506110aa60048036038101906110a59190615bb2565b613340565b005b3480156110b7575f80fd5b506110c0613352565b6040516110cd919061602b565b60405180910390f35b3480156110e1575f80fd5b506110fc60048036038101906110f79190616044565b613376565b005b348015611109575f80fd5b50611124600480360381019061111f9190616b12565b6133c1565b6040516111319190615c77565b60405180910390f35b348015611145575f80fd5b50611160600480360381019061115b9190616044565b61344f565b005b34801561116d575f80fd5b506111766134d3565b6040516111839190615e95565b60405180910390f35b348015611197575f80fd5b506111a06134d9565b6040516111ad9190615e95565b60405180910390f35b6111be6134df565b806047819055507f3587370e92498b996ffb077cfba4488e24ad3924be64e734c2a463eb2171153c816040516111f49190615e95565b60405180910390a150565b5f61120982613566565b80611219575061121882613597565b5b9050919050565b604860019054906101000a900460ff1681565b60606002805461124290616b7d565b80601f016020809104026020016040519081016040528092919081815260200182805461126e90616b7d565b80156112b95780601f10611290576101008083540402835291602001916112b9565b820191905f5260205f20905b81548152906001019060200180831161129c57829003601f168201915b5050505050905090565b5f6112cd826135f7565b506112d78261367d565b9050919050565b6112f082826112eb6136b6565b6136bd565b5050565b604c5481565b60495481565b606061130b82612952565b600b5f8481526020019081526020015f20548360405160200161133093929190616c12565b6040516020818303038152906040529050919050565b61134e6134df565b80604d8190555050565b600b602052805f5260405f205f915090505481565b5f604080549050905090565b6113816134df565b80604860016101000a81548160ff021916908360048111156113a6576113a5615c90565b5b0217905550426049819055507f07ae9ff1ff5922feb7221008b80a606dce2b123504acb459285fc38250e0639781426040516113e3929190616c4e565b60405180910390a150565b5f73ffffffffffffffffffffffffffffffffffffffff168273ffffffffffffffffffffffffffffffffffffffff160361145e575f6040517f64a0ae920000000000000000000000000000000000000000000000000000000081526004016114559190615e05565b60405180910390fd5b5f611471838361146c6136b6565b6136cf565b90508373ffffffffffffffffffffffffffffffffffffffff168173ffffffffffffffffffffffffffffffffffffffff16146114e7578382826040517f64283d7b0000000000000000000000000000000000000000000000000000000081526004016114de93929190616c75565b60405180910390fd5b50505050565b5f805f8381526020019081526020015f20600101549050919050565b6115116134df565b8060465f6101000a81548173ffffffffffffffffffffffffffffffffffffffff021916908373ffffffffffffffffffffffffffffffffffffffff16021790555050565b61155c6134df565b6115646136e4565b5f5b838390508110156115d9575f84848381811061158557611584616caa565b5b9050602002013590506115978161372a565b505f60515f8381526020019081526020015f205f6101000a81548160ff0219169083151502179055506115cb3084836137b0565b818060010192505050611566565b508073ffffffffffffffffffffffffffffffffffffffff167f9792ee0b82e5e4e40739f4357c26e1d21b23c53095dc7df687b6f2fb901e6a288484604051611622929190616d3f565b60405180910390a2611632613918565b505050565b60465f9054906101000a900473ffffffffffffffffffffffffffffffffffffffff1681565b611665826114ed565b61166e81613922565b6116788383613936565b50505050565b5f611688836129ea565b82106116cd5782826040517fa57d13dc0000000000000000000000000000000000000000000000000000000081526004016116c4929190616d61565b60405180910390fd5b603e5f8473ffffffffffffffffffffffffffffffffffffffff1673ffffffffffffffffffffffffffffffffffffffff1681526020019081526020015f205f8381526020019081526020015f2054905092915050565b611a0a81565b6117306136b6565b73ffffffffffffffffffffffffffffffffffffffff168173ffffffffffffffffffffffffffffffffffffffff1614611794576040517f6697b23200000000000000000000000000000000000000000000000000000000815260040160405180910390fd5b61179e8282613979565b505050565b60607f9f2df0fed2c77648de5860a4cc508cd0818c85b8b8a1ab4ceeef8d981c8956a66117cf81613922565b5f8484905011611814576040517f08c379a000000000000000000000000000000000000000000000000000000000815260040161180b90616df8565b60405180910390fd5b8383905067ffffffffffffffff81111561183157611830616458565b5b60405190808252806020026020018201604052801561185f5781602001602082028036833780820191505090505b5091505f5b848490508110156118d15761189f85858381811061188557611884616caa565b5b905060200201602081019061189a9190616044565b6139bc565b8382815181106118b2576118b1616caa565b5b60200260200101818152505080806118c990616e43565b915050611864565b505092915050565b604d5481565b6119107f65d7a28e3265b37a6474929f336521b332c1681b933f6cb9f3376673440d862a61190b6136b6565b612b81565b61194f576040517f08c379a000000000000000000000000000000000000000000000000000000000815260040161194690616efa565b60405180910390fd5b6119576139e6565b565b604e602052805f5260405f205f915090505481565b61198883838360405180602001604052805f815250612f3b565b505050565b61199f5f8261199a6136b6565b6136cf565b5050565b6119ab6136e4565b5f8484905090505f811180156119c2575060038111155b611a01576040517f08c379a00000000000000000000000000000000000000000000000000000000081526004016119f890616f62565b60405180910390fd5b5f611a0a612cfd565b90505f6004811115611a1f57611a1e615c90565b5b816004811115611a3257611a31615c90565b5b03611a72576040517f08c379a0000000000000000000000000000000000000000000000000000000008152600401611a6990616fca565b60405180910390fd5b611a7d848483612f60565b611abc576040517f08c379a0000000000000000000000000000000000000000000000000000000008152600401611ab390617058565b60405180910390fd5b5f816004811115611ad057611acf615c90565b5b9050600383604f5f8460ff1660ff1681526020019081526020015f205f3373ffffffffffffffffffffffffffffffffffffffff1673ffffffffffffffffffffffffffffffffffffffff1681526020019081526020015f2054611b329190617076565b1115611b73576040517f08c379a0000000000000000000000000000000000000000000000000000000008152600401611b6a90617119565b60405180910390fd5b82604f5f8360ff1660ff1681526020019081526020015f205f3373ffffffffffffffffffffffffffffffffffffffff1673ffffffffffffffffffffffffffffffffffffffff1681526020019081526020015f205f828254611bd49190617076565b925050819055505f83604c54611bea9190617137565b90505f84604d54611bfb9190617137565b90505f60455f9054906101000a900473ffffffffffffffffffffffffffffffffffffffff16905082341015611c65576040517f08c379a0000000000000000000000000000000000000000000000000000000008152600401611c5c906171c2565b60405180910390fd5b5f60465f9054906101000a900473ffffffffffffffffffffffffffffffffffffffff1673ffffffffffffffffffffffffffffffffffffffff1684604051611cab9061720d565b5f6040518083038185875af1925050503d805f8114611ce5576040519150601f19603f3d011682016040523d82523d5f602084013e611cea565b606091505b5050905080611d2e576040517f08c379a0000000000000000000000000000000000000000000000000000000008152600401611d259061726b565b60405180910390fd5b83341115611deb575f3373ffffffffffffffffffffffffffffffffffffffff168534611d5a9190617289565b604051611d669061720d565b5f6040518083038185875af1925050503d805f8114611da0576040519150601f19603f3d011682016040523d82523d5f602084013e611da5565b606091505b5050905080611de9576040517f08c379a0000000000000000000000000000000000000000000000000000000008152600401611de090617306565b60405180910390fd5b505b828273ffffffffffffffffffffffffffffffffffffffff1663dd62ed3e33306040518363ffffffff1660e01b8152600401611e27929190617324565b602060405180830381865afa158015611e42573d5f803e3d5ffd5b505050506040513d601f19601f82011682018060405250810190611e66919061735f565b1015611ea7576040517f08c379a0000000000000000000000000000000000000000000000000000000008152600401611e9e906173fa565b60405180910390fd5b8173ffffffffffffffffffffffffffffffffffffffff166323b872dd3360465f9054906101000a900473ffffffffffffffffffffffffffffffffffffffff16866040518463ffffffff1660e01b8152600401611f0593929190617418565b6020604051808303815f875af1158015611f21573d5f803e3d5ffd5b505050506040513d601f19601f82011682018060405250810190611f459190617461565b611f84576040517f08c379a0000000000000000000000000000000000000000000000000000000008152600401611f7b906174d6565b60405180910390fd5b5f5b8b8b9050811015611ff9575f8c8c83818110611fa557611fa4616caa565b5b905060200201359050611fb78161372a565b505f60515f8381526020019081526020015f205f6101000a81548160ff021916908315150217905550611feb3033836137b0565b818060010192505050611f86565b503373ffffffffffffffffffffffffffffffffffffffff167f9792ee0b82e5e4e40739f4357c26e1d21b23c53095dc7df687b6f2fb901e6a288c8c604051612042929190616d3f565b60405180910390a250505050505050612059613918565b50505050565b6120676136e4565b5f8484905090505f8111801561207e575060038111155b6120bd576040517f08c379a00000000000000000000000000000000000000000000000000000000081526004016120b490616f62565b60405180910390fd5b5f6120c6612cfd565b90505f60048111156120db576120da615c90565b5b8160048111156120ee576120ed615c90565b5b0361212e576040517f08c379a000000000000000000000000000000000000000000000000000000000815260040161212590616fca565b60405180910390fd5b612139848483612f60565b612178576040517f08c379a000000000000000000000000000000000000000000000000000000000815260040161216f90617058565b60405180910390fd5b5f81600481111561218c5761218b615c90565b5b9050600383604f5f8460ff1660ff1681526020019081526020015f205f3373ffffffffffffffffffffffffffffffffffffffff1673ffffffffffffffffffffffffffffffffffffffff1681526020019081526020015f20546121ee9190617076565b111561222f576040517f08c379a000000000000000000000000000000000000000000000000000000000815260040161222690617119565b60405180910390fd5b82604f5f8360ff1660ff1681526020019081526020015f205f3373ffffffffffffffffffffffffffffffffffffffff1673ffffffffffffffffffffffffffffffffffffffff1681526020019081526020015f205f8282546122909190617076565b925050819055505f83604b546122a69190617137565b9050803410156122eb576040517f08c379a00000000000000000000000000000000000000000000000000000000081526004016122e2906171c2565b60405180910390fd5b5f60465f9054906101000a900473ffffffffffffffffffffffffffffffffffffffff1673ffffffffffffffffffffffffffffffffffffffff16826040516123319061720d565b5f6040518083038185875af1925050503d805f811461236b576040519150601f19603f3d011682016040523d82523d5f602084013e612370565b606091505b50509050806123b4576040517f08c379a00000000000000000000000000000000000000000000000000000000081526004016123ab9061726b565b60405180910390fd5b81341115612471575f3373ffffffffffffffffffffffffffffffffffffffff1683346123e09190617289565b6040516123ec9061720d565b5f6040518083038185875af1925050503d805f8114612426576040519150601f19603f3d011682016040523d82523d5f602084013e61242b565b606091505b505090508061246f576040517f08c379a000000000000000000000000000000000000000000000000000000000815260040161246690617306565b60405180910390fd5b505b5f5b898990508110156124e6575f8a8a8381811061249257612491616caa565b5b9050602002013590506124a48161372a565b505f60515f8381526020019081526020015f205f6101000a81548160ff0219169083151502179055506124d83033836137b0565b818060010192505050612473565b503373ffffffffffffffffffffffffffffffffffffffff167f9792ee0b82e5e4e40739f4357c26e1d21b23c53095dc7df687b6f2fb901e6a288a8a60405161252f929190616d3f565b60405180910390a25050505050612544613918565b50505050565b60455f9054906101000a900473ffffffffffffffffffffffffffffffffffffffff1681565b5f61257861136d565b82106125bd575f826040517fa57d13dc0000000000000000000000000000000000000000000000000000000081526004016125b4929190616d61565b60405180910390fd5b604082815481106125d1576125d0616caa565b5b905f5260205f2001549050919050565b60485f9054906101000a900460ff1681565b6125fb6134df565b60018260ff1610158015612613575060038260ff1611155b612652576040517f08c379a00000000000000000000000000000000000000000000000000000000081526004016126499061753e565b60405180910390fd5b80604e5f8460ff1660ff1681526020019081526020015f20819055507f766f1410c9c4b1de7325bf118e90e8d8391c45f61176ed121c69cbd81599959a828260405161269f92919061756b565b60405180910390a15050565b61708081565b5f801b6126bd81613922565b81604490816126cc919061772f565b505050565b6126d96134df565b611a0a82829050604a546126ed9190617076565b111561272e576040517f08c379a000000000000000000000000000000000000000000000000000000000815260040161272590617848565b60405180910390fd5b5f5b828290508110156127b8576127ab3084848481811061275257612751616caa565b5b90506020028101906127649190617872565b8080601f0160208091040260200160405190810160405280939291908181526020018383808284375f81840152601f19601f82011690508083019250505050505050613a47565b8080600101915050612730565b505050565b5f60425f9054906101000a900460ff16905090565b60485f9054906101000a900460ff161580156127f257506127f1612f12565b5b1561283e57600160485f6101000a81548160ff0219169083151502179055507fe2a7169cedebe39671840370ae19ca4fc41be6191d4c77f174f189a4d8cd08c860405160405180910390a15b565b600381565b61284d6134df565b5f5b8484905081101561294b575f83838381811061286e5761286d616caa565b5b905060200201359050604a548111156128bc576040517f08c379a00000000000000000000000000000000000000000000000000000000081526004016128b390617944565b60405180910390fd5b8585838181106128cf576128ce616caa565b5b90506020028101906128e19190617872565b60505f8481526020019081526020015f2091826128ff92919061796c565b507fbab29823ee53d43d46e72c6daa38d451dec645093e83717a6ed6e42ad49057fc8160405161292f9190615e95565b60405180910390a150808061294390616e43565b91505061284f565b5050505050565b5f61295c826135f7565b9050919050565b61384081565b5f61299b7f9f2df0fed2c77648de5860a4cc508cd0818c85b8b8a1ab4ceeef8d981c8956a66129966136b6565b612b81565b6129da576040517f08c379a00000000000000000000000000000000000000000000000000000000081526004016129d190617aa9565b60405180910390fd5b6129e3826139bc565b9050919050565b5f8073ffffffffffffffffffffffffffffffffffffffff168273ffffffffffffffffffffffffffffffffffffffff1603612a5b575f6040517f89c62b64000000000000000000000000000000000000000000000000000000008152600401612a529190615e05565b60405180910390fd5b60055f8373ffffffffffffffffffffffffffffffffffffffff1673ffffffffffffffffffffffffffffffffffffffff1681526020019081526020015f20549050919050565b612aa86134df565b612ab15f613b3a565b565b612ae47f65d7a28e3265b37a6474929f336521b332c1681b933f6cb9f3376673440d862a612adf6136b6565b612b81565b612b23576040517f08c379a0000000000000000000000000000000000000000000000000000000008152600401612b1a90617b37565b60405180910390fd5b612b2b613bfd565b565b5f60095f9054906101000a900473ffffffffffffffffffffffffffffffffffffffff16905090565b5f612b798260015f8681526020019081526020015f20613c5f90919063ffffffff16565b905092915050565b5f805f8481526020019081526020015f205f015f8373ffffffffffffffffffffffffffffffffffffffff1673ffffffffffffffffffffffffffffffffffffffff1681526020019081526020015f205f9054906101000a900460ff16905092915050565b61708081565b606060038054612bf990616b7d565b80601f0160208091040260200160405190810160405280929190818152602001828054612c2590616b7d565b8015612c705780601f10612c4757610100808354040283529160200191612c70565b820191905f5260205f20905b815481529060010190602001808311612c5357829003601f168201915b5050505050905090565b6060807f9f2df0fed2c77648de5860a4cc508cd0818c85b8b8a1ab4ceeef8d981c8956a6612ca781613922565b612cb18787613c76565b925092505094509492505050565b5f801b81565b612cd7612cd06136b6565b8383613d7b565b5050565b6060612cf660015f8481526020019081526020015f20613ee4565b9050919050565b5f806004811115612d1157612d10615c90565b5b604860019054906101000a900460ff166004811115612d3357612d32615c90565b5b03612d40575f9050612e9f565b60016004811115612d5457612d53615c90565b5b604860019054906101000a900460ff166004811115612d7657612d75615c90565b5b03612d845760019050612e9f565b60026004811115612d9857612d97615c90565b5b604860019054906101000a900460ff166004811115612dba57612db9615c90565b5b03612dc85760029050612e9f565b60036004811115612ddc57612ddb615c90565b5b604860019054906101000a900460ff166004811115612dfe57612dfd615c90565b5b03612e0c5760039050612e9f565b600480811115612e1f57612e1e615c90565b5b604860019054906101000a900460ff166004811115612e4157612e40615c90565b5b03612e4f5760049050612e9f565b5f60495442612e5e9190617289565b90506138408111612e73576001915050612e9f565b6170808111612e86576002915050612e9f565b6170808111612e99576003915050612e9f565b60049150505b90565b612eaa6134df565b600160485f6101000a81548160ff0219169083151502179055507fe2a7169cedebe39671840370ae19ca4fc41be6191d4c77f174f189a4d8cd08c860405160405180910390a1565b604f602052815f5260405f20602052805f5260405f205f91509150505481565b5f604754421015905090565b6051602052805f5260405f205f915054906101000a900460ff1681565b612f468484846113ee565b612f5a612f516136b6565b85858585613f03565b50505050565b5f600480811115612f7457612f73615c90565b5b826004811115612f8757612f86615c90565b5b03612f9557600190506130c6565b5f826004811115612fa957612fa8615c90565b5b90505f604e5f8360ff1660ff1681526020019081526020015f205490505f801b810361300a576040517f08c379a000000000000000000000000000000000000000000000000000000000815260040161300190617b9f565b60405180910390fd5b5f3360405160200161301c9190617bbd565b60405160208183030381529060405280519060200120905061307f8787808060200260200160405190810160405280939291908181526020018383602002808284375f81840152601f19601f8201169050808301925050505050505083836140af565b6130be576040517f08c379a00000000000000000000000000000000000000000000000000000000081526004016130b590617c21565b60405180910390fd5b600193505050505b9392505050565b60605f6130d9836140c5565b90503073ffffffffffffffffffffffffffffffffffffffff168173ffffffffffffffffffffffffffffffffffffffff1603613149576040517f08c379a000000000000000000000000000000000000000000000000000000000815260040161314090617c89565b60405180910390fd5b60485f9054906101000a900460ff1615801561316a5750613168612f12565b155b1561318057613178836140fe565b91505061327d565b5f60505f8581526020019081526020015f20805461319d90616b7d565b80601f01602080910402602001604051908101604052809291908181526020018280546131c990616b7d565b80156132145780601f106131eb57610100808354040283529160200191613214565b820191905f5260205f20905b8154815290600101906020018083116131f757829003601f168201915b505050505090505f613224614209565b90505f8151036132395781935050505061327d565b5f8251111561326e578082604051602001613255929190617ce1565b604051602081830303815290604052935050505061327d565b613277856140fe565b93505050505b919050565b5f61329c60015f8481526020019081526020015f20614218565b9050919050565b7f9f2df0fed2c77648de5860a4cc508cd0818c85b8b8a1ab4ceeef8d981c8956a681565b6132d0826114ed565b6132d981613922565b6132e38383613979565b50505050565b6060807f9f2df0fed2c77648de5860a4cc508cd0818c85b8b8a1ab4ceeef8d981c8956a661331681613922565b6133208787613c76565b925092505094509492505050565b6133366134df565b80604c8190555050565b6133486134df565b80604b8190555050565b7f65d7a28e3265b37a6474929f336521b332c1681b933f6cb9f3376673440d862a81565b61337e6134df565b8060455f6101000a81548173ffffffffffffffffffffffffffffffffffffffff021916908373ffffffffffffffffffffffffffffffffffffffff16021790555050565b5f60075f8473ffffffffffffffffffffffffffffffffffffffff1673ffffffffffffffffffffffffffffffffffffffff1681526020019081526020015f205f8373ffffffffffffffffffffffffffffffffffffffff1673ffffffffffffffffffffffffffffffffffffffff1681526020019081526020015f205f9054906101000a900460ff16905092915050565b6134576134df565b5f73ffffffffffffffffffffffffffffffffffffffff168173ffffffffffffffffffffffffffffffffffffffff16036134c7575f6040517f1e4fbdf70000000000000000000000000000000000000000000000000000000081526004016134be9190615e05565b60405180910390fd5b6134d081613b3a565b50565b60475481565b604b5481565b6134e76136b6565b73ffffffffffffffffffffffffffffffffffffffff16613505612b2d565b73ffffffffffffffffffffffffffffffffffffffff1614613564576135286136b6565b6040517f118cdaa700000000000000000000000000000000000000000000000000000000815260040161355b9190615e05565b60405180910390fd5b565b5f6135708261422b565b80613580575061357f8261423c565b5b80613590575061358f8261430d565b5b9050919050565b5f634906490660e01b7bffffffffffffffffffffffffffffffffffffffffffffffffffffffff1916827bffffffffffffffffffffffffffffffffffffffffffffffffffffffff191614806135f057506135ef826143de565b5b9050919050565b5f80613602836140c5565b90505f73ffffffffffffffffffffffffffffffffffffffff168173ffffffffffffffffffffffffffffffffffffffff160361367457826040517f7e27328900000000000000000000000000000000000000000000000000000000815260040161366b9190615e95565b60405180910390fd5b80915050919050565b5f60065f8381526020019081526020015f205f9054906101000a900473ffffffffffffffffffffffffffffffffffffffff169050919050565b5f33905090565b6136ca83838360016144bf565b505050565b5f6136db84848461467e565b90509392505050565b6002600a5403613720576040517f3ee5aeb500000000000000000000000000000000000000000000000000000000815260040160405180910390fd5b6002600a81905550565b5f80613735836140c5565b90503073ffffffffffffffffffffffffffffffffffffffff168173ffffffffffffffffffffffffffffffffffffffff16146137a757826040517f7ad1fa8500000000000000000000000000000000000000000000000000000000815260040161379e9190615e95565b60405180910390fd5b80915050919050565b5f73ffffffffffffffffffffffffffffffffffffffff168273ffffffffffffffffffffffffffffffffffffffff1603613820575f6040517f64a0ae920000000000000000000000000000000000000000000000000000000081526004016138179190615e05565b60405180910390fd5b5f61382c83835f6136cf565b90505f73ffffffffffffffffffffffffffffffffffffffff168173ffffffffffffffffffffffffffffffffffffffff160361389e57816040517f7e2732890000000000000000000000000000000000000000000000000000000081526004016138959190615e95565b60405180910390fd5b8373ffffffffffffffffffffffffffffffffffffffff168173ffffffffffffffffffffffffffffffffffffffff1614613912578382826040517f64283d7b00000000000000000000000000000000000000000000000000000000815260040161390993929190616c75565b60405180910390fd5b50505050565b6001600a81905550565b6139338161392e6136b6565b614693565b50565b5f8061394284846146e4565b9050801561396f5761396d8360015f8781526020019081526020015f206147cd90919063ffffffff16565b505b8091505092915050565b5f8061398584846147fa565b905080156139b2576139b08360015f8781526020019081526020015f206148e390919063ffffffff16565b505b8091505092915050565b5f60435490506139cc8282614910565b60435f81546139da90616e43565b91905081905550919050565b6139ee614a03565b5f60425f6101000a81548160ff0219169083151502179055507f5db9ee0a495bf2e6ff9c91a7834c1ba4fdd244a5e8aa4e537bd38aeae4b073aa613a306136b6565b604051613a3d9190615e05565b60405180910390a1565b611a0a604a5410613a8d576040517f08c379a0000000000000000000000000000000000000000000000000000000008152600401613a8490617d4e565b60405180910390fd5b604a5f815480929190613a9f90616e43565b91905055505f604a549050613ab48382614910565b613abe8183614a43565b600160515f8381526020019081526020015f205f6101000a81548160ff0219169083151502179055508273ffffffffffffffffffffffffffffffffffffffff167f4cc0a9c4a99ddc700de1af2c9f916a7cbfdb71f14801ccff94061ad1ef8a804082604051613b2d9190615e95565b60405180910390a2505050565b5f60095f9054906101000a900473ffffffffffffffffffffffffffffffffffffffff1690508160095f6101000a81548173ffffffffffffffffffffffffffffffffffffffff021916908373ffffffffffffffffffffffffffffffffffffffff1602179055508173ffffffffffffffffffffffffffffffffffffffff168173ffffffffffffffffffffffffffffffffffffffff167f8be0079c531659141344cd1fd0a4f28419497f9722a3daafe3b4186f6b6457e060405160405180910390a35050565b613c05614a9d565b600160425f6101000a81548160ff0219169083151502179055507f62e78cea01bee320cd4e420270b5ea74000d11b0c9f74754ebdbfc544b05a258613c486136b6565b604051613c559190615e05565b60405180910390a1565b5f613c6c835f0183614ade565b5f1c905092915050565b6060808267ffffffffffffffff811115613c9357613c92616458565b5b604051908082528060200260200182016040528015613cc15781602001602082028036833780820191505090505b5091508267ffffffffffffffff811115613cde57613cdd616458565b5b604051908082528060200260200182016040528015613d0c5781602001602082028036833780820191505090505b5090505f5b83811015613d7357613d22856139bc565b838281518110613d3557613d34616caa565b5b6020026020010181815250506001828281518110613d5657613d55616caa565b5b60200260200101818152505080613d6c90616e43565b9050613d11565b509250929050565b5f73ffffffffffffffffffffffffffffffffffffffff168273ffffffffffffffffffffffffffffffffffffffff1603613deb57816040517f5b08ba18000000000000000000000000000000000000000000000000000000008152600401613de29190615e05565b60405180910390fd5b8060075f8573ffffffffffffffffffffffffffffffffffffffff1673ffffffffffffffffffffffffffffffffffffffff1681526020019081526020015f205f8473ffffffffffffffffffffffffffffffffffffffff1673ffffffffffffffffffffffffffffffffffffffff1681526020019081526020015f205f6101000a81548160ff0219169083151502179055508173ffffffffffffffffffffffffffffffffffffffff168373ffffffffffffffffffffffffffffffffffffffff167f17307eab39ab6107e8899845ad3d59bd9653f200f220920489ca2b5937696c3183604051613ed79190615c77565b60405180910390a3505050565b60605f613ef2835f01614b05565b905060608190508092505050919050565b5f8373ffffffffffffffffffffffffffffffffffffffff163b11156140a8578273ffffffffffffffffffffffffffffffffffffffff1663150b7a02868685856040518563ffffffff1660e01b8152600401613f619493929190617d6c565b6020604051808303815f875af1925050508015613f9c57506040513d601f19601f82011682018060405250810190613f999190617dca565b60015b61401d573d805f8114613fca576040519150601f19603f3d011682016040523d82523d5f602084013e613fcf565b606091505b505f81510361401557836040517f64a0ae9200000000000000000000000000000000000000000000000000000000815260040161400c9190615e05565b60405180910390fd5b805181602001fd5b63150b7a0260e01b7bffffffffffffffffffffffffffffffffffffffffffffffffffffffff1916817bffffffffffffffffffffffffffffffffffffffffffffffffffffffff1916146140a657836040517f64a0ae9200000000000000000000000000000000000000000000000000000000815260040161409d9190615e05565b60405180910390fd5b505b5050505050565b5f826140bb8584614b5e565b1490509392505050565b5f60045f8381526020019081526020015f205f9054906101000a900473ffffffffffffffffffffffffffffffffffffffff169050919050565b6060614109826135f7565b505f60085f8481526020019081526020015f20805461412790616b7d565b80601f016020809104026020016040519081016040528092919081815260200182805461415390616b7d565b801561419e5780601f106141755761010080835404028352916020019161419e565b820191905f5260205f20905b81548152906001019060200180831161418157829003601f168201915b505050505090505f6141ae614209565b90505f8151036141c2578192505050614204565b5f825111156141f65780826040516020016141de929190617ce1565b60405160208183030381529060405292505050614204565b6141ff84614bb2565b925050505b919050565b6060614213614c18565b905090565b5f614224825f01614c27565b9050919050565b5f61423582614c36565b9050919050565b5f7fa1612e79000000000000000000000000000000000000000000000000000000007bffffffffffffffffffffffffffffffffffffffffffffffffffffffff1916827bffffffffffffffffffffffffffffffffffffffffffffffffffffffff1916148061430657507f01ffc9a7000000000000000000000000000000000000000000000000000000007bffffffffffffffffffffffffffffffffffffffffffffffffffffffff1916827bffffffffffffffffffffffffffffffffffffffffffffffffffffffff1916145b9050919050565b5f7fd91080bc000000000000000000000000000000000000000000000000000000007bffffffffffffffffffffffffffffffffffffffffffffffffffffffff1916827bffffffffffffffffffffffffffffffffffffffffffffffffffffffff191614806143d757507f01ffc9a7000000000000000000000000000000000000000000000000000000007bffffffffffffffffffffffffffffffffffffffffffffffffffffffff1916827bffffffffffffffffffffffffffffffffffffffffffffffffffffffff1916145b9050919050565b5f7f80ac58cd000000000000000000000000000000000000000000000000000000007bffffffffffffffffffffffffffffffffffffffffffffffffffffffff1916827bffffffffffffffffffffffffffffffffffffffffffffffffffffffff191614806144a857507f5b5e139f000000000000000000000000000000000000000000000000000000007bffffffffffffffffffffffffffffffffffffffffffffffffffffffff1916827bffffffffffffffffffffffffffffffffffffffffffffffffffffffff1916145b806144b857506144b782614d17565b5b9050919050565b80806144f757505f73ffffffffffffffffffffffffffffffffffffffff168273ffffffffffffffffffffffffffffffffffffffff1614155b15614629575f614506846135f7565b90505f73ffffffffffffffffffffffffffffffffffffffff168373ffffffffffffffffffffffffffffffffffffffff161415801561457057508273ffffffffffffffffffffffffffffffffffffffff168173ffffffffffffffffffffffffffffffffffffffff1614155b8015614583575061458181846133c1565b155b156145c557826040517fa9fbf51f0000000000000000000000000000000000000000000000000000000081526004016145bc9190615e05565b60405180910390fd5b811561462757838573ffffffffffffffffffffffffffffffffffffffff168273ffffffffffffffffffffffffffffffffffffffff167f8c5be1e5ebec7d5bd14f71427d1e84f3dd0314c0f7b2291e5b200ac8c7c3b92560405160405180910390a45b505b8360065f8581526020019081526020015f205f6101000a81548173ffffffffffffffffffffffffffffffffffffffff021916908373ffffffffffffffffffffffffffffffffffffffff16021790555050505050565b5f61468a848484614d90565b90509392505050565b61469d8282612b81565b6146e05780826040517fe2517d3f0000000000000000000000000000000000000000000000000000000081526004016146d7929190617df5565b60405180910390fd5b5050565b5f6146ef8383612b81565b6147c35760015f808581526020019081526020015f205f015f8473ffffffffffffffffffffffffffffffffffffffff1673ffffffffffffffffffffffffffffffffffffffff1681526020019081526020015f205f6101000a81548160ff0219169083151502179055506147606136b6565b73ffffffffffffffffffffffffffffffffffffffff168273ffffffffffffffffffffffffffffffffffffffff16847f2f8788117e7eff1d82e926ec794901d17c78024a50270940304540a733656f0d60405160405180910390a4600190506147c7565b5f90505b92915050565b5f6147f2835f018373ffffffffffffffffffffffffffffffffffffffff165f1b614da5565b905092915050565b5f6148058383612b81565b156148d9575f805f8581526020019081526020015f205f015f8473ffffffffffffffffffffffffffffffffffffffff1673ffffffffffffffffffffffffffffffffffffffff1681526020019081526020015f205f6101000a81548160ff0219169083151502179055506148766136b6565b73ffffffffffffffffffffffffffffffffffffffff168273ffffffffffffffffffffffffffffffffffffffff16847ff6391f5c32d9c69d2a47ea670b442974b53935d1edc7fd64eb21e047a839171b60405160405180910390a4600190506148dd565b5f90505b92915050565b5f614908835f018373ffffffffffffffffffffffffffffffffffffffff165f1b614e0c565b905092915050565b5f73ffffffffffffffffffffffffffffffffffffffff168273ffffffffffffffffffffffffffffffffffffffff1603614980575f6040517f64a0ae920000000000000000000000000000000000000000000000000000000081526004016149779190615e05565b60405180910390fd5b5f61498c83835f6136cf565b90505f73ffffffffffffffffffffffffffffffffffffffff168173ffffffffffffffffffffffffffffffffffffffff16146149fe575f6040517f73c6ac6e0000000000000000000000000000000000000000000000000000000081526004016149f59190615e05565b60405180910390fd5b505050565b614a0b6127bd565b614a41576040517f8dfc202b00000000000000000000000000000000000000000000000000000000815260040160405180910390fd5b565b8060085f8481526020019081526020015f209081614a61919061772f565b507ff8e1a15aba9398e019f0b49df1a4fde98ee17ae345cb5f6b5e2c27f5033e8ce782604051614a919190615e95565b60405180910390a15050565b614aa56127bd565b15614adc576040517fd93c066500000000000000000000000000000000000000000000000000000000815260040160405180910390fd5b565b5f825f018281548110614af457614af3616caa565b5b905f5260205f200154905092915050565b6060815f01805480602002602001604051908101604052809291908181526020018280548015614b5257602002820191905f5260205f20905b815481526020019060010190808311614b3e575b50505050509050919050565b5f808290505f5b8451811015614ba757614b9282868381518110614b8557614b84616caa565b5b6020026020010151614f08565b91508080614b9f90616e43565b915050614b65565b508091505092915050565b6060614bbd826135f7565b505f614bc7614209565b90505f815111614be55760405180602001604052805f815250614c10565b80614bef84614f32565b604051602001614c00929190617ce1565b6040516020818303038152906040525b915050919050565b6060614c22614ffc565b905090565b5f815f01805490509050919050565b5f7f3771aaa1000000000000000000000000000000000000000000000000000000007bffffffffffffffffffffffffffffffffffffffffffffffffffffffff1916827bffffffffffffffffffffffffffffffffffffffffffffffffffffffff19161480614d0057507f131a7e24000000000000000000000000000000000000000000000000000000007bffffffffffffffffffffffffffffffffffffffffffffffffffffffff1916827bffffffffffffffffffffffffffffffffffffffffffffffffffffffff1916145b80614d105750614d0f8261508c565b5b9050919050565b5f7f5a05180f000000000000000000000000000000000000000000000000000000007bffffffffffffffffffffffffffffffffffffffffffffffffffffffff1916827bffffffffffffffffffffffffffffffffffffffffffffffffffffffff19161480614d895750614d8882615105565b5b9050919050565b5f614d9c84848461517e565b90509392505050565b5f614db0838361519b565b614e0257825f0182908060018154018082558091505060019003905f5260205f20015f9091909190915055825f0180549050836001015f8481526020019081526020015f208190555060019050614e06565b5f90505b92915050565b5f80836001015f8481526020019081526020015f205490505f8114614efd575f600182614e399190617289565b90505f6001865f0180549050614e4f9190617289565b9050808214614eb5575f865f018281548110614e6e57614e6d616caa565b5b905f5260205f200154905080875f018481548110614e8f57614e8e616caa565b5b905f5260205f20018190555083876001015f8381526020019081526020015f2081905550505b855f01805480614ec857614ec7617e1c565b5b600190038181905f5260205f20015f90559055856001015f8681526020019081526020015f205f905560019350505050614f02565b5f9150505b92915050565b5f818310614f1f57614f1a82846151bb565b614f2a565b614f2983836151bb565b5b905092915050565b60605f6001614f40846151cf565b0190505f8167ffffffffffffffff811115614f5e57614f5d616458565b5b6040519080825280601f01601f191660200182016040528015614f905781602001600182028036833780820191505090505b5090505f82602001820190505b600115614ff1578080600190039150507f3031323334353637383961626364656600000000000000000000000000000000600a86061a8153600a8581614fe657614fe5617e49565b5b0494505f8503614f9d575b819350505050919050565b60606044805461500b90616b7d565b80601f016020809104026020016040519081016040528092919081815260200182805461503790616b7d565b80156150825780601f1061505957610100808354040283529160200191615082565b820191905f5260205f20905b81548152906001019060200180831161506557829003601f168201915b5050505050905090565b5f7fd17f1b21000000000000000000000000000000000000000000000000000000007bffffffffffffffffffffffffffffffffffffffffffffffffffffffff1916827bffffffffffffffffffffffffffffffffffffffffffffffffffffffff191614806150fe57506150fd82615320565b5b9050919050565b5f7f7965db0b000000000000000000000000000000000000000000000000000000007bffffffffffffffffffffffffffffffffffffffffffffffffffffffff1916827bffffffffffffffffffffffffffffffffffffffffffffffffffffffff19161480615177575061517682615399565b5b9050919050565b5f615187614a9d565b615192848484615402565b90509392505050565b5f80836001015f8481526020019081526020015f20541415905092915050565b5f825f528160205260405f20905092915050565b5f805f90507a184f03e93ff9f4daa797ed6e38ed64bf6a1f010000000000000000831061522b577a184f03e93ff9f4daa797ed6e38ed64bf6a1f010000000000000000838161522157615220617e49565b5b0492506040810190505b6d04ee2d6d415b85acef81000000008310615268576d04ee2d6d415b85acef8100000000838161525e5761525d617e49565b5b0492506020810190505b662386f26fc10000831061529757662386f26fc10000838161528d5761528c617e49565b5b0492506010810190505b6305f5e10083106152c0576305f5e10083816152b6576152b5617e49565b5b0492506008810190505b61271083106152e55761271083816152db576152da617e49565b5b0492506004810190505b6064831061530857606483816152fe576152fd617e49565b5b0492506002810190505b600a8310615317576001810190505b80915050919050565b5f7f780e9d63000000000000000000000000000000000000000000000000000000007bffffffffffffffffffffffffffffffffffffffffffffffffffffffff1916827bffffffffffffffffffffffffffffffffffffffffffffffffffffffff19161480615392575061539182613597565b5b9050919050565b5f7f01ffc9a7000000000000000000000000000000000000000000000000000000007bffffffffffffffffffffffffffffffffffffffffffffffffffffffff1916827bffffffffffffffffffffffffffffffffffffffffffffffffffffffff1916149050919050565b5f8061540f85858561551c565b90505f73ffffffffffffffffffffffffffffffffffffffff168173ffffffffffffffffffffffffffffffffffffffff16036154525761544d84615581565b615491565b8473ffffffffffffffffffffffffffffffffffffffff168173ffffffffffffffffffffffffffffffffffffffff16146154905761548f81856155c5565b5b5b5f73ffffffffffffffffffffffffffffffffffffffff168573ffffffffffffffffffffffffffffffffffffffff16036154d2576154cd8461569c565b615511565b8473ffffffffffffffffffffffffffffffffffffffff168173ffffffffffffffffffffffffffffffffffffffff16146155105761550f858561575c565b5b5b809150509392505050565b5f600b5f8481526020019081526020015f205f815461553a90616e43565b919050819055837fcc2c68164f9f7f0c063ba98bcf89498c0f3f5e3acc32bf4ab46195ecb489c13b60405160405180910390a36155788484846157e0565b90509392505050565b60408054905060415f8381526020019081526020015f2081905550604081908060018154018082558091505060019003905f5260205f20015f909190919091505550565b5f6155cf836129ea565b90505f603f5f8481526020019081526020015f205490505f603e5f8673ffffffffffffffffffffffffffffffffffffffff1673ffffffffffffffffffffffffffffffffffffffff1681526020019081526020015f20905082821461566e575f815f8581526020019081526020015f2054905080825f8581526020019081526020015f208190555082603f5f8381526020019081526020015f2081905550505b603f5f8581526020019081526020015f205f9055805f8481526020019081526020015f205f90555050505050565b5f60016040805490506156af9190617289565b90505f60415f8481526020019081526020015f205490505f604083815481106156db576156da616caa565b5b905f5260205f200154905080604083815481106156fb576156fa616caa565b5b905f5260205f2001819055508160415f8381526020019081526020015f208190555060415f8581526020019081526020015f205f9055604080548061574357615742617e1c565b5b600190038181905f5260205f20015f9055905550505050565b5f6001615768846129ea565b6157729190617289565b905081603e5f8573ffffffffffffffffffffffffffffffffffffffff1673ffffffffffffffffffffffffffffffffffffffff1681526020019081526020015f205f8381526020019081526020015f208190555080603f5f8481526020019081526020015f2081905550505050565b5f806157eb846140c5565b90505f73ffffffffffffffffffffffffffffffffffffffff168373ffffffffffffffffffffffffffffffffffffffff161461582c5761582b8184866159eb565b5b5f73ffffffffffffffffffffffffffffffffffffffff168173ffffffffffffffffffffffffffffffffffffffff16146158b75761586b5f855f806144bf565b600160055f8373ffffffffffffffffffffffffffffffffffffffff1673ffffffffffffffffffffffffffffffffffffffff1681526020019081526020015f205f82825403925050819055505b5f73ffffffffffffffffffffffffffffffffffffffff168573ffffffffffffffffffffffffffffffffffffffff161461593657600160055f8773ffffffffffffffffffffffffffffffffffffffff1673ffffffffffffffffffffffffffffffffffffffff1681526020019081526020015f205f82825401925050819055505b8460045f8681526020019081526020015f205f6101000a81548173ffffffffffffffffffffffffffffffffffffffff021916908373ffffffffffffffffffffffffffffffffffffffff160217905550838573ffffffffffffffffffffffffffffffffffffffff168273ffffffffffffffffffffffffffffffffffffffff167fddf252ad1be2c89b69c2b068fc378daa952ba7f163c4a11628f55a4df523b3ef60405160405180910390a4809150509392505050565b6159f6838383615aae565b615aa9575f73ffffffffffffffffffffffffffffffffffffffff168373ffffffffffffffffffffffffffffffffffffffff1603615a6a57806040517f7e273289000000000000000000000000000000000000000000000000000000008152600401615a619190615e95565b60405180910390fd5b81816040517f177e802f000000000000000000000000000000000000000000000000000000008152600401615aa0929190616d61565b60405180910390fd5b505050565b5f8073ffffffffffffffffffffffffffffffffffffffff168373ffffffffffffffffffffffffffffffffffffffff1614158015615b6557508273ffffffffffffffffffffffffffffffffffffffff168473ffffffffffffffffffffffffffffffffffffffff161480615b265750615b2584846133c1565b5b80615b6457508273ffffffffffffffffffffffffffffffffffffffff16615b4c8361367d565b73ffffffffffffffffffffffffffffffffffffffff16145b5b90509392505050565b5f604051905090565b5f80fd5b5f80fd5b5f819050919050565b615b9181615b7f565b8114615b9b575f80fd5b50565b5f81359050615bac81615b88565b92915050565b5f60208284031215615bc757615bc6615b77565b5b5f615bd484828501615b9e565b91505092915050565b5f7fffffffff0000000000000000000000000000000000000000000000000000000082169050919050565b615c1181615bdd565b8114615c1b575f80fd5b50565b5f81359050615c2c81615c08565b92915050565b5f60208284031215615c4757615c46615b77565b5b5f615c5484828501615c1e565b91505092915050565b5f8115159050919050565b615c7181615c5d565b82525050565b5f602082019050615c8a5f830184615c68565b92915050565b7f4e487b71000000000000000000000000000000000000000000000000000000005f52602160045260245ffd5b60058110615cce57615ccd615c90565b5b50565b5f819050615cde82615cbd565b919050565b5f615ced82615cd1565b9050919050565b615cfd81615ce3565b82525050565b5f602082019050615d165f830184615cf4565b92915050565b5f81519050919050565b5f82825260208201905092915050565b5f5b83811015615d53578082015181840152602081019050615d38565b5f8484015250505050565b5f601f19601f8301169050919050565b5f615d7882615d1c565b615d828185615d26565b9350615d92818560208601615d36565b615d9b81615d5e565b840191505092915050565b5f6020820190508181035f830152615dbe8184615d6e565b905092915050565b5f73ffffffffffffffffffffffffffffffffffffffff82169050919050565b5f615def82615dc6565b9050919050565b615dff81615de5565b82525050565b5f602082019050615e185f830184615df6565b92915050565b615e2781615de5565b8114615e31575f80fd5b50565b5f81359050615e4281615e1e565b92915050565b5f8060408385031215615e5e57615e5d615b77565b5b5f615e6b85828601615e34565b9250506020615e7c85828601615b9e565b9150509250929050565b615e8f81615b7f565b82525050565b5f602082019050615ea85f830184615e86565b92915050565b5f81519050919050565b5f82825260208201905092915050565b5f615ed282615eae565b615edc8185615eb8565b9350615eec818560208601615d36565b615ef581615d5e565b840191505092915050565b5f6020820190508181035f830152615f188184615ec8565b905092915050565b60058110615f2c575f80fd5b50565b5f81359050615f3d81615f20565b92915050565b5f60208284031215615f5857615f57615b77565b5b5f615f6584828501615f2f565b91505092915050565b5f805f60608486031215615f8557615f84615b77565b5b5f615f9286828701615e34565b9350506020615fa386828701615e34565b9250506040615fb486828701615b9e565b9150509250925092565b5f819050919050565b615fd081615fbe565b8114615fda575f80fd5b50565b5f81359050615feb81615fc7565b92915050565b5f6020828403121561600657616005615b77565b5b5f61601384828501615fdd565b91505092915050565b61602581615fbe565b82525050565b5f60208201905061603e5f83018461601c565b92915050565b5f6020828403121561605957616058615b77565b5b5f61606684828501615e34565b91505092915050565b5f80fd5b5f80fd5b5f80fd5b5f8083601f8401126160905761608f61606f565b5b8235905067ffffffffffffffff8111156160ad576160ac616073565b5b6020830191508360208202830111156160c9576160c8616077565b5b9250929050565b5f805f604084860312156160e7576160e6615b77565b5b5f84013567ffffffffffffffff81111561610457616103615b7b565b5b6161108682870161607b565b9350935050602061612386828701615e34565b9150509250925092565b5f806040838503121561614357616142615b77565b5b5f61615085828601615fdd565b925050602061616185828601615e34565b9150509250929050565b5f8083601f8401126161805761617f61606f565b5b8235905067ffffffffffffffff81111561619d5761619c616073565b5b6020830191508360208202830111156161b9576161b8616077565b5b9250929050565b5f80602083850312156161d6576161d5615b77565b5b5f83013567ffffffffffffffff8111156161f3576161f2615b7b565b5b6161ff8582860161616b565b92509250509250929050565b5f81519050919050565b5f82825260208201905092915050565b5f819050602082019050919050565b61623d81615b7f565b82525050565b5f61624e8383616234565b60208301905092915050565b5f602082019050919050565b5f6162708261620b565b61627a8185616215565b935061628583616225565b805f5b838110156162b557815161629c8882616243565b97506162a78361625a565b925050600181019050616288565b5085935050505092915050565b5f6020820190508181035f8301526162da8184616266565b905092915050565b5f60ff82169050919050565b6162f7816162e2565b8114616301575f80fd5b50565b5f81359050616312816162ee565b92915050565b5f6020828403121561632d5761632c615b77565b5b5f61633a84828501616304565b91505092915050565b5f8083601f8401126163585761635761606f565b5b8235905067ffffffffffffffff81111561637557616374616073565b5b60208301915083602082028301111561639157616390616077565b5b9250929050565b5f805f80604085870312156163b0576163af615b77565b5b5f85013567ffffffffffffffff8111156163cd576163cc615b7b565b5b6163d98782880161607b565b9450945050602085013567ffffffffffffffff8111156163fc576163fb615b7b565b5b61640887828801616343565b925092505092959194509250565b5f806040838503121561642c5761642b615b77565b5b5f61643985828601616304565b925050602061644a85828601615fdd565b9150509250929050565b5f80fd5b7f4e487b71000000000000000000000000000000000000000000000000000000005f52604160045260245ffd5b61648e82615d5e565b810181811067ffffffffffffffff821117156164ad576164ac616458565b5b80604052505050565b5f6164bf615b6e565b90506164cb8282616485565b919050565b5f67ffffffffffffffff8211156164ea576164e9616458565b5b6164f382615d5e565b9050602081019050919050565b828183375f83830152505050565b5f61652061651b846164d0565b6164b6565b90508281526020810184848401111561653c5761653b616454565b5b616547848285616500565b509392505050565b5f82601f8301126165635761656261606f565b5b813561657384826020860161650e565b91505092915050565b5f6020828403121561659157616590615b77565b5b5f82013567ffffffffffffffff8111156165ae576165ad615b7b565b5b6165ba8482850161654f565b91505092915050565b5f8083601f8401126165d8576165d761606f565b5b8235905067ffffffffffffffff8111156165f5576165f4616073565b5b60208301915083602082028301111561661157616610616077565b5b9250929050565b5f806020838503121561662e5761662d615b77565b5b5f83013567ffffffffffffffff81111561664b5761664a615b7b565b5b616657858286016165c3565b92509250509250929050565b5f805f806040858703121561667b5761667a615b77565b5b5f85013567ffffffffffffffff81111561669857616697615b7b565b5b6166a4878288016165c3565b9450945050602085013567ffffffffffffffff8111156166c7576166c6615b7b565b5b6166d38782880161607b565b925092505092959194509250565b5f80604083850312156166f7576166f6615b77565b5b5f61670485828601615fdd565b925050602061671585828601615b9e565b9150509250929050565b5f8083601f8401126167345761673361606f565b5b8235905067ffffffffffffffff81111561675157616750616073565b5b60208301915083600182028301111561676d5761676c616077565b5b9250929050565b5f805f806060858703121561678c5761678b615b77565b5b5f61679987828801615e34565b94505060206167aa87828801615b9e565b935050604085013567ffffffffffffffff8111156167cb576167ca615b7b565b5b6167d78782880161671f565b925092505092959194509250565b5f6040820190508181035f8301526167fd8185616266565b905081810360208301526168118184616266565b90509392505050565b61682381615c5d565b811461682d575f80fd5b50565b5f8135905061683e8161681a565b92915050565b5f806040838503121561685a57616859615b77565b5b5f61686785828601615e34565b925050602061687885828601616830565b9150509250929050565b5f81519050919050565b5f82825260208201905092915050565b5f819050602082019050919050565b6168b481615de5565b82525050565b5f6168c583836168ab565b60208301905092915050565b5f602082019050919050565b5f6168e782616882565b6168f1818561688c565b93506168fc8361689c565b805f5b8381101561692c57815161691388826168ba565b975061691e836168d1565b9250506001810190506168ff565b5085935050505092915050565b5f6020820190508181035f83015261695181846168dd565b905092915050565b5f806040838503121561696f5761696e615b77565b5b5f61697c85828601616304565b925050602061698d85828601615e34565b9150509250929050565b5f67ffffffffffffffff8211156169b1576169b0616458565b5b6169ba82615d5e565b9050602081019050919050565b5f6169d96169d484616997565b6164b6565b9050828152602081018484840111156169f5576169f4616454565b5b616a00848285616500565b509392505050565b5f82601f830112616a1c57616a1b61606f565b5b8135616a2c8482602086016169c7565b91505092915050565b5f805f8060808587031215616a4d57616a4c615b77565b5b5f616a5a87828801615e34565b9450506020616a6b87828801615e34565b9350506040616a7c87828801615b9e565b925050606085013567ffffffffffffffff811115616a9d57616a9c615b7b565b5b616aa987828801616a08565b91505092959194509250565b5f805f60408486031215616acc57616acb615b77565b5b5f84013567ffffffffffffffff811115616ae957616ae8615b7b565b5b616af586828701616343565b93509350506020616b0886828701615f2f565b9150509250925092565b5f8060408385031215616b2857616b27615b77565b5b5f616b3585828601615e34565b9250506020616b4685828601615e34565b9150509250929050565b7f4e487b71000000000000000000000000000000000000000000000000000000005f52602260045260245ffd5b5f6002820490506001821680616b9457607f821691505b602082108103616ba757616ba6616b50565b5b50919050565b5f8160601b9050919050565b5f616bc382616bad565b9050919050565b5f616bd482616bb9565b9050919050565b616bec616be782615de5565b616bca565b82525050565b5f819050919050565b616c0c616c0782615b7f565b616bf2565b82525050565b5f616c1d8286616bdb565b601482019150616c2d8285616bfb565b602082019150616c3d8284616bfb565b602082019150819050949350505050565b5f604082019050616c615f830185615cf4565b616c6e6020830184615e86565b9392505050565b5f606082019050616c885f830186615df6565b616c956020830185615e86565b616ca26040830184615df6565b949350505050565b7f4e487b71000000000000000000000000000000000000000000000000000000005f52603260045260245ffd5b5f80fd5b82818337505050565b5f616cef8385616215565b93507f07ffffffffffffffffffffffffffffffffffffffffffffffffffffffffffffff831115616d2257616d21616cd7565b5b602083029250616d33838584616cdb565b82840190509392505050565b5f6020820190508181035f830152616d58818486616ce4565b90509392505050565b5f604082019050616d745f830185615df6565b616d816020830184615e86565b9392505050565b7f455243373231436f6d6d6f6e3a20696e76616c6964206172726179206c656e675f8201527f7468730000000000000000000000000000000000000000000000000000000000602082015250565b5f616de2602383615d26565b9150616ded82616d88565b604082019050919050565b5f6020820190508181035f830152616e0f81616dd6565b9050919050565b7f4e487b71000000000000000000000000000000000000000000000000000000005f52601160045260245ffd5b5f616e4d82615b7f565b91507fffffffffffffffffffffffffffffffffffffffffffffffffffffffffffffffff8203616e7f57616e7e616e16565b5b600182019050919050565b7f4552433732315072657365744d696e7465725061757365724175746f49643a205f8201527f6d75737420686176652070617573657220726f6c6520746f20756e7061757365602082015250565b5f616ee4604083615d26565b9150616eef82616e8a565b604082019050919050565b5f6020820190508181035f830152616f1181616ed8565b9050919050565b7f4d757374206d696e74206265747765656e203120616e642033204e46547300005f82015250565b5f616f4c601e83615d26565b9150616f5782616f18565b602082019050919050565b5f6020820190508181035f830152616f7981616f40565b9050919050565b7f4d696e74696e67206e6f742061637469766500000000000000000000000000005f82015250565b5f616fb4601283615d26565b9150616fbf82616f80565b602082019050919050565b5f6020820190508181035f830152616fe181616fa8565b9050919050565b7f4e6f742077686974656c697374656420666f722063757272656e7420706861735f8201527f6500000000000000000000000000000000000000000000000000000000000000602082015250565b5f617042602183615d26565b915061704d82616fe8565b604082019050919050565b5f6020820190508181035f83015261706f81617036565b9050919050565b5f61708082615b7f565b915061708b83615b7f565b92508282019050808211156170a3576170a2616e16565b5b92915050565b7f45786365656473206d6178206d696e747320616c6c6f77656420666f722074685f8201527f6973207068617365000000000000000000000000000000000000000000000000602082015250565b5f617103602883615d26565b915061710e826170a9565b604082019050919050565b5f6020820190508181035f830152617130816170f7565b9050919050565b5f61714182615b7f565b915061714c83615b7f565b925082820261715a81615b7f565b9150828204841483151761717157617170616e16565b5b5092915050565b7f496e73756666696369656e7420524f4e2073656e7400000000000000000000005f82015250565b5f6171ac601583615d26565b91506171b782617178565b602082019050919050565b5f6020820190508181035f8301526171d9816171a0565b9050919050565b5f81905092915050565b50565b5f6171f85f836171e0565b9150617203826171ea565b5f82019050919050565b5f617217826171ed565b9150819050919050565b7f4661696c656420746f20666f727761726420524f4e00000000000000000000005f82015250565b5f617255601583615d26565b915061726082617221565b602082019050919050565b5f6020820190508181035f83015261728281617249565b9050919050565b5f61729382615b7f565b915061729e83615b7f565b92508282039050818111156172b6576172b5616e16565b5b92915050565b7f526566756e64206661696c6564000000000000000000000000000000000000005f82015250565b5f6172f0600d83615d26565b91506172fb826172bc565b602082019050919050565b5f6020820190508181035f83015261731d816172e4565b9050919050565b5f6040820190506173375f830185615df6565b6173446020830184615df6565b9392505050565b5f8151905061735981615b88565b92915050565b5f6020828403121561737457617373615b77565b5b5f6173818482850161734b565b91505092915050565b7f496e73756666696369656e74206e617469766520746f6b656e20616c6c6f77615f8201527f6e63650000000000000000000000000000000000000000000000000000000000602082015250565b5f6173e4602383615d26565b91506173ef8261738a565b604082019050919050565b5f6020820190508181035f830152617411816173d8565b9050919050565b5f60608201905061742b5f830186615df6565b6174386020830185615df6565b6174456040830184615e86565b949350505050565b5f8151905061745b8161681a565b92915050565b5f6020828403121561747657617475615b77565b5b5f6174838482850161744d565b91505092915050565b7f4e617469766520746f6b656e207472616e73666572206661696c6564000000005f82015250565b5f6174c0601c83615d26565b91506174cb8261748c565b602082019050919050565b5f6020820190508181035f8301526174ed816174b4565b9050919050565b7f496e76616c6964207068617365000000000000000000000000000000000000005f82015250565b5f617528600d83615d26565b9150617533826174f4565b602082019050919050565b5f6020820190508181035f8301526175558161751c565b9050919050565b617565816162e2565b82525050565b5f60408201905061757e5f83018561755c565b61758b602083018461601c565b9392505050565b5f819050815f5260205f209050919050565b5f6020601f8301049050919050565b5f82821b905092915050565b5f600883026175ee7fffffffffffffffffffffffffffffffffffffffffffffffffffffffffffffffff826175b3565b6175f886836175b3565b95508019841693508086168417925050509392505050565b5f819050919050565b5f61763361762e61762984615b7f565b617610565b615b7f565b9050919050565b5f819050919050565b61764c83617619565b6176606176588261763a565b8484546175bf565b825550505050565b5f90565b617674617668565b61767f818484617643565b505050565b5b818110156176a2576176975f8261766c565b600181019050617685565b5050565b601f8211156176e7576176b881617592565b6176c1846175a4565b810160208510156176d0578190505b6176e46176dc856175a4565b830182617684565b50505b505050565b5f82821c905092915050565b5f6177075f19846008026176ec565b1980831691505092915050565b5f61771f83836176f8565b9150826002028217905092915050565b61773882615d1c565b67ffffffffffffffff81111561775157617750616458565b5b61775b8254616b7d565b6177668282856176a6565b5f60209050601f831160018114617797575f8415617785578287015190505b61778f8582617714565b8655506177f6565b601f1984166177a586617592565b5f5b828110156177cc578489015182556001820191506020850194506020810190506177a7565b868310156177e957848901516177e5601f8916826176f8565b8355505b6001600288020188555050505b505050505050565b7f576f756c6420657863656564206d6178696d756d20737570706c7900000000005f82015250565b5f617832601b83615d26565b915061783d826177fe565b602082019050919050565b5f6020820190508181035f83015261785f81617826565b9050919050565b5f80fd5b5f80fd5b5f80fd5b5f808335600160200384360303811261788e5761788d617866565b5b80840192508235915067ffffffffffffffff8211156178b0576178af61786a565b5b6020830192506001820236038313156178cc576178cb61786e565b5b509250929050565b7f546f6b656e20494420657863656564732063757272656e7420746f6b656e20495f8201527f4400000000000000000000000000000000000000000000000000000000000000602082015250565b5f61792e602183615d26565b9150617939826178d4565b604082019050919050565b5f6020820190508181035f83015261795b81617922565b9050919050565b5f82905092915050565b6179768383617962565b67ffffffffffffffff81111561798f5761798e616458565b5b6179998254616b7d565b6179a48282856176a6565b5f601f8311600181146179d1575f84156179bf578287013590505b6179c98582617714565b865550617a30565b601f1984166179df86617592565b5f5b82811015617a06578489013582556001820191506020850194506020810190506179e1565b86831015617a235784890135617a1f601f8916826176f8565b8355505b6001600288020188555050505b50505050505050565b7f4552433732315072657365744d696e7465725061757365724175746f49643a205f8201527f6d7573742068617665206d696e74657220726f6c6520746f206d696e74000000602082015250565b5f617a93603d83615d26565b9150617a9e82617a39565b604082019050919050565b5f6020820190508181035f830152617ac081617a87565b9050919050565b7f4552433732315072657365744d696e7465725061757365724175746f49643a205f8201527f6d75737420686176652070617573657220726f6c6520746f2070617573650000602082015250565b5f617b21603e83615d26565b9150617b2c82617ac7565b604082019050919050565b5f6020820190508181035f830152617b4e81617b15565b9050919050565b7f4d65726b6c6520726f6f74206e6f7420736574000000000000000000000000005f82015250565b5f617b89601383615d26565b9150617b9482617b55565b602082019050919050565b5f6020820190508181035f830152617bb681617b7d565b9050919050565b5f617bc88284616bdb565b60148201915081905092915050565b7f4e6f742077686974656c697374656400000000000000000000000000000000005f82015250565b5f617c0b600f83615d26565b9150617c1682617bd7565b602082019050919050565b5f6020820190508181035f830152617c3881617bff565b9050919050565b7f4e6f74206578697374696e67206e6674000000000000000000000000000000005f82015250565b5f617c73601083615d26565b9150617c7e82617c3f565b602082019050919050565b5f6020820190508181035f830152617ca081617c67565b9050919050565b5f81905092915050565b5f617cbb82615d1c565b617cc58185617ca7565b9350617cd5818560208601615d36565b80840191505092915050565b5f617cec8285617cb1565b9150617cf88284617cb1565b91508190509392505050565b7f4d6178696d756d20737570706c792072656163686564000000000000000000005f82015250565b5f617d38601683615d26565b9150617d4382617d04565b602082019050919050565b5f6020820190508181035f830152617d6581617d2c565b9050919050565b5f608082019050617d7f5f830187615df6565b617d8c6020830186615df6565b617d996040830185615e86565b8181036060830152617dab8184615ec8565b905095945050505050565b5f81519050617dc481615c08565b92915050565b5f60208284031215617ddf57617dde615b77565b5b5f617dec84828501617db6565b91505092915050565b5f604082019050617e085f830185615df6565b617e15602083018461601c565b9392505050565b7f4e487b71000000000000000000000000000000000000000000000000000000005f52603160045260245ffd5b7f4e487b71000000000000000000000000000000000000000000000000000000005f52601260045260245ffdfea26469706673582212206939d64c727bc521f27688e7fb4e81568d1ee46574832f8163beaf7e7043bd8964736f6c63430008140033","linkReferences":{}},"methodIdentifiers":{"DEFAULT_ADMIN_ROLE()":"a217fddf","MAX_MINTS_PER_PHASE()":"5e0a8a88","MAX_SUPPLY()":"32cb6b0c","MINTER_ROLE()":"d5391393","PAUSER_ROLE()":"e63ab1e9","PHASE_1_DURATION()":"6839c1bd","PHASE_2_DURATION()":"938ece89","PHASE_3_DURATION()":"5539aa86","approve(address,uint256)":"095ea7b3","availableTokens(uint256)":"ad64d068","balanceOf(address)":"70a08231","batchMint(string[])":"5bcdf207","batchSetRevealUris(string[],uint256[])":"6066b305","bulkMint(address[])":"3771aaa1","bulkMintTeam(uint256[],address)":"298a0353","burn(uint256)":"42966c68","canReveal()":"a9842610","checkAndReveal()":"5df1bfe5","currentPhase()":"055ad42e","getApproved(uint256)":"081812fc","getCurrentPhase()":"a3a40ea5","getRoleAdmin(bytes32)":"248a9ca3","getRoleMember(bytes32,uint256)":"9010d07c","getRoleMemberCount(bytes32)":"ca15c873","getRoleMembers(bytes32)":"a3246ad3","grantRole(bytes32,address)":"2f2ff15d","hasRole(bytes32,address)":"91d14854","isApprovedForAll(address,address)":"e985e9c5","isWhitelisted(bytes32[],uint8)":"bbf87ad7","merkleRoots(uint8)":"41e5fb40","mint(address)":"6a627842","mintCountByPhase(uint8,address)":"a977bcd6","mintLaunchpad(address,uint256,bytes)":"a1612e79","mintPresale(address,uint256,bytes)":"d91080bc","mintWithRon(uint256[],bytes32[])":"4c3e041b","mintWithRonAndNative(uint256[],bytes32[])":"46515c72","name()":"06fdde03","nativeTokenAddress()":"4d0047ee","nativeTokenAmount()":"3884a455","nonces(uint256)":"141a468c","owner()":"8da5cb5b","ownerOf(uint256)":"6352211e","pause()":"8456cb59","paused()":"5c975abb","paymentRecipient()":"2b1eaf29","phaseStartTime()":"12f3d0c2","renounceOwnership()":"715018a6","renounceRole(bytes32,address)":"36568abe","reveal()":"a475b5dd","revealTimestamp()":"f62f3c11","revealed()":"51830227","revokeRole(bytes32,address)":"d547741f","ronAndNativePrice()":"0f3bfbdc","ronTokenPrice()":"fbf2f683","safeTransferFrom(address,address,uint256)":"42842e0e","safeTransferFrom(address,address,uint256,bytes)":"b88d4fde","setApprovalForAll(address,bool)":"a22cb465","setBaseURI(string)":"55f804b3","setMerkleRoot(uint8,bytes32)":"54d77e0e","setNativeTokenAddress(address)":"e82368ab","setNativeTokenAmount(uint256)":"13c6c4fd","setPaymentRecipient(address)":"2983c4b8","setRevealTimestamp(uint256)":"018a2c37","setRonAndNativePrice(uint256)":"e2c9ee89","setRonPrice(uint256)":"e3d98833","startPhase(uint8)":"1c9ed381","stateOf(uint256)":"131a7e24","supportsInterface(bytes4)":"01ffc9a7","symbol()":"95d89b41","tokenByIndex(uint256)":"4f6ccce7","tokenOfOwnerByIndex(address,uint256)":"2f745c59","tokenURI(uint256)":"c87b56dd","totalSupply()":"18160ddd","transferFrom(address,address,uint256)":"23b872dd","transferOwnership(address)":"f2fde38b","unpause()":"3f4ba83a"},"id":50}