{"abi":[{"type":"constructor","inputs":[{"name":"_name","type":"string","internalType":"string"},{"name":"_symbol","type":"string","internalType":"string"},{"name":"_notRevealedURI","type":"string","internalType":"string"},{"name":"_ronTokenAddress","type":"address","internalType":"address"},{"name":"_nativeTokenAddress","type":"address","internalType":"address"},{"name":"_paymentRecipient","type":"address","internalType":"address"},{"name":"_revealTimestamp","type":"uint256","internalType":"uint256"}],"stateMutability":"nonpayable"},{"type":"function","name":"MAX_MINTS_PER_PHASE","inputs":[],"outputs":[{"name":"","type":"uint256","internalType":"uint256"}],"stateMutability":"view"},{"type":"function","name":"MAX_SUPPLY","inputs":[],"outputs":[{"name":"","type":"uint256","internalType":"uint256"}],"stateMutability":"view"},{"type":"function","name":"PHASE_1_DURATION","inputs":[],"outputs":[{"name":"","type":"uint256","internalType":"uint256"}],"stateMutability":"view"},{"type":"function","name":"PHASE_2_DURATION","inputs":[],"outputs":[{"name":"","type":"uint256","internalType":"uint256"}],"stateMutability":"view"},{"type":"function","name":"PHASE_3_DURATION","inputs":[],"outputs":[{"name":"","type":"uint256","internalType":"uint256"}],"stateMutability":"view"},{"type":"function","name":"addToWhitelist","inputs":[{"name":"_addresses","type":"address[]","internalType":"address[]"},{"name":"_phase","type":"uint8","internalType":"uint8"}],"outputs":[],"stateMutability":"nonpayable"},{"type":"function","name":"approve","inputs":[{"name":"to","type":"address","internalType":"address"},{"name":"tokenId","type":"uint256","internalType":"uint256"}],"outputs":[],"stateMutability":"nonpayable"},{"type":"function","name":"availableTokens","inputs":[{"name":"","type":"uint256","internalType":"uint256"}],"outputs":[{"name":"","type":"bool","internalType":"bool"}],"stateMutability":"view"},{"type":"function","name":"balanceOf","inputs":[{"name":"owner","type":"address","internalType":"address"}],"outputs":[{"name":"","type":"uint256","internalType":"uint256"}],"stateMutability":"view"},{"type":"function","name":"batchMint","inputs":[{"name":"_uris","type":"string[]","internalType":"string[]"}],"outputs":[],"stateMutability":"nonpayable"},{"type":"function","name":"batchSetTokenURI","inputs":[{"name":"tokenIds","type":"uint256[]","internalType":"uint256[]"},{"name":"uris","type":"string[]","internalType":"string[]"}],"outputs":[],"stateMutability":"nonpayable"},{"type":"function","name":"canReveal","inputs":[],"outputs":[{"name":"","type":"bool","internalType":"bool"}],"stateMutability":"view"},{"type":"function","name":"checkAndReveal","inputs":[],"outputs":[],"stateMutability":"nonpayable"},{"type":"function","name":"currentPhase","inputs":[],"outputs":[{"name":"","type":"uint8","internalType":"enum RoninNFT.Phase"}],"stateMutability":"view"},{"type":"function","name":"getApproved","inputs":[{"name":"tokenId","type":"uint256","internalType":"uint256"}],"outputs":[{"name":"","type":"address","internalType":"address"}],"stateMutability":"view"},{"type":"function","name":"getCurrentPhase","inputs":[],"outputs":[{"name":"","type":"uint8","internalType":"enum RoninNFT.Phase"}],"stateMutability":"view"},{"type":"function","name":"isApprovedForAll","inputs":[{"name":"owner","type":"address","internalType":"address"},{"name":"operator","type":"address","internalType":"address"}],"outputs":[{"name":"","type":"bool","internalType":"bool"}],"stateMutability":"view"},{"type":"function","name":"isWhitelisted","inputs":[{"name":"_address","type":"address","internalType":"address"},{"name":"_phase","type":"uint8","internalType":"enum RoninNFT.Phase"}],"outputs":[{"name":"","type":"bool","internalType":"bool"}],"stateMutability":"view"},{"type":"function","name":"mint","inputs":[{"name":"uri","type":"string","internalType":"string"}],"outputs":[],"stateMutability":"nonpayable"},{"type":"function","name":"mintCountByPhase","inputs":[{"name":"","type":"uint8","internalType":"uint8"},{"name":"","type":"address","internalType":"address"}],"outputs":[{"name":"","type":"uint256","internalType":"uint256"}],"stateMutability":"view"},{"type":"function","name":"mintWithRon","inputs":[{"name":"tokenIds","type":"uint256[]","internalType":"uint256[]"}],"outputs":[],"stateMutability":"nonpayable"},{"type":"function","name":"mintWithRonAndNative","inputs":[{"name":"tokenIds","type":"uint256[]","internalType":"uint256[]"}],"outputs":[],"stateMutability":"nonpayable"},{"type":"function","name":"name","inputs":[],"outputs":[{"name":"","type":"string","internalType":"string"}],"stateMutability":"view"},{"type":"function","name":"nativeTokenAddress","inputs":[],"outputs":[{"name":"","type":"address","internalType":"address"}],"stateMutability":"view"},{"type":"function","name":"nativeTokenAmount","inputs":[],"outputs":[{"name":"","type":"uint256","internalType":"uint256"}],"stateMutability":"view"},{"type":"function","name":"notRevealedURI","inputs":[],"outputs":[{"name":"","type":"string","internalType":"string"}],"stateMutability":"view"},{"type":"function","name":"owner","inputs":[],"outputs":[{"name":"","type":"address","internalType":"address"}],"stateMutability":"view"},{"type":"function","name":"ownerOf","inputs":[{"name":"tokenId","type":"uint256","internalType":"uint256"}],"outputs":[{"name":"","type":"address","internalType":"address"}],"stateMutability":"view"},{"type":"function","name":"paymentRecipient","inputs":[],"outputs":[{"name":"","type":"address","internalType":"address"}],"stateMutability":"view"},{"type":"function","name":"phaseStartTime","inputs":[],"outputs":[{"name":"","type":"uint256","internalType":"uint256"}],"stateMutability":"view"},{"type":"function","name":"phaseWhitelist","inputs":[{"name":"","type":"uint8","internalType":"uint8"},{"name":"","type":"address","internalType":"address"}],"outputs":[{"name":"","type":"bool","internalType":"bool"}],"stateMutability":"view"},{"type":"function","name":"removeFromWhitelist","inputs":[{"name":"_addresses","type":"address[]","internalType":"address[]"},{"name":"_phase","type":"uint8","internalType":"uint8"}],"outputs":[],"stateMutability":"nonpayable"},{"type":"function","name":"renounceOwnership","inputs":[],"outputs":[],"stateMutability":"nonpayable"},{"type":"function","name":"reveal","inputs":[],"outputs":[],"stateMutability":"nonpayable"},{"type":"function","name":"revealTimestamp","inputs":[],"outputs":[{"name":"","type":"uint256","internalType":"uint256"}],"stateMutability":"view"},{"type":"function","name":"revealed","inputs":[],"outputs":[{"name":"","type":"bool","internalType":"bool"}],"stateMutability":"view"},{"type":"function","name":"ronAndNativePrice","inputs":[],"outputs":[{"name":"","type":"uint256","internalType":"uint256"}],"stateMutability":"view"},{"type":"function","name":"ronTokenAddress","inputs":[],"outputs":[{"name":"","type":"address","internalType":"address"}],"stateMutability":"view"},{"type":"function","name":"ronTokenPrice","inputs":[],"outputs":[{"name":"","type":"uint256","internalType":"uint256"}],"stateMutability":"view"},{"type":"function","name":"safeTransferFrom","inputs":[{"name":"from","type":"address","internalType":"address"},{"name":"to","type":"address","internalType":"address"},{"name":"tokenId","type":"uint256","internalType":"uint256"}],"outputs":[],"stateMutability":"nonpayable"},{"type":"function","name":"safeTransferFrom","inputs":[{"name":"from","type":"address","internalType":"address"},{"name":"to","type":"address","internalType":"address"},{"name":"tokenId","type":"uint256","internalType":"uint256"},{"name":"data","type":"bytes","internalType":"bytes"}],"outputs":[],"stateMutability":"nonpayable"},{"type":"function","name":"setApprovalForAll","inputs":[{"name":"operator","type":"address","internalType":"address"},{"name":"approved","type":"bool","internalType":"bool"}],"outputs":[],"stateMutability":"nonpayable"},{"type":"function","name":"setNativeTokenAddress","inputs":[{"name":"_address","type":"address","internalType":"address"}],"outputs":[],"stateMutability":"nonpayable"},{"type":"function","name":"setNotRevealedURI","inputs":[{"name":"_notRevealedURI","type":"string","internalType":"string"}],"outputs":[],"stateMutability":"nonpayable"},{"type":"function","name":"setPaymentRecipient","inputs":[{"name":"_recipient","type":"address","internalType":"address"}],"outputs":[],"stateMutability":"nonpayable"},{"type":"function","name":"setRevealTimestamp","inputs":[{"name":"_revealTimestamp","type":"uint256","internalType":"uint256"}],"outputs":[],"stateMutability":"nonpayable"},{"type":"function","name":"setRonAndNativePrice","inputs":[{"name":"_ronPrice","type":"uint256","internalType":"uint256"},{"name":"_nativeAmount","type":"uint256","internalType":"uint256"}],"outputs":[],"stateMutability":"nonpayable"},{"type":"function","name":"setRonTokenAddress","inputs":[{"name":"_address","type":"address","internalType":"address"}],"outputs":[],"stateMutability":"nonpayable"},{"type":"function","name":"setRonTokenPrice","inputs":[{"name":"_price","type":"uint256","internalType":"uint256"}],"outputs":[],"stateMutability":"nonpayable"},{"type":"function","name":"setTokenURI","inputs":[{"name":"tokenId","type":"uint256","internalType":"uint256"},{"name":"_tokenURI","type":"string","internalType":"string"}],"outputs":[],"stateMutability":"nonpayable"},{"type":"function","name":"startPhase","inputs":[{"name":"_phase","type":"uint8","internalType":"enum RoninNFT.Phase"}],"outputs":[],"stateMutability":"nonpayable"},{"type":"function","name":"supportsInterface","inputs":[{"name":"interfaceId","type":"bytes4","internalType":"bytes4"}],"outputs":[{"name":"","type":"bool","internalType":"bool"}],"stateMutability":"view"},{"type":"function","name":"symbol","inputs":[],"outputs":[{"name":"","type":"string","internalType":"string"}],"stateMutability":"view"},{"type":"function","name":"tokenURI","inputs":[{"name":"tokenId","type":"uint256","internalType":"uint256"}],"outputs":[{"name":"","type":"string","internalType":"string"}],"stateMutability":"view"},{"type":"function","name":"transferFrom","inputs":[{"name":"from","type":"address","internalType":"address"},{"name":"to","type":"address","internalType":"address"},{"name":"tokenId","type":"uint256","internalType":"uint256"}],"outputs":[],"stateMutability":"nonpayable"},{"type":"function","name":"transferOwnership","inputs":[{"name":"newOwner","type":"address","internalType":"address"}],"outputs":[],"stateMutability":"nonpayable"},{"type":"function","name":"withdrawERC20","inputs":[{"name":"_tokenAddress","type":"address","internalType":"address"},{"name":"_amount","type":"uint256","internalType":"uint256"}],"outputs":[],"stateMutability":"nonpayable"},{"type":"event","name":"AddedToWhitelist","inputs":[{"name":"account","type":"address","indexed":true,"internalType":"address"},{"name":"phase","type":"uint8","indexed":false,"internalType":"uint8"}],"anonymous":false},{"type":"event","name":"Approval","inputs":[{"name":"owner","type":"address","indexed":true,"internalType":"address"},{"name":"approved","type":"address","indexed":true,"internalType":"address"},{"name":"tokenId","type":"uint256","indexed":true,"internalType":"uint256"}],"anonymous":false},{"type":"event","name":"ApprovalForAll","inputs":[{"name":"owner","type":"address","indexed":true,"internalType":"address"},{"name":"operator","type":"address","indexed":true,"internalType":"address"},{"name":"approved","type":"bool","indexed":false,"internalType":"bool"}],"anonymous":false},{"type":"event","name":"BatchMetadataUpdate","inputs":[{"name":"_fromTokenId","type":"uint256","indexed":false,"internalType":"uint256"},{"name":"_toTokenId","type":"uint256","indexed":false,"internalType":"uint256"}],"anonymous":false},{"type":"event","name":"MetadataUpdate","inputs":[{"name":"_tokenId","type":"uint256","indexed":false,"internalType":"uint256"}],"anonymous":false},{"type":"event","name":"NFTMinted","inputs":[{"name":"recipient","type":"address","indexed":true,"internalType":"address"},{"name":"tokenId","type":"uint256","indexed":false,"internalType":"uint256"}],"anonymous":false},{"type":"event","name":"OwnershipTransferred","inputs":[{"name":"previousOwner","type":"address","indexed":true,"internalType":"address"},{"name":"newOwner","type":"address","indexed":true,"internalType":"address"}],"anonymous":false},{"type":"event","name":"PhaseStarted","inputs":[{"name":"phase","type":"uint8","indexed":false,"internalType":"enum RoninNFT.Phase"},{"name":"timestamp","type":"uint256","indexed":false,"internalType":"uint256"}],"anonymous":false},{"type":"event","name":"PriceUpdated","inputs":[{"name":"tokenType","type":"string","indexed":false,"internalType":"string"},{"name":"newPrice","type":"uint256","indexed":false,"internalType":"uint256"}],"anonymous":false},{"type":"event","name":"RemovedFromWhitelist","inputs":[{"name":"account","type":"address","indexed":true,"internalType":"address"},{"name":"phase","type":"uint8","indexed":false,"internalType":"uint8"}],"anonymous":false},{"type":"event","name":"RevealTimestampSet","inputs":[{"name":"timestamp","type":"uint256","indexed":false,"internalType":"uint256"}],"anonymous":false},{"type":"event","name":"Revealed","inputs":[],"anonymous":false},{"type":"event","name":"Transfer","inputs":[{"name":"from","type":"address","indexed":true,"internalType":"address"},{"name":"to","type":"address","indexed":true,"internalType":"address"},{"name":"tokenId","type":"uint256","indexed":true,"internalType":"uint256"}],"anonymous":false},{"type":"error","name":"ERC721IncorrectOwner","inputs":[{"name":"sender","type":"address","internalType":"address"},{"name":"tokenId","type":"uint256","internalType":"uint256"},{"name":"owner","type":"address","internalType":"address"}]},{"type":"error","name":"ERC721InsufficientApproval","inputs":[{"name":"operator","type":"address","internalType":"address"},{"name":"tokenId","type":"uint256","internalType":"uint256"}]},{"type":"error","name":"ERC721InvalidApprover","inputs":[{"name":"approver","type":"address","internalType":"address"}]},{"type":"error","name":"ERC721InvalidOperator","inputs":[{"name":"operator","type":"address","internalType":"address"}]},{"type":"error","name":"ERC721InvalidOwner","inputs":[{"name":"owner","type":"address","internalType":"address"}]},{"type":"error","name":"ERC721InvalidReceiver","inputs":[{"name":"receiver","type":"address","internalType":"address"}]},{"type":"error","name":"ERC721InvalidSender","inputs":[{"name":"sender","type":"address","internalType":"address"}]},{"type":"error","name":"ERC721NonexistentToken","inputs":[{"name":"tokenId","type":"uint256","internalType":"uint256"}]},{"type":"error","name":"OwnableInvalidOwner","inputs":[{"name":"owner","type":"address","internalType":"address"}]},{"type":"error","name":"OwnableUnauthorizedAccount","inputs":[{"name":"account","type":"address","internalType":"address"}]},{"type":"error","name":"ReentrancyGuardReentrantCall","inputs":[]}],"bytecode":{"object":"0x6080604052680270801d946c940000600c556801e5b8fa8fe2ac0000600d556907695a92c20d6fe00000600e555f600f5f6101000a81548160ff0219169083151502179055505f60135f6101000a81548160ff021916908360048111156200006c576200006b62000301565b5b02179055503480156200007d575f80fd5b50604051620066d5380380620066d58339818101604052810190620000a391906200054c565b338787815f9081620000b6919062000885565b508060019081620000c8919062000885565b5050505f73ffffffffffffffffffffffffffffffffffffffff168173ffffffffffffffffffffffffffffffffffffffff16036200013e575f6040517f1e4fbdf70000000000000000000000000000000000000000000000000000000081526004016200013591906200097a565b60405180910390fd5b6200014f816200023e60201b60201c565b506001600881905550846011908162000169919062000885565b508360095f6101000a81548173ffffffffffffffffffffffffffffffffffffffff021916908373ffffffffffffffffffffffffffffffffffffffff16021790555082600a5f6101000a81548173ffffffffffffffffffffffffffffffffffffffff021916908373ffffffffffffffffffffffffffffffffffffffff16021790555081600b5f6101000a81548173ffffffffffffffffffffffffffffffffffffffff021916908373ffffffffffffffffffffffffffffffffffffffff160217905550806010819055505050505050505062000995565b5f60075f9054906101000a900473ffffffffffffffffffffffffffffffffffffffff1690508160075f6101000a81548173ffffffffffffffffffffffffffffffffffffffff021916908373ffffffffffffffffffffffffffffffffffffffff1602179055508173ffffffffffffffffffffffffffffffffffffffff168173ffffffffffffffffffffffffffffffffffffffff167f8be0079c531659141344cd1fd0a4f28419497f9722a3daafe3b4186f6b6457e060405160405180910390a35050565b7f4e487b71000000000000000000000000000000000000000000000000000000005f52602160045260245ffd5b5f604051905090565b5f80fd5b5f80fd5b5f80fd5b5f80fd5b5f601f19601f8301169050919050565b7f4e487b71000000000000000000000000000000000000000000000000000000005f52604160045260245ffd5b6200038f8262000347565b810181811067ffffffffffffffff82111715620003b157620003b062000357565b5b80604052505050565b5f620003c56200032e565b9050620003d3828262000384565b919050565b5f67ffffffffffffffff821115620003f557620003f462000357565b5b620004008262000347565b9050602081019050919050565b5f5b838110156200042c5780820151818401526020810190506200040f565b5f8484015250505050565b5f6200044d6200044784620003d8565b620003ba565b9050828152602081018484840111156200046c576200046b62000343565b5b620004798482856200040d565b509392505050565b5f82601f8301126200049857620004976200033f565b5b8151620004aa84826020860162000437565b91505092915050565b5f73ffffffffffffffffffffffffffffffffffffffff82169050919050565b5f620004de82620004b3565b9050919050565b620004f081620004d2565b8114620004fb575f80fd5b50565b5f815190506200050e81620004e5565b92915050565b5f819050919050565b620005288162000514565b811462000533575f80fd5b50565b5f8151905062000546816200051d565b92915050565b5f805f805f805f60e0888a0312156200056a576200056962000337565b5b5f88015167ffffffffffffffff8111156200058a57620005896200033b565b5b620005988a828b0162000481565b975050602088015167ffffffffffffffff811115620005bc57620005bb6200033b565b5b620005ca8a828b0162000481565b965050604088015167ffffffffffffffff811115620005ee57620005ed6200033b565b5b620005fc8a828b0162000481565b95505060606200060f8a828b01620004fe565b9450506080620006228a828b01620004fe565b93505060a0620006358a828b01620004fe565b92505060c0620006488a828b0162000536565b91505092959891949750929550565b5f81519050919050565b7f4e487b71000000000000000000000000000000000000000000000000000000005f52602260045260245ffd5b5f6002820490506001821680620006a657607f821691505b602082108103620006bc57620006bb62000661565b5b50919050565b5f819050815f5260205f209050919050565b5f6020601f8301049050919050565b5f82821b905092915050565b5f60088302620007207fffffffffffffffffffffffffffffffffffffffffffffffffffffffffffffffff82620006e3565b6200072c8683620006e3565b95508019841693508086168417925050509392505050565b5f819050919050565b5f6200076d62000767620007618462000514565b62000744565b62000514565b9050919050565b5f819050919050565b62000788836200074d565b620007a0620007978262000774565b848454620006ef565b825550505050565b5f90565b620007b6620007a8565b620007c38184846200077d565b505050565b5b81811015620007ea57620007de5f82620007ac565b600181019050620007c9565b5050565b601f82111562000839576200080381620006c2565b6200080e84620006d4565b810160208510156200081e578190505b620008366200082d85620006d4565b830182620007c8565b50505b505050565b5f82821c905092915050565b5f6200085b5f19846008026200083e565b1980831691505092915050565b5f6200087583836200084a565b9150826002028217905092915050565b620008908262000657565b67ffffffffffffffff811115620008ac57620008ab62000357565b5b620008b882546200068e565b620008c5828285620007ee565b5f60209050601f831160018114620008fb575f8415620008e6578287015190505b620008f2858262000868565b86555062000961565b601f1984166200090b86620006c2565b5f5b8281101562000934578489015182556001820191506020850194506020810190506200090d565b8683101562000954578489015162000950601f8916826200084a565b8355505b6001600288020188555050505b505050505050565b6200097481620004d2565b82525050565b5f6020820190506200098f5f83018462000969565b92915050565b615d3280620009a35f395ff3fe608060405234801561000f575f80fd5b5060043610610380575f3560e01c80636706467b116101dc578063a977bcd61161010d578063e1097f53116100ab578063f2fde38b1161007a578063f2fde38b14610a08578063f56ffc0a14610a24578063f62f3c1114610a40578063fbf2f68314610a5e57610380565b8063e1097f5314610984578063e82368ab146109a0578063e985e9c5146109bc578063f2c4ce1e146109ec57610380565b8063af4825bc116100e7578063af4825bc14610900578063b88d4fde1461091c578063c87b56dd14610938578063d85d3d271461096857610380565b8063a977bcd614610882578063a9842610146108b2578063ad64d068146108d057610380565b8063938ece891161017a578063a1e7a69511610154578063a1e7a6951461080e578063a22cb4651461083e578063a3a40ea51461085a578063a475b5dd1461087857610380565b8063938ece89146107b657806395d89b41146107d4578063a1db9782146107f257610380565b8063715018a6116101b6578063715018a614610754578063722503801461075e5780637bb8323b1461077c5780638da5cb5b1461079857610380565b80636706467b146106ea5780636839c1bd1461070657806370a082311461072457610380565b80632b1eaf29116102b657806351830227116102545780635bcdf2071161022e5780635bcdf207146106765780635df1bfe5146106925780635e0a8a881461069c5780636352211e146106ba57610380565b8063518302271461060a57806354797392146106285780635539aa861461065857610380565b806342842e0e1161029057806342842e0e146105985780634d0047ee146105b45780634d14dce0146105d257806351251320146105ee57610380565b80632b1eaf291461053e57806332cb6b0c1461055c5780633884a4551461057a57610380565b8063095ea7b311610323578063162094c4116102fd578063162094c4146104ce5780631c9ed381146104ea57806323b872dd146105065780632983c4b81461052257610380565b8063095ea7b3146104765780630f3bfbdc1461049257806312f3d0c2146104b057610380565b8063055ad42e1161035f578063055ad42e146103ec57806306fdde031461040a578063079367c614610428578063081812fc1461044657610380565b80621bccc814610384578063018a2c37146103a057806301ffc9a7146103bc575b5f80fd5b61039e60048036038101906103999190614069565b610a7c565b005b6103ba60048036038101906103b591906140a7565b610acd565b005b6103d660048036038101906103d19190614127565b610b16565b6040516103e3919061416c565b60405180910390f35b6103f4610b76565b60405161040191906141f8565b60405180910390f35b610412610b88565b60405161041f919061429b565b60405180910390f35b610430610c17565b60405161043d91906142fa565b60405180910390f35b610460600480360381019061045b91906140a7565b610c3c565b60405161046d91906142fa565b60405180910390f35b610490600480360381019061048b919061433d565b610c57565b005b61049a610c6d565b6040516104a7919061438a565b60405180910390f35b6104b8610c73565b6040516104c5919061438a565b60405180910390f35b6104e860048036038101906104e391906144cf565b610c79565b005b61050460048036038101906104ff919061454c565b610c99565b005b610520600480360381019061051b9190614577565b610e29565b005b61053c600480360381019061053791906145c7565b610f28565b005b610546610f73565b60405161055391906142fa565b60405180910390f35b610564610f98565b604051610571919061438a565b60405180910390f35b610582610f9e565b60405161058f919061438a565b60405180910390f35b6105b260048036038101906105ad9190614577565b610fa4565b005b6105bc610fc3565b6040516105c991906142fa565b60405180910390f35b6105ec60048036038101906105e791906145c7565b610fe8565b005b61060860048036038101906106039190614685565b611033565b005b6106126111be565b60405161061f919061416c565b60405180910390f35b610642600480360381019061063d91906146e2565b6111d0565b60405161064f919061416c565b60405180910390f35b6106606112b6565b60405161066d919061438a565b60405180910390f35b610690600480360381019061068b9190614775565b6112bc565b005b61069a6113ae565b005b6106a461141c565b6040516106b1919061438a565b60405180910390f35b6106d460048036038101906106cf91906140a7565b611421565b6040516106e191906142fa565b60405180910390f35b61070460048036038101906106ff919061495e565b611432565b005b61070e611503565b60405161071b919061438a565b60405180910390f35b61073e600480360381019061073991906145c7565b611509565b60405161074b919061438a565b60405180910390f35b61075c6115bf565b005b6107666115d2565b604051610773919061429b565b60405180910390f35b610796600480360381019061079191906140a7565b61165e565b005b6107a06116a7565b6040516107ad91906142fa565b60405180910390f35b6107be6116cf565b6040516107cb919061438a565b60405180910390f35b6107dc6116d5565b6040516107e9919061429b565b60405180910390f35b61080c6004803603810190610807919061433d565b611765565b005b610828600480360381019061082391906149d4565b611837565b604051610835919061416c565b60405180910390f35b61085860048036038101906108539190614a3c565b611861565b005b610862611877565b60405161086f91906141f8565b60405180910390f35b610880611a1d565b005b61089c600480360381019061089791906149d4565b611a6d565b6040516108a9919061438a565b60405180910390f35b6108ba611a8d565b6040516108c7919061416c565b60405180910390f35b6108ea60048036038101906108e591906140a7565b611a99565b6040516108f7919061416c565b60405180910390f35b61091a60048036038101906109159190614acf565b611ab6565b005b61093660048036038101906109319190614bb8565b612060565b005b610952600480360381019061094d91906140a7565b612085565b60405161095f919061429b565b60405180910390f35b610982600480360381019061097d9190614c38565b6121a0565b005b61099e60048036038101906109999190614685565b6121fb565b005b6109ba60048036038101906109b591906145c7565b612385565b005b6109d660048036038101906109d19190614c7f565b6123d0565b6040516109e3919061416c565b60405180910390f35b610a066004803603810190610a019190614c38565b61245e565b005b610a226004803603810190610a1d91906145c7565b612479565b005b610a3e6004803603810190610a399190614acf565b6124fd565b005b610a48612c78565b604051610a55919061438a565b60405180910390f35b610a66612c7e565b604051610a73919061438a565b60405180910390f35b610a84612c84565b81600d8190555080600e819055507f159e83f4712ba2552e68be9d848e49bf6dd35c24f19564ffd523b6549450a2f482604051610ac19190614d07565b60405180910390a15050565b610ad5612c84565b806010819055507f3587370e92498b996ffb077cfba4488e24ad3924be64e734c2a463eb2171153c81604051610b0b919061438a565b60405180910390a150565b5f634906490660e01b7bffffffffffffffffffffffffffffffffffffffffffffffffffffffff1916827bffffffffffffffffffffffffffffffffffffffffffffffffffffffff19161480610b6f5750610b6e82612d0b565b5b9050919050565b60135f9054906101000a900460ff1681565b60605f8054610b9690614d60565b80601f0160208091040260200160405190810160405280929190818152602001828054610bc290614d60565b8015610c0d5780601f10610be457610100808354040283529160200191610c0d565b820191905f5260205f20905b815481529060010190602001808311610bf057829003601f168201915b5050505050905090565b60095f9054906101000a900473ffffffffffffffffffffffffffffffffffffffff1681565b5f610c4682612dec565b50610c5082612e72565b9050919050565b610c698282610c64612eab565b612eb2565b5050565b600d5481565b60145481565b610c81612c84565b610c8a82612ec4565b50610c958282612fcf565b5050565b610ca1612c84565b5f6004811115610cb457610cb3614185565b5b816004811115610cc757610cc6614185565b5b03610d07576040517f08c379a0000000000000000000000000000000000000000000000000000000008152600401610cfe90614dda565b60405180910390fd5b60135f9054906101000a900460ff166004811115610d2857610d27614185565b5b60ff16816004811115610d3e57610d3d614185565b5b60ff161180610d7e57505f6004811115610d5b57610d5a614185565b5b60135f9054906101000a900460ff166004811115610d7c57610d7b614185565b5b145b610dbd576040517f08c379a0000000000000000000000000000000000000000000000000000000008152600401610db490614e42565b60405180910390fd5b8060135f6101000a81548160ff02191690836004811115610de157610de0614185565b5b0217905550426014819055507f07ae9ff1ff5922feb7221008b80a606dce2b123504acb459285fc38250e063978142604051610e1e929190614e60565b60405180910390a150565b5f73ffffffffffffffffffffffffffffffffffffffff168273ffffffffffffffffffffffffffffffffffffffff1603610e99575f6040517f64a0ae92000000000000000000000000000000000000000000000000000000008152600401610e9091906142fa565b60405180910390fd5b5f610eac8383610ea7612eab565b613029565b90508373ffffffffffffffffffffffffffffffffffffffff168173ffffffffffffffffffffffffffffffffffffffff1614610f22578382826040517f64283d7b000000000000000000000000000000000000000000000000000000008152600401610f1993929190614e87565b60405180910390fd5b50505050565b610f30612c84565b80600b5f6101000a81548173ffffffffffffffffffffffffffffffffffffffff021916908373ffffffffffffffffffffffffffffffffffffffff16021790555050565b600b5f9054906101000a900473ffffffffffffffffffffffffffffffffffffffff1681565b611a0a81565b600e5481565b610fbe83838360405180602001604052805f815250612060565b505050565b600a5f9054906101000a900473ffffffffffffffffffffffffffffffffffffffff1681565b610ff0612c84565b8060095f6101000a81548173ffffffffffffffffffffffffffffffffffffffff021916908373ffffffffffffffffffffffffffffffffffffffff16021790555050565b61103b612c84565b60018160ff1610158015611053575060038160ff1611155b611092576040517f08c379a000000000000000000000000000000000000000000000000000000000815260040161108990614f06565b60405180910390fd5b5f5b838390508110156111b857600160155f8460ff1660ff1681526020019081526020015f205f8686858181106110cc576110cb614f24565b5b90506020020160208101906110e191906145c7565b73ffffffffffffffffffffffffffffffffffffffff1673ffffffffffffffffffffffffffffffffffffffff1681526020019081526020015f205f6101000a81548160ff02191690831515021790555083838281811061114357611142614f24565b5b905060200201602081019061115891906145c7565b73ffffffffffffffffffffffffffffffffffffffff167ff2770f4306387f6808408bc90fd92ba10ab7aa3cfeee41079c867a1450e1e3598360405161119d9190614f60565b60405180910390a280806111b090614fa6565b915050611094565b50505050565b600f5f9054906101000a900460ff1681565b5f6004808111156111e4576111e3614185565b5b8260048111156111f7576111f6614185565b5b0361120557600190506112b0565b5f600190505b82600481111561121e5761121d614185565b5b60ff168160ff16116112ab5760155f8260ff1660ff1681526020019081526020015f205f8573ffffffffffffffffffffffffffffffffffffffff1673ffffffffffffffffffffffffffffffffffffffff1681526020019081526020015f205f9054906101000a900460ff16156112985760019150506112b0565b80806112a390614fed565b91505061120b565b505f90505b92915050565b61708081565b6112c4612c84565b611a0a828290506012546112d89190615015565b1115611319576040517f08c379a000000000000000000000000000000000000000000000000000000000815260040161131090615092565b60405180910390fd5b5f5b828290508110156113a9576113963084848481811061133d5761133c614f24565b5b905060200281019061134f91906150bc565b8080601f0160208091040260200160405190810160405280939291908181526020018383808284375f81840152601f19601f82011690508083019250505050505050613234565b80806113a190614fa6565b91505061131b565b505050565b600f5f9054906101000a900460ff161580156113ce57506113cd611a8d565b5b1561141a576001600f5f6101000a81548160ff0219169083151502179055507fe2a7169cedebe39671840370ae19ca4fc41be6191d4c77f174f189a4d8cd08c860405160405180910390a15b565b600381565b5f61142b82612dec565b9050919050565b61143a612c84565b805182511461147e576040517f08c379a000000000000000000000000000000000000000000000000000000000815260040161147590615168565b60405180910390fd5b5f5b82518110156114fe576114ac83828151811061149f5761149e614f24565b5b6020026020010151612ec4565b506114eb8382815181106114c3576114c2614f24565b5b60200260200101518383815181106114de576114dd614f24565b5b6020026020010151612fcf565b80806114f690614fa6565b915050611480565b505050565b61384081565b5f8073ffffffffffffffffffffffffffffffffffffffff168273ffffffffffffffffffffffffffffffffffffffff160361157a575f6040517f89c62b6400000000000000000000000000000000000000000000000000000000815260040161157191906142fa565b60405180910390fd5b60035f8373ffffffffffffffffffffffffffffffffffffffff1673ffffffffffffffffffffffffffffffffffffffff1681526020019081526020015f20549050919050565b6115c7612c84565b6115d05f613327565b565b601180546115df90614d60565b80601f016020809104026020016040519081016040528092919081815260200182805461160b90614d60565b80156116565780601f1061162d57610100808354040283529160200191611656565b820191905f5260205f20905b81548152906001019060200180831161163957829003601f168201915b505050505081565b611666612c84565b80600c819055507f159e83f4712ba2552e68be9d848e49bf6dd35c24f19564ffd523b6549450a2f48160405161169c91906151d0565b60405180910390a150565b5f60075f9054906101000a900473ffffffffffffffffffffffffffffffffffffffff16905090565b61708081565b6060600180546116e490614d60565b80601f016020809104026020016040519081016040528092919081815260200182805461171090614d60565b801561175b5780601f106117325761010080835404028352916020019161175b565b820191905f5260205f20905b81548152906001019060200180831161173e57829003601f168201915b5050505050905090565b61176d612c84565b5f8290508073ffffffffffffffffffffffffffffffffffffffff1663a9059cbb6117956116a7565b846040518363ffffffff1660e01b81526004016117b39291906151fc565b6020604051808303815f875af11580156117cf573d5f803e3d5ffd5b505050506040513d601f19601f820116820180604052508101906117f39190615237565b611832576040517f08c379a0000000000000000000000000000000000000000000000000000000008152600401611829906152ac565b60405180910390fd5b505050565b6015602052815f5260405f20602052805f5260405f205f915091509054906101000a900460ff1681565b61187361186c612eab565b83836133ea565b5050565b5f80600481111561188b5761188a614185565b5b60135f9054906101000a900460ff1660048111156118ac576118ab614185565b5b036118b9575f9050611a1a565b5f601454426118c891906152ca565b9050600160048111156118de576118dd614185565b5b60135f9054906101000a900460ff1660048111156118ff576118fe614185565b5b0361192257613840811015611918576001915050611a1a565b6002915050611a1a565b6002600481111561193657611935614185565b5b60135f9054906101000a900460ff16600481111561195757611956614185565b5b0361197a57617080811015611970576002915050611a1a565b6003915050611a1a565b6003600481111561198e5761198d614185565b5b60135f9054906101000a900460ff1660048111156119af576119ae614185565b5b036119d2576170808110156119c8576003915050611a1a565b6004915050611a1a565b6004808111156119e5576119e4614185565b5b60135f9054906101000a900460ff166004811115611a0657611a05614185565b5b03611a15576004915050611a1a565b5f9150505b90565b611a25612c84565b6001600f5f6101000a81548160ff0219169083151502179055507fe2a7169cedebe39671840370ae19ca4fc41be6191d4c77f174f189a4d8cd08c860405160405180910390a1565b6016602052815f5260405f20602052805f5260405f205f91509150505481565b5f601054421015905090565b6018602052805f5260405f205f915054906101000a900460ff1681565b611abe613553565b5f8282905090505f81118015611ad5575060038111155b611b14576040517f08c379a0000000000000000000000000000000000000000000000000000000008152600401611b0b90615347565b60405180910390fd5b5f611b1d611877565b90505f6004811115611b3257611b31614185565b5b816004811115611b4557611b44614185565b5b03611b85576040517f08c379a0000000000000000000000000000000000000000000000000000000008152600401611b7c906153af565b60405180910390fd5b611b8f33826111d0565b611bce576040517f08c379a0000000000000000000000000000000000000000000000000000000008152600401611bc59061543d565b60405180910390fd5b5f816004811115611be257611be1614185565b5b905060038360165f8460ff1660ff1681526020019081526020015f205f3373ffffffffffffffffffffffffffffffffffffffff1673ffffffffffffffffffffffffffffffffffffffff1681526020019081526020015f2054611c449190615015565b1115611c85576040517f08c379a0000000000000000000000000000000000000000000000000000000008152600401611c7c906154cb565b60405180910390fd5b8260165f8360ff1660ff1681526020019081526020015f205f3373ffffffffffffffffffffffffffffffffffffffff1673ffffffffffffffffffffffffffffffffffffffff1681526020019081526020015f205f828254611ce69190615015565b925050819055505f83600c54611cfc91906154e9565b90505f60095f9054906101000a900473ffffffffffffffffffffffffffffffffffffffff169050818173ffffffffffffffffffffffffffffffffffffffff1663dd62ed3e33306040518363ffffffff1660e01b8152600401611d5f92919061552a565b602060405180830381865afa158015611d7a573d5f803e3d5ffd5b505050506040513d601f19601f82011682018060405250810190611d9e9190615565565b1015611ddf576040517f08c379a0000000000000000000000000000000000000000000000000000000008152600401611dd6906155da565b60405180910390fd5b8073ffffffffffffffffffffffffffffffffffffffff166323b872dd33600b5f9054906101000a900473ffffffffffffffffffffffffffffffffffffffff16856040518463ffffffff1660e01b8152600401611e3d939291906155f8565b6020604051808303815f875af1158015611e59573d5f803e3d5ffd5b505050506040513d601f19601f82011682018060405250810190611e7d9190615237565b611ebc576040517f08c379a0000000000000000000000000000000000000000000000000000000008152600401611eb390615677565b60405180910390fd5b5f5b8787905081101561204e575f888883818110611edd57611edc614f24565b5b9050602002013590503073ffffffffffffffffffffffffffffffffffffffff16611f0682611421565b73ffffffffffffffffffffffffffffffffffffffff1614611f5c576040517f08c379a0000000000000000000000000000000000000000000000000000000008152600401611f53906156df565b60405180910390fd5b60185f8281526020019081526020015f205f9054906101000a900460ff16611fb9576040517f08c379a0000000000000000000000000000000000000000000000000000000008152600401611fb090615747565b60405180910390fd5b5f60185f8381526020019081526020015f205f6101000a81548160ff021916908315150217905550611fec303383613599565b3373ffffffffffffffffffffffffffffffffffffffff167f4cc0a9c4a99ddc700de1af2c9f916a7cbfdb71f14801ccff94061ad1ef8a804082604051612032919061438a565b60405180910390a250808061204690614fa6565b915050611ebe565b50505050505061205c613701565b5050565b61206b848484610e29565b61207f612076612eab565b8585858561370b565b50505050565b606061209082612ec4565b50600f5f9054906101000a900460ff161580156120b257506120b0611a8d565b155b1561214757601180546120c490614d60565b80601f01602080910402602001604051908101604052809291908181526020018280546120f090614d60565b801561213b5780601f106121125761010080835404028352916020019161213b565b820191905f5260205f20905b81548152906001019060200180831161211e57829003601f168201915b5050505050905061219b565b5f61215183612ec4565b90505f815111612196576040517f08c379a000000000000000000000000000000000000000000000000000000000815260040161218d906157af565b60405180910390fd5b809150505b919050565b6121a8612c84565b611a0a601254106121ee576040517f08c379a00000000000000000000000000000000000000000000000000000000081526004016121e590615817565b60405180910390fd5b6121f83082613234565b50565b612203612c84565b60018160ff161015801561221b575060038160ff1611155b61225a576040517f08c379a000000000000000000000000000000000000000000000000000000000815260040161225190614f06565b60405180910390fd5b5f5b8383905081101561237f575f60155f8460ff1660ff1681526020019081526020015f205f86868581811061229357612292614f24565b5b90506020020160208101906122a891906145c7565b73ffffffffffffffffffffffffffffffffffffffff1673ffffffffffffffffffffffffffffffffffffffff1681526020019081526020015f205f6101000a81548160ff02191690831515021790555083838281811061230a57612309614f24565b5b905060200201602081019061231f91906145c7565b73ffffffffffffffffffffffffffffffffffffffff167f0dd9c0d1e302b91b0657d241bbf7b07501a5b96403a718c4a291e916f315b0a0836040516123649190614f60565b60405180910390a2808061237790614fa6565b91505061225c565b50505050565b61238d612c84565b80600a5f6101000a81548173ffffffffffffffffffffffffffffffffffffffff021916908373ffffffffffffffffffffffffffffffffffffffff16021790555050565b5f60055f8473ffffffffffffffffffffffffffffffffffffffff1673ffffffffffffffffffffffffffffffffffffffff1681526020019081526020015f205f8373ffffffffffffffffffffffffffffffffffffffff1673ffffffffffffffffffffffffffffffffffffffff1681526020019081526020015f205f9054906101000a900460ff16905092915050565b612466612c84565b806011908161247591906159d2565b5050565b612481612c84565b5f73ffffffffffffffffffffffffffffffffffffffff168173ffffffffffffffffffffffffffffffffffffffff16036124f1575f6040517f1e4fbdf70000000000000000000000000000000000000000000000000000000081526004016124e891906142fa565b60405180910390fd5b6124fa81613327565b50565b612505613553565b5f8282905090505f8111801561251c575060038111155b61255b576040517f08c379a000000000000000000000000000000000000000000000000000000000815260040161255290615347565b60405180910390fd5b5f612564611877565b90505f600481111561257957612578614185565b5b81600481111561258c5761258b614185565b5b036125cc576040517f08c379a00000000000000000000000000000000000000000000000000000000081526004016125c3906153af565b60405180910390fd5b6125d633826111d0565b612615576040517f08c379a000000000000000000000000000000000000000000000000000000000815260040161260c9061543d565b60405180910390fd5b5f81600481111561262957612628614185565b5b905060038360165f8460ff1660ff1681526020019081526020015f205f3373ffffffffffffffffffffffffffffffffffffffff1673ffffffffffffffffffffffffffffffffffffffff1681526020019081526020015f205461268b9190615015565b11156126cc576040517f08c379a00000000000000000000000000000000000000000000000000000000081526004016126c3906154cb565b60405180910390fd5b8260165f8360ff1660ff1681526020019081526020015f205f3373ffffffffffffffffffffffffffffffffffffffff1673ffffffffffffffffffffffffffffffffffffffff1681526020019081526020015f205f82825461272d9190615015565b925050819055505f83600d5461274391906154e9565b90505f84600e5461275491906154e9565b90505f60095f9054906101000a900473ffffffffffffffffffffffffffffffffffffffff1690505f600a5f9054906101000a900473ffffffffffffffffffffffffffffffffffffffff169050838273ffffffffffffffffffffffffffffffffffffffff1663dd62ed3e33306040518363ffffffff1660e01b81526004016127dc92919061552a565b602060405180830381865afa1580156127f7573d5f803e3d5ffd5b505050506040513d601f19601f8201168201806040525081019061281b9190615565565b101561285c576040517f08c379a0000000000000000000000000000000000000000000000000000000008152600401612853906155da565b60405180910390fd5b828173ffffffffffffffffffffffffffffffffffffffff1663dd62ed3e33306040518363ffffffff1660e01b815260040161289892919061552a565b602060405180830381865afa1580156128b3573d5f803e3d5ffd5b505050506040513d601f19601f820116820180604052508101906128d79190615565565b1015612918576040517f08c379a000000000000000000000000000000000000000000000000000000000815260040161290f90615b11565b60405180910390fd5b8173ffffffffffffffffffffffffffffffffffffffff166323b872dd33600b5f9054906101000a900473ffffffffffffffffffffffffffffffffffffffff16876040518463ffffffff1660e01b8152600401612976939291906155f8565b6020604051808303815f875af1158015612992573d5f803e3d5ffd5b505050506040513d601f19601f820116820180604052508101906129b69190615237565b6129f5576040517f08c379a00000000000000000000000000000000000000000000000000000000081526004016129ec90615677565b60405180910390fd5b8073ffffffffffffffffffffffffffffffffffffffff166323b872dd33600b5f9054906101000a900473ffffffffffffffffffffffffffffffffffffffff16866040518463ffffffff1660e01b8152600401612a53939291906155f8565b6020604051808303815f875af1158015612a6f573d5f803e3d5ffd5b505050506040513d601f19601f82011682018060405250810190612a939190615237565b612ad2576040517f08c379a0000000000000000000000000000000000000000000000000000000008152600401612ac990615b79565b60405180910390fd5b5f5b89899050811015612c64575f8a8a83818110612af357612af2614f24565b5b9050602002013590503073ffffffffffffffffffffffffffffffffffffffff16612b1c82611421565b73ffffffffffffffffffffffffffffffffffffffff1614612b72576040517f08c379a0000000000000000000000000000000000000000000000000000000008152600401612b69906156df565b60405180910390fd5b60185f8281526020019081526020015f205f9054906101000a900460ff16612bcf576040517f08c379a0000000000000000000000000000000000000000000000000000000008152600401612bc690615747565b60405180910390fd5b5f60185f8381526020019081526020015f205f6101000a81548160ff021916908315150217905550612c02303383613599565b3373ffffffffffffffffffffffffffffffffffffffff167f4cc0a9c4a99ddc700de1af2c9f916a7cbfdb71f14801ccff94061ad1ef8a804082604051612c48919061438a565b60405180910390a2508080612c5c90614fa6565b915050612ad4565b5050505050505050612c74613701565b5050565b60105481565b600c5481565b612c8c612eab565b73ffffffffffffffffffffffffffffffffffffffff16612caa6116a7565b73ffffffffffffffffffffffffffffffffffffffff1614612d0957612ccd612eab565b6040517f118cdaa7000000000000000000000000000000000000000000000000000000008152600401612d0091906142fa565b60405180910390fd5b565b5f7f80ac58cd000000000000000000000000000000000000000000000000000000007bffffffffffffffffffffffffffffffffffffffffffffffffffffffff1916827bffffffffffffffffffffffffffffffffffffffffffffffffffffffff19161480612dd557507f5b5e139f000000000000000000000000000000000000000000000000000000007bffffffffffffffffffffffffffffffffffffffffffffffffffffffff1916827bffffffffffffffffffffffffffffffffffffffffffffffffffffffff1916145b80612de55750612de4826138b7565b5b9050919050565b5f80612df783613920565b90505f73ffffffffffffffffffffffffffffffffffffffff168173ffffffffffffffffffffffffffffffffffffffff1603612e6957826040517f7e273289000000000000000000000000000000000000000000000000000000008152600401612e60919061438a565b60405180910390fd5b80915050919050565b5f60045f8381526020019081526020015f205f9054906101000a900473ffffffffffffffffffffffffffffffffffffffff169050919050565b5f33905090565b612ebf8383836001613959565b505050565b6060612ecf82612dec565b505f60065f8481526020019081526020015f208054612eed90614d60565b80601f0160208091040260200160405190810160405280929190818152602001828054612f1990614d60565b8015612f645780601f10612f3b57610100808354040283529160200191612f64565b820191905f5260205f20905b815481529060010190602001808311612f4757829003601f168201915b505050505090505f612f74613b18565b90505f815103612f88578192505050612fca565b5f82511115612fbc578082604051602001612fa4929190615bd1565b60405160208183030381529060405292505050612fca565b612fc584613b2e565b925050505b919050565b8060065f8481526020019081526020015f209081612fed91906159d2565b507ff8e1a15aba9398e019f0b49df1a4fde98ee17ae345cb5f6b5e2c27f5033e8ce78260405161301d919061438a565b60405180910390a15050565b5f8061303484613920565b90505f73ffffffffffffffffffffffffffffffffffffffff168373ffffffffffffffffffffffffffffffffffffffff161461307557613074818486613b94565b5b5f73ffffffffffffffffffffffffffffffffffffffff168173ffffffffffffffffffffffffffffffffffffffff1614613100576130b45f855f80613959565b600160035f8373ffffffffffffffffffffffffffffffffffffffff1673ffffffffffffffffffffffffffffffffffffffff1681526020019081526020015f205f82825403925050819055505b5f73ffffffffffffffffffffffffffffffffffffffff168573ffffffffffffffffffffffffffffffffffffffff161461317f57600160035f8773ffffffffffffffffffffffffffffffffffffffff1673ffffffffffffffffffffffffffffffffffffffff1681526020019081526020015f205f82825401925050819055505b8460025f8681526020019081526020015f205f6101000a81548173ffffffffffffffffffffffffffffffffffffffff021916908373ffffffffffffffffffffffffffffffffffffffff160217905550838573ffffffffffffffffffffffffffffffffffffffff168273ffffffffffffffffffffffffffffffffffffffff167fddf252ad1be2c89b69c2b068fc378daa952ba7f163c4a11628f55a4df523b3ef60405160405180910390a4809150509392505050565b611a0a6012541061327a576040517f08c379a000000000000000000000000000000000000000000000000000000000815260040161327190615817565b60405180910390fd5b60125f81548092919061328c90614fa6565b91905055505f60125490506132a18382613c57565b6132ab8183612fcf565b600160185f8381526020019081526020015f205f6101000a81548160ff0219169083151502179055508273ffffffffffffffffffffffffffffffffffffffff167f4cc0a9c4a99ddc700de1af2c9f916a7cbfdb71f14801ccff94061ad1ef8a80408260405161331a919061438a565b60405180910390a2505050565b5f60075f9054906101000a900473ffffffffffffffffffffffffffffffffffffffff1690508160075f6101000a81548173ffffffffffffffffffffffffffffffffffffffff021916908373ffffffffffffffffffffffffffffffffffffffff1602179055508173ffffffffffffffffffffffffffffffffffffffff168173ffffffffffffffffffffffffffffffffffffffff167f8be0079c531659141344cd1fd0a4f28419497f9722a3daafe3b4186f6b6457e060405160405180910390a35050565b5f73ffffffffffffffffffffffffffffffffffffffff168273ffffffffffffffffffffffffffffffffffffffff160361345a57816040517f5b08ba1800000000000000000000000000000000000000000000000000000000815260040161345191906142fa565b60405180910390fd5b8060055f8573ffffffffffffffffffffffffffffffffffffffff1673ffffffffffffffffffffffffffffffffffffffff1681526020019081526020015f205f8473ffffffffffffffffffffffffffffffffffffffff1673ffffffffffffffffffffffffffffffffffffffff1681526020019081526020015f205f6101000a81548160ff0219169083151502179055508173ffffffffffffffffffffffffffffffffffffffff168373ffffffffffffffffffffffffffffffffffffffff167f17307eab39ab6107e8899845ad3d59bd9653f200f220920489ca2b5937696c3183604051613546919061416c565b60405180910390a3505050565b60026008540361358f576040517f3ee5aeb500000000000000000000000000000000000000000000000000000000815260040160405180910390fd5b6002600881905550565b5f73ffffffffffffffffffffffffffffffffffffffff168273ffffffffffffffffffffffffffffffffffffffff1603613609575f6040517f64a0ae9200000000000000000000000000000000000000000000000000000000815260040161360091906142fa565b60405180910390fd5b5f61361583835f613029565b90505f73ffffffffffffffffffffffffffffffffffffffff168173ffffffffffffffffffffffffffffffffffffffff160361368757816040517f7e27328900000000000000000000000000000000000000000000000000000000815260040161367e919061438a565b60405180910390fd5b8373ffffffffffffffffffffffffffffffffffffffff168173ffffffffffffffffffffffffffffffffffffffff16146136fb578382826040517f64283d7b0000000000000000000000000000000000000000000000000000000081526004016136f293929190614e87565b60405180910390fd5b50505050565b6001600881905550565b5f8373ffffffffffffffffffffffffffffffffffffffff163b11156138b0578273ffffffffffffffffffffffffffffffffffffffff1663150b7a02868685856040518563ffffffff1660e01b81526004016137699493929190615c46565b6020604051808303815f875af19250505080156137a457506040513d601f19601f820116820180604052508101906137a19190615ca4565b60015b613825573d805f81146137d2576040519150601f19603f3d011682016040523d82523d5f602084013e6137d7565b606091505b505f81510361381d57836040517f64a0ae9200000000000000000000000000000000000000000000000000000000815260040161381491906142fa565b60405180910390fd5b805181602001fd5b63150b7a0260e01b7bffffffffffffffffffffffffffffffffffffffffffffffffffffffff1916817bffffffffffffffffffffffffffffffffffffffffffffffffffffffff1916146138ae57836040517f64a0ae920000000000000000000000000000000000000000000000000000000081526004016138a591906142fa565b60405180910390fd5b505b5050505050565b5f7f01ffc9a7000000000000000000000000000000000000000000000000000000007bffffffffffffffffffffffffffffffffffffffffffffffffffffffff1916827bffffffffffffffffffffffffffffffffffffffffffffffffffffffff1916149050919050565b5f60025f8381526020019081526020015f205f9054906101000a900473ffffffffffffffffffffffffffffffffffffffff169050919050565b808061399157505f73ffffffffffffffffffffffffffffffffffffffff168273ffffffffffffffffffffffffffffffffffffffff1614155b15613ac3575f6139a084612dec565b90505f73ffffffffffffffffffffffffffffffffffffffff168373ffffffffffffffffffffffffffffffffffffffff1614158015613a0a57508273ffffffffffffffffffffffffffffffffffffffff168173ffffffffffffffffffffffffffffffffffffffff1614155b8015613a1d5750613a1b81846123d0565b155b15613a5f57826040517fa9fbf51f000000000000000000000000000000000000000000000000000000008152600401613a5691906142fa565b60405180910390fd5b8115613ac157838573ffffffffffffffffffffffffffffffffffffffff168273ffffffffffffffffffffffffffffffffffffffff167f8c5be1e5ebec7d5bd14f71427d1e84f3dd0314c0f7b2291e5b200ac8c7c3b92560405160405180910390a45b505b8360045f8581526020019081526020015f205f6101000a81548173ffffffffffffffffffffffffffffffffffffffff021916908373ffffffffffffffffffffffffffffffffffffffff16021790555050505050565b606060405180602001604052805f815250905090565b6060613b3982612dec565b505f613b43613b18565b90505f815111613b615760405180602001604052805f815250613b8c565b80613b6b84613d4a565b604051602001613b7c929190615bd1565b6040516020818303038152906040525b915050919050565b613b9f838383613e14565b613c52575f73ffffffffffffffffffffffffffffffffffffffff168373ffffffffffffffffffffffffffffffffffffffff1603613c1357806040517f7e273289000000000000000000000000000000000000000000000000000000008152600401613c0a919061438a565b60405180910390fd5b81816040517f177e802f000000000000000000000000000000000000000000000000000000008152600401613c499291906151fc565b60405180910390fd5b505050565b5f73ffffffffffffffffffffffffffffffffffffffff168273ffffffffffffffffffffffffffffffffffffffff1603613cc7575f6040517f64a0ae92000000000000000000000000000000000000000000000000000000008152600401613cbe91906142fa565b60405180910390fd5b5f613cd383835f613029565b90505f73ffffffffffffffffffffffffffffffffffffffff168173ffffffffffffffffffffffffffffffffffffffff1614613d45575f6040517f73c6ac6e000000000000000000000000000000000000000000000000000000008152600401613d3c91906142fa565b60405180910390fd5b505050565b60605f6001613d5884613ed4565b0190505f8167ffffffffffffffff811115613d7657613d756143ab565b5b6040519080825280601f01601f191660200182016040528015613da85781602001600182028036833780820191505090505b5090505f82602001820190505b600115613e09578080600190039150507f3031323334353637383961626364656600000000000000000000000000000000600a86061a8153600a8581613dfe57613dfd615ccf565b5b0494505f8503613db5575b819350505050919050565b5f8073ffffffffffffffffffffffffffffffffffffffff168373ffffffffffffffffffffffffffffffffffffffff1614158015613ecb57508273ffffffffffffffffffffffffffffffffffffffff168473ffffffffffffffffffffffffffffffffffffffff161480613e8c5750613e8b84846123d0565b5b80613eca57508273ffffffffffffffffffffffffffffffffffffffff16613eb283612e72565b73ffffffffffffffffffffffffffffffffffffffff16145b5b90509392505050565b5f805f90507a184f03e93ff9f4daa797ed6e38ed64bf6a1f0100000000000000008310613f30577a184f03e93ff9f4daa797ed6e38ed64bf6a1f0100000000000000008381613f2657613f25615ccf565b5b0492506040810190505b6d04ee2d6d415b85acef81000000008310613f6d576d04ee2d6d415b85acef81000000008381613f6357613f62615ccf565b5b0492506020810190505b662386f26fc100008310613f9c57662386f26fc100008381613f9257613f91615ccf565b5b0492506010810190505b6305f5e1008310613fc5576305f5e1008381613fbb57613fba615ccf565b5b0492506008810190505b6127108310613fea576127108381613fe057613fdf615ccf565b5b0492506004810190505b6064831061400d576064838161400357614002615ccf565b5b0492506002810190505b600a831061401c576001810190505b80915050919050565b5f604051905090565b5f80fd5b5f80fd5b5f819050919050565b61404881614036565b8114614052575f80fd5b50565b5f813590506140638161403f565b92915050565b5f806040838503121561407f5761407e61402e565b5b5f61408c85828601614055565b925050602061409d85828601614055565b9150509250929050565b5f602082840312156140bc576140bb61402e565b5b5f6140c984828501614055565b91505092915050565b5f7fffffffff0000000000000000000000000000000000000000000000000000000082169050919050565b614106816140d2565b8114614110575f80fd5b50565b5f81359050614121816140fd565b92915050565b5f6020828403121561413c5761413b61402e565b5b5f61414984828501614113565b91505092915050565b5f8115159050919050565b61416681614152565b82525050565b5f60208201905061417f5f83018461415d565b92915050565b7f4e487b71000000000000000000000000000000000000000000000000000000005f52602160045260245ffd5b600581106141c3576141c2614185565b5b50565b5f8190506141d3826141b2565b919050565b5f6141e2826141c6565b9050919050565b6141f2816141d8565b82525050565b5f60208201905061420b5f8301846141e9565b92915050565b5f81519050919050565b5f82825260208201905092915050565b5f5b8381101561424857808201518184015260208101905061422d565b5f8484015250505050565b5f601f19601f8301169050919050565b5f61426d82614211565b614277818561421b565b935061428781856020860161422b565b61429081614253565b840191505092915050565b5f6020820190508181035f8301526142b38184614263565b905092915050565b5f73ffffffffffffffffffffffffffffffffffffffff82169050919050565b5f6142e4826142bb565b9050919050565b6142f4816142da565b82525050565b5f60208201905061430d5f8301846142eb565b92915050565b61431c816142da565b8114614326575f80fd5b50565b5f8135905061433781614313565b92915050565b5f80604083850312156143535761435261402e565b5b5f61436085828601614329565b925050602061437185828601614055565b9150509250929050565b61438481614036565b82525050565b5f60208201905061439d5f83018461437b565b92915050565b5f80fd5b5f80fd5b7f4e487b71000000000000000000000000000000000000000000000000000000005f52604160045260245ffd5b6143e182614253565b810181811067ffffffffffffffff82111715614400576143ff6143ab565b5b80604052505050565b5f614412614025565b905061441e82826143d8565b919050565b5f67ffffffffffffffff82111561443d5761443c6143ab565b5b61444682614253565b9050602081019050919050565b828183375f83830152505050565b5f61447361446e84614423565b614409565b90508281526020810184848401111561448f5761448e6143a7565b5b61449a848285614453565b509392505050565b5f82601f8301126144b6576144b56143a3565b5b81356144c6848260208601614461565b91505092915050565b5f80604083850312156144e5576144e461402e565b5b5f6144f285828601614055565b925050602083013567ffffffffffffffff81111561451357614512614032565b5b61451f858286016144a2565b9150509250929050565b60058110614535575f80fd5b50565b5f8135905061454681614529565b92915050565b5f602082840312156145615761456061402e565b5b5f61456e84828501614538565b91505092915050565b5f805f6060848603121561458e5761458d61402e565b5b5f61459b86828701614329565b93505060206145ac86828701614329565b92505060406145bd86828701614055565b9150509250925092565b5f602082840312156145dc576145db61402e565b5b5f6145e984828501614329565b91505092915050565b5f80fd5b5f80fd5b5f8083601f84011261460f5761460e6143a3565b5b8235905067ffffffffffffffff81111561462c5761462b6145f2565b5b602083019150836020820283011115614648576146476145f6565b5b9250929050565b5f60ff82169050919050565b6146648161464f565b811461466e575f80fd5b50565b5f8135905061467f8161465b565b92915050565b5f805f6040848603121561469c5761469b61402e565b5b5f84013567ffffffffffffffff8111156146b9576146b8614032565b5b6146c5868287016145fa565b935093505060206146d886828701614671565b9150509250925092565b5f80604083850312156146f8576146f761402e565b5b5f61470585828601614329565b925050602061471685828601614538565b9150509250929050565b5f8083601f840112614735576147346143a3565b5b8235905067ffffffffffffffff811115614752576147516145f2565b5b60208301915083602082028301111561476e5761476d6145f6565b5b9250929050565b5f806020838503121561478b5761478a61402e565b5b5f83013567ffffffffffffffff8111156147a8576147a7614032565b5b6147b485828601614720565b92509250509250929050565b5f67ffffffffffffffff8211156147da576147d96143ab565b5b602082029050602081019050919050565b5f6147fd6147f8846147c0565b614409565b905080838252602082019050602084028301858111156148205761481f6145f6565b5b835b8181101561484957806148358882614055565b845260208401935050602081019050614822565b5050509392505050565b5f82601f830112614867576148666143a3565b5b81356148778482602086016147eb565b91505092915050565b5f67ffffffffffffffff82111561489a576148996143ab565b5b602082029050602081019050919050565b5f6148bd6148b884614880565b614409565b905080838252602082019050602084028301858111156148e0576148df6145f6565b5b835b8181101561492757803567ffffffffffffffff811115614905576149046143a3565b5b80860161491289826144a2565b855260208501945050506020810190506148e2565b5050509392505050565b5f82601f830112614945576149446143a3565b5b81356149558482602086016148ab565b91505092915050565b5f80604083850312156149745761497361402e565b5b5f83013567ffffffffffffffff81111561499157614990614032565b5b61499d85828601614853565b925050602083013567ffffffffffffffff8111156149be576149bd614032565b5b6149ca85828601614931565b9150509250929050565b5f80604083850312156149ea576149e961402e565b5b5f6149f785828601614671565b9250506020614a0885828601614329565b9150509250929050565b614a1b81614152565b8114614a25575f80fd5b50565b5f81359050614a3681614a12565b92915050565b5f8060408385031215614a5257614a5161402e565b5b5f614a5f85828601614329565b9250506020614a7085828601614a28565b9150509250929050565b5f8083601f840112614a8f57614a8e6143a3565b5b8235905067ffffffffffffffff811115614aac57614aab6145f2565b5b602083019150836020820283011115614ac857614ac76145f6565b5b9250929050565b5f8060208385031215614ae557614ae461402e565b5b5f83013567ffffffffffffffff811115614b0257614b01614032565b5b614b0e85828601614a7a565b92509250509250929050565b5f67ffffffffffffffff821115614b3457614b336143ab565b5b614b3d82614253565b9050602081019050919050565b5f614b5c614b5784614b1a565b614409565b905082815260208101848484011115614b7857614b776143a7565b5b614b83848285614453565b509392505050565b5f82601f830112614b9f57614b9e6143a3565b5b8135614baf848260208601614b4a565b91505092915050565b5f805f8060808587031215614bd057614bcf61402e565b5b5f614bdd87828801614329565b9450506020614bee87828801614329565b9350506040614bff87828801614055565b925050606085013567ffffffffffffffff811115614c2057614c1f614032565b5b614c2c87828801614b8b565b91505092959194509250565b5f60208284031215614c4d57614c4c61402e565b5b5f82013567ffffffffffffffff811115614c6a57614c69614032565b5b614c76848285016144a2565b91505092915050565b5f8060408385031215614c9557614c9461402e565b5b5f614ca285828601614329565b9250506020614cb385828601614329565b9150509250929050565b7f524f4e5f414e445f4e41544956450000000000000000000000000000000000005f82015250565b5f614cf1600e8361421b565b9150614cfc82614cbd565b602082019050919050565b5f6040820190508181035f830152614d1e81614ce5565b9050614d2d602083018461437b565b92915050565b7f4e487b71000000000000000000000000000000000000000000000000000000005f52602260045260245ffd5b5f6002820490506001821680614d7757607f821691505b602082108103614d8a57614d89614d33565b5b50919050565b7f43616e6e6f742073657420706861736520746f20494e414354495645000000005f82015250565b5f614dc4601c8361421b565b9150614dcf82614d90565b602082019050919050565b5f6020820190508181035f830152614df181614db8565b9050919050565b7f43616e6e6f74206d6f766520746f2070726576696f75732070686173650000005f82015250565b5f614e2c601d8361421b565b9150614e3782614df8565b602082019050919050565b5f6020820190508181035f830152614e5981614e20565b9050919050565b5f604082019050614e735f8301856141e9565b614e80602083018461437b565b9392505050565b5f606082019050614e9a5f8301866142eb565b614ea7602083018561437b565b614eb460408301846142eb565b949350505050565b7f496e76616c6964207068617365000000000000000000000000000000000000005f82015250565b5f614ef0600d8361421b565b9150614efb82614ebc565b602082019050919050565b5f6020820190508181035f830152614f1d81614ee4565b9050919050565b7f4e487b71000000000000000000000000000000000000000000000000000000005f52603260045260245ffd5b614f5a8161464f565b82525050565b5f602082019050614f735f830184614f51565b92915050565b7f4e487b71000000000000000000000000000000000000000000000000000000005f52601160045260245ffd5b5f614fb082614036565b91507fffffffffffffffffffffffffffffffffffffffffffffffffffffffffffffffff8203614fe257614fe1614f79565b5b600182019050919050565b5f614ff78261464f565b915060ff820361500a57615009614f79565b5b600182019050919050565b5f61501f82614036565b915061502a83614036565b925082820190508082111561504257615041614f79565b5b92915050565b7f576f756c6420657863656564206d6178696d756d20737570706c7900000000005f82015250565b5f61507c601b8361421b565b915061508782615048565b602082019050919050565b5f6020820190508181035f8301526150a981615070565b9050919050565b5f80fd5b5f80fd5b5f80fd5b5f80833560016020038436030381126150d8576150d76150b0565b5b80840192508235915067ffffffffffffffff8211156150fa576150f96150b4565b5b602083019250600182023603831315615116576151156150b8565b5b509250929050565b7f417272617973206d7573742068617665207468652073616d65206c656e6774685f82015250565b5f61515260208361421b565b915061515d8261511e565b602082019050919050565b5f6020820190508181035f83015261517f81615146565b9050919050565b7f524f4e00000000000000000000000000000000000000000000000000000000005f82015250565b5f6151ba60038361421b565b91506151c582615186565b602082019050919050565b5f6040820190508181035f8301526151e7816151ae565b90506151f6602083018461437b565b92915050565b5f60408201905061520f5f8301856142eb565b61521c602083018461437b565b9392505050565b5f8151905061523181614a12565b92915050565b5f6020828403121561524c5761524b61402e565b5b5f61525984828501615223565b91505092915050565b7f5472616e73666572206661696c656400000000000000000000000000000000005f82015250565b5f615296600f8361421b565b91506152a182615262565b602082019050919050565b5f6020820190508181035f8301526152c38161528a565b9050919050565b5f6152d482614036565b91506152df83614036565b92508282039050818111156152f7576152f6614f79565b5b92915050565b7f4d757374206d696e74206265747765656e203120616e642033204e46547300005f82015250565b5f615331601e8361421b565b915061533c826152fd565b602082019050919050565b5f6020820190508181035f83015261535e81615325565b9050919050565b7f4d696e74696e67206e6f742061637469766500000000000000000000000000005f82015250565b5f61539960128361421b565b91506153a482615365565b602082019050919050565b5f6020820190508181035f8301526153c68161538d565b9050919050565b7f4e6f742077686974656c697374656420666f722063757272656e7420706861735f8201527f6500000000000000000000000000000000000000000000000000000000000000602082015250565b5f61542760218361421b565b9150615432826153cd565b604082019050919050565b5f6020820190508181035f8301526154548161541b565b9050919050565b7f45786365656473206d6178206d696e747320616c6c6f77656420666f722074685f8201527f6973207068617365000000000000000000000000000000000000000000000000602082015250565b5f6154b560288361421b565b91506154c08261545b565b604082019050919050565b5f6020820190508181035f8301526154e2816154a9565b9050919050565b5f6154f382614036565b91506154fe83614036565b925082820261550c81614036565b9150828204841483151761552357615522614f79565b5b5092915050565b5f60408201905061553d5f8301856142eb565b61554a60208301846142eb565b9392505050565b5f8151905061555f8161403f565b92915050565b5f6020828403121561557a5761557961402e565b5b5f61558784828501615551565b91505092915050565b7f496e73756666696369656e7420524f4e20616c6c6f77616e63650000000000005f82015250565b5f6155c4601a8361421b565b91506155cf82615590565b602082019050919050565b5f6020820190508181035f8301526155f1816155b8565b9050919050565b5f60608201905061560b5f8301866142eb565b61561860208301856142eb565b615625604083018461437b565b949350505050565b7f524f4e207472616e73666572206661696c6564000000000000000000000000005f82015250565b5f61566160138361421b565b915061566c8261562d565b602082019050919050565b5f6020820190508181035f83015261568e81615655565b9050919050565b7f4e465420616c726561647920636c61696d6564000000000000000000000000005f82015250565b5f6156c960138361421b565b91506156d482615695565b602082019050919050565b5f6020820190508181035f8301526156f6816156bd565b9050919050565b7f546f6b656e206e6f7420617661696c61626c65000000000000000000000000005f82015250565b5f61573160138361421b565b915061573c826156fd565b602082019050919050565b5f6020820190508181035f83015261575e81615725565b9050919050565b7f555249206e6f742073657420666f72207468697320746f6b656e0000000000005f82015250565b5f615799601a8361421b565b91506157a482615765565b602082019050919050565b5f6020820190508181035f8301526157c68161578d565b9050919050565b7f4d6178696d756d20737570706c792072656163686564000000000000000000005f82015250565b5f61580160168361421b565b915061580c826157cd565b602082019050919050565b5f6020820190508181035f83015261582e816157f5565b9050919050565b5f819050815f5260205f209050919050565b5f6020601f8301049050919050565b5f82821b905092915050565b5f600883026158917fffffffffffffffffffffffffffffffffffffffffffffffffffffffffffffffff82615856565b61589b8683615856565b95508019841693508086168417925050509392505050565b5f819050919050565b5f6158d66158d16158cc84614036565b6158b3565b614036565b9050919050565b5f819050919050565b6158ef836158bc565b6159036158fb826158dd565b848454615862565b825550505050565b5f90565b61591761590b565b6159228184846158e6565b505050565b5b818110156159455761593a5f8261590f565b600181019050615928565b5050565b601f82111561598a5761595b81615835565b61596484615847565b81016020851015615973578190505b61598761597f85615847565b830182615927565b50505b505050565b5f82821c905092915050565b5f6159aa5f198460080261598f565b1980831691505092915050565b5f6159c2838361599b565b9150826002028217905092915050565b6159db82614211565b67ffffffffffffffff8111156159f4576159f36143ab565b5b6159fe8254614d60565b615a09828285615949565b5f60209050601f831160018114615a3a575f8415615a28578287015190505b615a3285826159b7565b865550615a99565b601f198416615a4886615835565b5f5b82811015615a6f57848901518255600182019150602085019450602081019050615a4a565b86831015615a8c5784890151615a88601f89168261599b565b8355505b6001600288020188555050505b505050505050565b7f496e73756666696369656e74206e617469766520746f6b656e20616c6c6f77615f8201527f6e63650000000000000000000000000000000000000000000000000000000000602082015250565b5f615afb60238361421b565b9150615b0682615aa1565b604082019050919050565b5f6020820190508181035f830152615b2881615aef565b9050919050565b7f4e617469766520746f6b656e207472616e73666572206661696c6564000000005f82015250565b5f615b63601c8361421b565b9150615b6e82615b2f565b602082019050919050565b5f6020820190508181035f830152615b9081615b57565b9050919050565b5f81905092915050565b5f615bab82614211565b615bb58185615b97565b9350615bc581856020860161422b565b80840191505092915050565b5f615bdc8285615ba1565b9150615be88284615ba1565b91508190509392505050565b5f81519050919050565b5f82825260208201905092915050565b5f615c1882615bf4565b615c228185615bfe565b9350615c3281856020860161422b565b615c3b81614253565b840191505092915050565b5f608082019050615c595f8301876142eb565b615c6660208301866142eb565b615c73604083018561437b565b8181036060830152615c858184615c0e565b905095945050505050565b5f81519050615c9e816140fd565b92915050565b5f60208284031215615cb957615cb861402e565b5b5f615cc684828501615c90565b91505092915050565b7f4e487b71000000000000000000000000000000000000000000000000000000005f52601260045260245ffdfea2646970667358221220ee1483bd62f407dcbf7db23eaab42e02cb3c2edb743d465fc05e4980929dce3064736f6c63430008140033","linkReferences":{}},"methodIdentifiers":{"MAX_MINTS_PER_PHASE()":"5e0a8a88","MAX_SUPPLY()":"32cb6b0c","PHASE_1_DURATION()":"6839c1bd","PHASE_2_DURATION()":"938ece89","PHASE_3_DURATION()":"5539aa86","addToWhitelist(address[],uint8)":"51251320","approve(address,uint256)":"095ea7b3","availableTokens(uint256)":"ad64d068","balanceOf(address)":"70a08231","batchMint(string[])":"5bcdf207","batchSetTokenURI(uint256[],string[])":"6706467b","canReveal()":"a9842610","checkAndReveal()":"5df1bfe5","currentPhase()":"055ad42e","getApproved(uint256)":"081812fc","getCurrentPhase()":"a3a40ea5","isApprovedForAll(address,address)":"e985e9c5","isWhitelisted(address,uint8)":"54797392","mint(string)":"d85d3d27","mintCountByPhase(uint8,address)":"a977bcd6","mintWithRon(uint256[])":"af4825bc","mintWithRonAndNative(uint256[])":"f56ffc0a","name()":"06fdde03","nativeTokenAddress()":"4d0047ee","nativeTokenAmount()":"3884a455","notRevealedURI()":"72250380","owner()":"8da5cb5b","ownerOf(uint256)":"6352211e","paymentRecipient()":"2b1eaf29","phaseStartTime()":"12f3d0c2","phaseWhitelist(uint8,address)":"a1e7a695","removeFromWhitelist(address[],uint8)":"e1097f53","renounceOwnership()":"715018a6","reveal()":"a475b5dd","revealTimestamp()":"f62f3c11","revealed()":"51830227","ronAndNativePrice()":"0f3bfbdc","ronTokenAddress()":"079367c6","ronTokenPrice()":"fbf2f683","safeTransferFrom(address,address,uint256)":"42842e0e","safeTransferFrom(address,address,uint256,bytes)":"b88d4fde","setApprovalForAll(address,bool)":"a22cb465","setNativeTokenAddress(address)":"e82368ab","setNotRevealedURI(string)":"f2c4ce1e","setPaymentRecipient(address)":"2983c4b8","setRevealTimestamp(uint256)":"018a2c37","setRonAndNativePrice(uint256,uint256)":"001bccc8","setRonTokenAddress(address)":"4d14dce0","setRonTokenPrice(uint256)":"7bb8323b","setTokenURI(uint256,string)":"162094c4","startPhase(uint8)":"1c9ed381","supportsInterface(bytes4)":"01ffc9a7","symbol()":"95d89b41","tokenURI(uint256)":"c87b56dd","transferFrom(address,address,uint256)":"23b872dd","transferOwnership(address)":"f2fde38b","withdrawERC20(address,uint256)":"a1db9782"},"id":41}