{"abi":[{"type":"constructor","inputs":[{"name":"_name","type":"string","internalType":"string"},{"name":"_symbol","type":"string","internalType":"string"},{"name":"_notRevealedURI","type":"string","internalType":"string"},{"name":"_ronTokenAddress","type":"address","internalType":"address"},{"name":"_nativeTokenAddress","type":"address","internalType":"address"},{"name":"_paymentRecipient","type":"address","internalType":"address"},{"name":"_revealTimestamp","type":"uint256","internalType":"uint256"}],"stateMutability":"nonpayable"},{"type":"function","name":"MAX_MINTS_PER_PHASE","inputs":[],"outputs":[{"name":"","type":"uint256","internalType":"uint256"}],"stateMutability":"view"},{"type":"function","name":"MAX_SUPPLY","inputs":[],"outputs":[{"name":"","type":"uint256","internalType":"uint256"}],"stateMutability":"view"},{"type":"function","name":"PHASE_1_DURATION","inputs":[],"outputs":[{"name":"","type":"uint256","internalType":"uint256"}],"stateMutability":"view"},{"type":"function","name":"PHASE_2_DURATION","inputs":[],"outputs":[{"name":"","type":"uint256","internalType":"uint256"}],"stateMutability":"view"},{"type":"function","name":"PHASE_3_DURATION","inputs":[],"outputs":[{"name":"","type":"uint256","internalType":"uint256"}],"stateMutability":"view"},{"type":"function","name":"addToWhitelist","inputs":[{"name":"_addresses","type":"address[]","internalType":"address[]"},{"name":"_phase","type":"uint8","internalType":"uint8"}],"outputs":[],"stateMutability":"nonpayable"},{"type":"function","name":"approve","inputs":[{"name":"to","type":"address","internalType":"address"},{"name":"tokenId","type":"uint256","internalType":"uint256"}],"outputs":[],"stateMutability":"nonpayable"},{"type":"function","name":"availableTokens","inputs":[{"name":"","type":"uint256","internalType":"uint256"}],"outputs":[{"name":"","type":"bool","internalType":"bool"}],"stateMutability":"view"},{"type":"function","name":"balanceOf","inputs":[{"name":"owner","type":"address","internalType":"address"}],"outputs":[{"name":"","type":"uint256","internalType":"uint256"}],"stateMutability":"view"},{"type":"function","name":"batchMint","inputs":[{"name":"_uris","type":"string[]","internalType":"string[]"}],"outputs":[],"stateMutability":"nonpayable"},{"type":"function","name":"canReveal","inputs":[],"outputs":[{"name":"","type":"bool","internalType":"bool"}],"stateMutability":"view"},{"type":"function","name":"checkAndReveal","inputs":[],"outputs":[],"stateMutability":"nonpayable"},{"type":"function","name":"currentPhase","inputs":[],"outputs":[{"name":"","type":"uint8","internalType":"enum RoninNFT.Phase"}],"stateMutability":"view"},{"type":"function","name":"getApproved","inputs":[{"name":"tokenId","type":"uint256","internalType":"uint256"}],"outputs":[{"name":"","type":"address","internalType":"address"}],"stateMutability":"view"},{"type":"function","name":"getCurrentPhase","inputs":[],"outputs":[{"name":"","type":"uint8","internalType":"enum RoninNFT.Phase"}],"stateMutability":"view"},{"type":"function","name":"isApprovedForAll","inputs":[{"name":"owner","type":"address","internalType":"address"},{"name":"operator","type":"address","internalType":"address"}],"outputs":[{"name":"","type":"bool","internalType":"bool"}],"stateMutability":"view"},{"type":"function","name":"isWhitelisted","inputs":[{"name":"_address","type":"address","internalType":"address"},{"name":"_phase","type":"uint8","internalType":"enum RoninNFT.Phase"}],"outputs":[{"name":"","type":"bool","internalType":"bool"}],"stateMutability":"view"},{"type":"function","name":"mintCountByPhase","inputs":[{"name":"","type":"uint8","internalType":"uint8"},{"name":"","type":"address","internalType":"address"}],"outputs":[{"name":"","type":"uint256","internalType":"uint256"}],"stateMutability":"view"},{"type":"function","name":"mintWithRon","inputs":[{"name":"tokenIds","type":"uint256[]","internalType":"uint256[]"}],"outputs":[],"stateMutability":"nonpayable"},{"type":"function","name":"mintWithRonAndNative","inputs":[{"name":"tokenIds","type":"uint256[]","internalType":"uint256[]"}],"outputs":[],"stateMutability":"nonpayable"},{"type":"function","name":"name","inputs":[],"outputs":[{"name":"","type":"string","internalType":"string"}],"stateMutability":"view"},{"type":"function","name":"nativeTokenAddress","inputs":[],"outputs":[{"name":"","type":"address","internalType":"address"}],"stateMutability":"view"},{"type":"function","name":"nativeTokenAmount","inputs":[],"outputs":[{"name":"","type":"uint256","internalType":"uint256"}],"stateMutability":"view"},{"type":"function","name":"notRevealedURI","inputs":[],"outputs":[{"name":"","type":"string","internalType":"string"}],"stateMutability":"view"},{"type":"function","name":"owner","inputs":[],"outputs":[{"name":"","type":"address","internalType":"address"}],"stateMutability":"view"},{"type":"function","name":"ownerOf","inputs":[{"name":"tokenId","type":"uint256","internalType":"uint256"}],"outputs":[{"name":"","type":"address","internalType":"address"}],"stateMutability":"view"},{"type":"function","name":"paymentRecipient","inputs":[],"outputs":[{"name":"","type":"address","internalType":"address"}],"stateMutability":"view"},{"type":"function","name":"phaseStartTime","inputs":[],"outputs":[{"name":"","type":"uint256","internalType":"uint256"}],"stateMutability":"view"},{"type":"function","name":"phaseWhitelist","inputs":[{"name":"","type":"uint8","internalType":"uint8"},{"name":"","type":"address","internalType":"address"}],"outputs":[{"name":"","type":"bool","internalType":"bool"}],"stateMutability":"view"},{"type":"function","name":"removeFromWhitelist","inputs":[{"name":"_addresses","type":"address[]","internalType":"address[]"},{"name":"_phase","type":"uint8","internalType":"uint8"}],"outputs":[],"stateMutability":"nonpayable"},{"type":"function","name":"renounceOwnership","inputs":[],"outputs":[],"stateMutability":"nonpayable"},{"type":"function","name":"reveal","inputs":[],"outputs":[],"stateMutability":"nonpayable"},{"type":"function","name":"revealTimestamp","inputs":[],"outputs":[{"name":"","type":"uint256","internalType":"uint256"}],"stateMutability":"view"},{"type":"function","name":"revealed","inputs":[],"outputs":[{"name":"","type":"bool","internalType":"bool"}],"stateMutability":"view"},{"type":"function","name":"ronAndNativePrice","inputs":[],"outputs":[{"name":"","type":"uint256","internalType":"uint256"}],"stateMutability":"view"},{"type":"function","name":"ronTokenAddress","inputs":[],"outputs":[{"name":"","type":"address","internalType":"address"}],"stateMutability":"view"},{"type":"function","name":"ronTokenPrice","inputs":[],"outputs":[{"name":"","type":"uint256","internalType":"uint256"}],"stateMutability":"view"},{"type":"function","name":"safeTransferFrom","inputs":[{"name":"from","type":"address","internalType":"address"},{"name":"to","type":"address","internalType":"address"},{"name":"tokenId","type":"uint256","internalType":"uint256"}],"outputs":[],"stateMutability":"nonpayable"},{"type":"function","name":"safeTransferFrom","inputs":[{"name":"from","type":"address","internalType":"address"},{"name":"to","type":"address","internalType":"address"},{"name":"tokenId","type":"uint256","internalType":"uint256"},{"name":"data","type":"bytes","internalType":"bytes"}],"outputs":[],"stateMutability":"nonpayable"},{"type":"function","name":"setApprovalForAll","inputs":[{"name":"operator","type":"address","internalType":"address"},{"name":"approved","type":"bool","internalType":"bool"}],"outputs":[],"stateMutability":"nonpayable"},{"type":"function","name":"setNotRevealedURI","inputs":[{"name":"_notRevealedURI","type":"string","internalType":"string"}],"outputs":[],"stateMutability":"nonpayable"},{"type":"function","name":"setRevealTimestamp","inputs":[{"name":"_revealTimestamp","type":"uint256","internalType":"uint256"}],"outputs":[],"stateMutability":"nonpayable"},{"type":"function","name":"startPhase","inputs":[{"name":"_phase","type":"uint8","internalType":"enum RoninNFT.Phase"}],"outputs":[],"stateMutability":"nonpayable"},{"type":"function","name":"supportsInterface","inputs":[{"name":"interfaceId","type":"bytes4","internalType":"bytes4"}],"outputs":[{"name":"","type":"bool","internalType":"bool"}],"stateMutability":"view"},{"type":"function","name":"symbol","inputs":[],"outputs":[{"name":"","type":"string","internalType":"string"}],"stateMutability":"view"},{"type":"function","name":"tokenURI","inputs":[{"name":"tokenId","type":"uint256","internalType":"uint256"}],"outputs":[{"name":"","type":"string","internalType":"string"}],"stateMutability":"view"},{"type":"function","name":"transferFrom","inputs":[{"name":"from","type":"address","internalType":"address"},{"name":"to","type":"address","internalType":"address"},{"name":"tokenId","type":"uint256","internalType":"uint256"}],"outputs":[],"stateMutability":"nonpayable"},{"type":"function","name":"transferOwnership","inputs":[{"name":"newOwner","type":"address","internalType":"address"}],"outputs":[],"stateMutability":"nonpayable"},{"type":"event","name":"AddedToWhitelist","inputs":[{"name":"account","type":"address","indexed":true,"internalType":"address"},{"name":"phase","type":"uint8","indexed":false,"internalType":"uint8"}],"anonymous":false},{"type":"event","name":"Approval","inputs":[{"name":"owner","type":"address","indexed":true,"internalType":"address"},{"name":"approved","type":"address","indexed":true,"internalType":"address"},{"name":"tokenId","type":"uint256","indexed":true,"internalType":"uint256"}],"anonymous":false},{"type":"event","name":"ApprovalForAll","inputs":[{"name":"owner","type":"address","indexed":true,"internalType":"address"},{"name":"operator","type":"address","indexed":true,"internalType":"address"},{"name":"approved","type":"bool","indexed":false,"internalType":"bool"}],"anonymous":false},{"type":"event","name":"BatchMetadataUpdate","inputs":[{"name":"_fromTokenId","type":"uint256","indexed":false,"internalType":"uint256"},{"name":"_toTokenId","type":"uint256","indexed":false,"internalType":"uint256"}],"anonymous":false},{"type":"event","name":"MetadataUpdate","inputs":[{"name":"_tokenId","type":"uint256","indexed":false,"internalType":"uint256"}],"anonymous":false},{"type":"event","name":"NFTMinted","inputs":[{"name":"recipient","type":"address","indexed":true,"internalType":"address"},{"name":"tokenId","type":"uint256","indexed":false,"internalType":"uint256"}],"anonymous":false},{"type":"event","name":"NFTsMinted","inputs":[{"name":"recipient","type":"address","indexed":true,"internalType":"address"},{"name":"tokenIds","type":"uint256[]","indexed":false,"internalType":"uint256[]"}],"anonymous":false},{"type":"event","name":"OwnershipTransferred","inputs":[{"name":"previousOwner","type":"address","indexed":true,"internalType":"address"},{"name":"newOwner","type":"address","indexed":true,"internalType":"address"}],"anonymous":false},{"type":"event","name":"PhaseStarted","inputs":[{"name":"phase","type":"uint8","indexed":false,"internalType":"enum RoninNFT.Phase"},{"name":"timestamp","type":"uint256","indexed":false,"internalType":"uint256"}],"anonymous":false},{"type":"event","name":"PriceUpdated","inputs":[{"name":"tokenType","type":"string","indexed":false,"internalType":"string"},{"name":"newPrice","type":"uint256","indexed":false,"internalType":"uint256"}],"anonymous":false},{"type":"event","name":"RemovedFromWhitelist","inputs":[{"name":"account","type":"address","indexed":true,"internalType":"address"},{"name":"phase","type":"uint8","indexed":false,"internalType":"uint8"}],"anonymous":false},{"type":"event","name":"RevealTimestampSet","inputs":[{"name":"timestamp","type":"uint256","indexed":false,"internalType":"uint256"}],"anonymous":false},{"type":"event","name":"Revealed","inputs":[],"anonymous":false},{"type":"event","name":"Transfer","inputs":[{"name":"from","type":"address","indexed":true,"internalType":"address"},{"name":"to","type":"address","indexed":true,"internalType":"address"},{"name":"tokenId","type":"uint256","indexed":true,"internalType":"uint256"}],"anonymous":false},{"type":"error","name":"ERC721IncorrectOwner","inputs":[{"name":"sender","type":"address","internalType":"address"},{"name":"tokenId","type":"uint256","internalType":"uint256"},{"name":"owner","type":"address","internalType":"address"}]},{"type":"error","name":"ERC721InsufficientApproval","inputs":[{"name":"operator","type":"address","internalType":"address"},{"name":"tokenId","type":"uint256","internalType":"uint256"}]},{"type":"error","name":"ERC721InvalidApprover","inputs":[{"name":"approver","type":"address","internalType":"address"}]},{"type":"error","name":"ERC721InvalidOperator","inputs":[{"name":"operator","type":"address","internalType":"address"}]},{"type":"error","name":"ERC721InvalidOwner","inputs":[{"name":"owner","type":"address","internalType":"address"}]},{"type":"error","name":"ERC721InvalidReceiver","inputs":[{"name":"receiver","type":"address","internalType":"address"}]},{"type":"error","name":"ERC721InvalidSender","inputs":[{"name":"sender","type":"address","internalType":"address"}]},{"type":"error","name":"ERC721NonexistentToken","inputs":[{"name":"tokenId","type":"uint256","internalType":"uint256"}]},{"type":"error","name":"OwnableInvalidOwner","inputs":[{"name":"owner","type":"address","internalType":"address"}]},{"type":"error","name":"OwnableUnauthorizedAccount","inputs":[{"name":"account","type":"address","internalType":"address"}]},{"type":"error","name":"ReentrancyGuardReentrantCall","inputs":[]}],"bytecode":{"object":"0x60e06040525f600c5f6101000a81548160ff021916908360048111156200002b576200002a6200029c565b5b02179055503480156200003c575f80fd5b50604051620059f0380380620059f08339818101604052810190620000629190620004e7565b338787815f908162000075919062000820565b50806001908162000087919062000820565b5050505f73ffffffffffffffffffffffffffffffffffffffff168173ffffffffffffffffffffffffffffffffffffffff1603620000fd575f6040517f1e4fbdf7000000000000000000000000000000000000000000000000000000008152600401620000f4919062000915565b60405180910390fd5b6200010e81620001d960201b60201c565b50600160088190555084600b908162000128919062000820565b508373ffffffffffffffffffffffffffffffffffffffff1660808173ffffffffffffffffffffffffffffffffffffffff16815250508273ffffffffffffffffffffffffffffffffffffffff1660a08173ffffffffffffffffffffffffffffffffffffffff16815250508173ffffffffffffffffffffffffffffffffffffffff1660c08173ffffffffffffffffffffffffffffffffffffffff1681525050806009819055505050505050505062000930565b5f60075f9054906101000a900473ffffffffffffffffffffffffffffffffffffffff1690508160075f6101000a81548173ffffffffffffffffffffffffffffffffffffffff021916908373ffffffffffffffffffffffffffffffffffffffff1602179055508173ffffffffffffffffffffffffffffffffffffffff168173ffffffffffffffffffffffffffffffffffffffff167f8be0079c531659141344cd1fd0a4f28419497f9722a3daafe3b4186f6b6457e060405160405180910390a35050565b7f4e487b71000000000000000000000000000000000000000000000000000000005f52602160045260245ffd5b5f604051905090565b5f80fd5b5f80fd5b5f80fd5b5f80fd5b5f601f19601f8301169050919050565b7f4e487b71000000000000000000000000000000000000000000000000000000005f52604160045260245ffd5b6200032a82620002e2565b810181811067ffffffffffffffff821117156200034c576200034b620002f2565b5b80604052505050565b5f62000360620002c9565b90506200036e82826200031f565b919050565b5f67ffffffffffffffff82111562000390576200038f620002f2565b5b6200039b82620002e2565b9050602081019050919050565b5f5b83811015620003c7578082015181840152602081019050620003aa565b5f8484015250505050565b5f620003e8620003e28462000373565b62000355565b905082815260208101848484011115620004075762000406620002de565b5b62000414848285620003a8565b509392505050565b5f82601f830112620004335762000432620002da565b5b815162000445848260208601620003d2565b91505092915050565b5f73ffffffffffffffffffffffffffffffffffffffff82169050919050565b5f62000479826200044e565b9050919050565b6200048b816200046d565b811462000496575f80fd5b50565b5f81519050620004a98162000480565b92915050565b5f819050919050565b620004c381620004af565b8114620004ce575f80fd5b50565b5f81519050620004e181620004b8565b92915050565b5f805f805f805f60e0888a031215620005055762000504620002d2565b5b5f88015167ffffffffffffffff811115620005255762000524620002d6565b5b620005338a828b016200041c565b975050602088015167ffffffffffffffff811115620005575762000556620002d6565b5b620005658a828b016200041c565b965050604088015167ffffffffffffffff811115620005895762000588620002d6565b5b620005978a828b016200041c565b9550506060620005aa8a828b0162000499565b9450506080620005bd8a828b0162000499565b93505060a0620005d08a828b0162000499565b92505060c0620005e38a828b01620004d1565b91505092959891949750929550565b5f81519050919050565b7f4e487b71000000000000000000000000000000000000000000000000000000005f52602260045260245ffd5b5f60028204905060018216806200064157607f821691505b602082108103620006575762000656620005fc565b5b50919050565b5f819050815f5260205f209050919050565b5f6020601f8301049050919050565b5f82821b905092915050565b5f60088302620006bb7fffffffffffffffffffffffffffffffffffffffffffffffffffffffffffffffff826200067e565b620006c786836200067e565b95508019841693508086168417925050509392505050565b5f819050919050565b5f6200070862000702620006fc84620004af565b620006df565b620004af565b9050919050565b5f819050919050565b6200072383620006e8565b6200073b62000732826200070f565b8484546200068a565b825550505050565b5f90565b6200075162000743565b6200075e81848462000718565b505050565b5b818110156200078557620007795f8262000747565b60018101905062000764565b5050565b601f821115620007d4576200079e816200065d565b620007a9846200066f565b81016020851015620007b9578190505b620007d1620007c8856200066f565b83018262000763565b50505b505050565b5f82821c905092915050565b5f620007f65f1984600802620007d9565b1980831691505092915050565b5f620008108383620007e5565b9150826002028217905092915050565b6200082b82620005f2565b67ffffffffffffffff811115620008475762000846620002f2565b5b62000853825462000629565b6200086082828562000789565b5f60209050601f83116001811462000896575f841562000881578287015190505b6200088d858262000803565b865550620008fc565b601f198416620008a6866200065d565b5f5b82811015620008cf57848901518255600182019150602085019450602081019050620008a8565b86831015620008ef5784890151620008eb601f891682620007e5565b8355505b6001600288020188555050505b505050505050565b6200090f816200046d565b82525050565b5f6020820190506200092a5f83018462000904565b92915050565b60805160a05160c05161506b620009855f395f8181610ce101528181611a32015281816124d601526125b201525f8181610d38015261231e01525f81816109ea0152818161193601526122fa015261506b5ff3fe608060405234801561000f575f80fd5b506004361061029e575f3560e01c80636839c1bd11610165578063a9842610116100cc578063e985e9c511610085578063e985e9c5146107de578063f2c4ce1e1461080e578063f2fde38b1461082a578063f56ffc0a14610846578063f62f3c1114610862578063fbf2f683146108805761029e565b8063a98426101461070c578063ad64d0681461072a578063af4825bc1461075a578063b88d4fde14610776578063c87b56dd14610792578063e1097f53146107c25761029e565b806395d89b411161011e57806395d89b411461064a578063a1e7a69514610668578063a22cb46514610698578063a3a40ea5146106b4578063a475b5dd146106d2578063a977bcd6146106dc5761029e565b80636839c1bd1461059857806370a08231146105b6578063715018a6146105e657806372250380146105f05780638da5cb5b1461060e578063938ece891461062c5761029e565b806332cb6b0c1161020957806354797392116101c257806354797392146104d65780635539aa86146105065780635bcdf207146105245780635df1bfe5146105405780635e0a8a881461054a5780636352211e146105685761029e565b806332cb6b0c146104265780633884a4551461044457806342842e0e146104625780634d0047ee1461047e578063512513201461049c57806351830227146104b85761029e565b8063095ea7b31161025b578063095ea7b3146103785780630f3bfbdc1461039457806312f3d0c2146103b25780631c9ed381146103d057806323b872dd146103ec5780632b1eaf29146104085761029e565b8063018a2c37146102a257806301ffc9a7146102be578063055ad42e146102ee57806306fdde031461030c578063079367c61461032a578063081812fc14610348575b5f80fd5b6102bc60048036038101906102b79190613822565b61089e565b005b6102d860048036038101906102d391906138a2565b6108e7565b6040516102e591906138e7565b60405180910390f35b6102f6610947565b6040516103039190613973565b60405180910390f35b610314610959565b6040516103219190613a16565b60405180910390f35b6103326109e8565b60405161033f9190613a75565b60405180910390f35b610362600480360381019061035d9190613822565b610a0c565b60405161036f9190613a75565b60405180910390f35b610392600480360381019061038d9190613ab8565b610a27565b005b61039c610a3d565b6040516103a99190613b05565b60405180910390f35b6103ba610a4a565b6040516103c79190613b05565b60405180910390f35b6103ea60048036038101906103e59190613b41565b610a50565b005b61040660048036038101906104019190613b6c565b610be0565b005b610410610cdf565b60405161041d9190613a75565b60405180910390f35b61042e610d03565b60405161043b9190613b05565b60405180910390f35b61044c610d09565b6040516104599190613b05565b60405180910390f35b61047c60048036038101906104779190613b6c565b610d17565b005b610486610d36565b6040516104939190613a75565b60405180910390f35b6104b660048036038101906104b19190613c53565b610d5a565b005b6104c0610edf565b6040516104cd91906138e7565b60405180910390f35b6104f060048036038101906104eb9190613cb0565b610ef1565b6040516104fd91906138e7565b60405180910390f35b61050e6110d6565b60405161051b9190613b05565b60405180910390f35b61053e60048036038101906105399190613d43565b6110dc565b005b6105486111c8565b005b610552611236565b60405161055f9190613b05565b60405180910390f35b610582600480360381019061057d9190613822565b61123b565b60405161058f9190613a75565b60405180910390f35b6105a061124c565b6040516105ad9190613b05565b60405180910390f35b6105d060048036038101906105cb9190613d8e565b611252565b6040516105dd9190613b05565b60405180910390f35b6105ee611308565b005b6105f861131b565b6040516106059190613a16565b60405180910390f35b6106166113a7565b6040516106239190613a75565b60405180910390f35b6106346113cf565b6040516106419190613b05565b60405180910390f35b6106526113d5565b60405161065f9190613a16565b60405180910390f35b610682600480360381019061067d9190613db9565b611465565b60405161068f91906138e7565b60405180910390f35b6106b260048036038101906106ad9190613e21565b61148f565b005b6106bc6114a5565b6040516106c99190613973565b60405180910390f35b6106da61164b565b005b6106f660048036038101906106f19190613db9565b61169b565b6040516107039190613b05565b60405180910390f35b6107146116bb565b60405161072191906138e7565b60405180910390f35b610744600480360381019061073f9190613822565b6116c7565b60405161075191906138e7565b60405180910390f35b610774600480360381019061076f9190613eb4565b6116e4565b005b610790600480360381019061078b9190614027565b611c19565b005b6107ac60048036038101906107a79190613822565b611c3e565b6040516107b99190613a16565b60405180910390f35b6107dc60048036038101906107d79190613c53565b611dde565b005b6107f860048036038101906107f391906140a7565b611f62565b60405161080591906138e7565b60405180910390f35b61082860048036038101906108239190614183565b611ff0565b005b610844600480360381019061083f9190613d8e565b61200b565b005b610860600480360381019061085b9190613eb4565b61208f565b005b61086a612811565b6040516108779190613b05565b60405180910390f35b610888612817565b6040516108959190613b05565b60405180910390f35b6108a6612824565b806009819055507f3587370e92498b996ffb077cfba4488e24ad3924be64e734c2a463eb2171153c816040516108dc9190613b05565b60405180910390a150565b5f634906490660e01b7bffffffffffffffffffffffffffffffffffffffffffffffffffffffff1916827bffffffffffffffffffffffffffffffffffffffffffffffffffffffff19161480610940575061093f826128ab565b5b9050919050565b600c5f9054906101000a900460ff1681565b60605f8054610967906141f7565b80601f0160208091040260200160405190810160405280929190818152602001828054610993906141f7565b80156109de5780601f106109b5576101008083540402835291602001916109de565b820191905f5260205f20905b8154815290600101906020018083116109c157829003601f168201915b5050505050905090565b7f000000000000000000000000000000000000000000000000000000000000000081565b5f610a168261298c565b50610a2082612a12565b9050919050565b610a398282610a34612a4b565b612a52565b5050565b6801e5b8fa8fe2ac000081565b600d5481565b610a58612824565b5f6004811115610a6b57610a6a613900565b5b816004811115610a7e57610a7d613900565b5b03610abe576040517f08c379a0000000000000000000000000000000000000000000000000000000008152600401610ab590614271565b60405180910390fd5b600c5f9054906101000a900460ff166004811115610adf57610ade613900565b5b60ff16816004811115610af557610af4613900565b5b60ff161180610b3557505f6004811115610b1257610b11613900565b5b600c5f9054906101000a900460ff166004811115610b3357610b32613900565b5b145b610b74576040517f08c379a0000000000000000000000000000000000000000000000000000000008152600401610b6b906142d9565b60405180910390fd5b80600c5f6101000a81548160ff02191690836004811115610b9857610b97613900565b5b021790555042600d819055507f07ae9ff1ff5922feb7221008b80a606dce2b123504acb459285fc38250e063978142604051610bd59291906142f7565b60405180910390a150565b5f73ffffffffffffffffffffffffffffffffffffffff168273ffffffffffffffffffffffffffffffffffffffff1603610c50575f6040517f64a0ae92000000000000000000000000000000000000000000000000000000008152600401610c479190613a75565b60405180910390fd5b5f610c638383610c5e612a4b565b612a64565b90508373ffffffffffffffffffffffffffffffffffffffff168173ffffffffffffffffffffffffffffffffffffffff1614610cd9578382826040517f64283d7b000000000000000000000000000000000000000000000000000000008152600401610cd09392919061431e565b60405180910390fd5b50505050565b7f000000000000000000000000000000000000000000000000000000000000000081565b611a0a81565b6907695a92c20d6fe0000081565b610d3183838360405180602001604052805f815250611c19565b505050565b7f000000000000000000000000000000000000000000000000000000000000000081565b610d62612824565b60018160ff1610158015610d7a575060038160ff1611155b610db9576040517f08c379a0000000000000000000000000000000000000000000000000000000008152600401610db09061439d565b60405180910390fd5b5f5b83839050811015610ed9576001600f5f8460ff1660ff1681526020019081526020015f205f868685818110610df357610df26143bb565b5b9050602002016020810190610e089190613d8e565b73ffffffffffffffffffffffffffffffffffffffff1673ffffffffffffffffffffffffffffffffffffffff1681526020019081526020015f205f6101000a81548160ff021916908315150217905550838382818110610e6a57610e696143bb565b5b9050602002016020810190610e7f9190613d8e565b73ffffffffffffffffffffffffffffffffffffffff167ff2770f4306387f6808408bc90fd92ba10ab7aa3cfeee41079c867a1450e1e35983604051610ec491906143f7565b60405180910390a28080600101915050610dbb565b50505050565b600a5f9054906101000a900460ff1681565b5f600480811115610f0557610f04613900565b5b826004811115610f1857610f17613900565b5b03610f2657600190506110d0565b6001826004811115610f3b57610f3a613900565b5b60ff1610158015610fa55750600f5f600160ff1681526020019081526020015f205f8473ffffffffffffffffffffffffffffffffffffffff1673ffffffffffffffffffffffffffffffffffffffff1681526020019081526020015f205f9054906101000a900460ff165b15610fb357600190506110d0565b6002826004811115610fc857610fc7613900565b5b60ff16101580156110325750600f5f600260ff1681526020019081526020015f205f8473ffffffffffffffffffffffffffffffffffffffff1673ffffffffffffffffffffffffffffffffffffffff1681526020019081526020015f205f9054906101000a900460ff165b1561104057600190506110d0565b600382600481111561105557611054613900565b5b60ff161480156110be5750600f5f600360ff1681526020019081526020015f205f8473ffffffffffffffffffffffffffffffffffffffff1673ffffffffffffffffffffffffffffffffffffffff1681526020019081526020015f205f9054906101000a900460ff165b156110cc57600190506110d0565b5f90505b92915050565b61708081565b6110e4612824565b611a0a82829050600e546110f8919061443d565b1115611139576040517f08c379a0000000000000000000000000000000000000000000000000000000008152600401611130906144ba565b60405180910390fd5b5f5b828290508110156111c3576111b63084848481811061115d5761115c6143bb565b5b905060200281019061116f91906144e4565b8080601f0160208091040260200160405190810160405280939291908181526020018383808284375f81840152601f19601f82011690508083019250505050505050612c6f565b808060010191505061113b565b505050565b600a5f9054906101000a900460ff161580156111e857506111e76116bb565b5b15611234576001600a5f6101000a81548160ff0219169083151502179055507fe2a7169cedebe39671840370ae19ca4fc41be6191d4c77f174f189a4d8cd08c860405160405180910390a15b565b600381565b5f6112458261298c565b9050919050565b61384081565b5f8073ffffffffffffffffffffffffffffffffffffffff168273ffffffffffffffffffffffffffffffffffffffff16036112c3575f6040517f89c62b640000000000000000000000000000000000000000000000000000000081526004016112ba9190613a75565b60405180910390fd5b60035f8373ffffffffffffffffffffffffffffffffffffffff1673ffffffffffffffffffffffffffffffffffffffff1681526020019081526020015f20549050919050565b611310612824565b6113195f612d77565b565b600b8054611328906141f7565b80601f0160208091040260200160405190810160405280929190818152602001828054611354906141f7565b801561139f5780601f106113765761010080835404028352916020019161139f565b820191905f5260205f20905b81548152906001019060200180831161138257829003601f168201915b505050505081565b5f60075f9054906101000a900473ffffffffffffffffffffffffffffffffffffffff16905090565b61708081565b6060600180546113e4906141f7565b80601f0160208091040260200160405190810160405280929190818152602001828054611410906141f7565b801561145b5780601f106114325761010080835404028352916020019161145b565b820191905f5260205f20905b81548152906001019060200180831161143e57829003601f168201915b5050505050905090565b600f602052815f5260405f20602052805f5260405f205f915091509054906101000a900460ff1681565b6114a161149a612a4b565b8383612e3a565b5050565b5f8060048111156114b9576114b8613900565b5b600c5f9054906101000a900460ff1660048111156114da576114d9613900565b5b036114e7575f9050611648565b5f600d54426114f69190614546565b90506001600481111561150c5761150b613900565b5b600c5f9054906101000a900460ff16600481111561152d5761152c613900565b5b0361155057613840811015611546576001915050611648565b6002915050611648565b6002600481111561156457611563613900565b5b600c5f9054906101000a900460ff16600481111561158557611584613900565b5b036115a85761708081101561159e576002915050611648565b6003915050611648565b600360048111156115bc576115bb613900565b5b600c5f9054906101000a900460ff1660048111156115dd576115dc613900565b5b03611600576170808110156115f6576003915050611648565b6004915050611648565b60048081111561161357611612613900565b5b600c5f9054906101000a900460ff16600481111561163457611633613900565b5b03611643576004915050611648565b5f9150505b90565b611653612824565b6001600a5f6101000a81548160ff0219169083151502179055507fe2a7169cedebe39671840370ae19ca4fc41be6191d4c77f174f189a4d8cd08c860405160405180910390a1565b6010602052815f5260405f20602052805f5260405f205f91509150505481565b5f600954421015905090565b6012602052805f5260405f205f915054906101000a900460ff1681565b6116ec612fa3565b5f8282905090505f81118015611703575060038111155b611742576040517f08c379a0000000000000000000000000000000000000000000000000000000008152600401611739906145c3565b60405180910390fd5b5f61174b6114a5565b90505f60048111156117605761175f613900565b5b81600481111561177357611772613900565b5b036117b3576040517f08c379a00000000000000000000000000000000000000000000000000000000081526004016117aa9061462b565b60405180910390fd5b6117bd3382610ef1565b6117fc576040517f08c379a00000000000000000000000000000000000000000000000000000000081526004016117f3906146b9565b60405180910390fd5b5f8160048111156118105761180f613900565b5b905060038360105f8460ff1660ff1681526020019081526020015f205f3373ffffffffffffffffffffffffffffffffffffffff1673ffffffffffffffffffffffffffffffffffffffff1681526020019081526020015f2054611872919061443d565b11156118b3576040517f08c379a00000000000000000000000000000000000000000000000000000000081526004016118aa90614747565b60405180910390fd5b8260105f8360ff1660ff1681526020019081526020015f205f3373ffffffffffffffffffffffffffffffffffffffff1673ffffffffffffffffffffffffffffffffffffffff1681526020019081526020015f205f828254611914919061443d565b925050819055505f83680270801d946c9400006119319190614765565b90505f7f00000000000000000000000000000000000000000000000000000000000000009050818173ffffffffffffffffffffffffffffffffffffffff1663dd62ed3e33306040518363ffffffff1660e01b81526004016119939291906147a6565b602060405180830381865afa1580156119ae573d5f803e3d5ffd5b505050506040513d601f19601f820116820180604052508101906119d291906147e1565b1015611a13576040517f08c379a0000000000000000000000000000000000000000000000000000000008152600401611a0a90614856565b60405180910390fd5b8073ffffffffffffffffffffffffffffffffffffffff166323b872dd337f0000000000000000000000000000000000000000000000000000000000000000856040518463ffffffff1660e01b8152600401611a7093929190614874565b6020604051808303815f875af1158015611a8c573d5f803e3d5ffd5b505050506040513d601f19601f82011682018060405250810190611ab091906148bd565b611aef576040517f08c379a0000000000000000000000000000000000000000000000000000000008152600401611ae690614932565b60405180910390fd5b5f5b87879050811015611bb7575f888883818110611b1057611b0f6143bb565b5b90506020020135905060125f8281526020019081526020015f205f9054906101000a900460ff16611b76576040517f08c379a0000000000000000000000000000000000000000000000000000000008152600401611b6d9061499a565b60405180910390fd5b5f60125f8381526020019081526020015f205f6101000a81548160ff021916908315150217905550611ba9303383612fe9565b818060010192505050611af1565b503373ffffffffffffffffffffffffffffffffffffffff167f9792ee0b82e5e4e40739f4357c26e1d21b23c53095dc7df687b6f2fb901e6a288888604051611c00929190614a30565b60405180910390a25050505050611c15613151565b5050565b611c24848484610be0565b611c38611c2f612a4b565b8585858561315b565b50505050565b6060600a5f9054906101000a900460ff16158015611c615750611c5f6116bb565b155b15611cf657600b8054611c73906141f7565b80601f0160208091040260200160405190810160405280929190818152602001828054611c9f906141f7565b8015611cea5780601f10611cc157610100808354040283529160200191611cea565b820191905f5260205f20905b815481529060010190602001808311611ccd57829003601f168201915b50505050509050611dd9565b5f60115f8481526020019081526020015f208054611d13906141f7565b80601f0160208091040260200160405190810160405280929190818152602001828054611d3f906141f7565b8015611d8a5780601f10611d6157610100808354040283529160200191611d8a565b820191905f5260205f20905b815481529060010190602001808311611d6d57829003601f168201915b505050505090505f815111611dd4576040517f08c379a0000000000000000000000000000000000000000000000000000000008152600401611dcb90614a9c565b60405180910390fd5b809150505b919050565b611de6612824565b60018160ff1610158015611dfe575060038160ff1611155b611e3d576040517f08c379a0000000000000000000000000000000000000000000000000000000008152600401611e349061439d565b60405180910390fd5b5f5b83839050811015611f5c575f600f5f8460ff1660ff1681526020019081526020015f205f868685818110611e7657611e756143bb565b5b9050602002016020810190611e8b9190613d8e565b73ffffffffffffffffffffffffffffffffffffffff1673ffffffffffffffffffffffffffffffffffffffff1681526020019081526020015f205f6101000a81548160ff021916908315150217905550838382818110611eed57611eec6143bb565b5b9050602002016020810190611f029190613d8e565b73ffffffffffffffffffffffffffffffffffffffff167f0dd9c0d1e302b91b0657d241bbf7b07501a5b96403a718c4a291e916f315b0a083604051611f4791906143f7565b60405180910390a28080600101915050611e3f565b50505050565b5f60055f8473ffffffffffffffffffffffffffffffffffffffff1673ffffffffffffffffffffffffffffffffffffffff1681526020019081526020015f205f8373ffffffffffffffffffffffffffffffffffffffff1673ffffffffffffffffffffffffffffffffffffffff1681526020019081526020015f205f9054906101000a900460ff16905092915050565b611ff8612824565b80600b90816120079190614c57565b5050565b612013612824565b5f73ffffffffffffffffffffffffffffffffffffffff168173ffffffffffffffffffffffffffffffffffffffff1603612083575f6040517f1e4fbdf700000000000000000000000000000000000000000000000000000000815260040161207a9190613a75565b60405180910390fd5b61208c81612d77565b50565b612097612fa3565b5f8282905090505f811180156120ae575060038111155b6120ed576040517f08c379a00000000000000000000000000000000000000000000000000000000081526004016120e4906145c3565b60405180910390fd5b5f6120f66114a5565b90505f600481111561210b5761210a613900565b5b81600481111561211e5761211d613900565b5b0361215e576040517f08c379a00000000000000000000000000000000000000000000000000000000081526004016121559061462b565b60405180910390fd5b6121683382610ef1565b6121a7576040517f08c379a000000000000000000000000000000000000000000000000000000000815260040161219e906146b9565b60405180910390fd5b5f8160048111156121bb576121ba613900565b5b905060038360105f8460ff1660ff1681526020019081526020015f205f3373ffffffffffffffffffffffffffffffffffffffff1673ffffffffffffffffffffffffffffffffffffffff1681526020019081526020015f205461221d919061443d565b111561225e576040517f08c379a000000000000000000000000000000000000000000000000000000000815260040161225590614747565b60405180910390fd5b8260105f8360ff1660ff1681526020019081526020015f205f3373ffffffffffffffffffffffffffffffffffffffff1673ffffffffffffffffffffffffffffffffffffffff1681526020019081526020015f205f8282546122bf919061443d565b925050819055505f836801e5b8fa8fe2ac00006122dc9190614765565b90505f846907695a92c20d6fe000006122f59190614765565b90505f7f000000000000000000000000000000000000000000000000000000000000000090505f7f00000000000000000000000000000000000000000000000000000000000000009050838273ffffffffffffffffffffffffffffffffffffffff1663dd62ed3e33306040518363ffffffff1660e01b815260040161237b9291906147a6565b602060405180830381865afa158015612396573d5f803e3d5ffd5b505050506040513d601f19601f820116820180604052508101906123ba91906147e1565b10156123fb576040517f08c379a00000000000000000000000000000000000000000000000000000000081526004016123f290614856565b60405180910390fd5b828173ffffffffffffffffffffffffffffffffffffffff1663dd62ed3e33306040518363ffffffff1660e01b81526004016124379291906147a6565b602060405180830381865afa158015612452573d5f803e3d5ffd5b505050506040513d601f19601f8201168201806040525081019061247691906147e1565b10156124b7576040517f08c379a00000000000000000000000000000000000000000000000000000000081526004016124ae90614d96565b60405180910390fd5b8173ffffffffffffffffffffffffffffffffffffffff166323b872dd337f0000000000000000000000000000000000000000000000000000000000000000876040518463ffffffff1660e01b815260040161251493929190614874565b6020604051808303815f875af1158015612530573d5f803e3d5ffd5b505050506040513d601f19601f8201168201806040525081019061255491906148bd565b612593576040517f08c379a000000000000000000000000000000000000000000000000000000000815260040161258a90614932565b60405180910390fd5b8073ffffffffffffffffffffffffffffffffffffffff166323b872dd337f0000000000000000000000000000000000000000000000000000000000000000866040518463ffffffff1660e01b81526004016125f093929190614874565b6020604051808303815f875af115801561260c573d5f803e3d5ffd5b505050506040513d601f19601f8201168201806040525081019061263091906148bd565b61266f576040517f08c379a000000000000000000000000000000000000000000000000000000000815260040161266690614dfe565b60405180910390fd5b5f5b898990508110156127ad575f8a8a838181106126905761268f6143bb565b5b9050602002013590503073ffffffffffffffffffffffffffffffffffffffff166126b98261123b565b73ffffffffffffffffffffffffffffffffffffffff161461270f576040517f08c379a000000000000000000000000000000000000000000000000000000000815260040161270690614e66565b60405180910390fd5b60125f8281526020019081526020015f205f9054906101000a900460ff1661276c576040517f08c379a00000000000000000000000000000000000000000000000000000000081526004016127639061499a565b60405180910390fd5b5f60125f8381526020019081526020015f205f6101000a81548160ff02191690831515021790555061279f303383612fe9565b818060010192505050612671565b503373ffffffffffffffffffffffffffffffffffffffff167f9792ee0b82e5e4e40739f4357c26e1d21b23c53095dc7df687b6f2fb901e6a288a8a6040516127f6929190614a30565b60405180910390a25050505050505061280d613151565b5050565b60095481565b680270801d946c94000081565b61282c612a4b565b73ffffffffffffffffffffffffffffffffffffffff1661284a6113a7565b73ffffffffffffffffffffffffffffffffffffffff16146128a95761286d612a4b565b6040517f118cdaa70000000000000000000000000000000000000000000000000000000081526004016128a09190613a75565b60405180910390fd5b565b5f7f80ac58cd000000000000000000000000000000000000000000000000000000007bffffffffffffffffffffffffffffffffffffffffffffffffffffffff1916827bffffffffffffffffffffffffffffffffffffffffffffffffffffffff1916148061297557507f5b5e139f000000000000000000000000000000000000000000000000000000007bffffffffffffffffffffffffffffffffffffffffffffffffffffffff1916827bffffffffffffffffffffffffffffffffffffffffffffffffffffffff1916145b80612985575061298482613307565b5b9050919050565b5f8061299783613370565b90505f73ffffffffffffffffffffffffffffffffffffffff168173ffffffffffffffffffffffffffffffffffffffff1603612a0957826040517f7e273289000000000000000000000000000000000000000000000000000000008152600401612a009190613b05565b60405180910390fd5b80915050919050565b5f60045f8381526020019081526020015f205f9054906101000a900473ffffffffffffffffffffffffffffffffffffffff169050919050565b5f33905090565b612a5f83838360016133a9565b505050565b5f80612a6f84613370565b90505f73ffffffffffffffffffffffffffffffffffffffff168373ffffffffffffffffffffffffffffffffffffffff1614612ab057612aaf818486613568565b5b5f73ffffffffffffffffffffffffffffffffffffffff168173ffffffffffffffffffffffffffffffffffffffff1614612b3b57612aef5f855f806133a9565b600160035f8373ffffffffffffffffffffffffffffffffffffffff1673ffffffffffffffffffffffffffffffffffffffff1681526020019081526020015f205f82825403925050819055505b5f73ffffffffffffffffffffffffffffffffffffffff168573ffffffffffffffffffffffffffffffffffffffff1614612bba57600160035f8773ffffffffffffffffffffffffffffffffffffffff1673ffffffffffffffffffffffffffffffffffffffff1681526020019081526020015f205f82825401925050819055505b8460025f8681526020019081526020015f205f6101000a81548173ffffffffffffffffffffffffffffffffffffffff021916908373ffffffffffffffffffffffffffffffffffffffff160217905550838573ffffffffffffffffffffffffffffffffffffffff168273ffffffffffffffffffffffffffffffffffffffff167fddf252ad1be2c89b69c2b068fc378daa952ba7f163c4a11628f55a4df523b3ef60405160405180910390a4809150509392505050565b611a0a600e5410612cb5576040517f08c379a0000000000000000000000000000000000000000000000000000000008152600401612cac90614ece565b60405180910390fd5b600e5f815480929190612cc790614eec565b91905055505f600e549050612cdc838261362b565b8160115f8381526020019081526020015f209081612cfa9190614c57565b50600160125f8381526020019081526020015f205f6101000a81548160ff0219169083151502179055508273ffffffffffffffffffffffffffffffffffffffff167f4cc0a9c4a99ddc700de1af2c9f916a7cbfdb71f14801ccff94061ad1ef8a804082604051612d6a9190613b05565b60405180910390a2505050565b5f60075f9054906101000a900473ffffffffffffffffffffffffffffffffffffffff1690508160075f6101000a81548173ffffffffffffffffffffffffffffffffffffffff021916908373ffffffffffffffffffffffffffffffffffffffff1602179055508173ffffffffffffffffffffffffffffffffffffffff168173ffffffffffffffffffffffffffffffffffffffff167f8be0079c531659141344cd1fd0a4f28419497f9722a3daafe3b4186f6b6457e060405160405180910390a35050565b5f73ffffffffffffffffffffffffffffffffffffffff168273ffffffffffffffffffffffffffffffffffffffff1603612eaa57816040517f5b08ba18000000000000000000000000000000000000000000000000000000008152600401612ea19190613a75565b60405180910390fd5b8060055f8573ffffffffffffffffffffffffffffffffffffffff1673ffffffffffffffffffffffffffffffffffffffff1681526020019081526020015f205f8473ffffffffffffffffffffffffffffffffffffffff1673ffffffffffffffffffffffffffffffffffffffff1681526020019081526020015f205f6101000a81548160ff0219169083151502179055508173ffffffffffffffffffffffffffffffffffffffff168373ffffffffffffffffffffffffffffffffffffffff167f17307eab39ab6107e8899845ad3d59bd9653f200f220920489ca2b5937696c3183604051612f9691906138e7565b60405180910390a3505050565b600260085403612fdf576040517f3ee5aeb500000000000000000000000000000000000000000000000000000000815260040160405180910390fd5b6002600881905550565b5f73ffffffffffffffffffffffffffffffffffffffff168273ffffffffffffffffffffffffffffffffffffffff1603613059575f6040517f64a0ae920000000000000000000000000000000000000000000000000000000081526004016130509190613a75565b60405180910390fd5b5f61306583835f612a64565b90505f73ffffffffffffffffffffffffffffffffffffffff168173ffffffffffffffffffffffffffffffffffffffff16036130d757816040517f7e2732890000000000000000000000000000000000000000000000000000000081526004016130ce9190613b05565b60405180910390fd5b8373ffffffffffffffffffffffffffffffffffffffff168173ffffffffffffffffffffffffffffffffffffffff161461314b578382826040517f64283d7b0000000000000000000000000000000000000000000000000000000081526004016131429392919061431e565b60405180910390fd5b50505050565b6001600881905550565b5f8373ffffffffffffffffffffffffffffffffffffffff163b1115613300578273ffffffffffffffffffffffffffffffffffffffff1663150b7a02868685856040518563ffffffff1660e01b81526004016131b99493929190614f85565b6020604051808303815f875af19250505080156131f457506040513d601f19601f820116820180604052508101906131f19190614fe3565b60015b613275573d805f8114613222576040519150601f19603f3d011682016040523d82523d5f602084013e613227565b606091505b505f81510361326d57836040517f64a0ae920000000000000000000000000000000000000000000000000000000081526004016132649190613a75565b60405180910390fd5b805181602001fd5b63150b7a0260e01b7bffffffffffffffffffffffffffffffffffffffffffffffffffffffff1916817bffffffffffffffffffffffffffffffffffffffffffffffffffffffff1916146132fe57836040517f64a0ae920000000000000000000000000000000000000000000000000000000081526004016132f59190613a75565b60405180910390fd5b505b5050505050565b5f7f01ffc9a7000000000000000000000000000000000000000000000000000000007bffffffffffffffffffffffffffffffffffffffffffffffffffffffff1916827bffffffffffffffffffffffffffffffffffffffffffffffffffffffff1916149050919050565b5f60025f8381526020019081526020015f205f9054906101000a900473ffffffffffffffffffffffffffffffffffffffff169050919050565b80806133e157505f73ffffffffffffffffffffffffffffffffffffffff168273ffffffffffffffffffffffffffffffffffffffff1614155b15613513575f6133f08461298c565b90505f73ffffffffffffffffffffffffffffffffffffffff168373ffffffffffffffffffffffffffffffffffffffff161415801561345a57508273ffffffffffffffffffffffffffffffffffffffff168173ffffffffffffffffffffffffffffffffffffffff1614155b801561346d575061346b8184611f62565b155b156134af57826040517fa9fbf51f0000000000000000000000000000000000000000000000000000000081526004016134a69190613a75565b60405180910390fd5b811561351157838573ffffffffffffffffffffffffffffffffffffffff168273ffffffffffffffffffffffffffffffffffffffff167f8c5be1e5ebec7d5bd14f71427d1e84f3dd0314c0f7b2291e5b200ac8c7c3b92560405160405180910390a45b505b8360045f8581526020019081526020015f205f6101000a81548173ffffffffffffffffffffffffffffffffffffffff021916908373ffffffffffffffffffffffffffffffffffffffff16021790555050505050565b61357383838361371e565b613626575f73ffffffffffffffffffffffffffffffffffffffff168373ffffffffffffffffffffffffffffffffffffffff16036135e757806040517f7e2732890000000000000000000000000000000000000000000000000000000081526004016135de9190613b05565b60405180910390fd5b81816040517f177e802f00000000000000000000000000000000000000000000000000000000815260040161361d92919061500e565b60405180910390fd5b505050565b5f73ffffffffffffffffffffffffffffffffffffffff168273ffffffffffffffffffffffffffffffffffffffff160361369b575f6040517f64a0ae920000000000000000000000000000000000000000000000000000000081526004016136929190613a75565b60405180910390fd5b5f6136a783835f612a64565b90505f73ffffffffffffffffffffffffffffffffffffffff168173ffffffffffffffffffffffffffffffffffffffff1614613719575f6040517f73c6ac6e0000000000000000000000000000000000000000000000000000000081526004016137109190613a75565b60405180910390fd5b505050565b5f8073ffffffffffffffffffffffffffffffffffffffff168373ffffffffffffffffffffffffffffffffffffffff16141580156137d557508273ffffffffffffffffffffffffffffffffffffffff168473ffffffffffffffffffffffffffffffffffffffff16148061379657506137958484611f62565b5b806137d457508273ffffffffffffffffffffffffffffffffffffffff166137bc83612a12565b73ffffffffffffffffffffffffffffffffffffffff16145b5b90509392505050565b5f604051905090565b5f80fd5b5f80fd5b5f819050919050565b613801816137ef565b811461380b575f80fd5b50565b5f8135905061381c816137f8565b92915050565b5f60208284031215613837576138366137e7565b5b5f6138448482850161380e565b91505092915050565b5f7fffffffff0000000000000000000000000000000000000000000000000000000082169050919050565b6138818161384d565b811461388b575f80fd5b50565b5f8135905061389c81613878565b92915050565b5f602082840312156138b7576138b66137e7565b5b5f6138c48482850161388e565b91505092915050565b5f8115159050919050565b6138e1816138cd565b82525050565b5f6020820190506138fa5f8301846138d8565b92915050565b7f4e487b71000000000000000000000000000000000000000000000000000000005f52602160045260245ffd5b6005811061393e5761393d613900565b5b50565b5f81905061394e8261392d565b919050565b5f61395d82613941565b9050919050565b61396d81613953565b82525050565b5f6020820190506139865f830184613964565b92915050565b5f81519050919050565b5f82825260208201905092915050565b5f5b838110156139c35780820151818401526020810190506139a8565b5f8484015250505050565b5f601f19601f8301169050919050565b5f6139e88261398c565b6139f28185613996565b9350613a028185602086016139a6565b613a0b816139ce565b840191505092915050565b5f6020820190508181035f830152613a2e81846139de565b905092915050565b5f73ffffffffffffffffffffffffffffffffffffffff82169050919050565b5f613a5f82613a36565b9050919050565b613a6f81613a55565b82525050565b5f602082019050613a885f830184613a66565b92915050565b613a9781613a55565b8114613aa1575f80fd5b50565b5f81359050613ab281613a8e565b92915050565b5f8060408385031215613ace57613acd6137e7565b5b5f613adb85828601613aa4565b9250506020613aec8582860161380e565b9150509250929050565b613aff816137ef565b82525050565b5f602082019050613b185f830184613af6565b92915050565b60058110613b2a575f80fd5b50565b5f81359050613b3b81613b1e565b92915050565b5f60208284031215613b5657613b556137e7565b5b5f613b6384828501613b2d565b91505092915050565b5f805f60608486031215613b8357613b826137e7565b5b5f613b9086828701613aa4565b9350506020613ba186828701613aa4565b9250506040613bb28682870161380e565b9150509250925092565b5f80fd5b5f80fd5b5f80fd5b5f8083601f840112613bdd57613bdc613bbc565b5b8235905067ffffffffffffffff811115613bfa57613bf9613bc0565b5b602083019150836020820283011115613c1657613c15613bc4565b5b9250929050565b5f60ff82169050919050565b613c3281613c1d565b8114613c3c575f80fd5b50565b5f81359050613c4d81613c29565b92915050565b5f805f60408486031215613c6a57613c696137e7565b5b5f84013567ffffffffffffffff811115613c8757613c866137eb565b5b613c9386828701613bc8565b93509350506020613ca686828701613c3f565b9150509250925092565b5f8060408385031215613cc657613cc56137e7565b5b5f613cd385828601613aa4565b9250506020613ce485828601613b2d565b9150509250929050565b5f8083601f840112613d0357613d02613bbc565b5b8235905067ffffffffffffffff811115613d2057613d1f613bc0565b5b602083019150836020820283011115613d3c57613d3b613bc4565b5b9250929050565b5f8060208385031215613d5957613d586137e7565b5b5f83013567ffffffffffffffff811115613d7657613d756137eb565b5b613d8285828601613cee565b92509250509250929050565b5f60208284031215613da357613da26137e7565b5b5f613db084828501613aa4565b91505092915050565b5f8060408385031215613dcf57613dce6137e7565b5b5f613ddc85828601613c3f565b9250506020613ded85828601613aa4565b9150509250929050565b613e00816138cd565b8114613e0a575f80fd5b50565b5f81359050613e1b81613df7565b92915050565b5f8060408385031215613e3757613e366137e7565b5b5f613e4485828601613aa4565b9250506020613e5585828601613e0d565b9150509250929050565b5f8083601f840112613e7457613e73613bbc565b5b8235905067ffffffffffffffff811115613e9157613e90613bc0565b5b602083019150836020820283011115613ead57613eac613bc4565b5b9250929050565b5f8060208385031215613eca57613ec96137e7565b5b5f83013567ffffffffffffffff811115613ee757613ee66137eb565b5b613ef385828601613e5f565b92509250509250929050565b5f80fd5b7f4e487b71000000000000000000000000000000000000000000000000000000005f52604160045260245ffd5b613f39826139ce565b810181811067ffffffffffffffff82111715613f5857613f57613f03565b5b80604052505050565b5f613f6a6137de565b9050613f768282613f30565b919050565b5f67ffffffffffffffff821115613f9557613f94613f03565b5b613f9e826139ce565b9050602081019050919050565b828183375f83830152505050565b5f613fcb613fc684613f7b565b613f61565b905082815260208101848484011115613fe757613fe6613eff565b5b613ff2848285613fab565b509392505050565b5f82601f83011261400e5761400d613bbc565b5b813561401e848260208601613fb9565b91505092915050565b5f805f806080858703121561403f5761403e6137e7565b5b5f61404c87828801613aa4565b945050602061405d87828801613aa4565b935050604061406e8782880161380e565b925050606085013567ffffffffffffffff81111561408f5761408e6137eb565b5b61409b87828801613ffa565b91505092959194509250565b5f80604083850312156140bd576140bc6137e7565b5b5f6140ca85828601613aa4565b92505060206140db85828601613aa4565b9150509250929050565b5f67ffffffffffffffff8211156140ff576140fe613f03565b5b614108826139ce565b9050602081019050919050565b5f614127614122846140e5565b613f61565b90508281526020810184848401111561414357614142613eff565b5b61414e848285613fab565b509392505050565b5f82601f83011261416a57614169613bbc565b5b813561417a848260208601614115565b91505092915050565b5f60208284031215614198576141976137e7565b5b5f82013567ffffffffffffffff8111156141b5576141b46137eb565b5b6141c184828501614156565b91505092915050565b7f4e487b71000000000000000000000000000000000000000000000000000000005f52602260045260245ffd5b5f600282049050600182168061420e57607f821691505b602082108103614221576142206141ca565b5b50919050565b7f43616e6e6f742073657420706861736520746f20494e414354495645000000005f82015250565b5f61425b601c83613996565b915061426682614227565b602082019050919050565b5f6020820190508181035f8301526142888161424f565b9050919050565b7f43616e6e6f74206d6f766520746f2070726576696f75732070686173650000005f82015250565b5f6142c3601d83613996565b91506142ce8261428f565b602082019050919050565b5f6020820190508181035f8301526142f0816142b7565b9050919050565b5f60408201905061430a5f830185613964565b6143176020830184613af6565b9392505050565b5f6060820190506143315f830186613a66565b61433e6020830185613af6565b61434b6040830184613a66565b949350505050565b7f496e76616c6964207068617365000000000000000000000000000000000000005f82015250565b5f614387600d83613996565b915061439282614353565b602082019050919050565b5f6020820190508181035f8301526143b48161437b565b9050919050565b7f4e487b71000000000000000000000000000000000000000000000000000000005f52603260045260245ffd5b6143f181613c1d565b82525050565b5f60208201905061440a5f8301846143e8565b92915050565b7f4e487b71000000000000000000000000000000000000000000000000000000005f52601160045260245ffd5b5f614447826137ef565b9150614452836137ef565b925082820190508082111561446a57614469614410565b5b92915050565b7f576f756c6420657863656564206d6178696d756d20737570706c7900000000005f82015250565b5f6144a4601b83613996565b91506144af82614470565b602082019050919050565b5f6020820190508181035f8301526144d181614498565b9050919050565b5f80fd5b5f80fd5b5f80fd5b5f8083356001602003843603038112614500576144ff6144d8565b5b80840192508235915067ffffffffffffffff821115614522576145216144dc565b5b60208301925060018202360383131561453e5761453d6144e0565b5b509250929050565b5f614550826137ef565b915061455b836137ef565b925082820390508181111561457357614572614410565b5b92915050565b7f4d757374206d696e74206265747765656e203120616e642033204e46547300005f82015250565b5f6145ad601e83613996565b91506145b882614579565b602082019050919050565b5f6020820190508181035f8301526145da816145a1565b9050919050565b7f4d696e74696e67206e6f742061637469766500000000000000000000000000005f82015250565b5f614615601283613996565b9150614620826145e1565b602082019050919050565b5f6020820190508181035f83015261464281614609565b9050919050565b7f4e6f742077686974656c697374656420666f722063757272656e7420706861735f8201527f6500000000000000000000000000000000000000000000000000000000000000602082015250565b5f6146a3602183613996565b91506146ae82614649565b604082019050919050565b5f6020820190508181035f8301526146d081614697565b9050919050565b7f45786365656473206d6178206d696e747320616c6c6f77656420666f722074685f8201527f6973207068617365000000000000000000000000000000000000000000000000602082015250565b5f614731602883613996565b915061473c826146d7565b604082019050919050565b5f6020820190508181035f83015261475e81614725565b9050919050565b5f61476f826137ef565b915061477a836137ef565b9250828202614788816137ef565b9150828204841483151761479f5761479e614410565b5b5092915050565b5f6040820190506147b95f830185613a66565b6147c66020830184613a66565b9392505050565b5f815190506147db816137f8565b92915050565b5f602082840312156147f6576147f56137e7565b5b5f614803848285016147cd565b91505092915050565b7f496e73756666696369656e7420524f4e20616c6c6f77616e63650000000000005f82015250565b5f614840601a83613996565b915061484b8261480c565b602082019050919050565b5f6020820190508181035f83015261486d81614834565b9050919050565b5f6060820190506148875f830186613a66565b6148946020830185613a66565b6148a16040830184613af6565b949350505050565b5f815190506148b781613df7565b92915050565b5f602082840312156148d2576148d16137e7565b5b5f6148df848285016148a9565b91505092915050565b7f524f4e207472616e73666572206661696c6564000000000000000000000000005f82015250565b5f61491c601383613996565b9150614927826148e8565b602082019050919050565b5f6020820190508181035f83015261494981614910565b9050919050565b7f546f6b656e206e6f7420617661696c61626c65000000000000000000000000005f82015250565b5f614984601383613996565b915061498f82614950565b602082019050919050565b5f6020820190508181035f8301526149b181614978565b9050919050565b5f82825260208201905092915050565b5f80fd5b82818337505050565b5f6149e083856149b8565b93507f07ffffffffffffffffffffffffffffffffffffffffffffffffffffffffffffff831115614a1357614a126149c8565b5b602083029250614a248385846149cc565b82840190509392505050565b5f6020820190508181035f830152614a498184866149d5565b90509392505050565b7f555249206e6f742073657420666f72207468697320746f6b656e0000000000005f82015250565b5f614a86601a83613996565b9150614a9182614a52565b602082019050919050565b5f6020820190508181035f830152614ab381614a7a565b9050919050565b5f819050815f5260205f209050919050565b5f6020601f8301049050919050565b5f82821b905092915050565b5f60088302614b167fffffffffffffffffffffffffffffffffffffffffffffffffffffffffffffffff82614adb565b614b208683614adb565b95508019841693508086168417925050509392505050565b5f819050919050565b5f614b5b614b56614b51846137ef565b614b38565b6137ef565b9050919050565b5f819050919050565b614b7483614b41565b614b88614b8082614b62565b848454614ae7565b825550505050565b5f90565b614b9c614b90565b614ba7818484614b6b565b505050565b5b81811015614bca57614bbf5f82614b94565b600181019050614bad565b5050565b601f821115614c0f57614be081614aba565b614be984614acc565b81016020851015614bf8578190505b614c0c614c0485614acc565b830182614bac565b50505b505050565b5f82821c905092915050565b5f614c2f5f1984600802614c14565b1980831691505092915050565b5f614c478383614c20565b9150826002028217905092915050565b614c608261398c565b67ffffffffffffffff811115614c7957614c78613f03565b5b614c8382546141f7565b614c8e828285614bce565b5f60209050601f831160018114614cbf575f8415614cad578287015190505b614cb78582614c3c565b865550614d1e565b601f198416614ccd86614aba565b5f5b82811015614cf457848901518255600182019150602085019450602081019050614ccf565b86831015614d115784890151614d0d601f891682614c20565b8355505b6001600288020188555050505b505050505050565b7f496e73756666696369656e74206e617469766520746f6b656e20616c6c6f77615f8201527f6e63650000000000000000000000000000000000000000000000000000000000602082015250565b5f614d80602383613996565b9150614d8b82614d26565b604082019050919050565b5f6020820190508181035f830152614dad81614d74565b9050919050565b7f4e617469766520746f6b656e207472616e73666572206661696c6564000000005f82015250565b5f614de8601c83613996565b9150614df382614db4565b602082019050919050565b5f6020820190508181035f830152614e1581614ddc565b9050919050565b7f4e465420616c726561647920636c61696d6564000000000000000000000000005f82015250565b5f614e50601383613996565b9150614e5b82614e1c565b602082019050919050565b5f6020820190508181035f830152614e7d81614e44565b9050919050565b7f4d6178696d756d20737570706c792072656163686564000000000000000000005f82015250565b5f614eb8601683613996565b9150614ec382614e84565b602082019050919050565b5f6020820190508181035f830152614ee581614eac565b9050919050565b5f614ef6826137ef565b91507fffffffffffffffffffffffffffffffffffffffffffffffffffffffffffffffff8203614f2857614f27614410565b5b600182019050919050565b5f81519050919050565b5f82825260208201905092915050565b5f614f5782614f33565b614f618185614f3d565b9350614f718185602086016139a6565b614f7a816139ce565b840191505092915050565b5f608082019050614f985f830187613a66565b614fa56020830186613a66565b614fb26040830185613af6565b8181036060830152614fc48184614f4d565b905095945050505050565b5f81519050614fdd81613878565b92915050565b5f60208284031215614ff857614ff76137e7565b5b5f61500584828501614fcf565b91505092915050565b5f6040820190506150215f830185613a66565b61502e6020830184613af6565b939250505056fea26469706673582212202da1719040e8658d4c6826db201091973f1df7f08df971b08966217edfaac46464736f6c63430008140033","linkReferences":{}},"methodIdentifiers":{"MAX_MINTS_PER_PHASE()":"5e0a8a88","MAX_SUPPLY()":"32cb6b0c","PHASE_1_DURATION()":"6839c1bd","PHASE_2_DURATION()":"938ece89","PHASE_3_DURATION()":"5539aa86","addToWhitelist(address[],uint8)":"51251320","approve(address,uint256)":"095ea7b3","availableTokens(uint256)":"ad64d068","balanceOf(address)":"70a08231","batchMint(string[])":"5bcdf207","canReveal()":"a9842610","checkAndReveal()":"5df1bfe5","currentPhase()":"055ad42e","getApproved(uint256)":"081812fc","getCurrentPhase()":"a3a40ea5","isApprovedForAll(address,address)":"e985e9c5","isWhitelisted(address,uint8)":"54797392","mintCountByPhase(uint8,address)":"a977bcd6","mintWithRon(uint256[])":"af4825bc","mintWithRonAndNative(uint256[])":"f56ffc0a","name()":"06fdde03","nativeTokenAddress()":"4d0047ee","nativeTokenAmount()":"3884a455","notRevealedURI()":"72250380","owner()":"8da5cb5b","ownerOf(uint256)":"6352211e","paymentRecipient()":"2b1eaf29","phaseStartTime()":"12f3d0c2","phaseWhitelist(uint8,address)":"a1e7a695","removeFromWhitelist(address[],uint8)":"e1097f53","renounceOwnership()":"715018a6","reveal()":"a475b5dd","revealTimestamp()":"f62f3c11","revealed()":"51830227","ronAndNativePrice()":"0f3bfbdc","ronTokenAddress()":"079367c6","ronTokenPrice()":"fbf2f683","safeTransferFrom(address,address,uint256)":"42842e0e","safeTransferFrom(address,address,uint256,bytes)":"b88d4fde","setApprovalForAll(address,bool)":"a22cb465","setNotRevealedURI(string)":"f2c4ce1e","setRevealTimestamp(uint256)":"018a2c37","startPhase(uint8)":"1c9ed381","supportsInterface(bytes4)":"01ffc9a7","symbol()":"95d89b41","tokenURI(uint256)":"c87b56dd","transferFrom(address,address,uint256)":"23b872dd","transferOwnership(address)":"f2fde38b"},"id":41}