{"abi":[{"type":"constructor","inputs":[{"name":"_name","type":"string","internalType":"string"},{"name":"_symbol","type":"string","internalType":"string"},{"name":"_notRevealedURI","type":"string","internalType":"string"},{"name":"_ronTokenAddress","type":"address","internalType":"address"},{"name":"_nativeTokenAddress","type":"address","internalType":"address"},{"name":"_revealTimestamp","type":"uint256","internalType":"uint256"}],"stateMutability":"nonpayable"},{"type":"function","name":"approve","inputs":[{"name":"to","type":"address","internalType":"address"},{"name":"tokenId","type":"uint256","internalType":"uint256"}],"outputs":[],"stateMutability":"nonpayable"},{"type":"function","name":"availableTokens","inputs":[{"name":"","type":"uint256","internalType":"uint256"}],"outputs":[{"name":"","type":"bool","internalType":"bool"}],"stateMutability":"view"},{"type":"function","name":"balanceOf","inputs":[{"name":"owner","type":"address","internalType":"address"}],"outputs":[{"name":"","type":"uint256","internalType":"uint256"}],"stateMutability":"view"},{"type":"function","name":"batchMint","inputs":[{"name":"_uris","type":"string[]","internalType":"string[]"}],"outputs":[],"stateMutability":"nonpayable"},{"type":"function","name":"batchSetTokenURI","inputs":[{"name":"tokenIds","type":"uint256[]","internalType":"uint256[]"},{"name":"uris","type":"string[]","internalType":"string[]"}],"outputs":[],"stateMutability":"nonpayable"},{"type":"function","name":"canReveal","inputs":[],"outputs":[{"name":"","type":"bool","internalType":"bool"}],"stateMutability":"view"},{"type":"function","name":"checkAndReveal","inputs":[],"outputs":[],"stateMutability":"nonpayable"},{"type":"function","name":"getApproved","inputs":[{"name":"tokenId","type":"uint256","internalType":"uint256"}],"outputs":[{"name":"","type":"address","internalType":"address"}],"stateMutability":"view"},{"type":"function","name":"isApprovedForAll","inputs":[{"name":"owner","type":"address","internalType":"address"},{"name":"operator","type":"address","internalType":"address"}],"outputs":[{"name":"","type":"bool","internalType":"bool"}],"stateMutability":"view"},{"type":"function","name":"mint","inputs":[{"name":"uri","type":"string","internalType":"string"}],"outputs":[],"stateMutability":"nonpayable"},{"type":"function","name":"mintWithRon","inputs":[{"name":"tokenId","type":"uint256","internalType":"uint256"}],"outputs":[],"stateMutability":"nonpayable"},{"type":"function","name":"mintWithRonAndNative","inputs":[{"name":"tokenId","type":"uint256","internalType":"uint256"}],"outputs":[],"stateMutability":"nonpayable"},{"type":"function","name":"name","inputs":[],"outputs":[{"name":"","type":"string","internalType":"string"}],"stateMutability":"view"},{"type":"function","name":"nativeTokenAddress","inputs":[],"outputs":[{"name":"","type":"address","internalType":"address"}],"stateMutability":"view"},{"type":"function","name":"nativeTokenAmount","inputs":[],"outputs":[{"name":"","type":"uint256","internalType":"uint256"}],"stateMutability":"view"},{"type":"function","name":"notRevealedURI","inputs":[],"outputs":[{"name":"","type":"string","internalType":"string"}],"stateMutability":"view"},{"type":"function","name":"owner","inputs":[],"outputs":[{"name":"","type":"address","internalType":"address"}],"stateMutability":"view"},{"type":"function","name":"ownerOf","inputs":[{"name":"tokenId","type":"uint256","internalType":"uint256"}],"outputs":[{"name":"","type":"address","internalType":"address"}],"stateMutability":"view"},{"type":"function","name":"renounceOwnership","inputs":[],"outputs":[],"stateMutability":"nonpayable"},{"type":"function","name":"reveal","inputs":[],"outputs":[],"stateMutability":"nonpayable"},{"type":"function","name":"revealTimestamp","inputs":[],"outputs":[{"name":"","type":"uint256","internalType":"uint256"}],"stateMutability":"view"},{"type":"function","name":"revealed","inputs":[],"outputs":[{"name":"","type":"bool","internalType":"bool"}],"stateMutability":"view"},{"type":"function","name":"ronAndNativePrice","inputs":[],"outputs":[{"name":"","type":"uint256","internalType":"uint256"}],"stateMutability":"view"},{"type":"function","name":"ronTokenAddress","inputs":[],"outputs":[{"name":"","type":"address","internalType":"address"}],"stateMutability":"view"},{"type":"function","name":"ronTokenPrice","inputs":[],"outputs":[{"name":"","type":"uint256","internalType":"uint256"}],"stateMutability":"view"},{"type":"function","name":"safeTransferFrom","inputs":[{"name":"from","type":"address","internalType":"address"},{"name":"to","type":"address","internalType":"address"},{"name":"tokenId","type":"uint256","internalType":"uint256"}],"outputs":[],"stateMutability":"nonpayable"},{"type":"function","name":"safeTransferFrom","inputs":[{"name":"from","type":"address","internalType":"address"},{"name":"to","type":"address","internalType":"address"},{"name":"tokenId","type":"uint256","internalType":"uint256"},{"name":"data","type":"bytes","internalType":"bytes"}],"outputs":[],"stateMutability":"nonpayable"},{"type":"function","name":"setApprovalForAll","inputs":[{"name":"operator","type":"address","internalType":"address"},{"name":"approved","type":"bool","internalType":"bool"}],"outputs":[],"stateMutability":"nonpayable"},{"type":"function","name":"setNativeTokenAddress","inputs":[{"name":"_address","type":"address","internalType":"address"}],"outputs":[],"stateMutability":"nonpayable"},{"type":"function","name":"setNotRevealedURI","inputs":[{"name":"_notRevealedURI","type":"string","internalType":"string"}],"outputs":[],"stateMutability":"nonpayable"},{"type":"function","name":"setRevealTimestamp","inputs":[{"name":"_revealTimestamp","type":"uint256","internalType":"uint256"}],"outputs":[],"stateMutability":"nonpayable"},{"type":"function","name":"setRonAndNativePrice","inputs":[{"name":"_ronPrice","type":"uint256","internalType":"uint256"},{"name":"_nativeAmount","type":"uint256","internalType":"uint256"}],"outputs":[],"stateMutability":"nonpayable"},{"type":"function","name":"setRonTokenAddress","inputs":[{"name":"_address","type":"address","internalType":"address"}],"outputs":[],"stateMutability":"nonpayable"},{"type":"function","name":"setRonTokenPrice","inputs":[{"name":"_price","type":"uint256","internalType":"uint256"}],"outputs":[],"stateMutability":"nonpayable"},{"type":"function","name":"setTokenURI","inputs":[{"name":"tokenId","type":"uint256","internalType":"uint256"},{"name":"_tokenURI","type":"string","internalType":"string"}],"outputs":[],"stateMutability":"nonpayable"},{"type":"function","name":"supportsInterface","inputs":[{"name":"interfaceId","type":"bytes4","internalType":"bytes4"}],"outputs":[{"name":"","type":"bool","internalType":"bool"}],"stateMutability":"view"},{"type":"function","name":"symbol","inputs":[],"outputs":[{"name":"","type":"string","internalType":"string"}],"stateMutability":"view"},{"type":"function","name":"tokenURI","inputs":[{"name":"tokenId","type":"uint256","internalType":"uint256"}],"outputs":[{"name":"","type":"string","internalType":"string"}],"stateMutability":"view"},{"type":"function","name":"transferFrom","inputs":[{"name":"from","type":"address","internalType":"address"},{"name":"to","type":"address","internalType":"address"},{"name":"tokenId","type":"uint256","internalType":"uint256"}],"outputs":[],"stateMutability":"nonpayable"},{"type":"function","name":"transferOwnership","inputs":[{"name":"newOwner","type":"address","internalType":"address"}],"outputs":[],"stateMutability":"nonpayable"},{"type":"function","name":"withdrawERC20","inputs":[{"name":"_tokenAddress","type":"address","internalType":"address"},{"name":"_amount","type":"uint256","internalType":"uint256"}],"outputs":[],"stateMutability":"nonpayable"},{"type":"event","name":"Approval","inputs":[{"name":"owner","type":"address","indexed":true,"internalType":"address"},{"name":"approved","type":"address","indexed":true,"internalType":"address"},{"name":"tokenId","type":"uint256","indexed":true,"internalType":"uint256"}],"anonymous":false},{"type":"event","name":"ApprovalForAll","inputs":[{"name":"owner","type":"address","indexed":true,"internalType":"address"},{"name":"operator","type":"address","indexed":true,"internalType":"address"},{"name":"approved","type":"bool","indexed":false,"internalType":"bool"}],"anonymous":false},{"type":"event","name":"BatchMetadataUpdate","inputs":[{"name":"_fromTokenId","type":"uint256","indexed":false,"internalType":"uint256"},{"name":"_toTokenId","type":"uint256","indexed":false,"internalType":"uint256"}],"anonymous":false},{"type":"event","name":"MetadataUpdate","inputs":[{"name":"_tokenId","type":"uint256","indexed":false,"internalType":"uint256"}],"anonymous":false},{"type":"event","name":"NFTMinted","inputs":[{"name":"recipient","type":"address","indexed":true,"internalType":"address"},{"name":"tokenId","type":"uint256","indexed":false,"internalType":"uint256"}],"anonymous":false},{"type":"event","name":"OwnershipTransferred","inputs":[{"name":"previousOwner","type":"address","indexed":true,"internalType":"address"},{"name":"newOwner","type":"address","indexed":true,"internalType":"address"}],"anonymous":false},{"type":"event","name":"PriceUpdated","inputs":[{"name":"tokenType","type":"string","indexed":false,"internalType":"string"},{"name":"newPrice","type":"uint256","indexed":false,"internalType":"uint256"}],"anonymous":false},{"type":"event","name":"RevealTimestampSet","inputs":[{"name":"timestamp","type":"uint256","indexed":false,"internalType":"uint256"}],"anonymous":false},{"type":"event","name":"Revealed","inputs":[],"anonymous":false},{"type":"event","name":"Transfer","inputs":[{"name":"from","type":"address","indexed":true,"internalType":"address"},{"name":"to","type":"address","indexed":true,"internalType":"address"},{"name":"tokenId","type":"uint256","indexed":true,"internalType":"uint256"}],"anonymous":false},{"type":"error","name":"ERC721IncorrectOwner","inputs":[{"name":"sender","type":"address","internalType":"address"},{"name":"tokenId","type":"uint256","internalType":"uint256"},{"name":"owner","type":"address","internalType":"address"}]},{"type":"error","name":"ERC721InsufficientApproval","inputs":[{"name":"operator","type":"address","internalType":"address"},{"name":"tokenId","type":"uint256","internalType":"uint256"}]},{"type":"error","name":"ERC721InvalidApprover","inputs":[{"name":"approver","type":"address","internalType":"address"}]},{"type":"error","name":"ERC721InvalidOperator","inputs":[{"name":"operator","type":"address","internalType":"address"}]},{"type":"error","name":"ERC721InvalidOwner","inputs":[{"name":"owner","type":"address","internalType":"address"}]},{"type":"error","name":"ERC721InvalidReceiver","inputs":[{"name":"receiver","type":"address","internalType":"address"}]},{"type":"error","name":"ERC721InvalidSender","inputs":[{"name":"sender","type":"address","internalType":"address"}]},{"type":"error","name":"ERC721NonexistentToken","inputs":[{"name":"tokenId","type":"uint256","internalType":"uint256"}]},{"type":"error","name":"OwnableInvalidOwner","inputs":[{"name":"owner","type":"address","internalType":"address"}]},{"type":"error","name":"OwnableUnauthorizedAccount","inputs":[{"name":"account","type":"address","internalType":"address"}]},{"type":"error","name":"ReentrancyGuardReentrantCall","inputs":[]}],"bytecode":{"object":"0x6080604052680270801d946c940000600b556801e5b8fa8fe2ac0000600c556907695a92c20d6fe00000600d555f600e5f6101000a81548160ff02191690831515021790555034801562000051575f80fd5b5060405162004bb138038062004bb18339818101604052810190620000779190620004b2565b338686815f90816200008a9190620007d5565b5080600190816200009c9190620007d5565b5050505f73ffffffffffffffffffffffffffffffffffffffff168173ffffffffffffffffffffffffffffffffffffffff160362000112575f6040517f1e4fbdf7000000000000000000000000000000000000000000000000000000008152600401620001099190620008ca565b60405180910390fd5b6200012381620001d160201b60201c565b50600160088190555083601090816200013d9190620007d5565b508260095f6101000a81548173ffffffffffffffffffffffffffffffffffffffff021916908373ffffffffffffffffffffffffffffffffffffffff16021790555081600a5f6101000a81548173ffffffffffffffffffffffffffffffffffffffff021916908373ffffffffffffffffffffffffffffffffffffffff16021790555080600f81905550505050505050620008e5565b5f60075f9054906101000a900473ffffffffffffffffffffffffffffffffffffffff1690508160075f6101000a81548173ffffffffffffffffffffffffffffffffffffffff021916908373ffffffffffffffffffffffffffffffffffffffff1602179055508173ffffffffffffffffffffffffffffffffffffffff168173ffffffffffffffffffffffffffffffffffffffff167f8be0079c531659141344cd1fd0a4f28419497f9722a3daafe3b4186f6b6457e060405160405180910390a35050565b5f604051905090565b5f80fd5b5f80fd5b5f80fd5b5f80fd5b5f601f19601f8301169050919050565b7f4e487b71000000000000000000000000000000000000000000000000000000005f52604160045260245ffd5b620002f582620002ad565b810181811067ffffffffffffffff82111715620003175762000316620002bd565b5b80604052505050565b5f6200032b62000294565b9050620003398282620002ea565b919050565b5f67ffffffffffffffff8211156200035b576200035a620002bd565b5b6200036682620002ad565b9050602081019050919050565b5f5b838110156200039257808201518184015260208101905062000375565b5f8484015250505050565b5f620003b3620003ad846200033e565b62000320565b905082815260208101848484011115620003d257620003d1620002a9565b5b620003df84828562000373565b509392505050565b5f82601f830112620003fe57620003fd620002a5565b5b8151620004108482602086016200039d565b91505092915050565b5f73ffffffffffffffffffffffffffffffffffffffff82169050919050565b5f620004448262000419565b9050919050565b620004568162000438565b811462000461575f80fd5b50565b5f8151905062000474816200044b565b92915050565b5f819050919050565b6200048e816200047a565b811462000499575f80fd5b50565b5f81519050620004ac8162000483565b92915050565b5f805f805f8060c08789031215620004cf57620004ce6200029d565b5b5f87015167ffffffffffffffff811115620004ef57620004ee620002a1565b5b620004fd89828a01620003e7565b965050602087015167ffffffffffffffff811115620005215762000520620002a1565b5b6200052f89828a01620003e7565b955050604087015167ffffffffffffffff811115620005535762000552620002a1565b5b6200056189828a01620003e7565b94505060606200057489828a0162000464565b93505060806200058789828a0162000464565b92505060a06200059a89828a016200049c565b9150509295509295509295565b5f81519050919050565b7f4e487b71000000000000000000000000000000000000000000000000000000005f52602260045260245ffd5b5f6002820490506001821680620005f657607f821691505b6020821081036200060c576200060b620005b1565b5b50919050565b5f819050815f5260205f209050919050565b5f6020601f8301049050919050565b5f82821b905092915050565b5f60088302620006707fffffffffffffffffffffffffffffffffffffffffffffffffffffffffffffffff8262000633565b6200067c868362000633565b95508019841693508086168417925050509392505050565b5f819050919050565b5f620006bd620006b7620006b1846200047a565b62000694565b6200047a565b9050919050565b5f819050919050565b620006d8836200069d565b620006f0620006e782620006c4565b8484546200063f565b825550505050565b5f90565b62000706620006f8565b62000713818484620006cd565b505050565b5b818110156200073a576200072e5f82620006fc565b60018101905062000719565b5050565b601f8211156200078957620007538162000612565b6200075e8462000624565b810160208510156200076e578190505b620007866200077d8562000624565b83018262000718565b50505b505050565b5f82821c905092915050565b5f620007ab5f19846008026200078e565b1980831691505092915050565b5f620007c583836200079a565b9150826002028217905092915050565b620007e082620005a7565b67ffffffffffffffff811115620007fc57620007fb620002bd565b5b620008088254620005de565b620008158282856200073e565b5f60209050601f8311600181146200084b575f841562000836578287015190505b620008428582620007b8565b865550620008b1565b601f1984166200085b8662000612565b5f5b8281101562000884578489015182556001820191506020850194506020810190506200085d565b86831015620008a45784890151620008a0601f8916826200079a565b8355505b6001600288020188555050505b505050505050565b620008c48162000438565b82525050565b5f602082019050620008df5f830184620008b9565b92915050565b6142be80620008f35f395ff3fe608060405234801561000f575f80fd5b5060043610610250575f3560e01c80636706467b11610144578063a9842610116100c1578063e82368ab11610085578063e82368ab1461067e578063e985e9c51461069a578063f2c4ce1e146106ca578063f2fde38b146106e6578063f62f3c1114610702578063fbf2f6831461072057610250565b8063a9842610146105c8578063ad64d068146105e6578063b88d4fde14610616578063c87b56dd14610632578063d85d3d271461066257610250565b80638da5cb5b116101085780638da5cb5b1461054a57806395d89b4114610568578063a1db978214610586578063a22cb465146105a2578063a475b5dd146105be57610250565b80636706467b146104ba57806370a08231146104d6578063715018a61461050657806372250380146105105780637bb8323b1461052e57610250565b80633884a455116101d25780635183022711610196578063518302271461042a5780635bcdf207146104485780635df1bfe5146104645780635e957ddf1461046e5780636352211e1461048a57610250565b80633884a4551461039a57806342842e0e146103b8578063471d0e9c146103d45780634d0047ee146103f05780634d14dce01461040e57610250565b8063081812fc11610219578063081812fc146102f8578063095ea7b3146103285780630f3bfbdc14610344578063162094c41461036257806323b872dd1461037e57610250565b80621bccc814610254578063018a2c371461027057806301ffc9a71461028c57806306fdde03146102bc578063079367c6146102da575b5f80fd5b61026e60048036038101906102699190612de5565b61073e565b005b61028a60048036038101906102859190612e23565b61078f565b005b6102a660048036038101906102a19190612ea3565b6107d8565b6040516102b39190612ee8565b60405180910390f35b6102c4610838565b6040516102d19190612f8b565b60405180910390f35b6102e26108c7565b6040516102ef9190612fea565b60405180910390f35b610312600480360381019061030d9190612e23565b6108ec565b60405161031f9190612fea565b60405180910390f35b610342600480360381019061033d919061302d565b610907565b005b61034c61091d565b604051610359919061307a565b60405180910390f35b61037c600480360381019061037791906131bf565b610923565b005b61039860048036038101906103939190613219565b610939565b005b6103a2610a38565b6040516103af919061307a565b60405180910390f35b6103d260048036038101906103cd9190613219565b610a3e565b005b6103ee60048036038101906103e99190612e23565b610a5d565b005b6103f8610d18565b6040516104059190612fea565b60405180910390f35b61042860048036038101906104239190613269565b610d3d565b005b610432610d88565b60405161043f9190612ee8565b60405180910390f35b610462600480360381019061045d91906132f1565b610d9a565b005b61046c610e37565b005b61048860048036038101906104839190612e23565b610ea5565b005b6104a4600480360381019061049f9190612e23565b611302565b6040516104b19190612fea565b60405180910390f35b6104d460048036038101906104cf91906134da565b611313565b005b6104f060048036038101906104eb9190613269565b6113c0565b6040516104fd919061307a565b60405180910390f35b61050e611476565b005b610518611489565b6040516105259190612f8b565b60405180910390f35b61054860048036038101906105439190612e23565b611515565b005b61055261155e565b60405161055f9190612fea565b60405180910390f35b610570611586565b60405161057d9190612f8b565b60405180910390f35b6105a0600480360381019061059b919061302d565b611616565b005b6105bc60048036038101906105b7919061357a565b6116e8565b005b6105c66116fe565b005b6105d061174e565b6040516105dd9190612ee8565b60405180910390f35b61060060048036038101906105fb9190612e23565b61175a565b60405161060d9190612ee8565b60405180910390f35b610630600480360381019061062b9190613656565b611777565b005b61064c60048036038101906106479190612e23565b61179c565b6040516106599190612f8b565b60405180910390f35b61067c600480360381019061067791906136d6565b6118ad565b005b61069860048036038101906106939190613269565b6118c2565b005b6106b460048036038101906106af919061371d565b61190d565b6040516106c19190612ee8565b60405180910390f35b6106e460048036038101906106df91906136d6565b61199b565b005b61070060048036038101906106fb9190613269565b6119b6565b005b61070a611a3a565b604051610717919061307a565b60405180910390f35b610728611a40565b604051610735919061307a565b60405180910390f35b610746611a46565b81600c8190555080600d819055507f159e83f4712ba2552e68be9d848e49bf6dd35c24f19564ffd523b6549450a2f48260405161078391906137a5565b60405180910390a15050565b610797611a46565b80600f819055507f3587370e92498b996ffb077cfba4488e24ad3924be64e734c2a463eb2171153c816040516107cd919061307a565b60405180910390a150565b5f634906490660e01b7bffffffffffffffffffffffffffffffffffffffffffffffffffffffff1916827bffffffffffffffffffffffffffffffffffffffffffffffffffffffff19161480610831575061083082611acd565b5b9050919050565b60605f8054610846906137fe565b80601f0160208091040260200160405190810160405280929190818152602001828054610872906137fe565b80156108bd5780601f10610894576101008083540402835291602001916108bd565b820191905f5260205f20905b8154815290600101906020018083116108a057829003601f168201915b5050505050905090565b60095f9054906101000a900473ffffffffffffffffffffffffffffffffffffffff1681565b5f6108f682611bae565b5061090082611c34565b9050919050565b6109198282610914611c6d565b611c74565b5050565b600c5481565b61092b611a46565b6109358282611c86565b5050565b5f73ffffffffffffffffffffffffffffffffffffffff168273ffffffffffffffffffffffffffffffffffffffff16036109a9575f6040517f64a0ae920000000000000000000000000000000000000000000000000000000081526004016109a09190612fea565b60405180910390fd5b5f6109bc83836109b7611c6d565b611ce0565b90508373ffffffffffffffffffffffffffffffffffffffff168173ffffffffffffffffffffffffffffffffffffffff1614610a32578382826040517f64283d7b000000000000000000000000000000000000000000000000000000008152600401610a299392919061382e565b60405180910390fd5b50505050565b600d5481565b610a5883838360405180602001604052805f815250611777565b505050565b610a65611eeb565b5f60095f9054906101000a900473ffffffffffffffffffffffffffffffffffffffff169050600b548173ffffffffffffffffffffffffffffffffffffffff1663dd62ed3e33306040518363ffffffff1660e01b8152600401610ac8929190613863565b602060405180830381865afa158015610ae3573d5f803e3d5ffd5b505050506040513d601f19601f82011682018060405250810190610b07919061389e565b1015610b48576040517f08c379a0000000000000000000000000000000000000000000000000000000008152600401610b3f90613913565b60405180910390fd5b8073ffffffffffffffffffffffffffffffffffffffff166323b872dd3330600b546040518463ffffffff1660e01b8152600401610b8793929190613931565b6020604051808303815f875af1158015610ba3573d5f803e3d5ffd5b505050506040513d601f19601f82011682018060405250810190610bc7919061397a565b610c06576040517f08c379a0000000000000000000000000000000000000000000000000000000008152600401610bfd906139ef565b60405180910390fd5b3073ffffffffffffffffffffffffffffffffffffffff16610c2683611302565b73ffffffffffffffffffffffffffffffffffffffff1614610c7c576040517f08c379a0000000000000000000000000000000000000000000000000000000008152600401610c7390613a57565b60405180910390fd5b60135f8381526020019081526020015f205f9054906101000a900460ff16610cd9576040517f08c379a0000000000000000000000000000000000000000000000000000000008152600401610cd090613abf565b60405180910390fd5b5f60135f8481526020019081526020015f205f6101000a81548160ff021916908315150217905550610d0c303384611f31565b50610d15612099565b50565b600a5f9054906101000a900473ffffffffffffffffffffffffffffffffffffffff1681565b610d45611a46565b8060095f6101000a81548173ffffffffffffffffffffffffffffffffffffffff021916908373ffffffffffffffffffffffffffffffffffffffff16021790555050565b600e5f9054906101000a900460ff1681565b610da2611a46565b5f5b82829050811015610e3257610e1f30848484818110610dc657610dc5613add565b5b9050602002810190610dd89190613b16565b8080601f0160208091040260200160405190810160405280939291908181526020018383808284375f81840152601f19601f820116905080830192505050505050506120a3565b8080610e2a90613ba5565b915050610da4565b505050565b600e5f9054906101000a900460ff16158015610e575750610e5661174e565b5b15610ea3576001600e5f6101000a81548160ff0219169083151502179055507fe2a7169cedebe39671840370ae19ca4fc41be6191d4c77f174f189a4d8cd08c860405160405180910390a15b565b610ead611eeb565b5f60095f9054906101000a900473ffffffffffffffffffffffffffffffffffffffff1690505f600a5f9054906101000a900473ffffffffffffffffffffffffffffffffffffffff169050600c548273ffffffffffffffffffffffffffffffffffffffff1663dd62ed3e33306040518363ffffffff1660e01b8152600401610f35929190613863565b602060405180830381865afa158015610f50573d5f803e3d5ffd5b505050506040513d601f19601f82011682018060405250810190610f74919061389e565b1015610fb5576040517f08c379a0000000000000000000000000000000000000000000000000000000008152600401610fac90613913565b60405180910390fd5b600d548173ffffffffffffffffffffffffffffffffffffffff1663dd62ed3e33306040518363ffffffff1660e01b8152600401610ff3929190613863565b602060405180830381865afa15801561100e573d5f803e3d5ffd5b505050506040513d601f19601f82011682018060405250810190611032919061389e565b1015611073576040517f08c379a000000000000000000000000000000000000000000000000000000000815260040161106a90613c5c565b60405180910390fd5b8173ffffffffffffffffffffffffffffffffffffffff166323b872dd3330600c546040518463ffffffff1660e01b81526004016110b293929190613931565b6020604051808303815f875af11580156110ce573d5f803e3d5ffd5b505050506040513d601f19601f820116820180604052508101906110f2919061397a565b611131576040517f08c379a0000000000000000000000000000000000000000000000000000000008152600401611128906139ef565b60405180910390fd5b8073ffffffffffffffffffffffffffffffffffffffff166323b872dd3330600d546040518463ffffffff1660e01b815260040161117093929190613931565b6020604051808303815f875af115801561118c573d5f803e3d5ffd5b505050506040513d601f19601f820116820180604052508101906111b0919061397a565b6111ef576040517f08c379a00000000000000000000000000000000000000000000000000000000081526004016111e690613cc4565b60405180910390fd5b3073ffffffffffffffffffffffffffffffffffffffff1661120f84611302565b73ffffffffffffffffffffffffffffffffffffffff1614611265576040517f08c379a000000000000000000000000000000000000000000000000000000000815260040161125c90613a57565b60405180910390fd5b60135f8481526020019081526020015f205f9054906101000a900460ff166112c2576040517f08c379a00000000000000000000000000000000000000000000000000000000081526004016112b990613abf565b60405180910390fd5b5f60135f8581526020019081526020015f205f6101000a81548160ff0219169083151502179055506112f5303385611f31565b50506112ff612099565b50565b5f61130c82611bae565b9050919050565b61131b611a46565b805182511461135f576040517f08c379a000000000000000000000000000000000000000000000000000000000815260040161135690613d2c565b60405180910390fd5b5f5b82518110156113bb576113a88382815181106113805761137f613add565b5b602002602001015183838151811061139b5761139a613add565b5b6020026020010151611c86565b80806113b390613ba5565b915050611361565b505050565b5f8073ffffffffffffffffffffffffffffffffffffffff168273ffffffffffffffffffffffffffffffffffffffff1603611431575f6040517f89c62b640000000000000000000000000000000000000000000000000000000081526004016114289190612fea565b60405180910390fd5b60035f8373ffffffffffffffffffffffffffffffffffffffff1673ffffffffffffffffffffffffffffffffffffffff1681526020019081526020015f20549050919050565b61147e611a46565b6114875f612150565b565b60108054611496906137fe565b80601f01602080910402602001604051908101604052809291908181526020018280546114c2906137fe565b801561150d5780601f106114e45761010080835404028352916020019161150d565b820191905f5260205f20905b8154815290600101906020018083116114f057829003601f168201915b505050505081565b61151d611a46565b80600b819055507f159e83f4712ba2552e68be9d848e49bf6dd35c24f19564ffd523b6549450a2f4816040516115539190613d94565b60405180910390a150565b5f60075f9054906101000a900473ffffffffffffffffffffffffffffffffffffffff16905090565b606060018054611595906137fe565b80601f01602080910402602001604051908101604052809291908181526020018280546115c1906137fe565b801561160c5780601f106115e35761010080835404028352916020019161160c565b820191905f5260205f20905b8154815290600101906020018083116115ef57829003601f168201915b5050505050905090565b61161e611a46565b5f8290508073ffffffffffffffffffffffffffffffffffffffff1663a9059cbb61164661155e565b846040518363ffffffff1660e01b8152600401611664929190613dc0565b6020604051808303815f875af1158015611680573d5f803e3d5ffd5b505050506040513d601f19601f820116820180604052508101906116a4919061397a565b6116e3576040517f08c379a00000000000000000000000000000000000000000000000000000000081526004016116da90613e31565b60405180910390fd5b505050565b6116fa6116f3611c6d565b8383612213565b5050565b611706611a46565b6001600e5f6101000a81548160ff0219169083151502179055507fe2a7169cedebe39671840370ae19ca4fc41be6191d4c77f174f189a4d8cd08c860405160405180910390a1565b5f600f54421015905090565b6013602052805f5260405f205f915054906101000a900460ff1681565b611782848484610939565b61179661178d611c6d565b8585858561237c565b50505050565b6060600e5f9054906101000a900460ff161580156117bf57506117bd61174e565b155b1561185457601080546117d1906137fe565b80601f01602080910402602001604051908101604052809291908181526020018280546117fd906137fe565b80156118485780601f1061181f57610100808354040283529160200191611848565b820191905f5260205f20905b81548152906001019060200180831161182b57829003601f168201915b505050505090506118a8565b5f61185e83612528565b90505f8151116118a3576040517f08c379a000000000000000000000000000000000000000000000000000000000815260040161189a90613e99565b60405180910390fd5b809150505b919050565b6118b5611a46565b6118bf30826120a3565b50565b6118ca611a46565b80600a5f6101000a81548173ffffffffffffffffffffffffffffffffffffffff021916908373ffffffffffffffffffffffffffffffffffffffff16021790555050565b5f60055f8473ffffffffffffffffffffffffffffffffffffffff1673ffffffffffffffffffffffffffffffffffffffff1681526020019081526020015f205f8373ffffffffffffffffffffffffffffffffffffffff1673ffffffffffffffffffffffffffffffffffffffff1681526020019081526020015f205f9054906101000a900460ff16905092915050565b6119a3611a46565b80601090816119b29190614054565b5050565b6119be611a46565b5f73ffffffffffffffffffffffffffffffffffffffff168173ffffffffffffffffffffffffffffffffffffffff1603611a2e575f6040517f1e4fbdf7000000000000000000000000000000000000000000000000000000008152600401611a259190612fea565b60405180910390fd5b611a3781612150565b50565b600f5481565b600b5481565b611a4e611c6d565b73ffffffffffffffffffffffffffffffffffffffff16611a6c61155e565b73ffffffffffffffffffffffffffffffffffffffff1614611acb57611a8f611c6d565b6040517f118cdaa7000000000000000000000000000000000000000000000000000000008152600401611ac29190612fea565b60405180910390fd5b565b5f7f80ac58cd000000000000000000000000000000000000000000000000000000007bffffffffffffffffffffffffffffffffffffffffffffffffffffffff1916827bffffffffffffffffffffffffffffffffffffffffffffffffffffffff19161480611b9757507f5b5e139f000000000000000000000000000000000000000000000000000000007bffffffffffffffffffffffffffffffffffffffffffffffffffffffff1916827bffffffffffffffffffffffffffffffffffffffffffffffffffffffff1916145b80611ba75750611ba682612633565b5b9050919050565b5f80611bb98361269c565b90505f73ffffffffffffffffffffffffffffffffffffffff168173ffffffffffffffffffffffffffffffffffffffff1603611c2b57826040517f7e273289000000000000000000000000000000000000000000000000000000008152600401611c22919061307a565b60405180910390fd5b80915050919050565b5f60045f8381526020019081526020015f205f9054906101000a900473ffffffffffffffffffffffffffffffffffffffff169050919050565b5f33905090565b611c8183838360016126d5565b505050565b8060065f8481526020019081526020015f209081611ca49190614054565b507ff8e1a15aba9398e019f0b49df1a4fde98ee17ae345cb5f6b5e2c27f5033e8ce782604051611cd4919061307a565b60405180910390a15050565b5f80611ceb8461269c565b90505f73ffffffffffffffffffffffffffffffffffffffff168373ffffffffffffffffffffffffffffffffffffffff1614611d2c57611d2b818486612894565b5b5f73ffffffffffffffffffffffffffffffffffffffff168173ffffffffffffffffffffffffffffffffffffffff1614611db757611d6b5f855f806126d5565b600160035f8373ffffffffffffffffffffffffffffffffffffffff1673ffffffffffffffffffffffffffffffffffffffff1681526020019081526020015f205f82825403925050819055505b5f73ffffffffffffffffffffffffffffffffffffffff168573ffffffffffffffffffffffffffffffffffffffff1614611e3657600160035f8773ffffffffffffffffffffffffffffffffffffffff1673ffffffffffffffffffffffffffffffffffffffff1681526020019081526020015f205f82825401925050819055505b8460025f8681526020019081526020015f205f6101000a81548173ffffffffffffffffffffffffffffffffffffffff021916908373ffffffffffffffffffffffffffffffffffffffff160217905550838573ffffffffffffffffffffffffffffffffffffffff168273ffffffffffffffffffffffffffffffffffffffff167fddf252ad1be2c89b69c2b068fc378daa952ba7f163c4a11628f55a4df523b3ef60405160405180910390a4809150509392505050565b600260085403611f27576040517f3ee5aeb500000000000000000000000000000000000000000000000000000000815260040160405180910390fd5b6002600881905550565b5f73ffffffffffffffffffffffffffffffffffffffff168273ffffffffffffffffffffffffffffffffffffffff1603611fa1575f6040517f64a0ae92000000000000000000000000000000000000000000000000000000008152600401611f989190612fea565b60405180910390fd5b5f611fad83835f611ce0565b90505f73ffffffffffffffffffffffffffffffffffffffff168173ffffffffffffffffffffffffffffffffffffffff160361201f57816040517f7e273289000000000000000000000000000000000000000000000000000000008152600401612016919061307a565b60405180910390fd5b8373ffffffffffffffffffffffffffffffffffffffff168173ffffffffffffffffffffffffffffffffffffffff1614612093578382826040517f64283d7b00000000000000000000000000000000000000000000000000000000815260040161208a9392919061382e565b60405180910390fd5b50505050565b6001600881905550565b60115f8154809291906120b590613ba5565b91905055505f60115490506120ca8382612957565b6120d48183611c86565b600160135f8381526020019081526020015f205f6101000a81548160ff0219169083151502179055508273ffffffffffffffffffffffffffffffffffffffff167f4cc0a9c4a99ddc700de1af2c9f916a7cbfdb71f14801ccff94061ad1ef8a804082604051612143919061307a565b60405180910390a2505050565b5f60075f9054906101000a900473ffffffffffffffffffffffffffffffffffffffff1690508160075f6101000a81548173ffffffffffffffffffffffffffffffffffffffff021916908373ffffffffffffffffffffffffffffffffffffffff1602179055508173ffffffffffffffffffffffffffffffffffffffff168173ffffffffffffffffffffffffffffffffffffffff167f8be0079c531659141344cd1fd0a4f28419497f9722a3daafe3b4186f6b6457e060405160405180910390a35050565b5f73ffffffffffffffffffffffffffffffffffffffff168273ffffffffffffffffffffffffffffffffffffffff160361228357816040517f5b08ba1800000000000000000000000000000000000000000000000000000000815260040161227a9190612fea565b60405180910390fd5b8060055f8573ffffffffffffffffffffffffffffffffffffffff1673ffffffffffffffffffffffffffffffffffffffff1681526020019081526020015f205f8473ffffffffffffffffffffffffffffffffffffffff1673ffffffffffffffffffffffffffffffffffffffff1681526020019081526020015f205f6101000a81548160ff0219169083151502179055508173ffffffffffffffffffffffffffffffffffffffff168373ffffffffffffffffffffffffffffffffffffffff167f17307eab39ab6107e8899845ad3d59bd9653f200f220920489ca2b5937696c318360405161236f9190612ee8565b60405180910390a3505050565b5f8373ffffffffffffffffffffffffffffffffffffffff163b1115612521578273ffffffffffffffffffffffffffffffffffffffff1663150b7a02868685856040518563ffffffff1660e01b81526004016123da9493929190614175565b6020604051808303815f875af192505050801561241557506040513d601f19601f8201168201806040525081019061241291906141d3565b60015b612496573d805f8114612443576040519150601f19603f3d011682016040523d82523d5f602084013e612448565b606091505b505f81510361248e57836040517f64a0ae920000000000000000000000000000000000000000000000000000000081526004016124859190612fea565b60405180910390fd5b805181602001fd5b63150b7a0260e01b7bffffffffffffffffffffffffffffffffffffffffffffffffffffffff1916817bffffffffffffffffffffffffffffffffffffffffffffffffffffffff19161461251f57836040517f64a0ae920000000000000000000000000000000000000000000000000000000081526004016125169190612fea565b60405180910390fd5b505b5050505050565b606061253382611bae565b505f60065f8481526020019081526020015f208054612551906137fe565b80601f016020809104026020016040519081016040528092919081815260200182805461257d906137fe565b80156125c85780601f1061259f576101008083540402835291602001916125c8565b820191905f5260205f20905b8154815290600101906020018083116125ab57829003601f168201915b505050505090505f6125d8612a4a565b90505f8151036125ec57819250505061262e565b5f82511115612620578082604051602001612608929190614238565b6040516020818303038152906040529250505061262e565b61262984612a60565b925050505b919050565b5f7f01ffc9a7000000000000000000000000000000000000000000000000000000007bffffffffffffffffffffffffffffffffffffffffffffffffffffffff1916827bffffffffffffffffffffffffffffffffffffffffffffffffffffffff1916149050919050565b5f60025f8381526020019081526020015f205f9054906101000a900473ffffffffffffffffffffffffffffffffffffffff169050919050565b808061270d57505f73ffffffffffffffffffffffffffffffffffffffff168273ffffffffffffffffffffffffffffffffffffffff1614155b1561283f575f61271c84611bae565b90505f73ffffffffffffffffffffffffffffffffffffffff168373ffffffffffffffffffffffffffffffffffffffff161415801561278657508273ffffffffffffffffffffffffffffffffffffffff168173ffffffffffffffffffffffffffffffffffffffff1614155b80156127995750612797818461190d565b155b156127db57826040517fa9fbf51f0000000000000000000000000000000000000000000000000000000081526004016127d29190612fea565b60405180910390fd5b811561283d57838573ffffffffffffffffffffffffffffffffffffffff168273ffffffffffffffffffffffffffffffffffffffff167f8c5be1e5ebec7d5bd14f71427d1e84f3dd0314c0f7b2291e5b200ac8c7c3b92560405160405180910390a45b505b8360045f8581526020019081526020015f205f6101000a81548173ffffffffffffffffffffffffffffffffffffffff021916908373ffffffffffffffffffffffffffffffffffffffff16021790555050505050565b61289f838383612ac6565b612952575f73ffffffffffffffffffffffffffffffffffffffff168373ffffffffffffffffffffffffffffffffffffffff160361291357806040517f7e27328900000000000000000000000000000000000000000000000000000000815260040161290a919061307a565b60405180910390fd5b81816040517f177e802f000000000000000000000000000000000000000000000000000000008152600401612949929190613dc0565b60405180910390fd5b505050565b5f73ffffffffffffffffffffffffffffffffffffffff168273ffffffffffffffffffffffffffffffffffffffff16036129c7575f6040517f64a0ae920000000000000000000000000000000000000000000000000000000081526004016129be9190612fea565b60405180910390fd5b5f6129d383835f611ce0565b90505f73ffffffffffffffffffffffffffffffffffffffff168173ffffffffffffffffffffffffffffffffffffffff1614612a45575f6040517f73c6ac6e000000000000000000000000000000000000000000000000000000008152600401612a3c9190612fea565b60405180910390fd5b505050565b606060405180602001604052805f815250905090565b6060612a6b82611bae565b505f612a75612a4a565b90505f815111612a935760405180602001604052805f815250612abe565b80612a9d84612b86565b604051602001612aae929190614238565b6040516020818303038152906040525b915050919050565b5f8073ffffffffffffffffffffffffffffffffffffffff168373ffffffffffffffffffffffffffffffffffffffff1614158015612b7d57508273ffffffffffffffffffffffffffffffffffffffff168473ffffffffffffffffffffffffffffffffffffffff161480612b3e5750612b3d848461190d565b5b80612b7c57508273ffffffffffffffffffffffffffffffffffffffff16612b6483611c34565b73ffffffffffffffffffffffffffffffffffffffff16145b5b90509392505050565b60605f6001612b9484612c50565b0190505f8167ffffffffffffffff811115612bb257612bb161309b565b5b6040519080825280601f01601f191660200182016040528015612be45781602001600182028036833780820191505090505b5090505f82602001820190505b600115612c45578080600190039150507f3031323334353637383961626364656600000000000000000000000000000000600a86061a8153600a8581612c3a57612c3961425b565b5b0494505f8503612bf1575b819350505050919050565b5f805f90507a184f03e93ff9f4daa797ed6e38ed64bf6a1f0100000000000000008310612cac577a184f03e93ff9f4daa797ed6e38ed64bf6a1f0100000000000000008381612ca257612ca161425b565b5b0492506040810190505b6d04ee2d6d415b85acef81000000008310612ce9576d04ee2d6d415b85acef81000000008381612cdf57612cde61425b565b5b0492506020810190505b662386f26fc100008310612d1857662386f26fc100008381612d0e57612d0d61425b565b5b0492506010810190505b6305f5e1008310612d41576305f5e1008381612d3757612d3661425b565b5b0492506008810190505b6127108310612d66576127108381612d5c57612d5b61425b565b5b0492506004810190505b60648310612d895760648381612d7f57612d7e61425b565b5b0492506002810190505b600a8310612d98576001810190505b80915050919050565b5f604051905090565b5f80fd5b5f80fd5b5f819050919050565b612dc481612db2565b8114612dce575f80fd5b50565b5f81359050612ddf81612dbb565b92915050565b5f8060408385031215612dfb57612dfa612daa565b5b5f612e0885828601612dd1565b9250506020612e1985828601612dd1565b9150509250929050565b5f60208284031215612e3857612e37612daa565b5b5f612e4584828501612dd1565b91505092915050565b5f7fffffffff0000000000000000000000000000000000000000000000000000000082169050919050565b612e8281612e4e565b8114612e8c575f80fd5b50565b5f81359050612e9d81612e79565b92915050565b5f60208284031215612eb857612eb7612daa565b5b5f612ec584828501612e8f565b91505092915050565b5f8115159050919050565b612ee281612ece565b82525050565b5f602082019050612efb5f830184612ed9565b92915050565b5f81519050919050565b5f82825260208201905092915050565b5f5b83811015612f38578082015181840152602081019050612f1d565b5f8484015250505050565b5f601f19601f8301169050919050565b5f612f5d82612f01565b612f678185612f0b565b9350612f77818560208601612f1b565b612f8081612f43565b840191505092915050565b5f6020820190508181035f830152612fa38184612f53565b905092915050565b5f73ffffffffffffffffffffffffffffffffffffffff82169050919050565b5f612fd482612fab565b9050919050565b612fe481612fca565b82525050565b5f602082019050612ffd5f830184612fdb565b92915050565b61300c81612fca565b8114613016575f80fd5b50565b5f8135905061302781613003565b92915050565b5f806040838503121561304357613042612daa565b5b5f61305085828601613019565b925050602061306185828601612dd1565b9150509250929050565b61307481612db2565b82525050565b5f60208201905061308d5f83018461306b565b92915050565b5f80fd5b5f80fd5b7f4e487b71000000000000000000000000000000000000000000000000000000005f52604160045260245ffd5b6130d182612f43565b810181811067ffffffffffffffff821117156130f0576130ef61309b565b5b80604052505050565b5f613102612da1565b905061310e82826130c8565b919050565b5f67ffffffffffffffff82111561312d5761312c61309b565b5b61313682612f43565b9050602081019050919050565b828183375f83830152505050565b5f61316361315e84613113565b6130f9565b90508281526020810184848401111561317f5761317e613097565b5b61318a848285613143565b509392505050565b5f82601f8301126131a6576131a5613093565b5b81356131b6848260208601613151565b91505092915050565b5f80604083850312156131d5576131d4612daa565b5b5f6131e285828601612dd1565b925050602083013567ffffffffffffffff81111561320357613202612dae565b5b61320f85828601613192565b9150509250929050565b5f805f606084860312156132305761322f612daa565b5b5f61323d86828701613019565b935050602061324e86828701613019565b925050604061325f86828701612dd1565b9150509250925092565b5f6020828403121561327e5761327d612daa565b5b5f61328b84828501613019565b91505092915050565b5f80fd5b5f80fd5b5f8083601f8401126132b1576132b0613093565b5b8235905067ffffffffffffffff8111156132ce576132cd613294565b5b6020830191508360208202830111156132ea576132e9613298565b5b9250929050565b5f806020838503121561330757613306612daa565b5b5f83013567ffffffffffffffff81111561332457613323612dae565b5b6133308582860161329c565b92509250509250929050565b5f67ffffffffffffffff8211156133565761335561309b565b5b602082029050602081019050919050565b5f6133796133748461333c565b6130f9565b9050808382526020820190506020840283018581111561339c5761339b613298565b5b835b818110156133c557806133b18882612dd1565b84526020840193505060208101905061339e565b5050509392505050565b5f82601f8301126133e3576133e2613093565b5b81356133f3848260208601613367565b91505092915050565b5f67ffffffffffffffff8211156134165761341561309b565b5b602082029050602081019050919050565b5f613439613434846133fc565b6130f9565b9050808382526020820190506020840283018581111561345c5761345b613298565b5b835b818110156134a357803567ffffffffffffffff81111561348157613480613093565b5b80860161348e8982613192565b8552602085019450505060208101905061345e565b5050509392505050565b5f82601f8301126134c1576134c0613093565b5b81356134d1848260208601613427565b91505092915050565b5f80604083850312156134f0576134ef612daa565b5b5f83013567ffffffffffffffff81111561350d5761350c612dae565b5b613519858286016133cf565b925050602083013567ffffffffffffffff81111561353a57613539612dae565b5b613546858286016134ad565b9150509250929050565b61355981612ece565b8114613563575f80fd5b50565b5f8135905061357481613550565b92915050565b5f80604083850312156135905761358f612daa565b5b5f61359d85828601613019565b92505060206135ae85828601613566565b9150509250929050565b5f67ffffffffffffffff8211156135d2576135d161309b565b5b6135db82612f43565b9050602081019050919050565b5f6135fa6135f5846135b8565b6130f9565b90508281526020810184848401111561361657613615613097565b5b613621848285613143565b509392505050565b5f82601f83011261363d5761363c613093565b5b813561364d8482602086016135e8565b91505092915050565b5f805f806080858703121561366e5761366d612daa565b5b5f61367b87828801613019565b945050602061368c87828801613019565b935050604061369d87828801612dd1565b925050606085013567ffffffffffffffff8111156136be576136bd612dae565b5b6136ca87828801613629565b91505092959194509250565b5f602082840312156136eb576136ea612daa565b5b5f82013567ffffffffffffffff81111561370857613707612dae565b5b61371484828501613192565b91505092915050565b5f806040838503121561373357613732612daa565b5b5f61374085828601613019565b925050602061375185828601613019565b9150509250929050565b7f524f4e5f414e445f4e41544956450000000000000000000000000000000000005f82015250565b5f61378f600e83612f0b565b915061379a8261375b565b602082019050919050565b5f6040820190508181035f8301526137bc81613783565b90506137cb602083018461306b565b92915050565b7f4e487b71000000000000000000000000000000000000000000000000000000005f52602260045260245ffd5b5f600282049050600182168061381557607f821691505b602082108103613828576138276137d1565b5b50919050565b5f6060820190506138415f830186612fdb565b61384e602083018561306b565b61385b6040830184612fdb565b949350505050565b5f6040820190506138765f830185612fdb565b6138836020830184612fdb565b9392505050565b5f8151905061389881612dbb565b92915050565b5f602082840312156138b3576138b2612daa565b5b5f6138c08482850161388a565b91505092915050565b7f496e73756666696369656e7420524f4e20616c6c6f77616e63650000000000005f82015250565b5f6138fd601a83612f0b565b9150613908826138c9565b602082019050919050565b5f6020820190508181035f83015261392a816138f1565b9050919050565b5f6060820190506139445f830186612fdb565b6139516020830185612fdb565b61395e604083018461306b565b949350505050565b5f8151905061397481613550565b92915050565b5f6020828403121561398f5761398e612daa565b5b5f61399c84828501613966565b91505092915050565b7f524f4e207472616e73666572206661696c6564000000000000000000000000005f82015250565b5f6139d9601383612f0b565b91506139e4826139a5565b602082019050919050565b5f6020820190508181035f830152613a06816139cd565b9050919050565b7f4e465420616c726561647920636c61696d6564000000000000000000000000005f82015250565b5f613a41601383612f0b565b9150613a4c82613a0d565b602082019050919050565b5f6020820190508181035f830152613a6e81613a35565b9050919050565b7f546f6b656e206e6f7420617661696c61626c65000000000000000000000000005f82015250565b5f613aa9601383612f0b565b9150613ab482613a75565b602082019050919050565b5f6020820190508181035f830152613ad681613a9d565b9050919050565b7f4e487b71000000000000000000000000000000000000000000000000000000005f52603260045260245ffd5b5f80fd5b5f80fd5b5f80fd5b5f8083356001602003843603038112613b3257613b31613b0a565b5b80840192508235915067ffffffffffffffff821115613b5457613b53613b0e565b5b602083019250600182023603831315613b7057613b6f613b12565b5b509250929050565b7f4e487b71000000000000000000000000000000000000000000000000000000005f52601160045260245ffd5b5f613baf82612db2565b91507fffffffffffffffffffffffffffffffffffffffffffffffffffffffffffffffff8203613be157613be0613b78565b5b600182019050919050565b7f496e73756666696369656e74206e617469766520746f6b656e20616c6c6f77615f8201527f6e63650000000000000000000000000000000000000000000000000000000000602082015250565b5f613c46602383612f0b565b9150613c5182613bec565b604082019050919050565b5f6020820190508181035f830152613c7381613c3a565b9050919050565b7f4e617469766520746f6b656e207472616e73666572206661696c6564000000005f82015250565b5f613cae601c83612f0b565b9150613cb982613c7a565b602082019050919050565b5f6020820190508181035f830152613cdb81613ca2565b9050919050565b7f417272617973206d7573742068617665207468652073616d65206c656e6774685f82015250565b5f613d16602083612f0b565b9150613d2182613ce2565b602082019050919050565b5f6020820190508181035f830152613d4381613d0a565b9050919050565b7f524f4e00000000000000000000000000000000000000000000000000000000005f82015250565b5f613d7e600383612f0b565b9150613d8982613d4a565b602082019050919050565b5f6040820190508181035f830152613dab81613d72565b9050613dba602083018461306b565b92915050565b5f604082019050613dd35f830185612fdb565b613de0602083018461306b565b9392505050565b7f5472616e73666572206661696c656400000000000000000000000000000000005f82015250565b5f613e1b600f83612f0b565b9150613e2682613de7565b602082019050919050565b5f6020820190508181035f830152613e4881613e0f565b9050919050565b7f555249206e6f742073657420666f72207468697320746f6b656e0000000000005f82015250565b5f613e83601a83612f0b565b9150613e8e82613e4f565b602082019050919050565b5f6020820190508181035f830152613eb081613e77565b9050919050565b5f819050815f5260205f209050919050565b5f6020601f8301049050919050565b5f82821b905092915050565b5f60088302613f137fffffffffffffffffffffffffffffffffffffffffffffffffffffffffffffffff82613ed8565b613f1d8683613ed8565b95508019841693508086168417925050509392505050565b5f819050919050565b5f613f58613f53613f4e84612db2565b613f35565b612db2565b9050919050565b5f819050919050565b613f7183613f3e565b613f85613f7d82613f5f565b848454613ee4565b825550505050565b5f90565b613f99613f8d565b613fa4818484613f68565b505050565b5b81811015613fc757613fbc5f82613f91565b600181019050613faa565b5050565b601f82111561400c57613fdd81613eb7565b613fe684613ec9565b81016020851015613ff5578190505b61400961400185613ec9565b830182613fa9565b50505b505050565b5f82821c905092915050565b5f61402c5f1984600802614011565b1980831691505092915050565b5f614044838361401d565b9150826002028217905092915050565b61405d82612f01565b67ffffffffffffffff8111156140765761407561309b565b5b61408082546137fe565b61408b828285613fcb565b5f60209050601f8311600181146140bc575f84156140aa578287015190505b6140b48582614039565b86555061411b565b601f1984166140ca86613eb7565b5f5b828110156140f1578489015182556001820191506020850194506020810190506140cc565b8683101561410e578489015161410a601f89168261401d565b8355505b6001600288020188555050505b505050505050565b5f81519050919050565b5f82825260208201905092915050565b5f61414782614123565b614151818561412d565b9350614161818560208601612f1b565b61416a81612f43565b840191505092915050565b5f6080820190506141885f830187612fdb565b6141956020830186612fdb565b6141a2604083018561306b565b81810360608301526141b4818461413d565b905095945050505050565b5f815190506141cd81612e79565b92915050565b5f602082840312156141e8576141e7612daa565b5b5f6141f5848285016141bf565b91505092915050565b5f81905092915050565b5f61421282612f01565b61421c81856141fe565b935061422c818560208601612f1b565b80840191505092915050565b5f6142438285614208565b915061424f8284614208565b91508190509392505050565b7f4e487b71000000000000000000000000000000000000000000000000000000005f52601260045260245ffdfea26469706673582212200d0e7d449e95196d8f3e0f4d6ea2507b0326c2ac364de5e74226a358d4a39b4264736f6c63430008140033","linkReferences":{}},"methodIdentifiers":{"approve(address,uint256)":"095ea7b3","availableTokens(uint256)":"ad64d068","balanceOf(address)":"70a08231","batchMint(string[])":"5bcdf207","batchSetTokenURI(uint256[],string[])":"6706467b","canReveal()":"a9842610","checkAndReveal()":"5df1bfe5","getApproved(uint256)":"081812fc","isApprovedForAll(address,address)":"e985e9c5","mint(string)":"d85d3d27","mintWithRon(uint256)":"471d0e9c","mintWithRonAndNative(uint256)":"5e957ddf","name()":"06fdde03","nativeTokenAddress()":"4d0047ee","nativeTokenAmount()":"3884a455","notRevealedURI()":"72250380","owner()":"8da5cb5b","ownerOf(uint256)":"6352211e","renounceOwnership()":"715018a6","reveal()":"a475b5dd","revealTimestamp()":"f62f3c11","revealed()":"51830227","ronAndNativePrice()":"0f3bfbdc","ronTokenAddress()":"079367c6","ronTokenPrice()":"fbf2f683","safeTransferFrom(address,address,uint256)":"42842e0e","safeTransferFrom(address,address,uint256,bytes)":"b88d4fde","setApprovalForAll(address,bool)":"a22cb465","setNativeTokenAddress(address)":"e82368ab","setNotRevealedURI(string)":"f2c4ce1e","setRevealTimestamp(uint256)":"018a2c37","setRonAndNativePrice(uint256,uint256)":"001bccc8","setRonTokenAddress(address)":"4d14dce0","setRonTokenPrice(uint256)":"7bb8323b","setTokenURI(uint256,string)":"162094c4","supportsInterface(bytes4)":"01ffc9a7","symbol()":"95d89b41","tokenURI(uint256)":"c87b56dd","transferFrom(address,address,uint256)":"23b872dd","transferOwnership(address)":"f2fde38b","withdrawERC20(address,uint256)":"a1db9782"},"id":44}