{"abi":[{"type":"constructor","inputs":[{"name":"_name","type":"string","internalType":"string"},{"name":"_symbol","type":"string","internalType":"string"},{"name":"_notRevealedURI","type":"string","internalType":"string"},{"name":"_nativeTokenAddress","type":"address","internalType":"address"},{"name":"_paymentRecipient","type":"address","internalType":"address"},{"name":"_revealTimestamp","type":"uint256","internalType":"uint256"}],"stateMutability":"nonpayable"},{"type":"function","name":"MAX_MINTS_PER_PHASE","inputs":[],"outputs":[{"name":"","type":"uint256","internalType":"uint256"}],"stateMutability":"view"},{"type":"function","name":"MAX_SUPPLY","inputs":[],"outputs":[{"name":"","type":"uint256","internalType":"uint256"}],"stateMutability":"view"},{"type":"function","name":"PHASE_1_DURATION","inputs":[],"outputs":[{"name":"","type":"uint256","internalType":"uint256"}],"stateMutability":"view"},{"type":"function","name":"PHASE_2_DURATION","inputs":[],"outputs":[{"name":"","type":"uint256","internalType":"uint256"}],"stateMutability":"view"},{"type":"function","name":"PHASE_3_DURATION","inputs":[],"outputs":[{"name":"","type":"uint256","internalType":"uint256"}],"stateMutability":"view"},{"type":"function","name":"approve","inputs":[{"name":"to","type":"address","internalType":"address"},{"name":"tokenId","type":"uint256","internalType":"uint256"}],"outputs":[],"stateMutability":"nonpayable"},{"type":"function","name":"availableTokens","inputs":[{"name":"","type":"uint256","internalType":"uint256"}],"outputs":[{"name":"","type":"bool","internalType":"bool"}],"stateMutability":"view"},{"type":"function","name":"balanceOf","inputs":[{"name":"owner","type":"address","internalType":"address"}],"outputs":[{"name":"","type":"uint256","internalType":"uint256"}],"stateMutability":"view"},{"type":"function","name":"batchMint","inputs":[{"name":"_uris","type":"string[]","internalType":"string[]"}],"outputs":[],"stateMutability":"nonpayable"},{"type":"function","name":"batchSetTokenURI","inputs":[{"name":"tokenIds","type":"uint256[]","internalType":"uint256[]"},{"name":"uris","type":"string[]","internalType":"string[]"}],"outputs":[],"stateMutability":"nonpayable"},{"type":"function","name":"bulkMint","inputs":[{"name":"tokenIds","type":"uint256[]","internalType":"uint256[]"},{"name":"recipient","type":"address","internalType":"address"}],"outputs":[],"stateMutability":"nonpayable"},{"type":"function","name":"canReveal","inputs":[],"outputs":[{"name":"","type":"bool","internalType":"bool"}],"stateMutability":"view"},{"type":"function","name":"checkAndReveal","inputs":[],"outputs":[],"stateMutability":"nonpayable"},{"type":"function","name":"currentPhase","inputs":[],"outputs":[{"name":"","type":"uint8","internalType":"enum RoninNFT.Phase"}],"stateMutability":"view"},{"type":"function","name":"getApproved","inputs":[{"name":"tokenId","type":"uint256","internalType":"uint256"}],"outputs":[{"name":"","type":"address","internalType":"address"}],"stateMutability":"view"},{"type":"function","name":"getCurrentPhase","inputs":[],"outputs":[{"name":"","type":"uint8","internalType":"enum RoninNFT.Phase"}],"stateMutability":"view"},{"type":"function","name":"isApprovedForAll","inputs":[{"name":"owner","type":"address","internalType":"address"},{"name":"operator","type":"address","internalType":"address"}],"outputs":[{"name":"","type":"bool","internalType":"bool"}],"stateMutability":"view"},{"type":"function","name":"isWhitelisted","inputs":[{"name":"merkleProof","type":"bytes32[]","internalType":"bytes32[]"},{"name":"_phase","type":"uint8","internalType":"enum RoninNFT.Phase"}],"outputs":[{"name":"","type":"bool","internalType":"bool"}],"stateMutability":"view"},{"type":"function","name":"merkleRoots","inputs":[{"name":"","type":"uint8","internalType":"uint8"}],"outputs":[{"name":"","type":"bytes32","internalType":"bytes32"}],"stateMutability":"view"},{"type":"function","name":"mintCountByPhase","inputs":[{"name":"","type":"uint8","internalType":"uint8"},{"name":"","type":"address","internalType":"address"}],"outputs":[{"name":"","type":"uint256","internalType":"uint256"}],"stateMutability":"view"},{"type":"function","name":"mintWithRon","inputs":[{"name":"tokenIds","type":"uint256[]","internalType":"uint256[]"},{"name":"merkleProof","type":"bytes32[]","internalType":"bytes32[]"}],"outputs":[],"stateMutability":"payable"},{"type":"function","name":"mintWithRonAndNative","inputs":[{"name":"tokenIds","type":"uint256[]","internalType":"uint256[]"},{"name":"merkleProof","type":"bytes32[]","internalType":"bytes32[]"}],"outputs":[],"stateMutability":"payable"},{"type":"function","name":"name","inputs":[],"outputs":[{"name":"","type":"string","internalType":"string"}],"stateMutability":"view"},{"type":"function","name":"nativeTokenAddress","inputs":[],"outputs":[{"name":"","type":"address","internalType":"address"}],"stateMutability":"view"},{"type":"function","name":"nativeTokenAmount","inputs":[],"outputs":[{"name":"","type":"uint256","internalType":"uint256"}],"stateMutability":"view"},{"type":"function","name":"notRevealedURI","inputs":[],"outputs":[{"name":"","type":"string","internalType":"string"}],"stateMutability":"view"},{"type":"function","name":"owner","inputs":[],"outputs":[{"name":"","type":"address","internalType":"address"}],"stateMutability":"view"},{"type":"function","name":"ownerOf","inputs":[{"name":"tokenId","type":"uint256","internalType":"uint256"}],"outputs":[{"name":"","type":"address","internalType":"address"}],"stateMutability":"view"},{"type":"function","name":"paymentRecipient","inputs":[],"outputs":[{"name":"","type":"address","internalType":"address"}],"stateMutability":"view"},{"type":"function","name":"phaseStartTime","inputs":[],"outputs":[{"name":"","type":"uint256","internalType":"uint256"}],"stateMutability":"view"},{"type":"function","name":"renounceOwnership","inputs":[],"outputs":[],"stateMutability":"nonpayable"},{"type":"function","name":"reveal","inputs":[],"outputs":[],"stateMutability":"nonpayable"},{"type":"function","name":"revealTimestamp","inputs":[],"outputs":[{"name":"","type":"uint256","internalType":"uint256"}],"stateMutability":"view"},{"type":"function","name":"revealed","inputs":[],"outputs":[{"name":"","type":"bool","internalType":"bool"}],"stateMutability":"view"},{"type":"function","name":"ronAndNativePrice","inputs":[],"outputs":[{"name":"","type":"uint256","internalType":"uint256"}],"stateMutability":"view"},{"type":"function","name":"ronTokenPrice","inputs":[],"outputs":[{"name":"","type":"uint256","internalType":"uint256"}],"stateMutability":"view"},{"type":"function","name":"safeTransferFrom","inputs":[{"name":"from","type":"address","internalType":"address"},{"name":"to","type":"address","internalType":"address"},{"name":"tokenId","type":"uint256","internalType":"uint256"}],"outputs":[],"stateMutability":"nonpayable"},{"type":"function","name":"safeTransferFrom","inputs":[{"name":"from","type":"address","internalType":"address"},{"name":"to","type":"address","internalType":"address"},{"name":"tokenId","type":"uint256","internalType":"uint256"},{"name":"data","type":"bytes","internalType":"bytes"}],"outputs":[],"stateMutability":"nonpayable"},{"type":"function","name":"setApprovalForAll","inputs":[{"name":"operator","type":"address","internalType":"address"},{"name":"approved","type":"bool","internalType":"bool"}],"outputs":[],"stateMutability":"nonpayable"},{"type":"function","name":"setMerkleRoot","inputs":[{"name":"phase","type":"uint8","internalType":"uint8"},{"name":"root","type":"bytes32","internalType":"bytes32"}],"outputs":[],"stateMutability":"nonpayable"},{"type":"function","name":"setNotRevealedURI","inputs":[{"name":"_notRevealedURI","type":"string","internalType":"string"}],"outputs":[],"stateMutability":"nonpayable"},{"type":"function","name":"setRevealTimestamp","inputs":[{"name":"_revealTimestamp","type":"uint256","internalType":"uint256"}],"outputs":[],"stateMutability":"nonpayable"},{"type":"function","name":"startPhase","inputs":[{"name":"_phase","type":"uint8","internalType":"enum RoninNFT.Phase"}],"outputs":[],"stateMutability":"nonpayable"},{"type":"function","name":"supportsInterface","inputs":[{"name":"interfaceId","type":"bytes4","internalType":"bytes4"}],"outputs":[{"name":"","type":"bool","internalType":"bool"}],"stateMutability":"view"},{"type":"function","name":"symbol","inputs":[],"outputs":[{"name":"","type":"string","internalType":"string"}],"stateMutability":"view"},{"type":"function","name":"tokenURI","inputs":[{"name":"tokenId","type":"uint256","internalType":"uint256"}],"outputs":[{"name":"","type":"string","internalType":"string"}],"stateMutability":"view"},{"type":"function","name":"transferFrom","inputs":[{"name":"from","type":"address","internalType":"address"},{"name":"to","type":"address","internalType":"address"},{"name":"tokenId","type":"uint256","internalType":"uint256"}],"outputs":[],"stateMutability":"nonpayable"},{"type":"function","name":"transferOwnership","inputs":[{"name":"newOwner","type":"address","internalType":"address"}],"outputs":[],"stateMutability":"nonpayable"},{"type":"event","name":"Approval","inputs":[{"name":"owner","type":"address","indexed":true,"internalType":"address"},{"name":"approved","type":"address","indexed":true,"internalType":"address"},{"name":"tokenId","type":"uint256","indexed":true,"internalType":"uint256"}],"anonymous":false},{"type":"event","name":"ApprovalForAll","inputs":[{"name":"owner","type":"address","indexed":true,"internalType":"address"},{"name":"operator","type":"address","indexed":true,"internalType":"address"},{"name":"approved","type":"bool","indexed":false,"internalType":"bool"}],"anonymous":false},{"type":"event","name":"BatchMetadataUpdate","inputs":[{"name":"_fromTokenId","type":"uint256","indexed":false,"internalType":"uint256"},{"name":"_toTokenId","type":"uint256","indexed":false,"internalType":"uint256"}],"anonymous":false},{"type":"event","name":"MerkleRootUpdated","inputs":[{"name":"phase","type":"uint8","indexed":false,"internalType":"uint8"},{"name":"merkleRoot","type":"bytes32","indexed":false,"internalType":"bytes32"}],"anonymous":false},{"type":"event","name":"MetadataUpdate","inputs":[{"name":"_tokenId","type":"uint256","indexed":false,"internalType":"uint256"}],"anonymous":false},{"type":"event","name":"NFTMinted","inputs":[{"name":"recipient","type":"address","indexed":true,"internalType":"address"},{"name":"tokenId","type":"uint256","indexed":false,"internalType":"uint256"}],"anonymous":false},{"type":"event","name":"NFTsMinted","inputs":[{"name":"recipient","type":"address","indexed":true,"internalType":"address"},{"name":"tokenIds","type":"uint256[]","indexed":false,"internalType":"uint256[]"}],"anonymous":false},{"type":"event","name":"OwnershipTransferred","inputs":[{"name":"previousOwner","type":"address","indexed":true,"internalType":"address"},{"name":"newOwner","type":"address","indexed":true,"internalType":"address"}],"anonymous":false},{"type":"event","name":"PhaseStarted","inputs":[{"name":"phase","type":"uint8","indexed":false,"internalType":"enum RoninNFT.Phase"},{"name":"timestamp","type":"uint256","indexed":false,"internalType":"uint256"}],"anonymous":false},{"type":"event","name":"PriceUpdated","inputs":[{"name":"tokenType","type":"string","indexed":false,"internalType":"string"},{"name":"newPrice","type":"uint256","indexed":false,"internalType":"uint256"}],"anonymous":false},{"type":"event","name":"RevealTimestampSet","inputs":[{"name":"timestamp","type":"uint256","indexed":false,"internalType":"uint256"}],"anonymous":false},{"type":"event","name":"Revealed","inputs":[],"anonymous":false},{"type":"event","name":"Transfer","inputs":[{"name":"from","type":"address","indexed":true,"internalType":"address"},{"name":"to","type":"address","indexed":true,"internalType":"address"},{"name":"tokenId","type":"uint256","indexed":true,"internalType":"uint256"}],"anonymous":false},{"type":"error","name":"ERC721IncorrectOwner","inputs":[{"name":"sender","type":"address","internalType":"address"},{"name":"tokenId","type":"uint256","internalType":"uint256"},{"name":"owner","type":"address","internalType":"address"}]},{"type":"error","name":"ERC721InsufficientApproval","inputs":[{"name":"operator","type":"address","internalType":"address"},{"name":"tokenId","type":"uint256","internalType":"uint256"}]},{"type":"error","name":"ERC721InvalidApprover","inputs":[{"name":"approver","type":"address","internalType":"address"}]},{"type":"error","name":"ERC721InvalidOperator","inputs":[{"name":"operator","type":"address","internalType":"address"}]},{"type":"error","name":"ERC721InvalidOwner","inputs":[{"name":"owner","type":"address","internalType":"address"}]},{"type":"error","name":"ERC721InvalidReceiver","inputs":[{"name":"receiver","type":"address","internalType":"address"}]},{"type":"error","name":"ERC721InvalidSender","inputs":[{"name":"sender","type":"address","internalType":"address"}]},{"type":"error","name":"ERC721NonexistentToken","inputs":[{"name":"tokenId","type":"uint256","internalType":"uint256"}]},{"type":"error","name":"OwnableInvalidOwner","inputs":[{"name":"owner","type":"address","internalType":"address"}]},{"type":"error","name":"OwnableUnauthorizedAccount","inputs":[{"name":"account","type":"address","internalType":"address"}]},{"type":"error","name":"ReentrancyGuardReentrantCall","inputs":[]}],"bytecode":{"object":"0x60c06040525f600c5f6101000a81548160ff021916908360048111156200002b576200002a62000267565b5b02179055503480156200003c575f80fd5b506040516200602a3803806200602a8339818101604052810190620000629190620004b2565b338686815f9081620000759190620007d5565b508060019081620000879190620007d5565b5050505f73ffffffffffffffffffffffffffffffffffffffff168173ffffffffffffffffffffffffffffffffffffffff1603620000fd575f6040517f1e4fbdf7000000000000000000000000000000000000000000000000000000008152600401620000f49190620008ca565b60405180910390fd5b6200010e81620001a460201b60201c565b50600160088190555083600b9081620001289190620007d5565b508273ffffffffffffffffffffffffffffffffffffffff1660808173ffffffffffffffffffffffffffffffffffffffff16815250508173ffffffffffffffffffffffffffffffffffffffff1660a08173ffffffffffffffffffffffffffffffffffffffff168152505080600981905550505050505050620008e5565b5f60075f9054906101000a900473ffffffffffffffffffffffffffffffffffffffff1690508160075f6101000a81548173ffffffffffffffffffffffffffffffffffffffff021916908373ffffffffffffffffffffffffffffffffffffffff1602179055508173ffffffffffffffffffffffffffffffffffffffff168173ffffffffffffffffffffffffffffffffffffffff167f8be0079c531659141344cd1fd0a4f28419497f9722a3daafe3b4186f6b6457e060405160405180910390a35050565b7f4e487b71000000000000000000000000000000000000000000000000000000005f52602160045260245ffd5b5f604051905090565b5f80fd5b5f80fd5b5f80fd5b5f80fd5b5f601f19601f8301169050919050565b7f4e487b71000000000000000000000000000000000000000000000000000000005f52604160045260245ffd5b620002f582620002ad565b810181811067ffffffffffffffff82111715620003175762000316620002bd565b5b80604052505050565b5f6200032b62000294565b9050620003398282620002ea565b919050565b5f67ffffffffffffffff8211156200035b576200035a620002bd565b5b6200036682620002ad565b9050602081019050919050565b5f5b838110156200039257808201518184015260208101905062000375565b5f8484015250505050565b5f620003b3620003ad846200033e565b62000320565b905082815260208101848484011115620003d257620003d1620002a9565b5b620003df84828562000373565b509392505050565b5f82601f830112620003fe57620003fd620002a5565b5b8151620004108482602086016200039d565b91505092915050565b5f73ffffffffffffffffffffffffffffffffffffffff82169050919050565b5f620004448262000419565b9050919050565b620004568162000438565b811462000461575f80fd5b50565b5f8151905062000474816200044b565b92915050565b5f819050919050565b6200048e816200047a565b811462000499575f80fd5b50565b5f81519050620004ac8162000483565b92915050565b5f805f805f8060c08789031215620004cf57620004ce6200029d565b5b5f87015167ffffffffffffffff811115620004ef57620004ee620002a1565b5b620004fd89828a01620003e7565b965050602087015167ffffffffffffffff811115620005215762000520620002a1565b5b6200052f89828a01620003e7565b955050604087015167ffffffffffffffff811115620005535762000552620002a1565b5b6200056189828a01620003e7565b94505060606200057489828a0162000464565b93505060806200058789828a0162000464565b92505060a06200059a89828a016200049c565b9150509295509295509295565b5f81519050919050565b7f4e487b71000000000000000000000000000000000000000000000000000000005f52602260045260245ffd5b5f6002820490506001821680620005f657607f821691505b6020821081036200060c576200060b620005b1565b5b50919050565b5f819050815f5260205f209050919050565b5f6020601f8301049050919050565b5f82821b905092915050565b5f60088302620006707fffffffffffffffffffffffffffffffffffffffffffffffffffffffffffffffff8262000633565b6200067c868362000633565b95508019841693508086168417925050509392505050565b5f819050919050565b5f620006bd620006b7620006b1846200047a565b62000694565b6200047a565b9050919050565b5f819050919050565b620006d8836200069d565b620006f0620006e782620006c4565b8484546200063f565b825550505050565b5f90565b62000706620006f8565b62000713818484620006cd565b505050565b5b818110156200073a576200072e5f82620006fc565b60018101905062000719565b5050565b601f8211156200078957620007538162000612565b6200075e8462000624565b810160208510156200076e578190505b620007866200077d8562000624565b83018262000718565b50505b505050565b5f82821c905092915050565b5f620007ab5f19846008026200078e565b1980831691505092915050565b5f620007c583836200079a565b9150826002028217905092915050565b620007e082620005a7565b67ffffffffffffffff811115620007fc57620007fb620002bd565b5b620008088254620005de565b620008158282856200073e565b5f60209050601f8311600181146200084b575f841562000836578287015190505b620008428582620007b8565b865550620008b1565b601f1984166200085b8662000612565b5f5b8281101562000884578489015182556001820191506020850194506020810190506200085d565b86831015620008a45784890151620008a0601f8916826200079a565b8355505b6001600288020188555050505b505050505050565b620008c48162000438565b82525050565b5f602082019050620008df5f830184620008b9565b92915050565b60805160a051615707620009235f395f8181610ed70152818161121401528181611471015261196601525f81816111ad0152611c1601526157075ff3fe608060405260043610610292575f3560e01c80636352211e11610159578063a475b5dd116100c0578063c87b56dd11610079578063c87b56dd1461099c578063e985e9c5146109d8578063f2c4ce1e14610a14578063f2fde38b14610a3c578063f62f3c1114610a64578063fbf2f68314610a8e57610292565b8063a475b5dd14610880578063a977bcd614610896578063a9842610146108d2578063ad64d068146108fc578063b88d4fde14610938578063bbf87ad71461096057610292565b80638da5cb5b116101125780638da5cb5b14610788578063938ece89146107b257806395d89b41146107dc5780639ad5469614610806578063a22cb4651461082e578063a3a40ea51461085657610292565b80636352211e1461067e5780636706467b146106ba5780636839c1bd146106e257806370a082311461070c578063715018a614610748578063722503801461075e57610292565b80633884a455116101fd57806351830227116101b6578063518302271461059a57806354d77e0e146105c45780635539aa86146105ec5780635bcdf207146106165780635df1bfe51461063e5780635e0a8a881461065457610292565b80633884a455146104aa57806341e5fb40146104d457806342842e0e1461051057806346515c72146105385780634c3e041b146105545780634d0047ee1461057057610292565b80630f3bfbdc1161024f5780630f3bfbdc146103b257806312f3d0c2146103dc5780631c9ed3811461040657806323b872dd1461042e5780632b1eaf291461045657806332cb6b0c1461048057610292565b8063018a2c371461029657806301ffc9a7146102be578063055ad42e146102fa57806306fdde0314610324578063081812fc1461034e578063095ea7b31461038a575b5f80fd5b3480156102a1575f80fd5b506102bc60048036038101906102b79190613a05565b610ab8565b005b3480156102c9575f80fd5b506102e460048036038101906102df9190613a85565b610b01565b6040516102f19190613aca565b60405180910390f35b348015610305575f80fd5b5061030e610b61565b60405161031b9190613b56565b60405180910390f35b34801561032f575f80fd5b50610338610b73565b6040516103459190613bf9565b60405180910390f35b348015610359575f80fd5b50610374600480360381019061036f9190613a05565b610c02565b6040516103819190613c58565b60405180910390f35b348015610395575f80fd5b506103b060048036038101906103ab9190613c9b565b610c1d565b005b3480156103bd575f80fd5b506103c6610c33565b6040516103d39190613ce8565b60405180910390f35b3480156103e7575f80fd5b506103f0610c40565b6040516103fd9190613ce8565b60405180910390f35b348015610411575f80fd5b5061042c60048036038101906104279190613d24565b610c46565b005b348015610439575f80fd5b50610454600480360381019061044f9190613d4f565b610dd6565b005b348015610461575f80fd5b5061046a610ed5565b6040516104779190613c58565b60405180910390f35b34801561048b575f80fd5b50610494610ef9565b6040516104a19190613ce8565b60405180910390f35b3480156104b5575f80fd5b506104be610eff565b6040516104cb9190613ce8565b60405180910390f35b3480156104df575f80fd5b506104fa60048036038101906104f59190613dd5565b610f0d565b6040516105079190613e18565b60405180910390f35b34801561051b575f80fd5b5061053660048036038101906105319190613d4f565b610f22565b005b610552600480360381019061054d9190613ee7565b610f41565b005b61056e60048036038101906105699190613ee7565b6116d2565b005b34801561057b575f80fd5b50610584611c14565b6040516105919190613c58565b60405180910390f35b3480156105a5575f80fd5b506105ae611c38565b6040516105bb9190613aca565b60405180910390f35b3480156105cf575f80fd5b506105ea60048036038101906105e59190613f8f565b611c4a565b005b3480156105f7575f80fd5b50610600611d02565b60405161060d9190613ce8565b60405180910390f35b348015610621575f80fd5b5061063c60048036038101906106379190614022565b611d08565b005b348015610649575f80fd5b50610652611df4565b005b34801561065f575f80fd5b50610668611e62565b6040516106759190613ce8565b60405180910390f35b348015610689575f80fd5b506106a4600480360381019061069f9190613a05565b611e67565b6040516106b19190613c58565b60405180910390f35b3480156106c5575f80fd5b506106e060048036038101906106db919061406d565b611e78565b005b3480156106ed575f80fd5b506106f6611f59565b6040516107039190613ce8565b60405180910390f35b348015610717575f80fd5b50610732600480360381019061072d91906140eb565b611f5f565b60405161073f9190613ce8565b60405180910390f35b348015610753575f80fd5b5061075c612015565b005b348015610769575f80fd5b50610772612028565b60405161077f9190613bf9565b60405180910390f35b348015610793575f80fd5b5061079c6120b4565b6040516107a99190613c58565b60405180910390f35b3480156107bd575f80fd5b506107c66120dc565b6040516107d39190613ce8565b60405180910390f35b3480156107e7575f80fd5b506107f06120e2565b6040516107fd9190613bf9565b60405180910390f35b348015610811575f80fd5b5061082c60048036038101906108279190614116565b612172565b005b348015610839575f80fd5b50610854600480360381019061084f919061419d565b6122a0565b005b348015610861575f80fd5b5061086a6122b6565b6040516108779190613b56565b60405180910390f35b34801561088b575f80fd5b50610894612456565b005b3480156108a1575f80fd5b506108bc60048036038101906108b791906141db565b6124a6565b6040516108c99190613ce8565b60405180910390f35b3480156108dd575f80fd5b506108e66124c6565b6040516108f39190613aca565b60405180910390f35b348015610907575f80fd5b50610922600480360381019061091d9190613a05565b6124d2565b60405161092f9190613aca565b60405180910390f35b348015610943575f80fd5b5061095e60048036038101906109599190614341565b6124ef565b005b34801561096b575f80fd5b50610986600480360381019061098191906143c1565b612514565b6040516109939190613aca565b60405180910390f35b3480156109a7575f80fd5b506109c260048036038101906109bd9190613a05565b612681565b6040516109cf9190613bf9565b60405180910390f35b3480156109e3575f80fd5b506109fe60048036038101906109f9919061441e565b612821565b604051610a0b9190613aca565b60405180910390f35b348015610a1f575f80fd5b50610a3a6004803603810190610a3591906144fa565b6128af565b005b348015610a47575f80fd5b50610a626004803603810190610a5d91906140eb565b6128ca565b005b348015610a6f575f80fd5b50610a7861294e565b604051610a859190613ce8565b60405180910390f35b348015610a99575f80fd5b50610aa2612954565b604051610aaf9190613ce8565b60405180910390f35b610ac061295f565b806009819055507f3587370e92498b996ffb077cfba4488e24ad3924be64e734c2a463eb2171153c81604051610af69190613ce8565b60405180910390a150565b5f634906490660e01b7bffffffffffffffffffffffffffffffffffffffffffffffffffffffff1916827bffffffffffffffffffffffffffffffffffffffffffffffffffffffff19161480610b5a5750610b59826129e6565b5b9050919050565b600c5f9054906101000a900460ff1681565b60605f8054610b819061456e565b80601f0160208091040260200160405190810160405280929190818152602001828054610bad9061456e565b8015610bf85780601f10610bcf57610100808354040283529160200191610bf8565b820191905f5260205f20905b815481529060010190602001808311610bdb57829003601f168201915b5050505050905090565b5f610c0c82612ac7565b50610c1682612b4d565b9050919050565b610c2f8282610c2a612b86565b612b8d565b5050565b6801e5b8fa8fe2ac000081565b600d5481565b610c4e61295f565b5f6004811115610c6157610c60613ae3565b5b816004811115610c7457610c73613ae3565b5b03610cb4576040517f08c379a0000000000000000000000000000000000000000000000000000000008152600401610cab906145e8565b60405180910390fd5b600c5f9054906101000a900460ff166004811115610cd557610cd4613ae3565b5b60ff16816004811115610ceb57610cea613ae3565b5b60ff161180610d2b57505f6004811115610d0857610d07613ae3565b5b600c5f9054906101000a900460ff166004811115610d2957610d28613ae3565b5b145b610d6a576040517f08c379a0000000000000000000000000000000000000000000000000000000008152600401610d6190614650565b60405180910390fd5b80600c5f6101000a81548160ff02191690836004811115610d8e57610d8d613ae3565b5b021790555042600d819055507f07ae9ff1ff5922feb7221008b80a606dce2b123504acb459285fc38250e063978142604051610dcb92919061466e565b60405180910390a150565b5f73ffffffffffffffffffffffffffffffffffffffff168273ffffffffffffffffffffffffffffffffffffffff1603610e46575f6040517f64a0ae92000000000000000000000000000000000000000000000000000000008152600401610e3d9190613c58565b60405180910390fd5b5f610e598383610e54612b86565b612b9f565b90508373ffffffffffffffffffffffffffffffffffffffff168173ffffffffffffffffffffffffffffffffffffffff1614610ecf578382826040517f64283d7b000000000000000000000000000000000000000000000000000000008152600401610ec693929190614695565b60405180910390fd5b50505050565b7f000000000000000000000000000000000000000000000000000000000000000081565b611a0a81565b6907695a92c20d6fe0000081565b600f602052805f5260405f205f915090505481565b610f3c83838360405180602001604052805f8152506124ef565b505050565b610f49612daa565b5f8484905090505f81118015610f60575060038111155b610f9f576040517f08c379a0000000000000000000000000000000000000000000000000000000008152600401610f9690614714565b60405180910390fd5b5f610fa86122b6565b90505f6004811115610fbd57610fbc613ae3565b5b816004811115610fd057610fcf613ae3565b5b03611010576040517f08c379a00000000000000000000000000000000000000000000000000000000081526004016110079061477c565b60405180910390fd5b61101b848483612514565b61105a576040517f08c379a00000000000000000000000000000000000000000000000000000000081526004016110519061480a565b60405180910390fd5b5f81600481111561106e5761106d613ae3565b5b905060038360105f8460ff1660ff1681526020019081526020015f205f3373ffffffffffffffffffffffffffffffffffffffff1673ffffffffffffffffffffffffffffffffffffffff1681526020019081526020015f20546110d09190614855565b1115611111576040517f08c379a0000000000000000000000000000000000000000000000000000000008152600401611108906148f8565b60405180910390fd5b8260105f8360ff1660ff1681526020019081526020015f205f3373ffffffffffffffffffffffffffffffffffffffff1673ffffffffffffffffffffffffffffffffffffffff1681526020019081526020015f205f8282546111729190614855565b925050819055505f836801e5b8fa8fe2ac000061118f9190614916565b90505f846907695a92c20d6fe000006111a89190614916565b90505f7f0000000000000000000000000000000000000000000000000000000000000000905082341015611211576040517f08c379a0000000000000000000000000000000000000000000000000000000008152600401611208906149a1565b60405180910390fd5b5f7f000000000000000000000000000000000000000000000000000000000000000073ffffffffffffffffffffffffffffffffffffffff1684604051611256906149ec565b5f6040518083038185875af1925050503d805f8114611290576040519150601f19603f3d011682016040523d82523d5f602084013e611295565b606091505b50509050806112d9576040517f08c379a00000000000000000000000000000000000000000000000000000000081526004016112d090614a4a565b60405180910390fd5b83341115611396575f3373ffffffffffffffffffffffffffffffffffffffff1685346113059190614a68565b604051611311906149ec565b5f6040518083038185875af1925050503d805f811461134b576040519150601f19603f3d011682016040523d82523d5f602084013e611350565b606091505b5050905080611394576040517f08c379a000000000000000000000000000000000000000000000000000000000815260040161138b90614ae5565b60405180910390fd5b505b828273ffffffffffffffffffffffffffffffffffffffff1663dd62ed3e33306040518363ffffffff1660e01b81526004016113d2929190614b03565b602060405180830381865afa1580156113ed573d5f803e3d5ffd5b505050506040513d601f19601f820116820180604052508101906114119190614b3e565b1015611452576040517f08c379a000000000000000000000000000000000000000000000000000000000815260040161144990614bd9565b60405180910390fd5b8173ffffffffffffffffffffffffffffffffffffffff166323b872dd337f0000000000000000000000000000000000000000000000000000000000000000866040518463ffffffff1660e01b81526004016114af93929190614bf7565b6020604051808303815f875af11580156114cb573d5f803e3d5ffd5b505050506040513d601f19601f820116820180604052508101906114ef9190614c40565b61152e576040517f08c379a000000000000000000000000000000000000000000000000000000000815260040161152590614cb5565b60405180910390fd5b5f5b8b8b905081101561166c575f8c8c8381811061154f5761154e614cd3565b5b9050602002013590503073ffffffffffffffffffffffffffffffffffffffff1661157882611e67565b73ffffffffffffffffffffffffffffffffffffffff16146115ce576040517f08c379a00000000000000000000000000000000000000000000000000000000081526004016115c590614d4a565b60405180910390fd5b60125f8281526020019081526020015f205f9054906101000a900460ff1661162b576040517f08c379a000000000000000000000000000000000000000000000000000000000815260040161162290614db2565b60405180910390fd5b5f60125f8381526020019081526020015f205f6101000a81548160ff02191690831515021790555061165e303383612df0565b818060010192505050611530565b503373ffffffffffffffffffffffffffffffffffffffff167f9792ee0b82e5e4e40739f4357c26e1d21b23c53095dc7df687b6f2fb901e6a288c8c6040516116b5929190614e48565b60405180910390a2505050505050506116cc612f58565b50505050565b6116da612daa565b5f8484905090505f811180156116f1575060038111155b611730576040517f08c379a000000000000000000000000000000000000000000000000000000000815260040161172790614714565b60405180910390fd5b5f6117396122b6565b90505f600481111561174e5761174d613ae3565b5b81600481111561176157611760613ae3565b5b036117a1576040517f08c379a00000000000000000000000000000000000000000000000000000000081526004016117989061477c565b60405180910390fd5b6117ac848483612514565b6117eb576040517f08c379a00000000000000000000000000000000000000000000000000000000081526004016117e29061480a565b60405180910390fd5b5f8160048111156117ff576117fe613ae3565b5b905060038360105f8460ff1660ff1681526020019081526020015f205f3373ffffffffffffffffffffffffffffffffffffffff1673ffffffffffffffffffffffffffffffffffffffff1681526020019081526020015f20546118619190614855565b11156118a2576040517f08c379a0000000000000000000000000000000000000000000000000000000008152600401611899906148f8565b60405180910390fd5b8260105f8360ff1660ff1681526020019081526020015f205f3373ffffffffffffffffffffffffffffffffffffffff1673ffffffffffffffffffffffffffffffffffffffff1681526020019081526020015f205f8282546119039190614855565b925050819055505f8366038d7ea4c6800061191e9190614916565b905080341015611963576040517f08c379a000000000000000000000000000000000000000000000000000000000815260040161195a906149a1565b60405180910390fd5b5f7f000000000000000000000000000000000000000000000000000000000000000073ffffffffffffffffffffffffffffffffffffffff16826040516119a8906149ec565b5f6040518083038185875af1925050503d805f81146119e2576040519150601f19603f3d011682016040523d82523d5f602084013e6119e7565b606091505b5050905080611a2b576040517f08c379a0000000000000000000000000000000000000000000000000000000008152600401611a2290614a4a565b60405180910390fd5b81341115611ae8575f3373ffffffffffffffffffffffffffffffffffffffff168334611a579190614a68565b604051611a63906149ec565b5f6040518083038185875af1925050503d805f8114611a9d576040519150601f19603f3d011682016040523d82523d5f602084013e611aa2565b606091505b5050905080611ae6576040517f08c379a0000000000000000000000000000000000000000000000000000000008152600401611add90614ae5565b60405180910390fd5b505b5f5b89899050811015611bb0575f8a8a83818110611b0957611b08614cd3565b5b90506020020135905060125f8281526020019081526020015f205f9054906101000a900460ff16611b6f576040517f08c379a0000000000000000000000000000000000000000000000000000000008152600401611b6690614db2565b60405180910390fd5b5f60125f8381526020019081526020015f205f6101000a81548160ff021916908315150217905550611ba2303383612df0565b818060010192505050611aea565b503373ffffffffffffffffffffffffffffffffffffffff167f9792ee0b82e5e4e40739f4357c26e1d21b23c53095dc7df687b6f2fb901e6a288a8a604051611bf9929190614e48565b60405180910390a25050505050611c0e612f58565b50505050565b7f000000000000000000000000000000000000000000000000000000000000000081565b600a5f9054906101000a900460ff1681565b611c5261295f565b60018260ff1610158015611c6a575060038260ff1611155b611ca9576040517f08c379a0000000000000000000000000000000000000000000000000000000008152600401611ca090614eb4565b60405180910390fd5b80600f5f8460ff1660ff1681526020019081526020015f20819055507f766f1410c9c4b1de7325bf118e90e8d8391c45f61176ed121c69cbd81599959a8282604051611cf6929190614ee1565b60405180910390a15050565b61708081565b611d1061295f565b611a0a82829050600e54611d249190614855565b1115611d65576040517f08c379a0000000000000000000000000000000000000000000000000000000008152600401611d5c90614f52565b60405180910390fd5b5f5b82829050811015611def57611de230848484818110611d8957611d88614cd3565b5b9050602002810190611d9b9190614f7c565b8080601f0160208091040260200160405190810160405280939291908181526020018383808284375f81840152601f19601f82011690508083019250505050505050612f62565b8080600101915050611d67565b505050565b600a5f9054906101000a900460ff16158015611e145750611e136124c6565b5b15611e60576001600a5f6101000a81548160ff0219169083151502179055507fe2a7169cedebe39671840370ae19ca4fc41be6191d4c77f174f189a4d8cd08c860405160405180910390a15b565b600381565b5f611e7182612ac7565b9050919050565b611e8061295f565b818190508484905014611ec8576040517f08c379a0000000000000000000000000000000000000000000000000000000008152600401611ebf90615028565b60405180910390fd5b5f5b84849050811015611f52575f858583818110611ee957611ee8614cd3565b5b905060200201359050838383818110611f0557611f04614cd3565b5b9050602002810190611f179190614f7c565b60115f8481526020019081526020015f209182611f359291906151ed565b508180600101925050508080611f4a906152ba565b915050611eca565b5050505050565b61384081565b5f8073ffffffffffffffffffffffffffffffffffffffff168273ffffffffffffffffffffffffffffffffffffffff1603611fd0575f6040517f89c62b64000000000000000000000000000000000000000000000000000000008152600401611fc79190613c58565b60405180910390fd5b60035f8373ffffffffffffffffffffffffffffffffffffffff1673ffffffffffffffffffffffffffffffffffffffff1681526020019081526020015f20549050919050565b61201d61295f565b6120265f61306a565b565b600b80546120359061456e565b80601f01602080910402602001604051908101604052809291908181526020018280546120619061456e565b80156120ac5780601f10612083576101008083540402835291602001916120ac565b820191905f5260205f20905b81548152906001019060200180831161208f57829003601f168201915b505050505081565b5f60075f9054906101000a900473ffffffffffffffffffffffffffffffffffffffff16905090565b61708081565b6060600180546120f19061456e565b80601f016020809104026020016040519081016040528092919081815260200182805461211d9061456e565b80156121685780601f1061213f57610100808354040283529160200191612168565b820191905f5260205f20905b81548152906001019060200180831161214b57829003601f168201915b5050505050905090565b61217a612daa565b5f5b83839050811015612242575f84848381811061219b5761219a614cd3565b5b90506020020135905060125f8281526020019081526020015f205f9054906101000a900460ff16612201576040517f08c379a00000000000000000000000000000000000000000000000000000000081526004016121f890614db2565b60405180910390fd5b5f60125f8381526020019081526020015f205f6101000a81548160ff021916908315150217905550612234308483612df0565b81806001019250505061217c565b508073ffffffffffffffffffffffffffffffffffffffff167f9792ee0b82e5e4e40739f4357c26e1d21b23c53095dc7df687b6f2fb901e6a28848460405161228b929190614e48565b60405180910390a261229b612f58565b505050565b6122b26122ab612b86565b838361312d565b5050565b5f8060048111156122ca576122c9613ae3565b5b600c5f9054906101000a900460ff1660048111156122eb576122ea613ae3565b5b036122f8575f9050612453565b6001600481111561230c5761230b613ae3565b5b600c5f9054906101000a900460ff16600481111561232d5761232c613ae3565b5b0361233b5760019050612453565b6002600481111561234f5761234e613ae3565b5b600c5f9054906101000a900460ff1660048111156123705761236f613ae3565b5b0361237e5760029050612453565b6003600481111561239257612391613ae3565b5b600c5f9054906101000a900460ff1660048111156123b3576123b2613ae3565b5b036123c15760039050612453565b6004808111156123d4576123d3613ae3565b5b600c5f9054906101000a900460ff1660048111156123f5576123f4613ae3565b5b036124035760049050612453565b5f600d54426124129190614a68565b90506138408111612427576001915050612453565b617080811161243a576002915050612453565b617080811161244d576003915050612453565b60049150505b90565b61245e61295f565b6001600a5f6101000a81548160ff0219169083151502179055507fe2a7169cedebe39671840370ae19ca4fc41be6191d4c77f174f189a4d8cd08c860405160405180910390a1565b6010602052815f5260405f20602052805f5260405f205f91509150505481565b5f600954421015905090565b6012602052805f5260405f205f915054906101000a900460ff1681565b6124fa848484610dd6565b61250e612505612b86565b85858585613296565b50505050565b5f60048081111561252857612527613ae3565b5b82600481111561253b5761253a613ae3565b5b03612549576001905061267a565b5f82600481111561255d5761255c613ae3565b5b90505f600f5f8360ff1660ff1681526020019081526020015f205490505f801b81036125be576040517f08c379a00000000000000000000000000000000000000000000000000000000081526004016125b59061534b565b60405180910390fd5b5f336040516020016125d091906153ae565b6040516020818303038152906040528051906020012090506126338787808060200260200160405190810160405280939291908181526020018383602002808284375f81840152601f19601f820116905080830192505050505050508383613442565b612672576040517f08c379a000000000000000000000000000000000000000000000000000000000815260040161266990615412565b60405180910390fd5b600193505050505b9392505050565b6060600a5f9054906101000a900460ff161580156126a457506126a26124c6565b155b1561273957600b80546126b69061456e565b80601f01602080910402602001604051908101604052809291908181526020018280546126e29061456e565b801561272d5780601f106127045761010080835404028352916020019161272d565b820191905f5260205f20905b81548152906001019060200180831161271057829003601f168201915b5050505050905061281c565b5f60115f8481526020019081526020015f2080546127569061456e565b80601f01602080910402602001604051908101604052809291908181526020018280546127829061456e565b80156127cd5780601f106127a4576101008083540402835291602001916127cd565b820191905f5260205f20905b8154815290600101906020018083116127b057829003601f168201915b505050505090505f815111612817576040517f08c379a000000000000000000000000000000000000000000000000000000000815260040161280e9061547a565b60405180910390fd5b809150505b919050565b5f60055f8473ffffffffffffffffffffffffffffffffffffffff1673ffffffffffffffffffffffffffffffffffffffff1681526020019081526020015f205f8373ffffffffffffffffffffffffffffffffffffffff1673ffffffffffffffffffffffffffffffffffffffff1681526020019081526020015f205f9054906101000a900460ff16905092915050565b6128b761295f565b80600b90816128c69190615498565b5050565b6128d261295f565b5f73ffffffffffffffffffffffffffffffffffffffff168173ffffffffffffffffffffffffffffffffffffffff1603612942575f6040517f1e4fbdf70000000000000000000000000000000000000000000000000000000081526004016129399190613c58565b60405180910390fd5b61294b8161306a565b50565b60095481565b66038d7ea4c6800081565b612967612b86565b73ffffffffffffffffffffffffffffffffffffffff166129856120b4565b73ffffffffffffffffffffffffffffffffffffffff16146129e4576129a8612b86565b6040517f118cdaa70000000000000000000000000000000000000000000000000000000081526004016129db9190613c58565b60405180910390fd5b565b5f7f80ac58cd000000000000000000000000000000000000000000000000000000007bffffffffffffffffffffffffffffffffffffffffffffffffffffffff1916827bffffffffffffffffffffffffffffffffffffffffffffffffffffffff19161480612ab057507f5b5e139f000000000000000000000000000000000000000000000000000000007bffffffffffffffffffffffffffffffffffffffffffffffffffffffff1916827bffffffffffffffffffffffffffffffffffffffffffffffffffffffff1916145b80612ac05750612abf82613458565b5b9050919050565b5f80612ad2836134c1565b90505f73ffffffffffffffffffffffffffffffffffffffff168173ffffffffffffffffffffffffffffffffffffffff1603612b4457826040517f7e273289000000000000000000000000000000000000000000000000000000008152600401612b3b9190613ce8565b60405180910390fd5b80915050919050565b5f60045f8381526020019081526020015f205f9054906101000a900473ffffffffffffffffffffffffffffffffffffffff169050919050565b5f33905090565b612b9a83838360016134fa565b505050565b5f80612baa846134c1565b90505f73ffffffffffffffffffffffffffffffffffffffff168373ffffffffffffffffffffffffffffffffffffffff1614612beb57612bea8184866136b9565b5b5f73ffffffffffffffffffffffffffffffffffffffff168173ffffffffffffffffffffffffffffffffffffffff1614612c7657612c2a5f855f806134fa565b600160035f8373ffffffffffffffffffffffffffffffffffffffff1673ffffffffffffffffffffffffffffffffffffffff1681526020019081526020015f205f82825403925050819055505b5f73ffffffffffffffffffffffffffffffffffffffff168573ffffffffffffffffffffffffffffffffffffffff1614612cf557600160035f8773ffffffffffffffffffffffffffffffffffffffff1673ffffffffffffffffffffffffffffffffffffffff1681526020019081526020015f205f82825401925050819055505b8460025f8681526020019081526020015f205f6101000a81548173ffffffffffffffffffffffffffffffffffffffff021916908373ffffffffffffffffffffffffffffffffffffffff160217905550838573ffffffffffffffffffffffffffffffffffffffff168273ffffffffffffffffffffffffffffffffffffffff167fddf252ad1be2c89b69c2b068fc378daa952ba7f163c4a11628f55a4df523b3ef60405160405180910390a4809150509392505050565b600260085403612de6576040517f3ee5aeb500000000000000000000000000000000000000000000000000000000815260040160405180910390fd5b6002600881905550565b5f73ffffffffffffffffffffffffffffffffffffffff168273ffffffffffffffffffffffffffffffffffffffff1603612e60575f6040517f64a0ae92000000000000000000000000000000000000000000000000000000008152600401612e579190613c58565b60405180910390fd5b5f612e6c83835f612b9f565b90505f73ffffffffffffffffffffffffffffffffffffffff168173ffffffffffffffffffffffffffffffffffffffff1603612ede57816040517f7e273289000000000000000000000000000000000000000000000000000000008152600401612ed59190613ce8565b60405180910390fd5b8373ffffffffffffffffffffffffffffffffffffffff168173ffffffffffffffffffffffffffffffffffffffff1614612f52578382826040517f64283d7b000000000000000000000000000000000000000000000000000000008152600401612f4993929190614695565b60405180910390fd5b50505050565b6001600881905550565b611a0a600e5410612fa8576040517f08c379a0000000000000000000000000000000000000000000000000000000008152600401612f9f906155b1565b60405180910390fd5b600e5f815480929190612fba906152ba565b91905055505f600e549050612fcf838261377c565b8160115f8381526020019081526020015f209081612fed9190615498565b50600160125f8381526020019081526020015f205f6101000a81548160ff0219169083151502179055508273ffffffffffffffffffffffffffffffffffffffff167f4cc0a9c4a99ddc700de1af2c9f916a7cbfdb71f14801ccff94061ad1ef8a80408260405161305d9190613ce8565b60405180910390a2505050565b5f60075f9054906101000a900473ffffffffffffffffffffffffffffffffffffffff1690508160075f6101000a81548173ffffffffffffffffffffffffffffffffffffffff021916908373ffffffffffffffffffffffffffffffffffffffff1602179055508173ffffffffffffffffffffffffffffffffffffffff168173ffffffffffffffffffffffffffffffffffffffff167f8be0079c531659141344cd1fd0a4f28419497f9722a3daafe3b4186f6b6457e060405160405180910390a35050565b5f73ffffffffffffffffffffffffffffffffffffffff168273ffffffffffffffffffffffffffffffffffffffff160361319d57816040517f5b08ba180000000000000000000000000000000000000000000000000000000081526004016131949190613c58565b60405180910390fd5b8060055f8573ffffffffffffffffffffffffffffffffffffffff1673ffffffffffffffffffffffffffffffffffffffff1681526020019081526020015f205f8473ffffffffffffffffffffffffffffffffffffffff1673ffffffffffffffffffffffffffffffffffffffff1681526020019081526020015f205f6101000a81548160ff0219169083151502179055508173ffffffffffffffffffffffffffffffffffffffff168373ffffffffffffffffffffffffffffffffffffffff167f17307eab39ab6107e8899845ad3d59bd9653f200f220920489ca2b5937696c31836040516132899190613aca565b60405180910390a3505050565b5f8373ffffffffffffffffffffffffffffffffffffffff163b111561343b578273ffffffffffffffffffffffffffffffffffffffff1663150b7a02868685856040518563ffffffff1660e01b81526004016132f49493929190615621565b6020604051808303815f875af192505050801561332f57506040513d601f19601f8201168201806040525081019061332c919061567f565b60015b6133b0573d805f811461335d576040519150601f19603f3d011682016040523d82523d5f602084013e613362565b606091505b505f8151036133a857836040517f64a0ae9200000000000000000000000000000000000000000000000000000000815260040161339f9190613c58565b60405180910390fd5b805181602001fd5b63150b7a0260e01b7bffffffffffffffffffffffffffffffffffffffffffffffffffffffff1916817bffffffffffffffffffffffffffffffffffffffffffffffffffffffff19161461343957836040517f64a0ae920000000000000000000000000000000000000000000000000000000081526004016134309190613c58565b60405180910390fd5b505b5050505050565b5f8261344e858461386f565b1490509392505050565b5f7f01ffc9a7000000000000000000000000000000000000000000000000000000007bffffffffffffffffffffffffffffffffffffffffffffffffffffffff1916827bffffffffffffffffffffffffffffffffffffffffffffffffffffffff1916149050919050565b5f60025f8381526020019081526020015f205f9054906101000a900473ffffffffffffffffffffffffffffffffffffffff169050919050565b808061353257505f73ffffffffffffffffffffffffffffffffffffffff168273ffffffffffffffffffffffffffffffffffffffff1614155b15613664575f61354184612ac7565b90505f73ffffffffffffffffffffffffffffffffffffffff168373ffffffffffffffffffffffffffffffffffffffff16141580156135ab57508273ffffffffffffffffffffffffffffffffffffffff168173ffffffffffffffffffffffffffffffffffffffff1614155b80156135be57506135bc8184612821565b155b1561360057826040517fa9fbf51f0000000000000000000000000000000000000000000000000000000081526004016135f79190613c58565b60405180910390fd5b811561366257838573ffffffffffffffffffffffffffffffffffffffff168273ffffffffffffffffffffffffffffffffffffffff167f8c5be1e5ebec7d5bd14f71427d1e84f3dd0314c0f7b2291e5b200ac8c7c3b92560405160405180910390a45b505b8360045f8581526020019081526020015f205f6101000a81548173ffffffffffffffffffffffffffffffffffffffff021916908373ffffffffffffffffffffffffffffffffffffffff16021790555050505050565b6136c48383836138c3565b613777575f73ffffffffffffffffffffffffffffffffffffffff168373ffffffffffffffffffffffffffffffffffffffff160361373857806040517f7e27328900000000000000000000000000000000000000000000000000000000815260040161372f9190613ce8565b60405180910390fd5b81816040517f177e802f00000000000000000000000000000000000000000000000000000000815260040161376e9291906156aa565b60405180910390fd5b505050565b5f73ffffffffffffffffffffffffffffffffffffffff168273ffffffffffffffffffffffffffffffffffffffff16036137ec575f6040517f64a0ae920000000000000000000000000000000000000000000000000000000081526004016137e39190613c58565b60405180910390fd5b5f6137f883835f612b9f565b90505f73ffffffffffffffffffffffffffffffffffffffff168173ffffffffffffffffffffffffffffffffffffffff161461386a575f6040517f73c6ac6e0000000000000000000000000000000000000000000000000000000081526004016138619190613c58565b60405180910390fd5b505050565b5f808290505f5b84518110156138b8576138a38286838151811061389657613895614cd3565b5b6020026020010151613983565b915080806138b0906152ba565b915050613876565b508091505092915050565b5f8073ffffffffffffffffffffffffffffffffffffffff168373ffffffffffffffffffffffffffffffffffffffff161415801561397a57508273ffffffffffffffffffffffffffffffffffffffff168473ffffffffffffffffffffffffffffffffffffffff16148061393b575061393a8484612821565b5b8061397957508273ffffffffffffffffffffffffffffffffffffffff1661396183612b4d565b73ffffffffffffffffffffffffffffffffffffffff16145b5b90509392505050565b5f81831061399a5761399582846139ad565b6139a5565b6139a483836139ad565b5b905092915050565b5f825f528160205260405f20905092915050565b5f604051905090565b5f80fd5b5f80fd5b5f819050919050565b6139e4816139d2565b81146139ee575f80fd5b50565b5f813590506139ff816139db565b92915050565b5f60208284031215613a1a57613a196139ca565b5b5f613a27848285016139f1565b91505092915050565b5f7fffffffff0000000000000000000000000000000000000000000000000000000082169050919050565b613a6481613a30565b8114613a6e575f80fd5b50565b5f81359050613a7f81613a5b565b92915050565b5f60208284031215613a9a57613a996139ca565b5b5f613aa784828501613a71565b91505092915050565b5f8115159050919050565b613ac481613ab0565b82525050565b5f602082019050613add5f830184613abb565b92915050565b7f4e487b71000000000000000000000000000000000000000000000000000000005f52602160045260245ffd5b60058110613b2157613b20613ae3565b5b50565b5f819050613b3182613b10565b919050565b5f613b4082613b24565b9050919050565b613b5081613b36565b82525050565b5f602082019050613b695f830184613b47565b92915050565b5f81519050919050565b5f82825260208201905092915050565b5f5b83811015613ba6578082015181840152602081019050613b8b565b5f8484015250505050565b5f601f19601f8301169050919050565b5f613bcb82613b6f565b613bd58185613b79565b9350613be5818560208601613b89565b613bee81613bb1565b840191505092915050565b5f6020820190508181035f830152613c118184613bc1565b905092915050565b5f73ffffffffffffffffffffffffffffffffffffffff82169050919050565b5f613c4282613c19565b9050919050565b613c5281613c38565b82525050565b5f602082019050613c6b5f830184613c49565b92915050565b613c7a81613c38565b8114613c84575f80fd5b50565b5f81359050613c9581613c71565b92915050565b5f8060408385031215613cb157613cb06139ca565b5b5f613cbe85828601613c87565b9250506020613ccf858286016139f1565b9150509250929050565b613ce2816139d2565b82525050565b5f602082019050613cfb5f830184613cd9565b92915050565b60058110613d0d575f80fd5b50565b5f81359050613d1e81613d01565b92915050565b5f60208284031215613d3957613d386139ca565b5b5f613d4684828501613d10565b91505092915050565b5f805f60608486031215613d6657613d656139ca565b5b5f613d7386828701613c87565b9350506020613d8486828701613c87565b9250506040613d95868287016139f1565b9150509250925092565b5f60ff82169050919050565b613db481613d9f565b8114613dbe575f80fd5b50565b5f81359050613dcf81613dab565b92915050565b5f60208284031215613dea57613de96139ca565b5b5f613df784828501613dc1565b91505092915050565b5f819050919050565b613e1281613e00565b82525050565b5f602082019050613e2b5f830184613e09565b92915050565b5f80fd5b5f80fd5b5f80fd5b5f8083601f840112613e5257613e51613e31565b5b8235905067ffffffffffffffff811115613e6f57613e6e613e35565b5b602083019150836020820283011115613e8b57613e8a613e39565b5b9250929050565b5f8083601f840112613ea757613ea6613e31565b5b8235905067ffffffffffffffff811115613ec457613ec3613e35565b5b602083019150836020820283011115613ee057613edf613e39565b5b9250929050565b5f805f8060408587031215613eff57613efe6139ca565b5b5f85013567ffffffffffffffff811115613f1c57613f1b6139ce565b5b613f2887828801613e3d565b9450945050602085013567ffffffffffffffff811115613f4b57613f4a6139ce565b5b613f5787828801613e92565b925092505092959194509250565b613f6e81613e00565b8114613f78575f80fd5b50565b5f81359050613f8981613f65565b92915050565b5f8060408385031215613fa557613fa46139ca565b5b5f613fb285828601613dc1565b9250506020613fc385828601613f7b565b9150509250929050565b5f8083601f840112613fe257613fe1613e31565b5b8235905067ffffffffffffffff811115613fff57613ffe613e35565b5b60208301915083602082028301111561401b5761401a613e39565b5b9250929050565b5f8060208385031215614038576140376139ca565b5b5f83013567ffffffffffffffff811115614055576140546139ce565b5b61406185828601613fcd565b92509250509250929050565b5f805f8060408587031215614085576140846139ca565b5b5f85013567ffffffffffffffff8111156140a2576140a16139ce565b5b6140ae87828801613e3d565b9450945050602085013567ffffffffffffffff8111156140d1576140d06139ce565b5b6140dd87828801613fcd565b925092505092959194509250565b5f60208284031215614100576140ff6139ca565b5b5f61410d84828501613c87565b91505092915050565b5f805f6040848603121561412d5761412c6139ca565b5b5f84013567ffffffffffffffff81111561414a576141496139ce565b5b61415686828701613e3d565b9350935050602061416986828701613c87565b9150509250925092565b61417c81613ab0565b8114614186575f80fd5b50565b5f8135905061419781614173565b92915050565b5f80604083850312156141b3576141b26139ca565b5b5f6141c085828601613c87565b92505060206141d185828601614189565b9150509250929050565b5f80604083850312156141f1576141f06139ca565b5b5f6141fe85828601613dc1565b925050602061420f85828601613c87565b9150509250929050565b5f80fd5b7f4e487b71000000000000000000000000000000000000000000000000000000005f52604160045260245ffd5b61425382613bb1565b810181811067ffffffffffffffff821117156142725761427161421d565b5b80604052505050565b5f6142846139c1565b9050614290828261424a565b919050565b5f67ffffffffffffffff8211156142af576142ae61421d565b5b6142b882613bb1565b9050602081019050919050565b828183375f83830152505050565b5f6142e56142e084614295565b61427b565b90508281526020810184848401111561430157614300614219565b5b61430c8482856142c5565b509392505050565b5f82601f83011261432857614327613e31565b5b81356143388482602086016142d3565b91505092915050565b5f805f8060808587031215614359576143586139ca565b5b5f61436687828801613c87565b945050602061437787828801613c87565b9350506040614388878288016139f1565b925050606085013567ffffffffffffffff8111156143a9576143a86139ce565b5b6143b587828801614314565b91505092959194509250565b5f805f604084860312156143d8576143d76139ca565b5b5f84013567ffffffffffffffff8111156143f5576143f46139ce565b5b61440186828701613e92565b9350935050602061441486828701613d10565b9150509250925092565b5f8060408385031215614434576144336139ca565b5b5f61444185828601613c87565b925050602061445285828601613c87565b9150509250929050565b5f67ffffffffffffffff8211156144765761447561421d565b5b61447f82613bb1565b9050602081019050919050565b5f61449e6144998461445c565b61427b565b9050828152602081018484840111156144ba576144b9614219565b5b6144c58482856142c5565b509392505050565b5f82601f8301126144e1576144e0613e31565b5b81356144f184826020860161448c565b91505092915050565b5f6020828403121561450f5761450e6139ca565b5b5f82013567ffffffffffffffff81111561452c5761452b6139ce565b5b614538848285016144cd565b91505092915050565b7f4e487b71000000000000000000000000000000000000000000000000000000005f52602260045260245ffd5b5f600282049050600182168061458557607f821691505b60208210810361459857614597614541565b5b50919050565b7f43616e6e6f742073657420706861736520746f20494e414354495645000000005f82015250565b5f6145d2601c83613b79565b91506145dd8261459e565b602082019050919050565b5f6020820190508181035f8301526145ff816145c6565b9050919050565b7f43616e6e6f74206d6f766520746f2070726576696f75732070686173650000005f82015250565b5f61463a601d83613b79565b915061464582614606565b602082019050919050565b5f6020820190508181035f8301526146678161462e565b9050919050565b5f6040820190506146815f830185613b47565b61468e6020830184613cd9565b9392505050565b5f6060820190506146a85f830186613c49565b6146b56020830185613cd9565b6146c26040830184613c49565b949350505050565b7f4d757374206d696e74206265747765656e203120616e642033204e46547300005f82015250565b5f6146fe601e83613b79565b9150614709826146ca565b602082019050919050565b5f6020820190508181035f83015261472b816146f2565b9050919050565b7f4d696e74696e67206e6f742061637469766500000000000000000000000000005f82015250565b5f614766601283613b79565b915061477182614732565b602082019050919050565b5f6020820190508181035f8301526147938161475a565b9050919050565b7f4e6f742077686974656c697374656420666f722063757272656e7420706861735f8201527f6500000000000000000000000000000000000000000000000000000000000000602082015250565b5f6147f4602183613b79565b91506147ff8261479a565b604082019050919050565b5f6020820190508181035f830152614821816147e8565b9050919050565b7f4e487b71000000000000000000000000000000000000000000000000000000005f52601160045260245ffd5b5f61485f826139d2565b915061486a836139d2565b925082820190508082111561488257614881614828565b5b92915050565b7f45786365656473206d6178206d696e747320616c6c6f77656420666f722074685f8201527f6973207068617365000000000000000000000000000000000000000000000000602082015250565b5f6148e2602883613b79565b91506148ed82614888565b604082019050919050565b5f6020820190508181035f83015261490f816148d6565b9050919050565b5f614920826139d2565b915061492b836139d2565b9250828202614939816139d2565b915082820484148315176149505761494f614828565b5b5092915050565b7f496e73756666696369656e7420524f4e2073656e7400000000000000000000005f82015250565b5f61498b601583613b79565b915061499682614957565b602082019050919050565b5f6020820190508181035f8301526149b88161497f565b9050919050565b5f81905092915050565b50565b5f6149d75f836149bf565b91506149e2826149c9565b5f82019050919050565b5f6149f6826149cc565b9150819050919050565b7f4661696c656420746f20666f727761726420524f4e00000000000000000000005f82015250565b5f614a34601583613b79565b9150614a3f82614a00565b602082019050919050565b5f6020820190508181035f830152614a6181614a28565b9050919050565b5f614a72826139d2565b9150614a7d836139d2565b9250828203905081811115614a9557614a94614828565b5b92915050565b7f526566756e64206661696c6564000000000000000000000000000000000000005f82015250565b5f614acf600d83613b79565b9150614ada82614a9b565b602082019050919050565b5f6020820190508181035f830152614afc81614ac3565b9050919050565b5f604082019050614b165f830185613c49565b614b236020830184613c49565b9392505050565b5f81519050614b38816139db565b92915050565b5f60208284031215614b5357614b526139ca565b5b5f614b6084828501614b2a565b91505092915050565b7f496e73756666696369656e74206e617469766520746f6b656e20616c6c6f77615f8201527f6e63650000000000000000000000000000000000000000000000000000000000602082015250565b5f614bc3602383613b79565b9150614bce82614b69565b604082019050919050565b5f6020820190508181035f830152614bf081614bb7565b9050919050565b5f606082019050614c0a5f830186613c49565b614c176020830185613c49565b614c246040830184613cd9565b949350505050565b5f81519050614c3a81614173565b92915050565b5f60208284031215614c5557614c546139ca565b5b5f614c6284828501614c2c565b91505092915050565b7f4e617469766520746f6b656e207472616e73666572206661696c6564000000005f82015250565b5f614c9f601c83613b79565b9150614caa82614c6b565b602082019050919050565b5f6020820190508181035f830152614ccc81614c93565b9050919050565b7f4e487b71000000000000000000000000000000000000000000000000000000005f52603260045260245ffd5b7f4e465420616c726561647920636c61696d6564000000000000000000000000005f82015250565b5f614d34601383613b79565b9150614d3f82614d00565b602082019050919050565b5f6020820190508181035f830152614d6181614d28565b9050919050565b7f546f6b656e206e6f7420617661696c61626c65000000000000000000000000005f82015250565b5f614d9c601383613b79565b9150614da782614d68565b602082019050919050565b5f6020820190508181035f830152614dc981614d90565b9050919050565b5f82825260208201905092915050565b5f80fd5b82818337505050565b5f614df88385614dd0565b93507f07ffffffffffffffffffffffffffffffffffffffffffffffffffffffffffffff831115614e2b57614e2a614de0565b5b602083029250614e3c838584614de4565b82840190509392505050565b5f6020820190508181035f830152614e61818486614ded565b90509392505050565b7f496e76616c6964207068617365000000000000000000000000000000000000005f82015250565b5f614e9e600d83613b79565b9150614ea982614e6a565b602082019050919050565b5f6020820190508181035f830152614ecb81614e92565b9050919050565b614edb81613d9f565b82525050565b5f604082019050614ef45f830185614ed2565b614f016020830184613e09565b9392505050565b7f576f756c6420657863656564206d6178696d756d20737570706c7900000000005f82015250565b5f614f3c601b83613b79565b9150614f4782614f08565b602082019050919050565b5f6020820190508181035f830152614f6981614f30565b9050919050565b5f80fd5b5f80fd5b5f80fd5b5f8083356001602003843603038112614f9857614f97614f70565b5b80840192508235915067ffffffffffffffff821115614fba57614fb9614f74565b5b602083019250600182023603831315614fd657614fd5614f78565b5b509250929050565b7f4c656e677468206d69736d6174636800000000000000000000000000000000005f82015250565b5f615012600f83613b79565b915061501d82614fde565b602082019050919050565b5f6020820190508181035f83015261503f81615006565b9050919050565b5f82905092915050565b5f819050815f5260205f209050919050565b5f6020601f8301049050919050565b5f82821b905092915050565b5f600883026150ac7fffffffffffffffffffffffffffffffffffffffffffffffffffffffffffffffff82615071565b6150b68683615071565b95508019841693508086168417925050509392505050565b5f819050919050565b5f6150f16150ec6150e7846139d2565b6150ce565b6139d2565b9050919050565b5f819050919050565b61510a836150d7565b61511e615116826150f8565b84845461507d565b825550505050565b5f90565b615132615126565b61513d818484615101565b505050565b5b81811015615160576151555f8261512a565b600181019050615143565b5050565b601f8211156151a55761517681615050565b61517f84615062565b8101602085101561518e578190505b6151a261519a85615062565b830182615142565b50505b505050565b5f82821c905092915050565b5f6151c55f19846008026151aa565b1980831691505092915050565b5f6151dd83836151b6565b9150826002028217905092915050565b6151f78383615046565b67ffffffffffffffff8111156152105761520f61421d565b5b61521a825461456e565b615225828285615164565b5f601f831160018114615252575f8415615240578287013590505b61524a85826151d2565b8655506152b1565b601f19841661526086615050565b5f5b8281101561528757848901358255600182019150602085019450602081019050615262565b868310156152a457848901356152a0601f8916826151b6565b8355505b6001600288020188555050505b50505050505050565b5f6152c4826139d2565b91507fffffffffffffffffffffffffffffffffffffffffffffffffffffffffffffffff82036152f6576152f5614828565b5b600182019050919050565b7f4d65726b6c6520726f6f74206e6f7420736574000000000000000000000000005f82015250565b5f615335601383613b79565b915061534082615301565b602082019050919050565b5f6020820190508181035f83015261536281615329565b9050919050565b5f8160601b9050919050565b5f61537f82615369565b9050919050565b5f61539082615375565b9050919050565b6153a86153a382613c38565b615386565b82525050565b5f6153b98284615397565b60148201915081905092915050565b7f4e6f742077686974656c697374656400000000000000000000000000000000005f82015250565b5f6153fc600f83613b79565b9150615407826153c8565b602082019050919050565b5f6020820190508181035f830152615429816153f0565b9050919050565b7f555249206e6f742073657420666f72207468697320746f6b656e0000000000005f82015250565b5f615464601a83613b79565b915061546f82615430565b602082019050919050565b5f6020820190508181035f83015261549181615458565b9050919050565b6154a182613b6f565b67ffffffffffffffff8111156154ba576154b961421d565b5b6154c4825461456e565b6154cf828285615164565b5f60209050601f831160018114615500575f84156154ee578287015190505b6154f885826151d2565b86555061555f565b601f19841661550e86615050565b5f5b8281101561553557848901518255600182019150602085019450602081019050615510565b86831015615552578489015161554e601f8916826151b6565b8355505b6001600288020188555050505b505050505050565b7f4d6178696d756d20737570706c792072656163686564000000000000000000005f82015250565b5f61559b601683613b79565b91506155a682615567565b602082019050919050565b5f6020820190508181035f8301526155c88161558f565b9050919050565b5f81519050919050565b5f82825260208201905092915050565b5f6155f3826155cf565b6155fd81856155d9565b935061560d818560208601613b89565b61561681613bb1565b840191505092915050565b5f6080820190506156345f830187613c49565b6156416020830186613c49565b61564e6040830185613cd9565b818103606083015261566081846155e9565b905095945050505050565b5f8151905061567981613a5b565b92915050565b5f60208284031215615694576156936139ca565b5b5f6156a18482850161566b565b91505092915050565b5f6040820190506156bd5f830185613c49565b6156ca6020830184613cd9565b939250505056fea26469706673582212201d3073eef9e2f4fdea4c3e3baf9f09871983ad4592fb12d90a336ad9af6865d464736f6c63430008140033","linkReferences":{}},"methodIdentifiers":{"MAX_MINTS_PER_PHASE()":"5e0a8a88","MAX_SUPPLY()":"32cb6b0c","PHASE_1_DURATION()":"6839c1bd","PHASE_2_DURATION()":"938ece89","PHASE_3_DURATION()":"5539aa86","approve(address,uint256)":"095ea7b3","availableTokens(uint256)":"ad64d068","balanceOf(address)":"70a08231","batchMint(string[])":"5bcdf207","batchSetTokenURI(uint256[],string[])":"6706467b","bulkMint(uint256[],address)":"9ad54696","canReveal()":"a9842610","checkAndReveal()":"5df1bfe5","currentPhase()":"055ad42e","getApproved(uint256)":"081812fc","getCurrentPhase()":"a3a40ea5","isApprovedForAll(address,address)":"e985e9c5","isWhitelisted(bytes32[],uint8)":"bbf87ad7","merkleRoots(uint8)":"41e5fb40","mintCountByPhase(uint8,address)":"a977bcd6","mintWithRon(uint256[],bytes32[])":"4c3e041b","mintWithRonAndNative(uint256[],bytes32[])":"46515c72","name()":"06fdde03","nativeTokenAddress()":"4d0047ee","nativeTokenAmount()":"3884a455","notRevealedURI()":"72250380","owner()":"8da5cb5b","ownerOf(uint256)":"6352211e","paymentRecipient()":"2b1eaf29","phaseStartTime()":"12f3d0c2","renounceOwnership()":"715018a6","reveal()":"a475b5dd","revealTimestamp()":"f62f3c11","revealed()":"51830227","ronAndNativePrice()":"0f3bfbdc","ronTokenPrice()":"fbf2f683","safeTransferFrom(address,address,uint256)":"42842e0e","safeTransferFrom(address,address,uint256,bytes)":"b88d4fde","setApprovalForAll(address,bool)":"a22cb465","setMerkleRoot(uint8,bytes32)":"54d77e0e","setNotRevealedURI(string)":"f2c4ce1e","setRevealTimestamp(uint256)":"018a2c37","startPhase(uint8)":"1c9ed381","supportsInterface(bytes4)":"01ffc9a7","symbol()":"95d89b41","tokenURI(uint256)":"c87b56dd","transferFrom(address,address,uint256)":"23b872dd","transferOwnership(address)":"f2fde38b"},"id":38}