{"abi":[{"type":"constructor","inputs":[{"name":"_nftContract","type":"address","internalType":"address"}],"stateMutability":"nonpayable"},{"type":"function","name":"MAX_MINTS_PER_PHASE","inputs":[],"outputs":[{"name":"","type":"uint256","internalType":"uint256"}],"stateMutability":"view"},{"type":"function","name":"addProxies","inputs":[{"name":"_proxies","type":"address[]","internalType":"address[]"}],"outputs":[],"stateMutability":"nonpayable"},{"type":"function","name":"addProxy","inputs":[{"name":"proxy","type":"address","internalType":"address"}],"outputs":[],"stateMutability":"nonpayable"},{"type":"function","name":"deployProxies","inputs":[{"name":"count","type":"uint256","internalType":"uint256"}],"outputs":[{"name":"","type":"address[]","internalType":"address[]"}],"stateMutability":"nonpayable"},{"type":"function","name":"findAvailableProxies","inputs":[{"name":"amount","type":"uint256","internalType":"uint256"}],"outputs":[{"name":"availableProxies","type":"address[]","internalType":"address[]"},{"name":"capacities","type":"uint8[]","internalType":"uint8[]"},{"name":"totalCapacity","type":"uint256","internalType":"uint256"}],"stateMutability":"view"},{"type":"function","name":"getActiveProxiesCount","inputs":[],"outputs":[{"name":"","type":"uint256","internalType":"uint256"}],"stateMutability":"view"},{"type":"function","name":"getProxyAddresses","inputs":[{"name":"offset","type":"uint256","internalType":"uint256"},{"name":"limit","type":"uint256","internalType":"uint256"}],"outputs":[{"name":"","type":"address[]","internalType":"address[]"}],"stateMutability":"view"},{"type":"function","name":"getProxyAvailableCapacity","inputs":[{"name":"proxy","type":"address","internalType":"address"}],"outputs":[{"name":"","type":"uint8","internalType":"uint8"}],"stateMutability":"view"},{"type":"function","name":"getProxyInfo","inputs":[{"name":"proxy","type":"address","internalType":"address"}],"outputs":[{"name":"totalMinted","type":"uint128","internalType":"uint128"},{"name":"lastPhase","type":"uint128","internalType":"uint128"},{"name":"currentPhaseCapacity","type":"uint8","internalType":"uint8"}],"stateMutability":"view"},{"type":"function","name":"mintWithRon","inputs":[{"name":"tokenIds","type":"uint256[]","internalType":"uint256[]"},{"name":"merkleProof","type":"bytes32[]","internalType":"bytes32[]"}],"outputs":[],"stateMutability":"payable"},{"type":"function","name":"mintWithRonAndNative","inputs":[{"name":"tokenIds","type":"uint256[]","internalType":"uint256[]"},{"name":"merkleProof","type":"bytes32[]","internalType":"bytes32[]"}],"outputs":[],"stateMutability":"payable"},{"type":"function","name":"nftContract","inputs":[],"outputs":[{"name":"","type":"address","internalType":"contract IKttyWorldNFT"}],"stateMutability":"view"},{"type":"function","name":"owner","inputs":[],"outputs":[{"name":"","type":"address","internalType":"address"}],"stateMutability":"view"},{"type":"function","name":"proxies","inputs":[{"name":"","type":"uint256","internalType":"uint256"}],"outputs":[{"name":"proxy","type":"address","internalType":"address"},{"name":"totalMinted","type":"uint128","internalType":"uint128"},{"name":"lastPhase","type":"uint128","internalType":"uint128"}],"stateMutability":"view"},{"type":"function","name":"proxyIndex","inputs":[{"name":"","type":"address","internalType":"address"}],"outputs":[{"name":"","type":"uint256","internalType":"uint256"}],"stateMutability":"view"},{"type":"function","name":"proxyMintsByPhase","inputs":[{"name":"","type":"address","internalType":"address"},{"name":"","type":"uint8","internalType":"uint8"}],"outputs":[{"name":"","type":"uint8","internalType":"uint8"}],"stateMutability":"view"},{"type":"function","name":"renounceOwnership","inputs":[],"outputs":[],"stateMutability":"nonpayable"},{"type":"function","name":"transferOwnership","inputs":[{"name":"newOwner","type":"address","internalType":"address"}],"outputs":[],"stateMutability":"nonpayable"},{"type":"event","name":"BatchMinted","inputs":[{"name":"user","type":"address","indexed":true,"internalType":"address"},{"name":"amount","type":"uint256","indexed":false,"internalType":"uint256"},{"name":"proxiesUsed","type":"address[]","indexed":false,"internalType":"address[]"}],"anonymous":false},{"type":"event","name":"OwnershipTransferred","inputs":[{"name":"previousOwner","type":"address","indexed":true,"internalType":"address"},{"name":"newOwner","type":"address","indexed":true,"internalType":"address"}],"anonymous":false},{"type":"event","name":"ProxiesAdded","inputs":[{"name":"proxies","type":"address[]","indexed":false,"internalType":"address[]"},{"name":"startIndex","type":"uint256","indexed":false,"internalType":"uint256"}],"anonymous":false},{"type":"event","name":"ProxyAdded","inputs":[{"name":"proxy","type":"address","indexed":true,"internalType":"address"},{"name":"index","type":"uint256","indexed":false,"internalType":"uint256"}],"anonymous":false},{"type":"error","name":"OwnableInvalidOwner","inputs":[{"name":"owner","type":"address","internalType":"address"}]},{"type":"error","name":"OwnableUnauthorizedAccount","inputs":[{"name":"account","type":"address","internalType":"address"}]},{"type":"error","name":"ReentrancyGuardReentrantCall","inputs":[]}],"bytecode":{"object":"0x60a0346100f257601f612aca38819003918201601f19168301916001600160401b038311848410176100f6578084926020946040528339810103126100f257516001600160a01b0390818116908190036100f25733156100da575f543360018060a01b03198216175f55604051923391167f8be0079c531659141344cd1fd0a4f28419497f9722a3daafe3b4186f6b6457e05f80a3600180556080526129bf908161010b823960805181818161046f0152818161072801528181610dd801528181610f3c015281816113230152818161147101526119bf0152f35b604051631e4fbdf760e01b81525f6004820152602490fd5b5f80fd5b634e487b7160e01b5f52604160045260245ffdfe6080604052600436101562000012575f80fd5b5f3560e01c806312be38a4146200015857806323b11d8d14620001525780633aebb682146200014c57806346515c7214620001465780634c3e041b14620001405780635d7f34bf146200013a5780635e0a8a8814620001345780635f499fe0146200012e5780636edd91b41462000128578063715018a6146200012257806378915702146200011c5780637c3f1db014620001165780638bd45c3c14620001105780638da5cb5b146200010a578063abd90f851462000104578063ce80371214620000fe578063d56d229d14620000f85763f2fde38b14620000f2575f80fd5b62000f6b565b62000f25565b62000d95565b62000d39565b62000cbd565b62000c85565b62000bdd565b62000b63565b62000af6565b62000a7b565b620008d7565b620008ba565b6200089b565b620006f3565b6200042d565b620002a5565b620001b3565b62000174565b6001600160a01b038116036200017057565b5f80fd5b3462000170576020366003190112620001705760043562000195816200015e565b60018060a01b03165f526003602052602060405f2054604051908152f35b34620001705760203660031901126200017057600435620001d4816200015e565b620001de62000ffc565b6001600160a01b038116620001f581151562001028565b7fb6a7032fe3eb4e07207181a752f893754c0a19f7188c7be0221a456cbec6ee5c6200029f6200028f620002885f9585875260036020526200023c60408820541562001065565b6200026c6040516200024e81620010bc565b6001600160a01b038316815288602082015288604082015262001122565b60025491829160018060a01b03165f52600360205260405f2090565b55620011c2565b6040519081529081906020820190565b0390a280f35b34620001705760203660031901126200017057600435620002c6816200015e565b6001600160a01b0381165f9081526003602052604090205480156200037057620002fe620002f86200030592620011c2565b62000cfa565b50620013d1565b6200036c6200033e6200033760406200032860208601516001600160801b031690565b9401516001600160801b031690565b9362001306565b6040519384938491939260ff9060409260608501966001600160801b03809216865216602085015216910152565b0390f35b60405162461bcd60e51b815260206004820152600f60248201526e141c9bde1e481b9bdd08199bdd5b99608a1b6044820152606490fd5b9181601f84011215620001705782359167ffffffffffffffff831162000170576020808501948460051b0101116200017057565b6040600319820112620001705767ffffffffffffffff916004358381116200017057826200040c91600401620003a7565b9390939260243591821162000170576200042991600401620003a7565b9091565b6200043836620003db565b9091926200044562001747565b6200045284151562001608565b6040516303cefef760e21b815260209290916001600160a01b03907f000000000000000000000000000000000000000000000000000000000000000082168585600481845afa9485156200064a575f95620006cf575b50604051633884a45560e01b8152948686600481855afa9586156200064a5787918a915f9862000686575b5081620004e860049493620004ef9362001656565b9862001656565b92620004fe88341015620017ac565b60405163268023f760e11b815292839182905afa80156200064a5787926200055a925f9262000650575b506040516323b872dd60e01b8152336004820152306024820152604481019190915294859283915f9183906064820190565b0393165af19283156200064a577f924f3e50c3cde95dd69cc210c01cb399c86a4da0efc19e6caab94710c6144e9596620005a9620005be958a95620005d8995f9262000616575b50506200182b565b620005b48462001459565b50949093620019a7565b90803411620005e7575b506040519182913395836200172e565b0390a2620005e560018055565b005b5f808080620005fb6200060f9534620011d1565b335af162000608620016ae565b506200176b565b5f620005c8565b6200063a9250803d1062000642575b620006318183620010ee565b81019062001811565b5f80620005a1565b503d62000625565b620012b0565b62000676919250843d86116200067e575b6200066d8183620010ee565b810190620017f9565b905f62000528565b503d62000661565b620004ef91985091620004e881620006ba86956004973d8811620006c7575b620006b18183620010ee565b81019062001646565b9a935093945050620004d3565b503d620006a5565b620006eb919550863d8811620006c757620006b18183620010ee565b935f620004a8565b620006fe36620003db565b906200070c93929362001747565b6200071984151562001608565b6040516302ad6a1760e11b81527f00000000000000000000000000000000000000000000000000000000000000006001600160a01b031660208083600481855afa9182156200064a576004935f9362000858575b5081906040519485809263fbf2f68360e01b82525afa9081156200064a577f924f3e50c3cde95dd69cc210c01cb399c86a4da0efc19e6caab94710c6144e9596620005d896620007f3958a935f9562000834575b5050620007cf838562001656565b96620007de883410156200166a565b620007e98462001459565b509490936200186f565b908034116200080c57506040519182913395836200172e565b5f808080620008206200060f9534620011d1565b335af16200082d620016ae565b50620016f1565b6200084f929550803d10620006c757620006b18183620010ee565b925f80620007c1565b829193506200088090823d841162000888575b620008778183620010ee565b810190620012ee565b92906200076d565b503d6200086b565b5f9103126200017057565b3462000170575f36600319011262000170576020600254604051908152f35b3462000170575f3660031901126200017057602060405160038152f35b346200017057602080600319360112620001705760043567ffffffffffffffff811162000170576200090e903690600401620003a7565b906200091962000ffc565b6002928354935f5b84811062000964575050506200095f7f2ae66b3cf75b7d2b67b5cf0ea650db56d6cdcdb727ae71723f995963e2d05f8993604051938493846200120b565b0390a1005b806200099c62000994620009886200098262000a37958a8a620011ee565b620011ff565b6001600160a01b031690565b151562001028565b620009d6620009ce620009b562000982848a8a620011ee565b6001600160a01b03165f90815260036020526040902090565b541562001065565b62000a19620009eb62000982838989620011ee565b62000a08620009f962001111565b6001600160a01b039092168252565b5f868201525f604082015262001122565b825462000a30620009b562000982848a8a620011ee565b55620011df565b62000921565b9081518082526020808093019301915f5b82811062000a5d575050505090565b83516001600160a01b03168552938101939281019260010162000a4e565b346200017057602080600319360112620001705762000a9c60043562001459565b9262000ab46040519360608552606085019062000a3d565b838103828501528180845192838152019301915f5b82811062000ade578580868960408301520390f35b835160ff168552938101939281019260010162000ac9565b3462000170575f8060031936011262000b545762000b1362000ffc565b80546001600160a01b03198116825581906001600160a01b03167f8be0079c531659141344cd1fd0a4f28419497f9722a3daafe3b4186f6b6457e08280a380f35b80fd5b60ff8116036200017057565b34620001705760403660031901126200017057602060ff62000bbd60043562000b8c816200015e565b6024359062000b9b8262000b57565b60018060a01b03165f526004845260405f209060ff165f5260205260405f2090565b5416604051908152f35b90602062000bda92818152019062000a3d565b90565b34620001705760403660031901126200017057600435602435810180821162000c7f5760025462000c0e9162001ff3565b81810381811162000c7f5762000c249062001278565b91805b82811062000c3f57604051806200036c868262000bc7565b62000c4a8162000cfa565b505482820391906001600160a01b031681831162000c7f5762000c7262000c799387620012bb565b52620011df565b62000c27565b620011ae565b34620001705760203660031901126200017057602062000cb260043562000cac816200015e565b62001306565b60ff60405191168152f35b3462000170575f36600319011262000170575f546040516001600160a01b039091168152602090f35b634e487b7160e01b5f52603260045260245ffd5b60025481101562000d335760025f5260011b7f405787fa12a823e0f2b7631cc41b3ba8828b3321ca811111fa75cd3aa3bb5ace01905f90565b62000ce6565b34620001705760203660031901126200017057600435600254811015620001705762000d6760609162000cfa565b506001808060a01b038254169101546040519182526001600160801b038116602083015260801c6040820152f35b34620001705760208060031936011262000170576004359062000db762000ffc565b62000dc28262001278565b906001600160a01b03906109839062002007905f7f00000000000000000000000000000000000000000000000000000000000000008516815b88811062000e59576200036c887f2ae66b3cf75b7d2b67b5cf0ea650db56d6cdcdb727ae71723f995963e2d05f8962000e4962000e3b8d600254620011d1565b6040519182918583620012d0565b0390a16040519182918262000bc7565b604090815187810181811067ffffffffffffffff82111762000f1f5762000e998583928b8b85393081526001600160a01b03909116602082015260400190565b039085f09182156200064a5762000f199289169062000ef89062000ed28362000ec3868f620012bb565b6001600160a01b039091169052565b8662000edd62001111565b6001600160a01b038516815291818a84015282015262001122565b6002546001600160a01b039091165f90815260036020526040902062000a30565b62000dfb565b620010a8565b3462000170575f36600319011262000170576040517f00000000000000000000000000000000000000000000000000000000000000006001600160a01b03168152602090f35b3462000170576020366003190112620001705760043562000f8c816200015e565b62000f9662000ffc565b6001600160a01b03908116801562000fe4575f80546001600160a01b03198116831782559092167f8be0079c531659141344cd1fd0a4f28419497f9722a3daafe3b4186f6b6457e08380a380f35b604051631e4fbdf760e01b81525f6004820152602490fd5b5f546001600160a01b031633036200101057565b60405163118cdaa760e01b8152336004820152602490fd5b156200103057565b60405162461bcd60e51b815260206004820152600d60248201526c496e76616c69642070726f787960981b6044820152606490fd5b156200106d57565b60405162461bcd60e51b8152602060048201526013602482015272141c9bde1e48185b1c9958591e481859191959606a1b6044820152606490fd5b634e487b7160e01b5f52604160045260245ffd5b6060810190811067ffffffffffffffff82111762000f1f57604052565b67ffffffffffffffff811162000f1f57604052565b90601f8019910116810190811067ffffffffffffffff82111762000f1f57604052565b604051906200112082620010bc565b565b6002546801000000000000000081101562000f1f5780600162001149920160025562000cfa565b9190916200119b57805182546001600160a01b039091166001600160a01b0319909116178255602081015160409091015160801b6001600160801b0319166001600160801b0390911617600190910155565b634e487b7160e01b5f525f60045260245ffd5b634e487b7160e01b5f52601160045260245ffd5b5f1981019190821162000c7f57565b9190820391821162000c7f57565b5f19811462000c7f5760010190565b919081101562000d335760051b0190565b3562000bda816200015e565b6040808252810183905293929160608501905f5b8181106200123257505060209150930152565b9091600190843562001244816200015e565b60a083901b839003168152602094850194019291016200121f565b67ffffffffffffffff811162000f1f5760051b60200190565b9062001284826200125f565b620012936040519182620010ee565b8281528092620012a6601f19916200125f565b0190602036910137565b6040513d5f823e3d90fd5b805182101562000d335760209160051b010190565b929190620012e960209160408652604086019062000a3d565b930152565b9081602091031262000170575162000bda8162000b57565b6040516302ad6a1760e11b81526001600160a01b036020826004817f000000000000000000000000000000000000000000000000000000000000000085165afa9081156200064a5760ff936200137b935f936200138f575b50165f52600460205260405f209060ff165f5260205260405f2090565b54166003036003811162000c7f5760ff1690565b620013ac91935060203d81116200088857620008778183620010ee565b915f6200135e565b906003820180921162000c7f57565b9190820180921162000c7f57565b90604051620013e081620010bc565b82546001600160a01b031681526001909201546001600160801b038116602084015260801c6040830152565b156200141457565b60405162461bcd60e51b815260206004820152601960248201527f4e6f7420656e6f7567682070726f7879206361706163697479000000000000006044820152606490fd5b6040516302ad6a1760e11b81525f91906020816004817f00000000000000000000000000000000000000000000000000000000000000006001600160a01b03165afa80156200064a57620015e5575b50620014c9620014c2620014bc83620013b4565b620011c2565b6003900490565b91620014d58362001278565b93620014e18462001278565b925f928395600254965b87811080620015db575b15620015c8576200150a620002fe8262000cfa565b805162001520906001600160a01b031662001306565b8a60ff8216928362001542575b505050506200153c90620011df565b620014eb565b6200158f9392620015758b989362000ec362001596989d6200156e62001589965160018060a01b031690565b92620012bb565b62001581888d620012bb565b9060ff169052565b620013c3565b92620011df565b9483831015620015aa575f808a816200152d565b5050939450620015c1909291925b8410156200140c565b8085528352565b5050939450620015c190929192620015b8565b50818610620014f5565b620016009060203d81116200088857620008778183620010ee565b505f620014a8565b156200161057565b60405162461bcd60e51b815260206004820152600e60248201526d125b9d985b1a5908185b5bdd5b9d60921b6044820152606490fd5b9081602091031262000170575190565b8181029291811591840414171562000c7f57565b156200167257565b60405162461bcd60e51b8152602060048201526014602482015273125b9cdd59999a58da595b9d081c185e5b595b9d60621b6044820152606490fd5b3d15620016ec573d9067ffffffffffffffff821162000f1f5760405191620016e1601f8201601f191660200184620010ee565b82523d5f602084013e565b606090565b15620016f957565b60405162461bcd60e51b815260206004820152600d60248201526c1499599d5b990819985a5b1959609a1b6044820152606490fd5b60409062000bda93928152816020820152019062000a3d565b60026001541462001759576002600155565b604051633ee5aeb560e01b8152600490fd5b156200177357565b60405162461bcd60e51b81526020600482015260116024820152701493d3881c99599d5b990819985a5b1959607a1b6044820152606490fd5b15620017b457565b60405162461bcd60e51b815260206004820152601860248201527f496e73756666696369656e7420524f4e207061796d656e7400000000000000006044820152606490fd5b9081602091031262000170575162000bda816200015e565b908160209103126200017057518015158103620001705790565b156200183357565b60405162461bcd60e51b815260206004820152601460248201527312d51516481d1c985b9cd9995c8819985a5b195960621b6044820152606490fd5b93979592909694915f94620018858a5162001278565b998694875b82518110806200199d575b156200198d5760ff8c81620018ab8486620012bb565b51168b820391821162000c7f578f928f92620018ce8f9391620018d49262001ff3565b60ff1690565b9081169283620018f5575b5050505050620018ef90620011df565b6200188a565b9a62000ec36200196c879f948f986200197f989f8f928f978f8f85620018ef9f916200195962001946938f9a620015899f88620019469d620019659c6200195f9a62001953620019468b8b620012bb565b516001600160a01b031690565b62001cbe565b620012bb565b62001f06565b8b620012bb565b916200197881620011df565b9d620012bb565b9890508c5f8b818f620018df565b5050505050509394505050508252565b508b891062001895565b6040516302ad6a1760e11b81529695602095929491937f00000000000000000000000000000000000000000000000000000000000000006001600160a01b03169392878a600481885afa998a156200064a575f9a62001c12575b506040516303cefef760e21b8152938885600481895afa9485156200064a575f9562001bee575b50604051633884a45560e01b815289816004818a5afa9687156200064a578a915f9862001bc5575b5060405163268023f760e11b81529190829060049082905afa998a156200064a575f9a62001ba1575b50505f9762001a89825162001278565b9b8995868e5b855182108062001b97575b1562001b85578c8e62001ad8620018ce62001acd62001ac562001abe888a620012bb565b5160ff1690565b948a620011d1565b60ff80951662001ff3565b9082821662001af8575b5050505062001af190620011df565b8e62001a8f565b90849f92918f9c8f8f62001b78979f8f998f8f908f8f9062001b709962001af19f9862001b5d988f9562000ec39b8f620019599862001b4c97620019469d62001b46620019468f8f620012bb565b62001d9a565b896200195f620019468686620012bb565b9162001b6981620011df565b9f620012bb565b1690620013c3565b9b90508e5f808f62001ae2565b50505050505050509450505050508252565b50848d1062001a9a565b62001bbc929a50803d106200067e576200066d8183620010ee565b975f8062001a79565b8291985062001be5906004933d8411620006c757620006b18183620010ee565b97909162001a50565b62001c0a919550893d8b11620006c757620006b18183620010ee565b935f62001a28565b62001c2e919a50883d8a116200088857620008778183620010ee565b985f62001a01565b60ff1660ff811462000c7f5760010190565b92919493946060840160608552825180915260808501906020809401905f5b8582821062001ca95750505050848103838601528381526001600160fb1b038411620001705760409360051b80928483013701019360018060a01b0316910152565b83518552938401939092019160010162001c67565b9094979193969760ff8098169662001cd68862001278565b975f5b8a81168281101562001d1e57908162001d1162001d088c8c62001d0162001d18978e620013c3565b91620011ee565b35918d620012bb565b5262001c36565b62001cd9565b50509399929850945095945062001d36925062001656565b936001600160a01b031690813b15620001705762001d70945f94604051968795869485936332c65afd60e01b855233926004860162001c48565b03925af180156200064a5762001d835750565b8062001d936200112092620010d9565b8062000890565b9791949095969992939860ff809a169762001db58962001278565b995f5b8c81168b81101562001df057908c62001d118362001de28e8e62001d018f9862001dea99620013c3565b3592620012bb565b62001db8565b5050955095509550969590975062001e0e8162001e15939a62001656565b9762001656565b60405163a9059cbb60e01b81526001600160a01b038381166004830152602482018390529192906020816044815f8a88165af180156200064a5762001ee3575b501692833b15620001705760405163022fc88b60e01b81526001600160a01b0391909116600482015260248101919091525f8160448183875af180156200064a5762001ecc575b50813b15620001705762001d70945f946040519687958694859363813ecff760e01b855233926004860162001c48565b8062001d9362001edc92620010d9565b5f62001e9c565b62001efe9060203d81116200064257620006318183620010ee565b505f62001e55565b919060018060a01b0383165f52600460205262001f318260405f209060ff165f5260205260405f2090565b60ff81549216938460ff8416019160ff831162000c7f5762001f7a9360ff62001f7394169060ff191617905560018060a01b03165f52600360205260405f2090565b54620011c2565b600162001f878262000cfa565b50016001600160801b0393848254160193841162000c7f5762001fcd600192620002f8620011209660ff94906001600160801b03166001600160801b0319825416179055565b509190910180546001600160801b03169190921660801b6001600160801b031916179055565b908082101562002001575090565b90509056fe60c0346100a957601f61098338819003918201601f19168301916001600160401b038311848410176100ad5780849260409485528339810103126100a957610052602061004b836100c1565b92016100c1565b9060805260a0526040516108ad90816100d6823960805181818160d6015281816102820152818161033f01528181610391015261058d015260a051818181608201528181610100015281816103bb01526105ca0152f35b5f80fd5b634e487b7160e01b5f52604160045260245ffd5b51906001600160a01b03821682036100a95756fe60406080815260049081361015610014575f80fd5b5f91823560e01c908163022fc88b1461055e578163150b7a02146104ec57816332c65afd1461036e57816335d99f351461032a5781635f3e849f1461024957838263813ecff7146100b557505063d56d229d1461006f575f80fd5b346100b157816003193601126100b157517f00000000000000000000000000000000000000000000000000000000000000006001600160a01b03168152602090f35b5080fd5b9150916100c136610669565b966001600160a01b039590939092916100fd337f00000000000000000000000000000000000000000000000000000000000000008916146106c8565b867f00000000000000000000000000000000000000000000000000000000000000001692833b15610223578451632328ae3960e11b81529189918391829161014a9190878c8c8601610770565b038134875af1801561023f57908891610227575b505b8181106101965750505050505047610176575080f35b81806101919481934791165af161018b6107e0565b5061081f565b5f8180f35b6101a18183886107bc565b35833b15610223578451632142170760e11b8152308782019081526001600160a01b038c166020820152604081019290925290899082908190606001038183885af1801561021957908991610201575b50506101fc9061079a565b610160565b61020a90610702565b61021557875f6101f1565b8780fd5b85513d8b823e3d90fd5b8880fd5b61023090610702565b61023b57865f61015e565b8680fd5b84513d8a823e3d90fd5b919050346103265760603660031901126103265760206102dd9261026b610608565b610273610622565b866001600160a01b036102a9337f00000000000000000000000000000000000000000000000000000000000000008316146106c8565b865163a9059cbb60e01b81526001600160a01b03909316948301948552604435602086015291968794859391849160400190565b0393165af190811561031d57506102f2575080f35b6103129060203d8111610316575b61030a818361072a565b81019061085f565b5080f35b503d610300565b513d84823e3d90fd5b8280fd5b5050346100b157816003193601126100b157517f00000000000000000000000000000000000000000000000000000000000000006001600160a01b03168152602090f35b83915061037a36610669565b909690946001600160a01b0394939092906103b8337f00000000000000000000000000000000000000000000000000000000000000008816146106c8565b857f00000000000000000000000000000000000000000000000000000000000000001691823b15610223578351634c3e041b60e01b81529989918b9182916104059190868b8b8601610770565b038134865af180156104e2576104cc575b8780995096975b81811061044d5750505050505047610433575080f35b81806104489481934791165af161018b6107e0565b818180f35b6104588183886107bc565b35833b15610223578451632142170760e11b8152308782019081526001600160a01b038c166020820152604081019290925290899082908190606001038183885af18015610219579089916104b8575b50506104b39061079a565b61041d565b6104c190610702565b61021557878b6104a8565b959690976104d990610702565b95948790610416565b83513d8a823e3d90fd5b90503461032657608036600319011261032657610507610608565b50610510610622565b506064359067ffffffffffffffff9081831161055a573660238401121561055a5782013590811161055657369101602401116100b15751630a85bd0160e11b8152602090f35b8380fd5b8480fd5b9190503461032657806003193601126103265760206102dd61057e610608565b6001600160a01b03946105b4337f00000000000000000000000000000000000000000000000000000000000000008816146106c8565b845163095ea7b360e01b81526001600160a01b037f00000000000000000000000000000000000000000000000000000000000000001691810191825260243560208301529586938492899291849160400190565b600435906001600160a01b038216820361061e57565b5f80fd5b602435906001600160a01b038216820361061e57565b9181601f8401121561061e5782359167ffffffffffffffff831161061e576020808501948460051b01011161061e57565b606060031982011261061e5767ffffffffffffffff9160043583811161061e578261069691600401610638565b9390939260243591821161061e576106b091600401610638565b90916044356001600160a01b038116810361061e5790565b156106cf57565b60405162461bcd60e51b815260206004820152600b60248201526a27b7363c9036b0b9ba32b960a91b6044820152606490fd5b67ffffffffffffffff811161071657604052565b634e487b7160e01b5f52604160045260245ffd5b90601f8019910116810190811067ffffffffffffffff82111761071657604052565b81835290916001600160fb1b03831161061e5760209260051b809284830137010190565b929061078990610797959360408652604086019161074c565b92602081850391015261074c565b90565b5f1981146107a85760010190565b634e487b7160e01b5f52601160045260245ffd5b91908110156107cc5760051b0190565b634e487b7160e01b5f52603260045260245ffd5b3d1561081a573d9067ffffffffffffffff8211610716576040519161080f601f8201601f19166020018461072a565b82523d5f602084013e565b606090565b1561082657565b60405162461bcd60e51b8152602060048201526011602482015270115512081c99599d5b990819985a5b1959607a1b6044820152606490fd5b9081602091031261061e5751801515810361061e579056fea2646970667358221220f321b6c61898a36af9a3148fb6458fedcf963b748496565df4550654d7383f1964736f6c63430008140033a26469706673582212208c0acf5fe2acc3b36341f21766df63a2ed8ca74400cdc6452611ae20839b31f064736f6c63430008140033","linkReferences":{}},"methodIdentifiers":{"MAX_MINTS_PER_PHASE()":"5e0a8a88","addProxies(address[])":"5f499fe0","addProxy(address)":"23b11d8d","deployProxies(uint256)":"ce803712","findAvailableProxies(uint256)":"6edd91b4","getActiveProxiesCount()":"5d7f34bf","getProxyAddresses(uint256,uint256)":"7c3f1db0","getProxyAvailableCapacity(address)":"8bd45c3c","getProxyInfo(address)":"3aebb682","mintWithRon(uint256[],bytes32[])":"4c3e041b","mintWithRonAndNative(uint256[],bytes32[])":"46515c72","nftContract()":"d56d229d","owner()":"8da5cb5b","proxies(uint256)":"abd90f85","proxyIndex(address)":"12be38a4","proxyMintsByPhase(address,uint8)":"78915702","renounceOwnership()":"715018a6","transferOwnership(address)":"f2fde38b"},"id":59}